:0400000030EF0AF0E3
:0800080025A003D014EF00F065
:1000100002D0ACEF0BF0120025A003D01CEF00F0D3
:1000200002D0B4EF0BF01200046ED8CF05F0E0CF91
:1000300006F00001E9CF0CF0EACF07F0E1CF08F0BD
:10004000E2CF09F0D9CF0AF0DACF0BF0F3CF12F0FC
:10005000F4CF13F0FACF14F0F5CF15F0F6CF16F079
:10006000F7CF17F000C00EF001C00FF002C010F083
:1000700003C011F0A0AA40EF00F0A1BA7EEF08F093
:100080000EC000F00FC001F010C002F011C003F06C
:100090000CC0E9FF07C0EAFF078E08C0E1FF09C0F6
:1000A000E2FF0AC0D9FF0BC0DAFF12C0F3FF13C092
:1000B000F4FF14C0FAFF15C0F5FF16C0F6FF17C015
:1000C000F7FF045006C0E0FF05C0D8FF1000F76A34
:1000D000DE0FF66E000EF7220900F5501200000345
:1000E00002FFFFFFFFFFFFFFFFFFFFFFFFFFF76ABA
:1000F000FE0FF66E000EF7220900F550120000FF09
:1001000002FFFFFFFFFFFFFFFFFFFFFFFFFFF76A99
:100110001E0FF66E010EF7220900F5501200400086
:100120000B00400000000000000000000000000084
:100130000000000000000000000000000000F76A5E
:100140004E0FF66E010EF7220900F5501200400026
:10015000000040000000000000000000000000005F
:100160000000000000000000000000000000F76A2E
:100170007E0FF66E010EF7220900F55012000902FB
:100180004300020100803209040000010202010064
:1001900005240010010424020205240600010524A0
:1001A000010001070581030B00FA09040100020A9E
:1001B000000000070502024000010705820240001E
:1001C0000100F76AD20FF66E010EF7220900F55012
:1001D00012000200F76AE40FF66E010EF722090022
:1001E000F550120012171B20FFFFFFFFF76AFC0FEC
:1001F000F66E010EF7220900F550120012011001EF
:100200000200004061043300000101020001F76AAE
:100210001E0FF66E020EF7220900F55012000403BD
:10022000090408034300430053001803530045002A
:100230005200490041004C002000440045004D00A0
:100240004F006D92699468A402D06894FCD78AEF3D
:1002500008F0400E0401016F040E036F180E026FC8
:10026000880E006F046B040E076F580E066F0001B6
:10027000120070A002D0EDDF7090689A93EF08F042
:100280006A6A689299EF08F00101119110BF11811B
:10029000109F1051100803E2000E016E1AD011A138
:1002A0000DD0036A1051000112DFFF0802E1000EB9
:1002B00001D0010E016E01010CD00BD0036A105168
:1002C000000115DFFF0802E1000E01D0010E016EF2
:1002D000010100011200010115511703F3CF01F0D4
:1002E000F4CF00F01803F350002616511703F35013
:1002F0000020026E00011200036A01010F51700F0D
:10030000E96E0F0E0320EA6EEF6A0FC110F10001D3
:10031000BBDF015228E00101166B0FC115F1186B0C
:10032000080E176F0001D7DF010101C0E9FF040EBD
:100330000224EA6EEF6A166B0FC115F1186B080EF6
:10034000176F0001C8DF02C011F101C010F1040EE7
:1003500001011027000E112310C1E9FF040E112521
:10036000EA6EEF6A00011200010E01010E6F0E51DC
:100370000F0807E30EC10FF10001BEDF01010E2BD4
:10038000F6D7000112000101086B076B250E066FFE
:10039000800E056FEA6A2C0EE96E010EE26E050E04
:1003A000E16E020E016EE6CFEEFF012EFCD72E6A43
:1003B0002F6A056BEA6A300EE96E010EE26E050ED9
:1003C000E16EE6CFEEFF056BEA6A310EE96E010ED3
:1003D000E26E050EE16EE6CFEEFF080E056FEA6AEB
:1003E000320EE96E010EE26E050EE16EE6CFEEFF13
:1003F0000001816B8091346A336A7C6B7D91826BE2
:100400001200296A286A0101046B045101080AE3F9
:10041000036A04512A0FE96E000E0320EA6EEF6AA8
:10042000042BF3D70001AFDF1B6A010E1C6E1A6AA2
:100430001200689612006A6A686A9F0E6B6E3D0E23
:10044000696E6E6A91DFDDDF160E706E68A602D0EF
:10045000F0DFFCD76D98FDDE030E226E9FEF08F0F3
:10046000698468986D82A5EF08F0689CABEF08F08E
:1004700009C123F01200236812000101076B285004
:10048000291033E007513F0830E31D50000A0001F6
:1004900005E0020A0AE0010A0FE014D027C003F0C9
:1004A000265065DEE8CF08F10DD027C003F02650B6
:1004B000AEDEE8CF08F106D027C003F0265096DE66
:1004C000E8CF08F1262AD8B4272A2850D8B429061C
:1004D000280601010751072B580FE96E040EEA6E3A
:1004E000D8B0EA2A08C1EFFFCAD72850291004E182
:1004F0000751400801E01A6A07C109F10001B8DF9D
:100500001200276A266A1D6A04011B51010A0001B4
:1005100007E0030A0BE0010A0DE0220A22E03AD0CC
:10052000296A120E286E030E1D6E36D0296A430EFC
:10053000286E32D0020E1D6E036A04011A511E0F7E
:10054000E96E000E0320EA6E276AEFCF26F027C07F
:1005500003F0265000015BDE036A286E03C029F019
:100560001BD0036A04011A51000134DE036A266EAF
:1005700003C027F0263C02D027520AE027C003F030
:100580002650F5DD036A286E03C029F005D002D09D
:1005900072DF11D070DF0FD004011F5308E1295220
:1005A00003E128501E5D03E2296A1EC428F0010EF3
:1005B0001A6E000162DF28EF04F00101065306E124
:1005C000040E226E0001D0DEE7D00101050E226E7E
:1005D000040E096F980E086F010E076F07510F0880
:1005E000D8A0DAD007C10FF1000186DE01010A6B45
:1005F000036A075100017BDDFF0865E0040E01017D
:100600000A6FD8900735036A000199DD0900F5CF1C
:1006100003F001010B6F03C00CF1166B07C115F15C
:10062000186B080E176F000156DE01C00EF1010EA7
:1006300001010124016E000E0220036E01C0E9FFDA
:10064000040E0324EA6E0BC1EFFF166B07C115F110
:10065000186B080E176F00013EDE01C00EF1020E8E
:1006600001010124016E000E0220036E01C0E9FFAA
:10067000040E0324EA6E09C1ECFFED5208C1EFFF3E
:10068000D8900735036A00015ADD0900F5CF03F061
:100690000101082703500923880E0D6F0CB10D814D
:1006A0000CB30D83166B07C115F1186B080E176F8D
:1006B000000111DE010101C0E9FF040E0224EA6E0F
:1006C0000DC1EFFF0001036A010107510001FFDCCA
:1006D000FF0847E001010A83166B07C115F1186B8B
:1006E000080E176F0001F7DD02C00FF101C00EF117
:1006F000040E01010E27000E0F23020E0E25016EBF
:10070000000E0F21036E01C0E9FF040E0324EA6E00
:1007100009C1ECFFED5208C1EFFFD8900735036A1D
:100720000001F5DC0900F5CF03F0010108270350B3
:100730000923166B07C115F1186B080E176F00011E
:10074000CADD02C00FF101C00EF1040E01010E2737
:10075000000E0F230EC1E9FF040E0F25EA6E400EB6
:10076000EF6E01010A51060802E10E0E0A6F036ADC
:1007700007510001ACDC010803E001010A89000116
:10078000036A01010751700FE96E0F0E0320EA6E34
:100790000AC1EFFF072B22D7000121EF04F004016B
:1007A0001951000A00010DE0010A15E0020A20E0DB
:1007B000060A2AE0030A31E00E0A31E0010A37E0B6
:1007C00046D01CC058F40401596B020E0101096F98
:1007D00000014EDE3DD004011A2D07D0010E1C167B
:1007E0000101096B000144DE02D0000144DE30D07B
:1007F00004011A2D06D01C820101096B000138DEAC
:1008000002D0000138DE24D0020E1A6E1AC424F081
:100810000101096B00012CDE1BD073D619D01BC05F
:1008200058F4010E0101096F000122DE11D004010C
:100830001A5101080AE31AC41BF01AC406F1000198
:10084000BCD60101096B000113DE000101D013DEEB
:10085000BDEF05F01BC006F104011951000A0001AB
:1008600005E00A0A0CE0010A2BE03FD00401586BB6
:10087000596B020E0101096F0001FADD37D0010149
:1008800006531BE0010E065D036A00019ADC016E4F
:1008900004011C5DD8A002D001010FD0036A1C51D5
:1008A0002A0FE96E000E0320EA6EEFCF58F4010E16
:1008B0000101096F0001DCDD02D00001DCDD16D092
:1008C000010106530FE0036A04011C512A0FE96E6F
:1008D000000E0320EA6E1AC4EFFF0101096B00014C
:1008E000C7DD02D00001C7DD01D0C5DDBDEF05F0D9
:1008F0000101079106BF0781069F07A119D0166B5A
:1009000006C115F1186B080E176F0001E4DC02C078
:1009100009F101C008F1040E01010827000E0923A6
:1009200008C1E9FF040E0925EA6E880EEF6E0FD0AC
:10093000166B06C115F1186B080E176F0001CBDCA2
:10094000010101C0E9FF040E0224EA6EEF6A000112
:100950002AEF05F00101079106BF0781069F07A155
:1009600019D0166B06C115F1186B080E176F000130
:10097000B2DC02C009F101C008F1040E0101082730
:10098000000E092308C1E9FF040E0925EA6E840E52
:10099000EF6E10D0166B06C115F1186B080E176FAD
:1009A000000199DC010101C0E9FF040E0224EA6E96
:1009B000840EEF6E000132EF05F00101079106BFD2
:1009C0000781069F07A119D0166B06C115F1186B98
:1009D000080E176F00017FDC02C00AF101C009F1A7
:1009E000040E01010927000E0A2309C1E9FF040EC4
:1009F0000A25EA6EEFCF08F110D0166B06C115F18B
:100A0000186B080E176F000166DC010101C0E9FFD9
:100A1000040E0224EA6EEFCF08F108AF02D008B549
:100A200002D0000E01D0010E016E00013EEF05F074
:100A30001CC410F129DC01522DE004011951010AF6
:100A4000000105E0020A0BE0030A11E022D01CC4F9
:100A500006F14ED70101096B00010ADD1BD01CC451
:100A600006F178D70101096B000102DD13D0040102
:100A7000586B596B1CC406F100019FD7015203E06B
:100A8000010E0401586F020E0101096F0001F0DC34
:100A900001D0F1DCBDEF05F0FE0E236E1200040163
:100AA0001C2D01D002D01C534EE11951000A000147
:100AB0000BE0010A0DE0210A1CE0010A1FE0030A15
:100AC00030E0010A35E03DD0010E826FE5DF3AD01B
:100AD000040EEA6E580EE96EE26A350EE16E080EFB
:100AE000016EE6CFEEFF012EFCD71EC409F1C0DC7B
:100AF00029D0020E826F8081CFDF24D0040EEA6EEF
:100B0000580EE96EE26A2C0EE16E070E016EE6CF1A
:100B1000EEFF012EFCD7070E0101096F0001A8DCD2
:100B200011D01AC481F00101096B0001A1DC0AD0C7
:100B30001AC434F01BC433F00101096B000198DCC6
:100B400001D099DC04010001BDEF05F01A6A04012F
:100B500018517F0B000A000107E0010A07E0030AB1
:100B600007E0230A07E008D01AD607D073D605D0CD
:100B70005FD703D094D701D07EDC1EEF08F00101CF
:100B8000166B07C115F1186B080E176F00016BEC9F
:100B900001F0010101C0E9FF040E0224EA6EEFCF6B
:100BA00009F10851020806E109AD02D0086B02D034
:100BB000010E086F085103081CE1840E096F166BC3
:100BC00007C115F1186B080E176F00016BEC01F0EF
:100BD00002C00DF101C00CF1040E01010C27000E42
:100BE0000D230CC1E9FF040E0D25EA6E840EEF6E95
:100BF00007D0082D03D0C80E096F02D0880E096FE8
:100C0000D8900735036A00019FEC00F00900F5CF8A
:100C100003F001010A6F03C00BF1166B07C115F158
:100C2000186B080E176F00016BEC01F001C00CF19E
:100C3000010E01010124016E000E0220036E01C0AD
:100C4000E9FF040E0324EA6E0AC1EFFF0BB109812C
:100C50000BB30983166B07C115F1186B080E176FDC
:100C600000016BEC01F0010101C0E9FF040E022458
:100C7000EA6E09C1EFFF00011200036A010114517D
:100C8000700FE96E0F0E0320EA6EEF521BE0166B39
:100C900014C115F1186B080E176F00016BEC01F011
:100CA00002C016F101C015F1040E01011527000E56
:100CB000162315C1E9FF040E1625EA6EEFCF17F1D2
:100CC00017AF02D0000E01D0010E016E000112001C
:100CD0000FC114F1D2DF0152D8B485D00101166BD7
:100CE0000FC115F1186B080E176F00016BEC01F0C6
:100CF00002C015F101C014F1040E01011427000E09
:100D00001523010E1425016E000E1521036E01C07E
:100D1000E9FF040E0324EA6E10C1EFFF125102082E
:100D200020E1166B0FC115F1186B080E176F00014B
:100D30006BEC01F002C015F101C014F1040E0101C9
:100D40001427000E152314C1E9FF040E1525EA6EC1
:100D5000EFCF13F113AD02D0126B02D0010E126F60
:100D60001AD01251040817E1166B0FC115F1186B58
:100D7000080E176F00016BEC01F0010101C0E9FFE3
:100D8000040E0224EA6EEFCF13F113AD03D0010E6F
:100D9000126F01D0126B122D03D0C80E136F02D048
:100DA000880E136F11B1138111B31383166B0FC12A
:100DB00015F1186B080E176F00016BEC01F002C003
:100DC00015F101C014F1040E01011427000E1523C2
:100DD00014C1E9FF040E1525EA6E13C1EFFF010EE1
:100DE000016E04D00001000E016E0101000112002D
:100DF0008251010A03E0030A15E028D0EA6A350EA1
:100E0000E96E040EE26E180EE16E080E016EE6CF7A
:100E1000EEFF012EFCD70101096B000138EC02F056
:100E2000826B15D0EA6A2C0EE96E040EE26E180E83
:100E3000E16E070E016EE6CFEEFF012EFCD7826B4E
:100E40000101096B000138EC02F001D0826B66EF02
:100E500007F00101166B07C115F1186B080E176F2B
:100E600000016BEC01F002C009F101C008F1010EB4
:100E700001010124016E000E0220036E01C0E9FF92
:100E8000040E0324EA6E036AEFCF01F003C002F000
:100E900000015AEF07F07D91020E0101076F086F04
:100EA00000016DDE12007D817F6B020E0101076F74
:100EB0000001CFD701C07EF07E5301E1ECDF6DEF82
:100EC00007F00101065304E1000192D706D00101A9
:100ED0000651020803E10001E6D7010100011200FA
:100EE00007C16EFF0101075303E0040E226E02D01A
:100EF000020E226E000182EF07F01B6A1A6A24C0FC
:100F000007F1EED7F8EF07F007C114F1B6DE015292
:100F100047E00101166B07C115F1186B080E176F3A
:100F200000016BEC01F002C010F101C00FF1040EE2
:100F300001010F27000E1023020E0F25016E000E77
:100F40001021036E01C0E9FF040E0324EA6EECCF0A
:100F50000EF1ED52EFCF0DF10EC1EAFF0DC1E9FF29
:100F600009C1E2FF08C1E1FF0BC102F00AC101F0B3
:100F7000015202E0022A02D0025206E0E6CFEEFF62
:100F8000012EFCD7022EFAD707C10FF10BC111F1C8
:100F90000AC110F10CC112F100019ADE015002D019
:100FA000000E016E12007C5310E0020E0101076F6B
:100FB000096B3D0E086F0B6B7CC00AF1020E0C6FC3
:100FC0000001A2DF015201E07C6B1200ECDFFFEFB9
:100FD00007F0010106530EE11A2C05D000013DEC8B
:100FE00002F006D001011A50020803E1000185D782
:100FF000010106D00651020803E10001E7D7010113
:101000000001120021300101046F043304331F0E6C
:10101000041721524EE1040100513C0B0101056F00
:10102000430E0401001701010551340825E10401B4
:101030000451800B01E0046B000188D56D98233CBE
:1010400007D00101076B030E086F000198DD12D075
:101050000101076B020E086F000191DD2350FE08AD
:1010600009E001010F6B116B23C010F1040E126F28
:1010700000012EDE1CD001010551040819E1066BA8
:1010800000011FDF0101076B020E086F000177DD11
:101090002350FE080CE0233C01D009D001010F6B66
:1010A000116B23C010F1010E126F000111DE01015E
:1010B00022D02150040812E12368066B000189DF69
:1010C000233C01D009D001010F6B116B23C010F13B
:1010D000020E126F0001FCDD0DD0010121B406D01B
:1010E00004C106F10001EDDE05D0010104C106F1E5
:1010F00000016FDF01010001B7EF08F0A19A225251
:1011000001E13ED068523CE068A404D069A402D05A
:1011100021EF01F06DA201D033D068AA04D069AAF2
:1011200002D039EF01F068A204D069A202D040EFEA
:1011300001F068A004D069A002D01BEF02F068A8FB
:1011400004D069A802D030EF02F068AC04D069ACDA
:1011500002D035EF02F00101036B68A60AD069A640
:1011600008D06CCF21F0000119EC02F04BD702D06F
:10117000010105D001010351032B0308EEE2000138
:1011800040EF00F0EA6AAF0EE96EEF500EE00F0E8E
:10119000016E006A002EFED7012EFBD78F0E006E67
:1011A000002EFED70000EF2EF2D712006D6A696A9A
:1011B000080E6F6E94503009946E226A196AF2BE5E
:1011C000198EF29E01EC02F019BEF28EE9EF08F0E2
:1011D000EDD70FEF09F0196AF2BE198EF29E01ECFD
:1011E00002F019BEF28E6D6A140E6F6E696A6D861A
:1011F000010E226EFFEF08F06DB601D0ECD7222C65
:101200000BD06DBA09D0686A696AA08AC00EF21262
:10121000110E696E020E226E10EF09F0D9D7ECD7CD
:1012200022500208FCE197EF0AF01B50016E98EF84
:101230000AF07DB101D0FDD77F517F2BA30FE96E5E
:10124000040EEA6ED8B0EA2AEFCFB1F07E517F5D8E
:1012500007E3196AF2BE198EF29E1DDE19BEF28EE8
:10126000B1C001F01200B251400806E2410EB25D79
:101270000A0F016E04D003D0300EB25D016E120071
:10128000B191F2BEB181F29E7C513E0802E23E0E67
:101290007C6F7C517C2B036A3D0FE96E000E0320AE
:1012A000EA6EB0C0EFFFF29EB1B1F28E5BEF09F0D3
:1012B000AFC0B0F0E5D7196AF2BE198EF29E020EE9
:1012C0000101146F0001D9DC19BEF28E015207E052
:1012D000196AF2BE198EF29E66DE19BEF28E78EFA2
:1012E00009F07C513E0801E2FCD7AEC0AFF0E0D778
:1012F0001200FDC001F0FCC000F0FC67012A0900EB
:10130000F5CFEEFF002EFBD7012EF9D7F86ADFEFFD
:1013100009F0F250036EF29EA68EA6840F01550EC0
:10132000A76EAA0EA76EA68200000350F21200015B
:101330001200D08CA69CF6501F0B006EE00EF61625
:101340000A00FCC001F0006608D0F650010F3F0B08
:1013500004E1A6880900DDDF0A00006607D0EECFB1
:10136000F5FF015204E00F00010603D000060B0058
:101370000C001F0EF6141F0AE6E1CBDF0166E3D76F
:10138000F86A1EEF0AF0AE51C00BF66FAFC0F7F06F
:10139000B0C0F8F0B1C0F9F0F651AE5DFA6FB451DB
:1013A000B5115CE0F8C0F8FFF7C0F7FFF6C0F6FF34
:1013B000EA6AB60EE96EFD6B400EFC6F9AD7400EDE
:1013C000D880FA55B55303E1B45D06E005E3400E5D
:1013D000D880FA55FB6F02D0B4C0FBF0036AFA5113
:1013E000B60F016E000E032201C0FCF003C0FDF039
:1013F00003C0EAFF01C0E9FFB3C0E2FFB2C0E1FFF2
:10140000FB51016E04E0E6CFEEFF012EFCD7D08C3D
:10141000F8C0F8FFF7C0F7FFF6C0F6FFA688A69C55
:1014200078DFF86AF8C0F8FFF7C0F7FFF6C0F6FFFC
:10143000EA6AB60EE96E400EFC6F7BD7FB51B2270D
:10144000000EB323400EF627000EF723F823F923EE
:10145000FA6BFB51B45F000EB55BA1D78EEF0BF0BA
:10146000F86AD09E078EEA6AE96A93829380770EC3
:10147000C86E280EC66EC78EC79CB886E10EAF6ECA
:10148000040EB06EA60EAC6E900EAB6EC150C00BCB
:101490000F09C16E070EB46E1E6A040E1F6E0C0E8D
:1014A000206E836B846B856B8681886B876B8A6B00
:1014B000896B958283A203D0010E836F2BD0F2CF6C
:1014C000AEF0F29EA96AA69CA69EA680A850AEBFCA
:1014D000F28EAD6FAD51CE081DE1010E836FF2505B
:1014E000006EF29EA96AA86AA69CA69EA6840F0119
:1014F000550EA76EAA0EA76EA682A6B2FED7A69418
:101500000050F212040E0001AE6FFA0EAF6F3ADE19
:10151000AE2FFBD7832D0FD1010E256E196AF2BEB7
:10152000198EF29EC3EC01F019BEF28E77D67DD6ED
:101530000152FDE09298898895908C807ADE015066
:101540003A08FCE176DE01C0AEF001C0B2F08BDEFD
:101550000138AE6FF00EAE176CDE01C0AFF001C007
:10156000B2F081DE0150AE25AB6F63DE01C0AEF09C
:1015700001C0B2F078DE0138AE6FF00EAE1759DE62
:1015800001C0AFF001C0B2F06EDE0150AE25896F30
:101590008A6B89378A3789378A3789378A37893713
:1015A0008A37F00E891745DE01C0AEF001C0B2F0F7
:1015B0005ADE01508927000E8A2389378A378937F6
:1015C0008A3789378A3789378A37F00E891731DEAB
:1015D00001C0AEF001C0B2F046DE01508927000E16
:1015E0008A2327DE26DE01C0ACF0846BAB51845D1C
:1015F00023E2036A84518B0F016E000E032201C0A7
:10160000AEF003C0AFF015DE01C0B0F001C0B2F023
:101610002ADE0138B06FF00EB0170BDE01C0B1F05A
:1016200001C0B2F020DE0150B025AFC0EAFFAEC06D
:10163000E9FFEF6E842BDAD795908C90AC5131088E
:1016400005E1550EAE6F4DDE86916BD0AC5134087E
:1016500008E1000E8C25886B876F110EAE6F41DE9E
:1016600060D0AC5130085DE1875302E188533EE021
:101670008751F00835E1885333E1846B856BD8904E
:10168000AB31845D2CE284518925016E000E8A21E4
:10169000036E0150AE6F036A85518B0FE96E000E29
:1016A0000320EA6EEFCFAFF0F250006EF29EAEC0B4
:1016B000A9FFAFC0A8FFA69CA69EA6840F01550E49
:1016C000A76EAA0EA76EA682A6B2FED7A694005059
:1016D000F21200018451842B020E8527D0D705D049
:1016E0008751300802E1885300E118D08A51170869
:1016F00008E303E189514F0804E3800EAE6FF1DD8A
:101700000DD0B16BB06B8AC0AFF089C0AEF0B36BD7
:101710008B0EB26FB56BABC0B4F035D6110EAE6F99
:10172000E0DD86B109D7640EAF6F2CDD9298899801
:0E17300095908C90FF00256AA8EF0BF0030047
:0200000400F00A
:02000000CE0030
:020000040030CA
:0E00000024CE3E1E0087A1000FC00FE00F406F
:00000001FF
;PIC18F4550
;CRC=E06E  CREATED="13-Nov-13 17:11"
