:0400000044EF0AF0CF
:0800080025A003D014EF00F065
:1000100002D040EF0CF0120025A003D01CEF00F03E
:1000200002D048EF0CF01200046ED8CF05F0E0CFFC
:1000300006F00001E9CF0CF0EACF07F0E1CF08F0BD
:10004000E2CF09F0D9CF0AF0DACF0BF0F3CF12F0FC
:10005000F4CF13F0FACF14F0F5CF15F0F6CF16F079
:10006000F7CF17F000C00EF001C00FF002C010F083
:1000700003C011F0A0AA40EF00F0A1BA7EEF08F093
:100080000EC000F00FC001F010C002F011C003F06C
:100090000CC0E9FF07C0EAFF078E08C0E1FF09C0F6
:1000A000E2FF0AC0D9FF0BC0DAFF12C0F3FF13C092
:1000B000F4FF14C0FAFF15C0F5FF16C0F6FF17C015
:1000C000F7FF045006C0E0FF05C0D8FF1000F76A34
:1000D000DE0FF66E000EF7220900F5501200000345
:1000E00002FFFFFFFFFFFFFFFFFFFFFFFFFFF76ABA
:1000F000FE0FF66E000EF7220900F550120000FF09
:1001000002FFFFFFFFFFFFFFFFFFFFFFFFFFF76A99
:100110001E0FF66E010EF7220900F5501200400086
:100120000B00400000000000000000000000000084
:100130000000000000000000000000000000F76A5E
:100140004E0FF66E010EF7220900F5501200400026
:10015000000040000000000000000000000000005F
:100160000000000000000000000000000000F76A2E
:100170007E0FF66E010EF7220900F55012000902FB
:100180004300020100803209040000010202010064
:1001900005240010010424020205240600010524A0
:1001A000010001070581030B00FA09040100020A9E
:1001B000000000070502024000010705820240001E
:1001C0000100F76AD20FF66E010EF7220900F55012
:1001D00012000200F76AE40FF66E010EF722090022
:1001E000F550120012171B20FFFFFFFFF76AFC0FEC
:1001F000F66E010EF7220900F550120012011001EF
:100200000200004061043300000101020001F76AAE
:100210001E0FF66E020EF7220900F55012000403BD
:10022000090408034300430053001803530045002A
:100230005200490041004C002000440045004D00A0
:100240004F006D92699468A402D06894FCD78AEF3D
:1002500008F0400E0401016F040E036F180E026FC8
:10026000880E006F046B040E076F580E066F0001B6
:10027000120070A002D0EDDF7090689A93EF08F042
:100280006A6A689299EF08F00101319130BF3181BB
:10029000309F3051100803E2000E016E1AD031A1D8
:1002A0000DD0036A3051000112DFFF0802E1000E99
:1002B00001D0010E016E01010CD00BD0036A305148
:1002C000000115DFFF0802E1000E01D0010E016EF2
:1002D000010100011200010135513703F3CF01F094
:1002E000F4CF00F03803F350002636513703F350B3
:1002F0000020026E00011200036A01012F51700FED
:10030000E96E0F0E0320EA6EEF6A2FC130F1000193
:10031000BBDF015228E00101366B2FC135F1386B8C
:10032000080E376F0001D7DF010101C0E9FF040E9D
:100330000224EA6EEF6A366B2FC135F1386B080E76
:10034000376F0001C8DF02C031F101C030F1040E87
:1003500001013027000E312330C1E9FF040E3125A1
:10036000EA6EEF6A00011200010E01012E6F2E519C
:100370000F0807E32EC12FF10001BEDF01012E2B74
:10038000F6D7000112000101286B276B250E266F9E
:10039000800E256FEA6A2C0EE96E010EE26E250EC4
:1003A000E16E020E016EE6CFEEFF012EFCD72E6A43
:1003B0002F6A256BEA6A300EE96E010EE26E250E99
:1003C000E16EE6CFEEFF256BEA6A310EE96E010EB3
:1003D000E26E250EE16EE6CFEEFF080E256FEA6AAB
:1003E000320EE96E010EE26E250EE16EE6CFEEFFF3
:1003F0000001816B8091346A336A7C6B7D91826BE2
:100400001200296A286A0101246B245101080AE3B9
:10041000036A24512A0FE96E000E0320EA6EEF6A88
:10042000242BF3D70001AFDF1B6A010E1C6E1A6A82
:100430001200689612006A6A686A9F0E6B6E3D0E23
:10044000696E6E6A91DFDDDF160E706E68A602D0EF
:10045000F0DFFCD76D98FDDE030E226E9FEF08F0F3
:10046000698468986D82A5EF08F0689CABEF08F08E
:1004700029C123F01200236812000101276B2850C4
:10048000291033E027513F0830E31D50000A0001D6
:1004900005E0020A0AE0010A0FE014D027C003F0C9
:1004A000265065DEE8CF28F10DD027C003F0265096
:1004B000AEDEE8CF28F106D027C003F0265096DE46
:1004C000E8CF28F1262AD8B4272A2850D8B42906FC
:1004D000280601012751272B580FE96E040EEA6EFA
:1004E000D8B0EA2A28C1EFFFCAD72850291004E162
:1004F0002751400801E01A6A27C129F10001B8DF3D
:100500001200276A266A1D6A04011B51010A0001B4
:1005100007E0030A0BE0010A0DE0220A22E03AD0CC
:10052000296A120E286E030E1D6E36D0296A430EFC
:10053000286E32D0020E1D6E036A04011A511E0F7E
:10054000E96E000E0320EA6E276AEFCF26F027C07F
:1005500003F0265000015BDE036A286E03C029F019
:100560001BD0036A04011A51000134DE036A266EAF
:1005700003C027F0263C02D027520AE027C003F030
:100580002650F5DD036A286E03C029F005D002D09D
:1005900072DF11D070DF0FD004011F5308E1295220
:1005A00003E128501E5D03E2296A1EC428F0010EF3
:1005B0001A6E000162DF28EF04F00101265306E104
:1005C000040E226E0001D0DEE7D00101050E226E7E
:1005D000040E296F980E286F010E276F27510F0800
:1005E000D8A0DAD027C12FF1000186DE01012A6BE5
:1005F000036A275100017BDDFF0865E0040E01015D
:100600002A6FD8902735036A000199DD0900F5CFDC
:1006100003F001012B6F03C02CF1366B27C135F1BC
:10062000386B080E376F000156DE01C02EF1010E47
:1006300001010124016E000E0220036E01C0E9FFDA
:10064000040E0324EA6E2BC1EFFF366B27C135F190
:10065000386B080E376F00013EDE01C02EF1020E2E
:1006600001010124016E000E0220036E01C0E9FFAA
:10067000040E0324EA6E29C1ECFFED5228C1EFFFFE
:10068000D8902735036A00015ADD0900F5CF03F041
:100690000101282703502923880E2D6F2CB12D81AD
:1006A0002CB32D83366B27C135F1386B080E376FAD
:1006B000000111DE010101C0E9FF040E0224EA6E0F
:1006C0002DC1EFFF0001036A010127510001FFDC8A
:1006D000FF0847E001012A83366B27C135F1386BEB
:1006E000080E376F0001F7DD02C02FF101C02EF1B7
:1006F000040E01012E27000E2F23020E2E25016E5F
:10070000000E2F21036E01C0E9FF040E0324EA6EE0
:1007100029C1ECFFED5228C1EFFFD8902735036ABD
:100720000001F5DC0900F5CF03F001012827035093
:100730002923366B27C135F1386B080E376F00015E
:10074000CADD02C02FF101C02EF1040E01012E27D7
:10075000000E2F232EC1E9FF040E2F25EA6E400E56
:10076000EF6E01012A51060802E10E0E2A6F036A9C
:1007700027510001ACDC010803E001012A890001D6
:10078000036A01012751700FE96E0F0E0320EA6E14
:100790002AC1EFFF272B22D7000121EF04F004012B
:1007A0001951000A00010DE0010A15E0020A20E0DB
:1007B000060A2AE0030A31E00E0A31E0010A37E0B6
:1007C00046D01CC058F40401596B020E0101296F78
:1007D00000014EDE3DD004011A2D07D0010E1C167B
:1007E0000101296B000144DE02D0000144DE30D05B
:1007F00004011A2D06D01C820101296B000138DE8C
:1008000002D0000138DE24D0020E1A6E1AC424F081
:100810000101296B00012CDE1BD073D619D01BC03F
:1008200058F4010E0101296F000122DE11D00401EC
:100830001A5101080AE31AC41BF01AC426F1000178
:10084000BCD60101296B000113DE000101D013DECB
:10085000BDEF05F01BC026F104011951000A00018B
:1008600005E00A0A0CE0010A2BE03FD00401586BB6
:10087000596B020E0101296F0001FADD37D0010129
:1008800026531BE0010E265D036A00019ADC016E0F
:1008900004011C5DD8A002D001010FD0036A1C51D5
:1008A0002A0FE96E000E0320EA6EEFCF58F4010E16
:1008B0000101296F0001DCDD02D00001DCDD16D072
:1008C000010126530FE0036A04011C512A0FE96E4F
:1008D000000E0320EA6E1AC4EFFF0101296B00012C
:1008E000C7DD02D00001C7DD01D0C5DDBDEF05F0D9
:1008F0000101279126BF2781269F27A119D0366B9A
:1009000026C135F1386B080E376F0001E4DC02C0F8
:1009100029F101C028F1040E01012827000E292326
:1009200028C1E9FF040E2925EA6E880EEF6E0FD06C
:10093000366B26C135F1386B080E376F0001CBDC02
:10094000010101C0E9FF040E0224EA6EEF6A000112
:100950002AEF05F00101279126BF2781269F27A1B5
:1009600019D0366B26C135F1386B080E376F000190
:10097000B2DC02C029F101C028F1040E01012827D0
:10098000000E292328C1E9FF040E2925EA6E840EF2
:10099000EF6E10D0366B26C135F1386B080E376F0D
:1009A000000199DC010101C0E9FF040E0224EA6E96
:1009B000840EEF6E000132EF05F00101279126BF92
:1009C0002781269F27A119D0366B26C135F1386BB8
:1009D000080E376F00017FDC02C02AF101C029F147
:1009E000040E01012927000E2A2329C1E9FF040E64
:1009F0002A25EA6EEFCF28F110D0366B26C135F1EB
:100A0000386B080E376F000166DC010101C0E9FF99
:100A1000040E0224EA6EEFCF28F128AF02D028B5E9
:100A200002D0000E01D0010E016E00013EEF05F074
:100A30001CC430F129DC01522DE004011951010AD6
:100A4000000105E0020A0BE0030A11E022D01CC4F9
:100A500026F14ED70101296B00010ADD1BD01CC411
:100A600026F178D70101296B000102DD13D00401C2
:100A7000586B596B1CC426F100019FD7015203E04B
:100A8000010E0401586F020E0101296F0001F0DC14
:100A900001D0F1DCBDEF05F0FE0E236E1200040163
:100AA0001C2D01D002D01C534EE11951000A000147
:100AB0000BE0010A0DE0210A1CE0010A1FE0030A15
:100AC00030E0010A35E03DD0010E826FE5DF3AD01B
:100AD000040EEA6E580EE96EE26A350EE16E080EFB
:100AE000016EE6CFEEFF012EFCD71EC429F1C0DC5B
:100AF00029D0020E826F8081CFDF24D0040EEA6EEF
:100B0000580EE96EE26A2C0EE16E070E016EE6CF1A
:100B1000EEFF012EFCD7070E0101296F0001A8DCB2
:100B200011D01AC481F00101296B0001A1DC0AD0A7
:100B30001AC434F01BC433F00101296B000198DCA6
:100B400001D099DC04010001BDEF05F01A6A04012F
:100B500018517F0B000A000107E0010A07E0030AB1
:100B600007E0230A07E008D01AD607D073D605D0CD
:100B70005FD703D094D701D07EDC1EEF08F00101CF
:100B8000366B27C135F1386B080E376F00016BECFF
:100B900001F0010101C0E9FF040E0224EA6EEFCF6B
:100BA00029F12851020806E129AD02D0286B02D0B4
:100BB000010E286F285103081CE1840E296F366B43
:100BC00027C135F1386B080E376F00016BEC01F06F
:100BD00002C02DF101C02CF1040E01012C27000EE2
:100BE0002D232CC1E9FF040E2D25EA6E840EEF6E35
:100BF00007D0282D03D0C80E296F02D0880E296F88
:100C0000D8902735036A00019FEC00F00900F5CF6A
:100C100003F001012A6F03C02BF1366B27C135F1B8
:100C2000386B080E376F00016BEC01F001C02CF13E
:100C3000010E01010124016E000E0220036E01C0AD
:100C4000E9FF040E0324EA6E2AC1EFFF2BB12981CC
:100C50002BB32983366B27C135F1386B080E376FFC
:100C600000016BEC01F0010101C0E9FF040E022458
:100C7000EA6E29C1EFFF00011200036A010134513D
:100C8000700FE96E0F0E0320EA6EEF521BE0366B19
:100C900034C135F1386B080E376F00016BEC01F091
:100CA00002C036F101C035F1040E01013527000EF6
:100CB000362335C1E9FF040E3625EA6EEFCF37F152
:100CC00037AF02D0000E01D0010E016E00011200FC
:100CD0002FC134F1D2DF0152D8B485D00101366B77
:100CE0002FC135F1386B080E376F00016BEC01F046
:100CF00002C035F101C034F1040E01013427000EA9
:100D00003523010E3425016E000E3521036E01C01E
:100D1000E9FF040E0324EA6E30C1EFFF32510208EE
:100D200020E1366B2FC135F1386B080E376F0001AB
:100D30006BEC01F002C035F101C034F1040E010189
:100D40003427000E352334C1E9FF040E3525EA6E41
:100D5000EFCF33F133AD02D0326B02D0010E326FE0
:100D60001AD03251040817E1366B2FC135F1386BB8
:100D7000080E376F00016BEC01F0010101C0E9FFC3
:100D8000040E0224EA6EEFCF33F133AD03D0010E2F
:100D9000326F01D0326B322D03D0C80E336F02D0C8
:100DA000880E336F31B1338131B33383366B2FC14A
:100DB00035F1386B080E376F00016BEC01F002C0A3
:100DC00035F101C034F1040E01013427000E352342
:100DD00034C1E9FF040E3525EA6E33C1EFFF010E81
:100DE000016E04D00001000E016E0101000112002D
:100DF0008251010A03E0030A15E028D0EA6A350EA1
:100E0000E96E040EE26E180EE16E080E016EE6CF7A
:100E1000EEFF012EFCD70101296B000138EC02F036
:100E2000826B15D0EA6A2C0EE96E040EE26E180E83
:100E3000E16E070E016EE6CFEEFF012EFCD7826B4E
:100E40000101296B000138EC02F001D0826B66EFE2
:100E500007F00101366B27C135F1386B080E376F8B
:100E600000016BEC01F002C029F101C028F1010E74
:100E700001010124016E000E0220036E01C0E9FF92
:100E8000040E0324EA6E036AEFCF01F003C002F000
:100E900000015AEF07F07D91020E0101276F286FC4
:100EA00000016DDE12007D817F6B020E0101276F54
:100EB0000001CFD701C07EF07E5301E1ECDF6DEF82
:100EC00007F00101265304E1000192D706D0010189
:100ED0002651020803E10001E6D7010100011200DA
:100EE00027C16EFF0101275303E0040E226E02D0DA
:100EF000020E226E000182EF07F01B6A1A6A24C0FC
:100F000027F1EED7F8EF07F027C134F1B6DE015232
:100F100047E00101366B27C135F1386B080E376F9A
:100F200000016BEC01F002C030F101C02FF1040EA2
:100F300001012F27000E3023020E2F25016E000E17
:100F40003021036E01C0E9FF040E0324EA6EECCFEA
:100F50002EF1ED52EFCF2DF12EC1EAFF2DC1E9FFA9
:100F600029C1E2FF28C1E1FF2BC102F02AC101F033
:100F7000015202E0022A02D0025206E0E6CFEEFF62
:100F8000012EFCD7022EFAD727C12FF12BC131F148
:100F90002AC130F12CC132F100019ADE015002D099
:100FA000000E016E12007C5310E0020E0101276F4B
:100FB000296B3D0E286F2B6B7CC02AF1020E2C6F23
:100FC0000001A2DF015201E07C6B1200ECDFFFEFB9
:100FD00007F0010126530EE11A2C05D000013DEC6B
:100FE00002F006D001011A50020803E1000185D782
:100FF000010106D02651020803E10001E7D70101F3
:101000000001120021300101246F243324331F0E0C
:10101000241721524EE1040100513C0B0101256FC0
:10102000430E0401001701012551340825E1040194
:101030000451800B01E0046B000188D56D98233CBE
:1010400007D00101276B030E286F000198DD12D035
:101050000101276B020E286F000191DD2350FE086D
:1010600009E001012F6B316B23C030F1040E326FA8
:1010700000012EDE1CD001012551040819E1266B68
:1010800000011FDF0101276B020E286F000177DDD1
:101090002350FE080CE0233C01D009D001012F6B46
:1010A000316B23C030F1010E326F000111DE0101FE
:1010B00022D02150040812E12368266B000189DF49
:1010C000233C01D009D001012F6B316B23C030F1DB
:1010D000020E326F0001FCDD0DD0010121B406D0FB
:1010E00024C126F10001EDDE05D0010124C126F165
:1010F00000016FDF01010001B7EF08F0A19A225251
:1011000001E13ED068523CE068A404D069A402D05A
:1011100021EF01F06DA201D033D068AA04D069AAF2
:1011200002D039EF01F068A204D069A202D040EFEA
:1011300001F068A004D069A002D01BEF02F068A8FB
:1011400004D069A802D030EF02F068AC04D069ACDA
:1011500002D035EF02F00101236B68A60AD069A620
:1011600008D06CCF21F0000119EC02F04BD702D06F
:10117000010105D001012351232B0308EEE20001F8
:1011800040EF00F0EA6ACF0EE96EEF500EE00F0E6E
:10119000016E006A002EFED7012EFBD78F0E006E67
:1011A000002EFED70000EF2EF2D712006D6A696A9A
:1011B000080E6F6E94503009946E226A196AF2BE5E
:1011C000198EF29E01EC02F019BEF28EE9EF08F0E2
:1011D000EDD70FEF09F0196AF2BE198EF29E01ECFD
:1011E00002F019BEF28E6D6A140E6F6E696A6D861A
:1011F000010E226EFFEF08F06DB601D0ECD7222C65
:101200000BD06DBA09D0686A696AA08AC00EF21262
:10121000110E696E020E226E10EF09F0D9D7ECD7CD
:1012200022500208FCE1A2EF0AF01B50016EA3EF6E
:101230000AF07DB101D0FDD77F517F2BA30FE96E5E
:10124000040EEA6ED8B0EA2AEFCFD0F07E517F5D6F
:1012500007E3196AF2BE198EF29E1DDE19BEF28EE8
:10126000D0C001F01200D251400806E2410ED25D1A
:101270000A0F016E04D003D0300ED25D016E120051
:10128000D191F2BED181F29E7C513E0802E23E0E27
:101290007C6F7C517C2B036A3D0FE96E000E0320AE
:1012A000EA6ED0C0EFFFF29ED1B1F28E5BEF09F093
:1012B000CFC0D0F0E5D7196AF2BE198EF29E020EA9
:1012C0000101346F0001D9DC19BEF28E015207E032
:1012D000196AF2BE198EF29E66DE19BEF28E78EFA2
:1012E00009F07C513E0801E2FCD7CEC0CFF0E0D738
:1012F00012001DC101F01CC100F00066012A0900A6
:10130000F5CFEEFF002EFBD7012EF9D7F86AE7EFF5
:1013100009F0F250036EF29EA68EA6840F01550EC0
:10132000A76EAA0EA76EA68200000350F21200015B
:101330001200D08CA69CF6501F0B006EE00EF61625
:101340000A001CC101F0006608D0F650010F3F0BE7
:1013500004E1A6880900DDDF0A00006607D0EECFB1
:10136000F5FF015204E00F00010603D000060B0058
:101370000C001F0EF6141F0AE6E1CBDF0166E3D76F
:10138000F86A2EEF0AF0CE51C00B0101166FCFC0E4
:1013900017F1D0C018F10001D1C019F101011651A7
:1013A0000001CE5D01011A6F0001D451D5116AE030
:1013B00018C1F8FF17C1F7FF16C1F6FFEA6AD60E8B
:1013C000E96E01011D6B400E1C6F000192D7400EAB
:1013D000D88001011A550001D55303E1D45D08E01E
:1013E00007E3400ED88001011A551B6F04D000019D
:1013F000D4C01BF10101036A1A51D60F016E000E11
:10140000032201C01CF103C01DF103C0EAFF01C0AB
:10141000E9FFD3C0E2FFD2C0E1FF1B51016E04E03F
:10142000E6CFEEFF012EFCD7D08C18C1F8FF17C114
:10143000F7FF16C1F6FFA688A69C00016ADFF86ACE
:1014400018C1F8FF17C1F7FF16C1F6FFEA6AD60EFA
:10145000E96E400E01011C6F00016BD701011B51A9
:101460000001D227000ED323400E01011627000EE3
:101470001723182319231A6B1B510001D45F000E88
:10148000D55B93D7F3EF0BF0F86AD09E078EEA6A2C
:10149000E96A93829380770EC86E280EC66EC78E57
:1014A000C79CC150C00B0F09C16E070EB46E1E6AF7
:1014B000040E1F6E0C0E206E836B846B856B868111
:1014C000886B876B8A6B896B958283A203D0010E30
:1014D000836F2BD0F2CFCEF0F29EA96AA69CA69E77
:1014E000A680A850CEBFF28ECD6FCD51CE081DE1A3
:1014F000010E836FF250006EF29EA96AA86AA69C44
:10150000A69EA6840F01550EA76EAA0EA76EA682F0
:10151000A6B2FED7A6940050F212040E0001CE6FC0
:10152000FA0ECF6F2FDECE2FFBD7832D69D1010EA0
:10153000256E196AF2BE198EF29EC3EC01F019BE37
:10154000F28E6CD672D60152FDE092988988959001
:101550008C806FDE01503A08FCE1846B84510508F1
:1015600013E3036A8451AB0F016E000E032201C026
:10157000CEF003C0CFF05DDECFC0EAFFCEC0E9FF02
:1015800001C0EFFF842BEAD7ABC0D2F06CDE01388C
:10159000CE6FF00ECE17ACC0D2F065DE0150CE2576
:1015A000CB6FADC0D2F05FDE8A6B01C089F08937A6
:1015B0008A3789378A3789378A3789378A37F00EE9
:1015C0008917AEC0D2F04FDE01508927000E8A2362
:1015D00089378A3789378A3789378A3789378A3707
:1015E000F00E8917AFC0D2F03EDE01508927000E01
:1015F0008A2389378A3789378A3789378A378937FB
:101600008A37F00E8917B0C0D2F02DDE015089273D
:10161000000E8A230EDE0DDE01C0CCF0846BD89064
:10162000CB35845D13E2036A8451AB0F016E000E6B
:10163000032201C0CEF003C0CFF0FBDDCFC0EAFF34
:10164000CEC0E9FF01C0EFFF842BE9D7846B856B27
:10165000D890CB35845D51E2036A85518B0F016EC2
:10166000000E032201C0CEF003C0CFF0036A845104
:10167000AB0FE96E000E0320EA6EEFCFD0F0D0C0C2
:10168000D2F0F1DDCFC0EAFFCEC0E9FF01C0EFFF2D
:10169000036A85518B0FE96E000E0320EA6EEF3866
:1016A000006EF00E001600C0EFFF036A85518B0F2D
:1016B000016E000E032201C0CEF003C0CFF003C0C4
:1016C000EAFF01C0E9FFEFCFD0F0010E8425036AE5
:1016D000AB0FE96E000E0320EA6EEFCFD1F0D1C060
:1016E000D2F0C1DD0150D025CFC0EAFFCEC0E9FF66
:1016F000EF6E020E8427852BABD7CC51310805E164
:10170000550ECE6FEEDD869171D0CC5134080EE1CE
:10171000886B8BC087F087C088F0876B8C518727D8
:10172000000E8823110ECE6FDCDD60D0CC51300866
:101730005DE1875302E188533EE08751F00835E1CF
:10174000885333E1846B856BD890CB31845D2CE278
:1017500084518925016E000E8A21036E0150CE6FDF
:10176000036A85518B0FE96E000E0320EA6EEFCFFE
:10177000CFF0F250006EF29ECEC0A9FFCFC0A8FFFE
:10178000A69CA69EA6840F01550EA76EAA0EA76E54
:10179000A682A6B2FED7A6940050F2120001845190
:1017A000842B020E8527D0D705D08751300802E15F
:1017B000885300E118D08A51180808E303E18951E1
:1017C0006F0804E3800ECE6F8CDD0DD0D16BD06B33
:1017D0008AC0CFF089C0CEF0D36B8B0ED26FD56BA1
:1017E000CBC0D4F0D0D5110ECE6F7BDD86B1B1D693
:1017F000640ECF6FC7DC9298899895908C90FF000B
:08180000256A3CEF0CF0030027
:0200000400F00A
:02000000CE0030
:020000040030CA
:0E00000024CE3E1E0087A1000FC00FE00F406F
:00000001FF
;PIC18F4550
;CRC=1A38  CREATED="23-Jun-13 21:24"
