:0400000084EF0AF08F
:0800080025A003D014EF00F065
:1000100002D0FCEF0BF0120025A003D01CEF00F083
:1000200002D004EF0CF01200046ED8CF05F0E0CF40
:1000300006F00001E9CF0CF0EACF07F0E1CF08F0BD
:10004000E2CF09F0D9CF0AF0DACF0BF0F3CF12F0FC
:10005000F4CF13F0FACF14F000C00EF001C00FF08F
:1000600002C010F003C011F0A0AA3AEF00F0A1BA4C
:10007000E3EF08F00EC000F00FC001F010C002F076
:1000800011C003F00CC0E9FF07C0EAFF078E08C0EB
:10009000E1FF09C0E2FF0AC0D9FF0BC0DAFF12C0BE
:1000A000F3FF13C0F4FF14C0FAFF045006C0E0FFD2
:1000B00005C0D8FF1000F76AC60FF66E000EF722D3
:1000C0000900F5501200000302FFFFFFFFFFFFFFD2
:1000D000FFFFFFFFFFFFF76AE60FF66E000EF72245
:1000E0000900F550120000FF02FFFFFFFFFFFFFFB6
:1000F000FFFFFFFFFFFFF76A060FF66E010EF72204
:100100000900F550120040000B0040000000000004
:1001100000000000000000000000000000000000DF
:1001200000000000000007AE03D0F2CF0DF0F29EF9
:10013000F76A480FF66E010EF7220900F55007AE78
:1001400002D00DBEF28E1200400000004000000000
:10015000000000000000000000000000000000009F
:100160000000000000000000F76A780FF66E010E34
:10017000F7220900F5501200090243000201008035
:1001800032090400000102020100052400100104EC
:10019000240202052406000105240100010705814F
:1001A000030B00FA09040100020A0000000705021F
:1001B000024000010705820240000100F76ACC0FEF
:1001C000F66E010EF7220900F55012000200F76AE0
:1001D000DE0FF66E010EF7220900F550120012171D
:1001E0001B20FFFFFFFFF76AF60FF66E010EF722E6
:1001F0000900F55012001201100102000040052410
:100200000B00000101020001F76A180FF66E020EE2
:10021000F7220900F5501200040309040803430003
:1002200043005300200343004300530020005500C7
:1002300053004200200074006F0020005500410070
:10024000520054006D92699468A402D06894FCD75F
:10025000EFEF08F0400E0401016F040E036F180E5B
:10026000026F880E006F046B040E076F580E066F46
:100270000001120070A002D0EDDF7090689AF6EFD6
:1002800008F06A6A6892FBEF08F00101119110BF53
:100290001181109F1051100803E2000E016E24D04E
:1002A00011A112D0036A1051F2CF12F1F29E000197
:1002B00002DF010112BFF28EFF0802E1000E01D041
:1002C000010E016E11D010D0036A1051F2CF12F15D
:1002D000F29E000100DF010112BFF28EFF0802E171
:1002E000000E01D0010E016E000112000101155136
:1002F0001703F3CF01F0F4CF00F01803F3500026FA
:1003000016511703F3500020026E00011200036A19
:1003100001010F51700FE96E0F0E0320EA6EEF6AB4
:100320000FC110F10001B1DF015228E00101166B8D
:100330000FC115F1186B080E176F0001D7DF01010F
:1003400001C0E9FF040E0224EA6EEF6A166B0FC1CA
:1003500015F1186B080E176F0001C8DF02C011F10C
:1003600001C010F1040E01011027000E112310C16D
:10037000E9FF040E1125EA6EEF6A00011200010E7A
:1003800001010E6F0E510F0807E30EC10FF10001BE
:10039000BEDF01010E2BF6D7000112000101086B30
:1003A000076B250E066F800E056FEA6A2C0EE96E4C
:1003B000010EE26E050EE16E020E016EE6CFEEFF5B
:1003C000012EFCD72E6A2F6A056BEA6A300EE96EA1
:1003D000010EE26E050EE16EE6CFEEFF056BEA6AF6
:1003E000310EE96E010EE26E050EE16EE6CFEEFF14
:1003F000080E056FEA6A320EE96E010EE26E050E16
:10040000E16EE6CFEEFF00017E6B7D91346A336AC8
:100410007C6B1E907F6B1200296A286A0101046BB5
:10042000045101080AE3036A04512A0FE96E000E21
:100430000320EA6EEF6A042BF3D70001AFDF186ADE
:10044000010E196E176A1200689612006A6A686ACD
:100450009F0E6B6E3D0E696E6E6A91DFDDDF160ECC
:10046000706E68A602D0F0DFFCD76D98F3DE030E45
:10047000226E00EF09F0698468986D8205EF09F03B
:10048000689C0AEF09F009C123F0120023681200EA
:100490000101076B2850291045E007513F0842E34E
:1004A0001A50000A000105E0020A10E0010A1BE0F0
:1004B00026D027C003F02650F2CF09F1F29E54DE79
:1004C000010109BFF28E086F000119D027C003F0A7
:1004D0002650F2CF09F1F29E97DE010109BFF28E9C
:1004E000086F00010CD027C003F02650F2CF09F1AD
:1004F000F29E79DE010109BFF28E086F0001262A03
:10050000D8B4272A2850D8B4290628060101075153
:10051000072B580FE96E040EEA6ED8B0EA2A08C11C
:10052000EFFFB8D72850291004E10751400801E037
:10053000176A07C109F10001A6DF1200276A266ABF
:100540001A6A04011B51010A000107E0030A0BE0CB
:10055000010A0DE0220A29E051D0296A120E286E04
:10056000030E1A6E4DD0296A430E286E49D0020E32
:100570001A6E036A04011A511B0FE96E000E032064
:10058000EA6E276AEFCF26F027C003F02650F2CF9D
:1005900006F1F29E000138DE010106BFF28E036A09
:1005A000286E03C029F000012BD0036A04011A5100
:1005B000F2CF06F1F29E00010ADE010106BFF28EC3
:1005C000036A266E03C027F0263C02D0275213E0B0
:1005D00027C003F02650F2CF06F1F29E0001C4DDE1
:1005E000010106BFF28E036A286E03C029F00001E4
:1005F00007D004D00101000149DF11D047DF0FD03F
:1006000004011F5308E1295203E128501E5D03E253
:10061000296A1EC428F0010E176E000139DF7AEF37
:1006200004F00101065306E1040E226E0001A7DE6C
:1006300002D10101050E226E040E096F980E086F9B
:10064000010E076F07510F08D8A0F5D007C10FF1B1
:1006500000015DDE01010A6B036A0751F2CF0EF162
:10066000F29E000138DD01010EBFF28EFF086FE03F
:10067000040E0A6FD8900735036AF2CF0EF1F29E8E
:10068000000151DD0900F5CF03F001010EBFF28E2C
:100690000B6F03C00CF1166B07C115F1186B080E38
:1006A000176F000123DE01C00EF1010E01010124CC
:1006B000016E000E0220036E01C0E9FF040E032448
:1006C000EA6E0BC1EFFF166B07C115F1186B080E30
:1006D000176F00010BDE01C00EF1020E01010124B3
:1006E000016E000E0220036E01C0E9FF040E032418
:1006F000EA6E09C1ECFFED5208C1EFFFD890073553
:10070000036AF2CF0EF1F29E00010DDD0900F5CF74
:1007100003F001010EBFF28E082703500923880E53
:100720000D6F0CA101D00D810CA301D00D83166BB0
:1007300007C115F1186B080E176F0001D7DD010115
:1007400001C0E9FF040E0224EA6E0DC1EFFF036A47
:100750000751F2CF0EF1F29E0001ADDC01010EBF98
:10076000F28EFF084BE00A83166B07C115F1186B78
:10077000080E176F0001BADD02C00FF101C00EF1C3
:10078000040E01010E27000E0F23020E0E25016E2E
:10079000000E0F21036E01C0E9FF040E0324EA6E70
:1007A00009C1ECFFED5208C1EFFFD8900735036A8D
:1007B000F2CF0EF1F29E00019EDC0900F5CF03F0AE
:1007C00001010EBFF28E082703500923166B07C1E3
:1007D00015F1186B080E176F000188DD02C00FF1CC
:1007E00001C00EF1040E01010E27000E0F230EC1F1
:1007F000E9FF040E0F25EA6E400EEF6E0A5106085F
:1008000002E10E0E0A6F036A0751F2CF0EF1F29E5B
:10081000000151DC01010EBFF28E010801E00A89DE
:10082000036A0751700FE96E0F0E0320EA6E0AC1CA
:10083000EFFF072B07D7000172EF04F004011951F5
:10084000000A00010DE0010A15E0020A21E0060A93
:100850002CE0030A33E00E0A33E0010A39E049D004
:1008600019C058F40401596B020E0101096F00010F
:100870000ADE40D004011A2D08D0010E191601011C
:10088000096B000100DE03D004010001FFDD32D05E
:1008900004011A2D07D019820101096B0001F3DD53
:1008A00003D004010001F2DD25D0020E176E1AC438
:1008B00024F00101096B0001E6DD1CD03FD61AD0FF
:1008C00018C058F4010E0101096F0001DCDD12D0DF
:1008D00004011A5101080BE31AC418F01AC406F1F6
:1008E00000019FD60101096B0001CDDD040100016B
:1008F00001D0CCDD19EF06F018C006F10401195142
:10090000000A000105E00A0A0CE0010A32E047D0C3
:100910000401586B596B020E0101096F0001B3DD30
:100920003FD00101065322E0010E065D036AF2CFBB
:1009300007F1F29E000142DC010107BFF28E016E59
:1009400004011C5DD8A002D0010110D0036A1C5123
:100950002A0FE96E000E0320EA6EEFCF58F4010E65
:100960000101096F00018FDD03D0010100018EDD5F
:1009700017D00101065310E0036A04011C512A0F2D
:10098000E96E000E0320EA6E1AC4EFFF0101096B45
:10099000000179DD03D00101000178DD01D076DDB1
:1009A00019EF06F00101079106BF0781069F07A115
:1009B00019D0166B06C115F1186B080E176F0001E0
:1009C00095DC02C009F101C008F1040E01010827FD
:1009D000000E092308C1E9FF040E0925EA6E880EFE
:1009E000EF6E0FD0166B06C115F1186B080E176F5E
:1009F00000017CDC010101C0E9FF040E0224EA6E63
:100A0000EF6A000185EF05F00101079106BF07813C
:100A1000069F07A119D0166B06C115F1186B080EB9
:100A2000176F000163DC02C009F101C008F1040E78
:100A300001010827000E092308C1E9FF040E09255A
:100A4000EA6E840EEF6E10D0166B06C115F1186BAE
:100A5000080E176F00014ADC010101C0E9FF040E16
:100A60000224EA6E840EEF6E00018DEF05F00101A5
:100A7000079106BF0781069F07A119D0166B06C113
:100A800015F1186B080E176F000130DC02C00AF177
:100A900001C009F1040E01010927000E0A2309C152
:100AA000E9FF040E0A25EA6EEFCF08F110D0166BAD
:100AB00006C115F1186B080E176F000117DC010154
:100AC00001C0E9FF040E0224EA6EEFCF08F108AF7F
:100AD00002D008B502D0000E01D0010E016E000157
:100AE00099EF05F01CC410F145EC01F001522EE025
:100AF00004011951010A000105E0020A0BE0030A92
:100B000011E023D01CC406F14DD70101096B00018F
:100B1000BADC1CD01CC406F177D70101096B0001B7
:100B2000B2DC14D00401586B596B1CC406F10001EF
:100B30009ED7015204E0010E0401586F0001020E1D
:100B40000101096F00019FDC01D0A0DC19EF06F064
:100B5000FE0E236E120004011C2D01D002D01C5386
:100B60004EE11951000A00010BE0010A0DE0210AD3
:100B70001CE0010A1FE0030A30E0010A35E03DD025
:100B8000010E7F6FE5DF3AD0040EEA6E580EE96E73
:100B9000E26A350EE16E080E016EE6CFEEFF012E21
:100BA000FCD71EC409F16FDC29D0020E7F6F7D8156
:100BB000CFDF24D0040EEA6E580EE96EE26A2C0EE6
:100BC000E16E070E016EE6CFEEFF012EFCD7070E99
:100BD0000101096F000157DC11D01AC47EF0010138
:100BE000096B000150DC0AD01AC434F01BC433F086
:100BF0000101096B000147DC01D048DC0401000160
:100C000019EF06F0176A040118517F0B000A000162
:100C100007E0010A07E0030A07E0230A07E008D01B
:100C20000DD607D069D605D05DD703D094D701D0B3
:100C30002DDC83EF08F00101166B07C115F1186B6D
:100C4000080E176F000176EC01F0010101C0E9FF09
:100C5000040E0224EA6EEFCF09F10851020806E102
:100C600009AD02D0086B02D0010E086F08510308CD
:100C70001CE1840E096F166B07C115F1186B080E85
:100C8000176F000176EC01F002C00DF101C00CF10C
:100C9000040E01010C27000E0D230CC1E9FF040E08
:100CA0000D25EA6E840EEF6E07D0082D03D0C80E16
:100CB000096F02D0880E096FD8900735036AF2CF0A
:100CC0000CF1F29E000193EC00F00900F5CF03F067
:100CD00001010CBFF28E0A6F03C00BF1166B07C146
:100CE00015F1186B080E176F000176EC01F001C0CA
:100CF0000CF1010E01010124016E000E0220036EB1
:100D000001C0E9FF040E0324EA6E0AC1EFFF0BA144
:100D100001D009810BA301D00983166B07C115F11E
:100D2000186B080E176F000176EC01F0010101C08D
:100D3000E9FF040E0224EA6E09C1EFFF0001120070
:100D4000036A01011451700FE96E0F0E0320EA6E61
:100D5000EF521BE0166B14C115F1186B080E176FDC
:100D6000000176EC01F002C016F101C015F1040E8D
:100D700001011527000E162315C1E9FF040E1625E3
:100D8000EA6EEFCF17F117AF02D0000E01D0010EBF
:100D9000016E000112000FC114F1D2DF0152D8B46C
:100DA00087D00101166B0FC115F1186B080E176F74
:100DB000000176EC01F002C015F101C014F1040E3F
:100DC00001011427000E1523010E1425016E000EDB
:100DD0001521036E01C0E9FF040E0324EA6E10C161
:100DE000EFFF1251020820E1166B0FC115F1186BCD
:100DF000080E176F000176EC01F002C015F101C07A
:100E000014F1040E01011427000E152314C1E9FF8B
:100E1000040E1525EA6EEFCF13F113AD02D0126B5D
:100E200002D0010E126F1AD01251040817E1166B8E
:100E30000FC115F1186B080E176F000176EC01F069
:100E4000010101C0E9FF040E0224EA6EEFCF13F1A5
:100E500013AD03D0010E126F01D0126B122D03D00F
:100E6000C80E136F02D0880E136F11A101D0138129
:100E700011A301D01383166B0FC115F1186B080E67
:100E8000176F000176EC01F002C015F101C014F1FA
:100E9000040E01011427000E152314C1E9FF040EEE
:100EA0001525EA6E13C1EFFF010E016E04D000019B
:100EB000000E016E0101000112007F51010A03E0E2
:100EC000030A15E028D0EA6A350EE96E040EE26ED8
:100ED000180EE16E080E016EE6CFEEFF012EFCD774
:100EE0000101096B000143EC02F07F6B15D0EA6A47
:100EF0002C0EE96E040EE26E180EE16E070E016E06
:100F0000E6CFEEFF012EFCD77F6B0101096B0001DC
:100F100043EC02F001D07F6BCBEF07F00101166BC1
:100F200007C115F1186B080E176F000176EC01F080
:100F300002C009F101C008F1010E01010124016E96
:100F4000000E0220036E01C0E9FF040E0324EA6EC6
:100F5000036AEFCF01F003C002F00001BFEF07F01A
:100F60001E90020E0101076F086F000164DE12007F
:100F70001E80206A020E0101076F0001CFD701C059
:100F80001FF01F5201E1ECDFD2EF07F00101065321
:100F900004E1000192D706D001010651020803E1E5
:100FA0000001E6D701010001120007C16EFF010137
:100FB000075303E0040E226E02D0020E226E0001DF
:100FC000E7EF07F0186A176A24C007F1EED75DEF64
:100FD00008F007C114F1B4DE015247E00101166BBD
:100FE00007C115F1186B080E176F000176EC01F0C0
:100FF00002C010F101C00FF1040E01010F27000E15
:101000001023020E0F25016E000E1021036E01C089
:10101000E9FF040E0324EA6EECCF0EF1ED52EFCFA0
:101020000DF10EC1EAFF0DC1E9FF09C1E2FF08C1E0
:10103000E1FF0BC102F00AC101F0015202E0022AF5
:1010400002D0025206E0E6CFEEFF012EFCD7022EC0
:10105000FAD707C10FF10BC111F10AC110F10CC190
:1010600012F1000198DE015002D0000E016E120054
:101070007C5310E0020E0101076F096B3D0E086FF3
:101080000B6B7CC00AF1020E0C6F0001A2DF015253
:1010900001E07C6B1200ECDF64EF08F00101065305
:1010A0000EE1172C05D0000148EC02F006D001013A
:1010B0001750020803E1000185D7010106D006514F
:1010C000020803E10001E7D701010001120021300D
:1010D0000101046F043304331F0E041721524EE143
:1010E000040100513C0B0101056F430E0401001780
:1010F00001010551340825E104010451800B01E090
:10110000046B00017FD56D98233C07D00101076B6C
:10111000030E086F00018FDD12D00101076B020E74
:10112000086F000188DD2350FE0809E001010F6B04
:10113000116B23C010F1040E126F00012CDE1CD0C5
:1011400001010551040819E1066B00011FDF0101CF
:10115000076B020E086F00016EDD2350FE080CE0E5
:10116000233C01D009D001010F6B116B23C010F19A
:10117000010E126F00010FDE010122D02150040880
:1011800012E12368066B000189DF233C01D009D0FE
:1011900001010F6B116B23C010F1020E126F0001E1
:1011A000FADD0DD0010121B406D004C106F1000121
:1011B000EDDE05D0010104C106F100016FDF010180
:1011C000000116EF09F0A19A2252D8B439D0685222
:1011D000D8B436D068A403D069B422EF01F06DB260
:1011E0002FD068AA03D069BA3AEF01F068A203D001
:1011F00069B241EF01F068A003D069B026EF02F0B8
:1012000068A803D069B83BEF02F068AC03D069BCB2
:1012100040EF02F00101036B68A60AD069A608D06E
:101220006CCF21F0000124EC02F051D703D0010172
:1012300006D0000101010351032B0308EDE2000178
:101240003AEF00F0EA6AAF0EE96EEF500EE00F0ED3
:10125000016E006A002EFED7012EFBD78F0E006EA6
:10126000002EFED70000EF2EF2D7BEEF0AF06D6A17
:10127000696A080E6F6E94503009946E226A166A7D
:10128000F2BE168EF29E0CEC02F016BEF28E4AEF03
:1012900009F0EDD770EF09F0166AF2BE168EF29ED5
:1012A0000CEC02F016BEF28E6D6A140E6F6E696A57
:1012B0006D86010E226E60EF09F06DB601D0ECD79D
:1012C000222C0BD06DBA09D0686A696AA08AC00E58
:1012D000F212110E696E020E226E71EF09F0D9D76B
:1012E000ECD722500208FCE1CDEF0AF01850016E55
:1012F000CEEF0AF01EB001D0FDD72050202AA30F58
:10130000E96E040EEA6ED8B0EA2AEFCFB1F01F50B2
:10131000205C07E3166AF2BE168EF29E21DE16BE30
:10132000F28EB1C001F01200B191A0BAB181A09AC1
:101330007C513E0802E23E0E7C6F7C517C2B036A9E
:101340003D0FE96E000E0320EA6EB0C0EFFFB1A1C1
:1013500001D0A08AAFEF09F0AFC0B0F0E5D7166AB0
:10136000F2BE168EF29E84DE16BEF28EC0EF09F03B
:101370003F0ED8807C5501E1FBD7AEC0AFF0ECD773
:101380001200B251400805E2410EB25D0A0F016E33
:1013900003D0300EB25D016E1200FDC001F0FCC042
:1013A00000F0FC67012A0900F5CFEEFF002EFBD705
:1013B000012EF9D7F86A33EF0AF0F250036EF29E6D
:1013C000A68EA6840F01550EA76EAA0EA76EA68242
:1013D00000000350F21200011200D08CA69CF650BF
:1013E0001F0B006EE00EF6160A00FCC001F000664E
:1013F00008D0F650010F3F0B04E1A6880900DDDF9D
:101400000A00006607D0EECFF5FF015204E00F009E
:10141000010603D000060B000C001F0EF6141F0A75
:10142000E6E1CBDF0166E3D7F86A72EF0AF0AE516E
:10143000C00BF66FAFC0F7F0B0C0F8F0B1C0F9F074
:10144000F651AE5DFA6FB451B5115CE0F8C0F8FF2B
:10145000F7C0F7FFF6C0F6FFEA6AB60EE96EFD6B5D
:10146000400EFC6F9AD7400ED880FA55B55303E171
:10147000B45D06E005E3400ED880FA55FB6F02D05C
:10148000B4C0FBF0036AFA51B60F016E000E0322DE
:1014900001C0FCF003C0FDF003C0EAFF01C0E9FF9A
:1014A000B3C0E2FFB2C0E1FFFB51016E04E0E6CF42
:1014B000EEFF012EFCD7D08CF8C0F8FFF7C0F7FF85
:1014C000F6C0F6FFA688A69C78DFF86AF8C0F8FF99
:1014D000F7C0F7FFF6C0F6FFEA6AB60EE96E400EF7
:1014E000FC6F7BD7FB51B227000EB323400EF627CB
:1014F000000EF723F823F923FA6BFB51B45F000EBB
:10150000B55BA1D7E0EF0BF0F86AD09E078E93820F
:101510009380770EC86E280EC66EC78EC79CC150CA
:10152000C00B0F09C16E070EB46E1B6A040E1C6E51
:101530000C0E1D6E806B816B826B836B8481866B5E
:10154000856B886B876B958283A203D0010E826FB7
:1015500017D0F2CFAEF0F29EA96AA69CA69EA680F6
:10156000A850AEBFF28EAC6FAC51CE0809E1010EAF
:10157000826F140EAE6FFA0EAF6F64D6AE2FFBD72C
:10158000822D2AD1010E256E166AF2BE168EF29EAB
:10159000CEEC01F016BEF28EA2D6A8D60152FDE026
:1015A0009298898895908C80A5DE01C0ABF0AB51F4
:1015B000050803E1420EAE6FDBDEAB513A08F4E101
:1015C00099DE01C0AEF001C0B2F0DBDE0138AE6FD3
:1015D000F00EAE178FDE01C0AFF001C0B2F0D1DE69
:1015E0000150AE25A96F86DE01C0AEF001C0B2F099
:1015F000C8DE0138AE6FF00EAE177CDE01C0AFF072
:1016000001C0B2F0BEDE0150AE25876F886B873710
:101610008837873788378737883787378837F00E96
:10162000871768DE01C0AEF001C0B2F0AADE01503B
:101630008727000E8823873788378737883787378B
:10164000883787378837F00E871754DE01C0AEF031
:1016500001C0B2F096DE01508727000E88234ADED3
:1016600049DE01C0AAF0836BA951835D23E2036ABE
:101670008351890F016E000E032201C0AEF003C03A
:10168000AFF038DE01C0B0F001C0B2F07ADE013850
:10169000B06FF00EB0172EDE01C0B1F001C0B2F095
:1016A00070DE0150B025AFC0EAFFAEC0E9FFEF6EBB
:1016B000832BDAD7AA51310819E1550EAE6F58DEE7
:1016C0008491F250006EF29EA96AA86AA69CA69E1A
:1016D000A6840F01550EA76EAA0EA76EA682A6B20B
:1016E000FED7A6940050F2126FD00001AA51340820
:1016F00008E1000E8A25856F866B110EAE6F38DE0D
:1017000062D0AA5130085FE1855302E186533FE081
:101710008551F00836E1865334E1AD6B836BAD6BD8
:10172000D890A931835D2CE283518725016E000E8C
:101730008821036E0150AE6F036AAD51890FE96EC7
:10174000000E0320EA6EEFCFAFF0F250006EF29E73
:10175000AEC0A9FFAFC0A8FFA69CA69EA6840F019D
:10176000550EA76EAA0EA76EA682A6B2FED7A694A5
:101770000050F21200018351832B020EAD27D0D707
:1017800005D08551300802E1865300E119D0885117
:10179000170809E303E18751EF0805E3800EAE6FF8
:1017A000E7DD11D00DD0B16BB06B88C0AFF087C052
:1017B000AEF0B36B890EB26FB56BA9C0B4F037D67B
:1017C000110EAE6FD5DD0F01000184B1EDD69298F8
:1017D000899895908C90FF00256AF8EF0BF0030034
:0200000400F00A
:02000000CE0030
:020000040030CA
:0E00000024CE3E1E0087A1000FC00FE00F406F
:00000001FF
;PIC18F4550
;CRC=BCDA  CREATED="03-dez-13 17:53"
