:0400000030EF0AF0E3
:0800080025A003D014EF00F065
:1000100002D0ACEF0BF0120025A003D01CEF00F0D3
:1000200002D0B4EF0BF01200046ED8CF05F0E0CF91
:1000300006F00001E9CF0CF0EACF07F0E1CF08F0BD
:10004000E2CF09F0D9CF0AF0DACF0BF0F3CF12F0FC
:10005000F4CF13F0FACF14F0F5CF15F0F6CF16F079
:10006000F7CF17F000C00EF001C00FF002C010F083
:1000700003C011F0A0AA40EF00F0A1BA7EEF08F093
:100080000EC000F00FC001F010C002F011C003F06C
:100090000CC0E9FF07C0EAFF078E08C0E1FF09C0F6
:1000A000E2FF0AC0D9FF0BC0DAFF12C0F3FF13C092
:1000B000F4FF14C0FAFF15C0F5FF16C0F6FF17C015
:1000C000F7FF045006C0E0FF05C0D8FF1000F76A34
:1000D000DE0FF66E000EF7220900F5501200000345
:1000E00002FFFFFFFFFFFFFFFFFFFFFFFFFFF76ABA
:1000F000FE0FF66E000EF7220900F550120000FF09
:1001000002FFFFFFFFFFFFFFFFFFFFFFFFFFF76A99
:100110001E0FF66E010EF7220900F5501200400086
:100120000B00400000000000000000000000000084
:100130000000000000000000000000000000F76A5E
:100140004E0FF66E010EF7220900F5501200400026
:10015000000040000000000000000000000000005F
:100160000000000000000000000000000000F76A2E
:100170007E0FF66E010EF7220900F55012000902FB
:100180004300020100803209040000010202010064
:1001900005240010010424020205240600010524A0
:1001A000010001070581030B00FA09040100020A9E
:1001B000000000070502024000010705820240001E
:1001C0000100F76AD20FF66E010EF7220900F55012
:1001D00012000200F76AE40FF66E010EF722090022
:1001E000F550120012171B20FFFFFFFFF76AFC0FEC
:1001F000F66E010EF7220900F550120012011001EF
:100200000200004061043300000101020001F76AAE
:100210001E0FF66E020EF7220900F55012000403BD
:10022000090408034300430053001803530045002A
:100230005200490041004C002000440045004D00A0
:100240004F006D92699468A402D06894FCD78AEF3D
:1002500008F0400E0401016F040E036F180E026FC8
:10026000880E006F046B040E076F580E066F0001B6
:10027000120070A002D0EDDF7090689A93EF08F042
:100280006A6A689299EF08F00101129111BF128118
:10029000119F1151100803E2000E016E1AD012A135
:1002A0000DD0036A1151000112DFFF0802E1000EB8
:1002B00001D0010E016E01010CD00BD0036A115167
:1002C000000115DFFF0802E1000E01D0010E016EF2
:1002D000010100011200010116511803F3CF01F0D2
:1002E000F4CF00F01903F350002617511803F35010
:1002F0000020026E00011200036A01011051700F0C
:10030000E96E0F0E0320EA6EEF6A10C111F10001D1
:10031000BBDF015228E00101176B10C116F1196B08
:10032000080E186F0001D7DF010101C0E9FF040EBC
:100330000224EA6EEF6A176B10C116F1196B080EF2
:10034000186F0001C8DF02C012F101C011F1040EE4
:1003500001011127000E122311C1E9FF040E12251D
:10036000EA6EEF6A00011200010E01010F6F0F51DA
:100370000F0807E30FC110F10001BEDF01010F2BD1
:10038000F6D7000112000101096B086B250E076FFB
:10039000800E066FEA6A2C0EE96E010EE26E060E02
:1003A000E16E020E016EE6CFEEFF012EFCD72E6A43
:1003B0002F6A066BEA6A300EE96E010EE26E060ED7
:1003C000E16EE6CFEEFF066BEA6A310EE96E010ED2
:1003D000E26E060EE16EE6CFEEFF080E066FEA6AE9
:1003E000320EE96E010EE26E060EE16EE6CFEEFF12
:1003F0000001816B8091346A336A7C6B7D91826BE2
:100400001200296A286A0101056B055101080AE3F7
:10041000036A05512A0FE96E000E0320EA6EEF6AA7
:10042000052BF3D70001AFDF1B6A010E1C6E1A6AA1
:100430001200689612006A6A686A9F0E6B6E3D0E23
:10044000696E6E6A91DFDDDF160E706E68A602D0EF
:10045000F0DFFCD76D98FDDE030E226E9FEF08F0F3
:10046000698468986D82A5EF08F0689CABEF08F08E
:100470000AC123F01200236812000101086B285002
:10048000291033E008513F0830E31D50000A0001F5
:1004900005E0020A0AE0010A0FE014D027C003F0C9
:1004A000265065DEE8CF09F10DD027C003F02650B5
:1004B000AEDEE8CF09F106D027C003F0265096DE65
:1004C000E8CF09F1262AD8B4272A2850D8B429061B
:1004D000280601010851082B580FE96E040EEA6E38
:1004E000D8B0EA2A09C1EFFFCAD72850291004E181
:1004F0000851400801E01A6A08C10AF10001B8DF9A
:100500001200276A266A1D6A04011B51010A0001B4
:1005100007E0030A0BE0010A0DE0220A22E03AD0CC
:10052000296A120E286E030E1D6E36D0296A430EFC
:10053000286E32D0020E1D6E036A04011A511E0F7E
:10054000E96E000E0320EA6E276AEFCF26F027C07F
:1005500003F0265000015BDE036A286E03C029F019
:100560001BD0036A04011A51000134DE036A266EAF
:1005700003C027F0263C02D027520AE027C003F030
:100580002650F5DD036A286E03C029F005D002D09D
:1005900072DF11D070DF0FD004011F5308E1295220
:1005A00003E128501E5D03E2296A1EC428F0010EF3
:1005B0001A6E000162DF28EF04F00101075306E123
:1005C000040E226E0001D0DEE7D00101050E226E7E
:1005D000040E0A6F980E096F010E086F08510F087C
:1005E000D8A0DAD008C110F1000186DE01010B6B42
:1005F000036A085100017BDDFF0865E0040E01017C
:100600000B6FD8900835036A000199DD0900F5CF1A
:1006100003F001010C6F03C00DF1176B08C116F157
:10062000196B080E186F000156DE01C00FF1010EA4
:1006300001010124016E000E0220036E01C0E9FFDA
:10064000040E0324EA6E0CC1EFFF176B08C116F10C
:10065000196B080E186F00013EDE01C00FF1020E8B
:1006600001010124016E000E0220036E01C0E9FFAA
:10067000040E0324EA6E0AC1ECFFED5209C1EFFF3C
:10068000D8900835036A00015ADD0900F5CF03F060
:100690000101092703500A23880E0E6F0DB10E8148
:1006A0000DB30E83176B08C116F1196B080E186F86
:1006B000000111DE010101C0E9FF040E0224EA6E0F
:1006C0000EC1EFFF0001036A010108510001FFDCC8
:1006D000FF0847E001010B83176B08C116F1196B86
:1006E000080E186F0001F7DD02C010F101C00FF114
:1006F000040E01010F27000E1023020E0F25016EBC
:10070000000E1021036E01C0E9FF040E0324EA6EFF
:100710000AC1ECFFED5209C1EFFFD8900835036A1A
:100720000001F5DC0900F5CF03F0010109270350B2
:100730000A23176B08C116F1196B080E186F000118
:10074000CADD02C010F101C00FF1040E01010F2734
:10075000000E10230FC1E9FF040E1025EA6E400EB3
:10076000EF6E01010B51060802E10E0E0B6F036ADA
:1007700008510001ACDC010803E001010B89000114
:10078000036A01010851700FE96E0F0E0320EA6E33
:100790000BC1EFFF082B22D7000121EF04F0040169
:1007A0001951000A00010DE0010A15E0020A20E0DB
:1007B000060A2AE0030A31E00E0A31E0010A37E0B6
:1007C00046D01CC058F40401596B020E01010A6F97
:1007D00000014EDE3DD004011A2D07D0010E1C167B
:1007E00001010A6B000144DE02D0000144DE30D07A
:1007F00004011A2D06D01C8201010A6B000138DEAB
:1008000002D0000138DE24D0020E1A6E1AC424F081
:1008100001010A6B00012CDE1BD073D619D01BC05E
:1008200058F4010E01010A6F000122DE11D004010B
:100830001A5101080AE31AC41BF01AC407F1000197
:10084000BCD601010A6B000113DE000101D013DEEA
:10085000BDEF05F01BC007F104011951000A0001AA
:1008600005E00A0A0CE0010A2BE03FD00401586BB6
:10087000596B020E01010A6F0001FADD37D0010148
:1008800007531BE0010E075D036A00019ADC016E4D
:1008900004011C5DD8A002D001010FD0036A1C51D5
:1008A0002A0FE96E000E0320EA6EEFCF58F4010E16
:1008B00001010A6F0001DCDD02D00001DCDD16D091
:1008C000010107530FE0036A04011C512A0FE96E6E
:1008D000000E0320EA6E1AC4EFFF01010A6B00014B
:1008E000C7DD02D00001C7DD01D0C5DDBDEF05F0D9
:1008F0000101089107BF0881079F08A119D0176B54
:1009000007C116F1196B080E186F0001E4DC02C074
:100910000AF101C009F1040E01010927000E0A23A2
:1009200009C1E9FF040E0A25EA6E880EEF6E0FD0AA
:10093000176B07C116F1196B080E186F0001CBDC9D
:10094000010101C0E9FF040E0224EA6EEF6A000112
:100950002AEF05F00101089107BF0881079F08A150
:1009600019D0176B07C116F1196B080E186F00012B
:10097000B2DC02C00AF101C009F1040E010109272D
:10098000000E0A2309C1E9FF040E0A25EA6E840E4F
:10099000EF6E10D0176B07C116F1196B080E186FA8
:1009A000000199DC010101C0E9FF040E0224EA6E96
:1009B000840EEF6E000132EF05F00101089107BFD0
:1009C0000881079F08A119D0176B07C116F1196B91
:1009D000080E186F00017FDC02C00BF101C00AF1A4
:1009E000040E01010A27000E0B230AC1E9FF040EC1
:1009F0000B25EA6EEFCF09F110D0176B07C116F186
:100A0000196B080E186F000166DC010101C0E9FFD7
:100A1000040E0224EA6EEFCF09F109AF02D009B546
:100A200002D0000E01D0010E016E00013EEF05F074
:100A30001CC411F129DC01522DE004011951010AF5
:100A4000000105E0020A0BE0030A11E022D01CC4F9
:100A500007F14ED701010A6B00010ADD1BD01CC44F
:100A600007F178D701010A6B000102DD13D0040100
:100A7000586B596B1CC407F100019FD7015203E06A
:100A8000010E0401586F020E01010A6F0001F0DC33
:100A900001D0F1DCBDEF05F0FE0E236E1200040163
:100AA0001C2D01D002D01C534EE11951000A000147
:100AB0000BE0010A0DE0210A1CE0010A1FE0030A15
:100AC00030E0010A35E03DD0010E826FE5DF3AD01B
:100AD000040EEA6E580EE96EE26A350EE16E080EFB
:100AE000016EE6CFEEFF012EFCD71EC40AF1C0DC7A
:100AF00029D0020E826F8081CFDF24D0040EEA6EEF
:100B0000580EE96EE26A2C0EE16E070E016EE6CF1A
:100B1000EEFF012EFCD7070E01010A6F0001A8DCD1
:100B200011D01AC481F001010A6B0001A1DC0AD0C6
:100B30001AC434F01BC433F001010A6B000198DCC5
:100B400001D099DC04010001BDEF05F01A6A04012F
:100B500018517F0B000A000107E0010A07E0030AB1
:100B600007E0230A07E008D01AD607D073D605D0CD
:100B70005FD703D094D701D07EDC1EEF08F00101CF
:100B8000176B08C116F1196B080E186F00016BEC9A
:100B900001F0010101C0E9FF040E0224EA6EEFCF6B
:100BA0000AF10951020806E10AAD02D0096B02D030
:100BB000010E096F095103081CE1840E0A6F176BBF
:100BC00008C116F1196B080E186F00016BEC01F0EB
:100BD00002C00EF101C00DF1040E01010D27000E3F
:100BE0000E230DC1E9FF040E0E25EA6E840EEF6E92
:100BF00007D0092D03D0C80E0A6F02D0880E0A6FE5
:100C0000D8900835036A00019FEC00F00900F5CF89
:100C100003F001010B6F03C00CF1176B08C116F153
:100C2000196B080E186F00016BEC01F001C00DF19B
:100C3000010E01010124016E000E0220036E01C0AD
:100C4000E9FF040E0324EA6E0BC1EFFF0CB10A8129
:100C50000CB30A83176B08C116F1196B080E186FD5
:100C600000016BEC01F0010101C0E9FF040E022458
:100C7000EA6E0AC1EFFF00011200036A010115517B
:100C8000700FE96E0F0E0320EA6EEF521BE0176B38
:100C900015C116F1196B080E186F00016BEC01F00D
:100CA00002C017F101C016F1040E01011627000E53
:100CB000172316C1E9FF040E1725EA6EEFCF18F1CE
:100CC00018AF02D0000E01D0010E016E000112001B
:100CD00010C115F1D2DF0152D8B485D00101176BD4
:100CE00010C116F1196B080E186F00016BEC01F0C2
:100CF00002C016F101C015F1040E01011527000E06
:100D00001623010E1525016E000E1621036E01C07B
:100D1000E9FF040E0324EA6E11C1EFFF135102082C
:100D200020E1176B10C116F1196B080E186F000146
:100D30006BEC01F002C016F101C015F1040E0101C7
:100D40001527000E162315C1E9FF040E1625EA6EBD
:100D5000EFCF14F114AD02D0136B02D0010E136F5C
:100D60001AD01351040817E1176B10C116F1196B53
:100D7000080E186F00016BEC01F0010101C0E9FFE2
:100D8000040E0224EA6EEFCF14F114AD03D0010E6D
:100D9000136F01D0136B132D03D0C80E146F02D044
:100DA000880E146F12B1148112B31483176B10C123
:100DB00016F1196B080E186F00016BEC01F002C000
:100DC00016F101C015F1040E01011527000E1623BE
:100DD00015C1E9FF040E1625EA6E14C1EFFF010EDE
:100DE000016E04D00001000E016E0101000112002D
:100DF0008251010A03E0030A15E028D0EA6A350EA1
:100E0000E96E040EE26E180EE16E080E016EE6CF7A
:100E1000EEFF012EFCD701010A6B000138EC02F055
:100E2000826B15D0EA6A2C0EE96E040EE26E180E83
:100E3000E16E070E016EE6CFEEFF012EFCD7826B4E
:100E400001010A6B000138EC02F001D0826B66EF01
:100E500007F00101176B08C116F1196B080E186F26
:100E600000016BEC01F002C00AF101C009F1010EB2
:100E700001010124016E000E0220036E01C0E9FF92
:100E8000040E0324EA6E036AEFCF01F003C002F000
:100E900000015AEF07F07D91020E0101086F096F02
:100EA00000016DDE12007D817F6B020E0101086F73
:100EB0000001CFD701C07EF07E5301E1ECDF6DEF82
:100EC00007F00101075304E1000192D706D00101A8
:100ED0000751020803E10001E6D7010100011200F9
:100EE00008C16EFF0101085303E0040E226E02D018
:100EF000020E226E000182EF07F01B6A1A6A24C0FC
:100F000008F1EED7F8EF07F008C115F1B6DE01528F
:100F100047E00101176B08C116F1196B080E186F35
:100F200000016BEC01F002C011F101C010F1040EE0
:100F300001011027000E1123020E1025016E000E74
:100F40001121036E01C0E9FF040E0324EA6EECCF09
:100F50000FF1ED52EFCF0EF10FC1EAFF0EC1E9FF25
:100F60000AC1E2FF09C1E1FF0CC102F00BC101F0AF
:100F7000015202E0022A02D0025206E0E6CFEEFF62
:100F8000012EFCD7022EFAD708C110F10CC112F1C4
:100F90000BC111F10DC113F100019ADE015002D015
:100FA000000E016E12007C5310E0020E0101086F6A
:100FB0000A6B3D0E096F0C6B7CC00BF1020E0D6FBE
:100FC0000001A2DF015201E07C6B1200ECDFFFEFB9
:100FD00007F0010107530EE11A2C05D000013DEC8A
:100FE00002F006D001011A50020803E1000185D782
:100FF000010106D00751020803E10001E7D7010112
:101000000001120021300101056F053305331F0E69
:10101000051721524EE1040100513C0B0101066FFE
:10102000430E0401001701010651340825E10401B3
:101030000451800B01E0046B000188D56D98233CBE
:1010400007D00101086B030E096F000198DD12D073
:101050000101086B020E096F000191DD2350FE08AB
:1010600009E00101106B126B23C011F1040E136F24
:1010700000012EDE1CD001010651040819E1076BA6
:1010800000011FDF0101086B020E096F000177DD0F
:101090002350FE080CE0233C01D009D00101106B65
:1010A000126B23C011F1010E136F000111DE01015B
:1010B00022D02150040812E12368076B000189DF68
:1010C000233C01D009D00101106B126B23C011F138
:1010D000020E136F0001FCDD0DD0010121B406D01A
:1010E00005C107F10001EDDE05D0010105C107F1E1
:1010F00000016FDF01010001B7EF08F0A19A225251
:1011000001E13ED068523CE068A404D069A402D05A
:1011100021EF01F06DA201D033D068AA04D069AAF2
:1011200002D039EF01F068A204D069A202D040EFEA
:1011300001F068A004D069A002D01BEF02F068A8FB
:1011400004D069A802D030EF02F068AC04D069ACDA
:1011500002D035EF02F00101046B68A60AD069A63F
:1011600008D06CCF21F0000119EC02F04BD702D06F
:10117000010105D001010451042B0308EEE2000136
:1011800040EF00F0EA6AB00EE96EEF500EE00F0E8D
:10119000016E006A002EFED7012EFBD78F0E006E67
:1011A000002EFED70000EF2EF2D76AEF0AF06D6A2C
:1011B000696A080E6F6E94503009946E226A196A3B
:1011C000F2BE198EF29E01EC02F019BEF28EEAEF29
:1011D00008F0EDD710EF09F0196AF2BE198EF29EF1
:1011E00001EC02F019BEF28E6D6A140E6F6E696A20
:1011F0006D86010E226E00EF09F06DB601D0ECD7BE
:10120000222C0BD06DBA09D0686A696AA08AC00E18
:10121000F212110E696E020E226E11EF09F0D9D78B
:10122000ECD722500208FCE179EF0AF01B50016E66
:101230007AEF0AF07DB101D0FDD77F517F2BA30F4C
:10124000E96E040EEA6ED8B0EA2AEFCFB2F07E5112
:101250007F5D07E3196AF2BE198EF29E1CDE19BE8D
:10126000F28EB2C001F01200B291F2BEB281F29ED3
:101270007C513E0802E23E0E7C6F7C517C2B036A5F
:101280003D0FE96E000E0320EA6EB1C0EFFFF29E43
:10129000B2B1F28E4FEF09F0B0C0B1F0E5D7196AE4
:1012A000F2BE198EF29E020E0101156F0001E5DCFF
:1012B00019BEF28E015207E0196AF2BE198EF29E33
:1012C00072DE19BEF28E6CEF09F07C513E0801E22D
:1012D000FCD7AFC0B0F0E0D71200B351400805E230
:1012E000410EB35D0A0F016E03D0300EB35D016E87
:1012F0001200FEC001F0FDC000F0FD67012A0900E8
:10130000F5CFEEFF002EFBD7012EF9D7F86ADFEFFD
:1013100009F0F250036EF29EA68EA6840F01550EC0
:10132000A76EAA0EA76EA68200000350F21200015B
:101330001200D08CA69CF6501F0B006EE00EF61625
:101340000A00FDC001F0006608D0F650010F3F0B07
:1013500004E1A6880900DDDF0A00006607D0EECFB1
:10136000F5FF015204E00F00010603D000060B0058
:101370000C001F0EF6141F0AE6E1CBDF0166E3D76F
:10138000F86A1EEF0AF0AF51C00BF76FB0C0F8F06B
:10139000B1C0F9F0B2C0FAF0F751AF5DFB6FB551D3
:1013A000B6115CE0F9C0F8FFF8C0F7FFF7C0F6FF30
:1013B000EA6AB70EE96EFE6B400EFD6F9AD7400EDB
:1013C000D880FB55B65303E1B55D06E005E3400E5A
:1013D000D880FB55FC6F02D0B5C0FCF0036AFB510E
:1013E000B70F016E000E032201C0FDF003C0FEF036
:1013F00003C0EAFF01C0E9FFB4C0E2FFB3C0E1FFF0
:10140000FC51016E04E0E6CFEEFF012EFCD7D08C3C
:10141000F9C0F8FFF8C0F7FFF7C0F6FFA688A69C52
:1014200078DFF86AF9C0F8FFF8C0F7FFF7C0F6FFF9
:10143000EA6AB70EE96E400EFD6F7BD7FC51B32709
:10144000000EB423400EF727000EF823F923FA23E9
:10145000FB6BFC51B55F000EB65BA1D78BEF0BF0B9
:10146000F86AD09E078EEA6AE96A93829380770EC3
:10147000C86E280EC66EC78EC79CC150C00B0F0920
:10148000C16E070EB46E1E6A040E1F6E0C0E206E27
:10149000836B846B8581876B866B896B886B958288
:1014A00083A203D0010E836F17D0F2CFAFF0F29E6C
:1014B000A96AA69CA69EA680A850AFBFF28EAD6F6B
:1014C000AD51CE0809E1010E836F140EAF6FFA0E15
:1014D000B06F58D6AF2FFBD7832D28D1010E256EC4
:1014E000196AF2BE198EF29EC3EC01F019BEF28E9B
:1014F00096D69CD60152FDE09298898895908C8072
:1015000099DE01C0ACF0AC51050803E1420EAF6FAB
:10151000DCDEAC513A08F4E18DDE01C0AFF001C071
:10152000B3F0DBDE0138AF6FF00EAF1783DE01C022
:10153000B0F001C0B3F0D1DE0150AF25AA6F7ADE62
:1015400001C0AFF001C0B3F0C8DE0138AF6FF00EDC
:10155000AF1770DE01C0B0F001C0B3F0BEDE0150C5
:10156000AF25886F896B88378937883789378837FF
:10157000893788378937F00E88175CDE01C0AFF0F5
:1015800001C0B3F0AADE01508827000E89238837F6
:101590008937883789378837893788378937F00E10
:1015A000881748DE01C0AFF001C0B3F096DE0150ED
:1015B0008827000E89233EDE3DDE01C0ABF0846B40
:1015C000AA51845D23E2036A84518A0F016E000EE2
:1015D000032201C0AFF003C0B0F02CDE01C0B1F0B7
:1015E00001C0B3F07ADE0138B16FF00EB11722DE20
:1015F00001C0B2F001C0B3F070DE0150B125B0C03F
:10160000EAFFAFC0E9FFEF6E842BDAD7AB513108A8
:1016100019E1550EAF6F59DE8591F250006EF29EC2
:10162000A96AA86AA69CA69EA6840F01550EA76E5D
:10163000AA0EA76EA682A6B2FED7A6940050F212FA
:101640006DD00001AB51340808E1000E8B25866F88
:10165000876B110EAF6F39DE61D0AB5130085EE1A0
:10166000865302E187533FE08651F00836E1875305
:1016700034E1AE6B846BAE6BD890AA31845D2CE202
:1016800084518825016E000E8921036E0150AF6FD1
:10169000036AAE518A0FE96E000E0320EA6EEFCFA7
:1016A000B0F0F250006EF29EAFC0A9FFB0C0A8FF2C
:1016B000A69CA69EA6840F01550EA76EAA0EA76E25
:1016C000A682A6B2FED7A6940050F2120001845161
:1016D000842B020EAE27D0D705D08651300802E108
:1016E000875300E118D08951170808E303E18851B6
:1016F0004F0804E3800EAF6FE8DD0DD0B26BB16B25
:1017000089C0B0F088C0AFF0B46B8A0EB36FB66B0F
:10171000AAC0B5F038D6110EAF6FD7DD000185B184
:10172000EFD69298899895908C90FF00256AA8EF43
:041730000BF00300B7
:0200000400F00A
:02000000CE0030
:020000040030CA
:0E00000024CE3E1E0087A1000FC00FE00F406F
:00000001FF
;PIC18F4550
;CRC=C17B  CREATED="15-Nov-13 16:53"
