:0400000077EF0AF09C
:0800080025A003D014EF00F065
:1000100002D0FCEF0BF0120025A003D01CEF00F083
:1000200002D004EF0CF01200046ED8CF05F0E0CF40
:1000300006F00001E9CF0CF0EACF07F0E1CF08F0BD
:10004000E2CF09F0D9CF0AF0DACF0BF0F3CF12F0FC
:10005000F4CF13F0FACF14F000C00EF001C00FF08F
:1000600002C010F003C011F0A0AA3AEF00F0A1BA4C
:10007000D5EF08F00EC000F00FC001F010C002F084
:1000800011C003F00CC0E9FF07C0EAFF078E08C0EB
:10009000E1FF09C0E2FF0AC0D9FF0BC0DAFF12C0BE
:1000A000F3FF13C0F4FF14C0FAFF045006C0E0FFD2
:1000B00005C0D8FF1000F76AC60FF66E000EF722D3
:1000C0000900F5501200000302FFFFFFFFFFFFFFD2
:1000D000FFFFFFFFFFFFF76AE60FF66E000EF72245
:1000E0000900F550120000FF02FFFFFFFFFFFFFFB6
:1000F000FFFFFFFFFFFFF76A060FF66E010EF72204
:100100000900F550120040000B0040000000000004
:1001100000000000000000000000000000000000DF
:1001200000000000000007AE03D0F2CF0DF0F29EF9
:10013000F76A480FF66E010EF7220900F55007AE78
:1001400002D00DBEF28E1200400000004000000000
:10015000000000000000000000000000000000009F
:100160000000000000000000F76A780FF66E010E34
:10017000F7220900F5501200090243000201008035
:1001800032090400000102020100052400100104EC
:10019000240202052406000105240100010705814F
:1001A000030B00FA09040100020A0000000705021F
:1001B000024000010705820240000100F76ACC0FEF
:1001C000F66E010EF7220900F55012000200F76AE0
:1001D000DE0FF66E010EF7220900F550120012171D
:1001E0001B20FFFFFFFFF76AF60FF66E010EF722E6
:1001F0000900F55012001201100102000040052410
:100200000B00000101020001F76A180FF66E020EE2
:10021000F7220900F5501200040309040803430003
:1002200043005300200343004300530020005500C7
:1002300053004200200074006F0020005500410070
:10024000520054006D92699468A402D06894FCD75F
:10025000E1EF08F0400E0401016F040E0001FD6F94
:10026000180EFDC003F4E8CF02F4880E0401006FFD
:10027000046B040E0001FD6F180EFC6F400EFC2590
:100280000401066F000E0001FD210401076F00014B
:10029000120070A002D0DEDF7090689AE8EF08F0DC
:1002A0006A6A6892EDEF08F001010C910BBF0C81B6
:1002B0000B9F0B51100803E2000E016E24D00CA11D
:1002C00012D0036A0B51F2CF0DF1F29E0001F3DE62
:1002D00001010DBFF28EFF0802E1000E01D0010EF8
:1002E000016E11D010D0036A0B51F2CF0DF1F29EC6
:1002F0000001F1DE01010DBFF28EFF0802E1000EE8
:1003000001D0010E016E0001120001011051120313
:10031000F3CF01F0F4CF00F01303F3500026115196
:100320001203F3500020026E00011200036A010163
:100330000A51700FE96E0F0E0320EA6EEF6A0AC1D0
:100340000BF10001B1DF015228E00101116B0AC17C
:1003500010F1136B080E126F0001D7DF010101C00D
:10036000E9FF040E0224EA6EEF6A116B0AC110F174
:10037000136B080E126F0001C8DF02C00CF101C040
:100380000BF1040E01010B27000E0C230BC1E9FF3A
:10039000040E0C25EA6EEF6A00011200010E010145
:1003A000096F09510F0807E309C10AF10001BEDF17
:1003B0000101092BF6D7000112000101036B026B4A
:1003C000250E016F800E006FEA6A2C0EE96E010E99
:1003D000E26EE16A020E016EE6CFEEFF012EFCD75F
:1003E0002E6A2F6A006BEA6A300EE96E010EE26E29
:1003F000E16AE6CFEEFF006BEA6A310EE96E010EAC
:10040000E26EE16AE6CFEEFF080E006FEA6A320E96
:10041000E96E010EE26EE16AE6CFEEFF0001766B57
:100420007591346A336A746B1E90776B1200296A77
:10043000286AFC6BFC5101080AE3036AFC512A0F8D
:10044000E96E000E0320EA6EEF6AFC2BF3D7B5DFEE
:10045000186A010E196E176A1200689612006A6A0D
:10046000686A9F0E6B6E3D0E696E6E6A97DFDFDF06
:10047000160E706E68A602D0F0DFFCD76D98EADE2B
:10048000030E226EF2EF08F0698468986D82F7EF30
:1004900008F0689CFCEF08F004C123F01200236808
:1004A00012000101026B2850291045E002513F085B
:1004B00042E31A50000A000105E0020A10E0010AB6
:1004C0001BE026D027C003F02650F2CF04F1F29EA5
:1004D0004BDE010104BFF28E036F000119D027C06B
:1004E00003F02650F2CF04F1F29E8EDE010104BF2C
:1004F000F28E036F00010CD027C003F02650F2CF1C
:1005000004F1F29E70DE010104BFF28E036F000160
:10051000262AD8B4272A2850D8B42906280601014B
:100520000251022B580FE96E040EEA6ED8B0EA2A87
:1005300003C1EFFFB8D72850291004E10251400849
:1005400001E0176A02C104F10001A6DF1200276A68
:10055000266A1A6A04011B51010A000107E0030A16
:100560000BE0010A0DE0220A29E051D0296A120E9F
:10057000286E030E1A6E4DD0296A430E286E49D09C
:10058000020E1A6E036A04011A511B0FE96E000E67
:100590000320EA6E276AEFCF26F027C003F026502B
:1005A000F2CF01F1F29E00012FDE010101BFF28EB8
:1005B000036A286E03C029F000012BD0036A0401EE
:1005C0001A51F2CF01F1F29E000101DE010101BFDB
:1005D000F28E036A266E03C027F0263C02D0275213
:1005E00013E027C003F02650F2CF01F1F29E000184
:1005F000BBDD010101BFF28E036A286E03C029F042
:10060000000107D004D00101000149DF11D047DF0C
:100610000FD004011F5308E1295203E128501E5D49
:1006200003E2296A1EC428F0010E176E000139DFAB
:1006300089EF04F00101015306E1040E226E00016E
:10064000ADDE08D10101050E226E040E0A6F180EF0
:10065000096F800E0925036F000E0A21046F010E39
:10066000026F02510F08D8A0F5D002C10AF10001B3
:100670005DDE0101056B036A0251F2CF09F1F29EC2
:10068000000129DD010109BFF28EFF086FE0040EB1
:10069000056FD8900235036AF2CF09F1F29E00018E
:1006A00042DD0900F5CF03F0010109BFF28E066FAC
:1006B00003C007F1116B02C110F1136B080E126F2A
:1006C000000123DE01C009F1010E01010124016EC8
:1006D000000E0220036E01C0E9FF040E0324EA6E3F
:1006E00006C1EFFF116B02C110F1136B080E126F00
:1006F00000010BDE01C009F1020E01010124016EAF
:10070000000E0220036E01C0E9FF040E0324EA6E0E
:1007100004C1ECFFED5203C1EFFFD8900235036A2C
:10072000F2CF09F1F29E0001FEDC0900F5CF03F0E3
:10073000010109BFF28E032703500423880E086FBE
:1007400007A101D0088107A301D00883116B02C162
:1007500010F1136B080E126F0001D7DD010101C00B
:10076000E9FF040E0224EA6E08C1EFFF036A02519A
:10077000F2CF09F1F29E00019EDC010109BFF28E69
:10078000FF084BE00583116B02C110F1136B080EDB
:10079000126F0001BADD02C00AF101C009F1040EB6
:1007A00001010927000E0A23020E0925016E000E21
:1007B0000A21036E01C0E9FF040E0324EA6E04C19E
:1007C000ECFFED5203C1EFFFD8900235036AF2CF80
:1007D00009F1F29E00018FDC0900F5CF03F0010161
:1007E00009BFF28E032703500423116B02C110F1DD
:1007F000136B080E126F000188DD02C00AF101C000
:1008000009F1040E01010927000E0A2309C1E9FFBD
:10081000040E0A25EA6E400EEF6E0551060802E14D
:100820000E0E056F036A0251F2CF09F1F29E00012C
:1008300042DC010109BFF28E010801E00589036A6B
:100840000251700FE96E0F0E0320EA6E05C1EFFF33
:10085000022B07D7000181EF04F004011951000AAF
:1008600000010DE0010A15E0020A21E0060A2CE071
:10087000030A33E00E0A33E0010A39E049D019C017
:1008800058F40401596B020E0101046F000104DEEB
:1008900040D004011A2D08D0010E19160101046B75
:1008A0000001FADD03D004010001F9DD32D00401BA
:1008B0001A2D07D019820101046B0001EDDD03D070
:1008C00004010001ECDD25D0020E176E1AC424F0DD
:1008D0000101046B0001E0DD1CD039D61AD018C02C
:1008E00058F4010E0101046F0001D6DD12D004019D
:1008F0001A5101080BE31AC418F01AC401F10001DF
:1009000099D60101046B0001C7DD0401000101D08B
:10091000C6DD1FEF06F018C001F104011951000AED
:10092000000105E00A0A0CE0010A32E047D00401A8
:10093000586B596B020E0101046F0001ADDD3FD011
:100940000101015322E0010E015D036AF2CF02F1C1
:10095000F29E000133DC010102BFF28E016E040140
:100960001C5DD8A002D0010110D0036A1C512A0FCF
:10097000E96E000E0320EA6EEFCF58F4010E01017C
:10098000046F000189DD03D00101000188DD17D06B
:100990000101015310E0036A04011C512A0FE96EA2
:1009A000000E0320EA6E1AC4EFFF0101046B000180
:1009B00073DD03D00101000172DD01D070DD1FEF96
:1009C00006F00101029101BF0281019F02A119D02D
:1009D000116B01C110F1136B080E126F000195DC51
:1009E00002C004F101C003F1040E01010327000E4F
:1009F000042303C1E9FF040E0425EA6E880EEF6E9E
:100A00000FD0116B01C110F1136B080E126F0001B2
:100A10007CDC010101C0E9FF040E0224EA6EEF6AEA
:100A2000000194EF05F00101029101BF0281019FD5
:100A300002A119D0116B01C110F1136B080E126FD6
:100A4000000163DC02C004F101C003F1040E0101E6
:100A50000327000E042303C1E9FF040E0425EA6EF8
:100A6000840EEF6E10D0116B01C110F1136B080EE4
:100A7000126F00014ADC010101C0E9FF040E0224EB
:100A8000EA6E840EEF6E00019CEF05F00101029109
:100A900001BF0281019F02A119D0116B01C110F1A8
:100AA000136B080E126F000130DC02C005F101C0AB
:100AB00004F1040E01010427000E052304C1E9FF1F
:100AC000040E0525EA6EEFCF03F110D0116B01C1C2
:100AD00010F1136B080E126F000117DC010101C049
:100AE000E9FF040E0224EA6EEFCF03F103AF02D058
:100AF00003B502D0000E01D0010E016E0001A8EF77
:100B000005F01CC40BF154EC01F001522EE004017D
:100B10001951010A000105E0020A0BE0030A11E085
:100B200023D01CC401F14DD70101046B0001B4DCDA
:100B30001CD01CC401F177D70101046B0001ACDCAF
:100B400014D00401586B596B1CC401F100019ED7ED
:100B5000015204E0010E0401586F0001020E010170
:100B6000046F000199DC01D09ADC1FEF06F0FE0E45
:100B7000236E120004011C2D01D002D01C5345E14C
:100B80001FC402F11EC401F11951000A00010BE05B
:100B9000010A0DE0210A0FE0010A12E0030A23E036
:100BA000010A28E030D0010E776FE1DF2DD001C1BE
:100BB00004F172DC29D0020E776F7581D8DF24D062
:100BC000040EEA6E580EE96EE26A2C0EE16E070E14
:100BD000016EE6CFEEFF012EFCD7070E0101046F78
:100BE00000015ADC11D01AC476F00101046B000137
:100BF00053DC0AD01AC434F01BC433F00101046B77
:100C000000014ADC01D04BDC040100011FEF06F0BB
:100C1000176A040118517F0B000A000107E0010A5E
:100C200007E0030A07E0230A07E008D016D607D03A
:100C300072D605D066D703D09DD701D030DC7BEFCC
:100C400008F00101116B02C110F1136B080E126F55
:100C5000000185EC01F0010101C0E9FF040E02244E
:100C6000EA6EEFCF04F10351020806E104AD02D0B1
:100C7000036B02D0010E036F035103081CE1840EC5
:100C8000046F116B02C110F1136B080E126F00019B
:100C900085EC01F002C008F101C007F1040E01016A
:100CA0000727000E082307C1E9FF040E0825EA6E96
:100CB000840EEF6E07D0032D03D0C80E046F02D050
:100CC000880E046FD8900235036AF2CF07F1F29EC6
:100CD000000193EC00F00900F5CF03F0010107BF1C
:100CE000F28E056F03C006F1116B02C110F1136B98
:100CF000080E126F000185EC01F001C007F1010E32
:100D000001010124016E000E0220036E01C0E9FF03
:100D1000040E0324EA6E05C1EFFF06A101D0048191
:100D200006A301D00483116B02C110F1136B080EEE
:100D3000126F000185EC01F0010101C0E9FF040E12
:100D40000224EA6E04C1EFFF00011200036A0101F0
:100D50000F51700FE96E0F0E0320EA6EEF521BE089
:100D6000116B0FC110F1136B080E126F000185ECAF
:100D700001F002C011F101C010F1040E01011027B1
:100D8000000E112310C1E9FF040E1125EA6EEFCF0A
:100D900012F112AF02D0000E01D0010E016E00015F
:100DA00012000AC10FF1D2DF0152D8B487D001017D
:100DB000116B0AC110F1136B080E126F000185EC64
:100DC00001F002C010F101C00FF1040E01010F2764
:100DD000000E1023010E0F25016E000E1021036E70
:100DE00001C0E9FF040E0324EA6E0BC1EFFF0D51B1
:100DF000020820E1116B0AC110F1136B080E126F8B
:100E0000000185EC01F002C010F101C00FF1040EE9
:100E100001010F27000E10230FC1E9FF040E10255A
:100E2000EA6EEFCF0EF10EAD02D00D6B02D0010EC7
:100E30000D6F1AD00D51040817E1116B0AC110F1A2
:100E4000136B080E126F000185EC01F0010101C067
:100E5000E9FF040E0224EA6EEFCF0EF10EAD03D0CF
:100E6000010E0D6F01D00D6B0D2D03D0C80E0E6F4E
:100E700002D0880E0E6F0CA101D00E810CA301D000
:100E80000E83116B0AC110F1136B080E126F000173
:100E900085EC01F002C010F101C00FF1040E010158
:100EA0000F27000E10230FC1E9FF040E1025EA6E74
:100EB0000EC1EFFF010E016E04D00001000E016EA5
:100EC0000101000112007751010A03E0030A08E062
:100ED0001BD00101046B00014CEC02F0776B15D0C4
:100EE000EA6A2C0EE96E040EE26E180EE16E070E31
:100EF000016EE6CFEEFF012EFCD7776B0101046B8C
:100F000000014CEC02F001D0776BC4EF07F0010157
:100F1000116B02C110F1136B080E126F000185EC0A
:100F200001F002C004F101C003F1010E010101242E
:100F3000016E000E0220036E01C0E9FF040E0324BF
:100F4000EA6E036AEFCF01F003C002F00001B8EFD0
:100F500007F01E90020E0101026F036F000171DEA7
:100F600012001E80206A020E0101026F0001CFD71D
:100F700001C01FF01F5201E1ECDFCBEF07F00101D0
:100F8000015304E100019FD706D00101015102087D
:100F900003E10001E6D701010001120002C16EFF6A
:100FA0000101025303E0040E226E02D0020E226EF3
:100FB0000001E0EF07F0186A176A24C002F1EED7CB
:100FC00056EF08F002C10FF1C1DE015247E0010106
:100FD000116B02C110F1136B080E126F000185EC4A
:100FE00001F002C00BF101C00AF1040E01010A2751
:100FF000000E0B23020E0A25016E000E0B21036E5C
:1010000001C0E9FF040E0324EA6EECCF09F1ED52B2
:10101000EFCF08F109C1EAFF08C1E9FF04C1E2FF0F
:1010200003C1E1FF06C102F005C101F0015202E077
:10103000022A02D0025206E0E6CFEEFF012EFCD7D4
:10104000022EFAD702C10AF106C10CF105C10BF15B
:1010500007C10DF10001A5DE015002D0000E016EA6
:101060001200745310E0020E0101026F046B350E82
:10107000036F066B74C005F1020E076F0001A2DF5B
:10108000015201E0746B1200ECDF5DEF08F001012A
:1010900001530EE1172C05D0000151EC02F006D0EF
:1010A00001011750020803E1000185D7010106D0B4
:1010B0000151020803E10001E7D70101000112001C
:1010C0002130FC6FFC33FC331F0EFC1721524DE125
:1010D000040100513C0B0001FD6F430E0401001799
:1010E0000001FD51340824E104010451800B01E0AA
:1010F000046B00018DD56D98233C07D00101026B74
:10110000030E036F00019DDD12D00101026B020E80
:10111000036F000196DD2350FE0809E001010A6B10
:101120000C6B23C00BF1040E0D6F00013ADE1CD0D6
:10113000FD51040819E10101016B000120DF0101EB
:10114000026B020E036F00017CDD2350FE080CE0F1
:10115000233C01D009D001010A6B0C6B23C00BF1B9
:10116000010E0D6F00011DDE1ED02150040812E19A
:1011700023680101016B00018ADF233C01D009D003
:1011800001010A6B0C6B23C00BF1020E0D6F000105
:1011900008DE09D021B404D0FCC001F1F0DE03D098
:1011A000FCC001F174DF06EF09F0A19A2252D8B415
:1011B00033D06852D8B430D068A403D069B422EFD9
:1011C00001F06DB229D068AA03D069BA49EF01F0E5
:1011D00068A203D069B250EF01F068A003D069B0F3
:1011E0002FEF02F068A803D069B844EF02F068ACB2
:1011F00003D069BC49EF02F0FB6B68A608D069A672
:1012000006D06CCF21F02DEC02F05AD701D004D0DB
:10121000FB51FB2B0308F1E23AEF00F0EA6AA70E5C
:10122000E96EEF500EE00F0E016E006A002EFED741
:10123000012EFBD78F0E006E002EFED70000EF2E82
:10124000F2D7B1EF0AF06D926D6A696A080E6F6E9F
:1012500094503009946E226A166AF2BE168EF29E7F
:1012600017EC02F016BEF28E37EF09F0ECD763EF01
:1012700009F0166AF2BE168EF29E17EC02F016BE48
:10128000F28E6D926D6A6D8C00D000D000006D9C66
:10129000140E6F6E696A6D86010E226E53EF09F0AF
:1012A0006DB601D0E6D7222C0BD06DBA09D0686A92
:1012B000696AA08AC00EF212110E696E020E226EC9
:1012C00064EF09F0D3D7ECD722500208FCE1C0EF5D
:1012D0000AF01850016EC1EF0AF01EB001D0FDD720
:1012E0002050202AA30FE96E040EEA6ED8B0EA2A35
:1012F000EFCFA9F01F50205C07E3166AF2BE168EEE
:10130000F29E27DE16BEF28EA9C001F01200A9914E
:10131000A0BAA981A09A74513E0802E23E0E746FF1
:101320007451742B036A350FE96E000E0320EA6EC8
:10133000A8C0EFFFA9A101D0A08AA2EF09F0A7C021
:10134000A8F0E5D7166AF2BE168EF29E8ADE16BEA9
:10135000F28EB3EF09F03F0ED880745501E1FBD750
:10136000A6C0A7F0ECD71200AA51400805E2410E32
:10137000AA5D0A0F016E03D0300EAA5D016E120045
:10138000F5C001F0F4C000F0F467012A0900F5CFC0
:10139000EEFF002EFBD7012EF9D7F86A26EF0AF0F0
:1013A000F250036EF29EA68EA6840F01550EA76E14
:1013B000AA0EA76EA68200000350F21200011200CE
:1013C000D08CA69CF6501F0B006EE00EF6160A009D
:1013D000F4C001F0006608D0F650010F3F0B04E1A5
:1013E000A6880900DDDF0A00006607D0EECFF5FF12
:1013F000015204E00F00010603D000060B000C00B0
:101400001F0EF6141F0AE6E1CBDF0166E3D7F86A88
:1014100065EF0AF0A651C00BEE6FA7C0EFF0A8C0B1
:10142000F0F0A9C0F1F0EE51A65DF26FAC51AD1134
:101430005CE0F0C0F8FFEFC0F7FFEEC0F6FFEA6A2D
:10144000AE0EE96EF56B400EF46F9AD7400ED88061
:10145000F255AD5303E1AC5D06E005E3400ED880E4
:10146000F255F36F02D0ACC0F3F0036AF251AE0F45
:10147000016E000E032201C0F4F003C0F5F003C0BA
:10148000EAFF01C0E9FFABC0E2FFAAC0E1FFF351F0
:10149000016E04E0E6CFEEFF012EFCD7D08CF0C049
:1014A000F8FFEFC0F7FFEEC0F6FFA688A69C78DF36
:1014B000F86AF0C0F8FFEFC0F7FFEEC0F6FFEA6A87
:1014C000AE0EE96E400EF46F7BD7F351AA27000EE3
:1014D000AB23400EEE27000EEF23F023F123F26B37
:1014E000F351AC5F000EAD5BA1D7D3EF0BF0F86A00
:1014F000D09E078E93829380770EC86E280EC66E9C
:10150000C78EC79CC150C00B0F09C16E070EB46EC9
:101510001B6A040E1C6E0C0E1D6E786B796B7A6B59
:101520007B6B7C817E6B7D6B806B7F6B958283A2F6
:1015300003D0010E7A6F17D0F2CFA6F0F29EA96AFF
:10154000A69CA69EA680A850A6BFF28EA46FA4510A
:10155000CE0809E1010E7A6F140EA66FFA0EA76F7E
:101560005DD6A62FFBD77A2D2AD1010E256E166ADD
:10157000F2BE168EF29EDDEC01F016BEF28EA2D601
:10158000A8D60152FDE09298898895908C80A5DEBE
:1015900001C0A3F0A351050803E1420EA66FDBDEF4
:1015A000A3513A08F4E199DE01C0A6F001C0AAF007
:1015B000DBDE0138A66FF00EA6178FDE01C0A7F0A4
:1015C00001C0AAF0D1DE0150A625A16F86DE01C0C0
:1015D000A6F001C0AAF0C8DE0138A66FF00EA6176B
:1015E0007CDE01C0A7F001C0AAF0BEDE0150A62536
:1015F0007F6F806B7F3780377F3780377F378037CB
:101600007F378037F00E7F1768DE01C0A6F001C07B
:10161000AAF0AADE01507F27000E80237F37803793
:101620007F3780377F3780377F378037F00E7F17DF
:1016300054DE01C0A6F001C0AAF096DE01507F275B
:10164000000E80234ADE49DE01C0A2F07B6BA1516F
:101650007B5D23E2036A7B51810F016E000E032242
:1016600001C0A6F003C0A7F038DE01C0A8F001C099
:10167000AAF07ADE0138A86FF00EA8172EDE01C09E
:10168000A9F001C0AAF070DE0150A825A7C0EAFFAA
:10169000A6C0E9FFEF6E7B2BDAD7A251310819E122
:1016A000550EA66F58DE7C91F250006EF29EA96A2C
:1016B000A86AA69CA69EA6840F01550EA76EAA0E28
:1016C000A76EA682A6B2FED7A6940050F2126FD0E3
:1016D0000001A251340808E1000E82257D6F7E6B67
:1016E000110EA66F38DE62D0A25130085FE17D5343
:1016F00002E17E533FE07D51F00836E17E5334E154
:10170000A56B7B6BA56BD890A1317B5D2CE27B51E7
:101710007F25016E000E8021036E0150A66F036AC3
:10172000A551810FE96E000E0320EA6EEFCFA7F0FE
:10173000F250006EF29EA6C0A9FFA7C0A8FFA69C0B
:10174000A69EA6840F01550EA76EAA0EA76EA682AE
:10175000A6B2FED7A6940050F21200017B517B2B5B
:10176000020EA527D0D705D07D51300802E17E5367
:1017700000E119D08051170809E303E17F51EF0818
:1017800005E3800EA66FE7DD11D00DD0A96BA86B25
:1017900080C0A7F07FC0A6F0AB6B810EAA6FAD6BC7
:1017A000A1C0ACF037D6110EA66FD5DD0F01000138
:1017B0007CB1EDD69298899895908C90FF00256A1F
:0617C000F8EF0BF003003E
:0200000400F00A
:02000000CE0030
:020000040030CA
:0E00000024CE3E1E0007A1000FC00FE00F40EF
:00000001FF
;PIC18F4550
;CRC=C944  CREATED="26-Jan-14 14:26"
