:0417F000D1EF29F01C
:0817F800046ED8CF05F0E0CF2C
:1018000006F00001E9CF0CF0EACF07F0E1CF08F0D5
:10181000E2CF09F0D9CF0AF0DACF0BF0F3CF12F014
:10182000F4CF13F0FACF14F000C00EF001C00FF0A7
:1018300002C010F003C011F0F2AA22EF0CF0F2B4D3
:1018400083EF15F09DA028EF0CF09EB07CEF16F012
:101850009DA22EEF0CF09EB2A6EF16F0A0AA34EFD8
:101860000CF0A1BA00EF15F00EC000F00FC001F0AF
:1018700010C002F011C003F00CC0E9FF07C0EAFF7E
:10188000078E08C0E1FF09C0E2FF0AC0D9FF0BC004
:10189000DAFF12C0F3FF13C0F4FF14C0FAFF0450C4
:1018A00006C0E0FF05C0D8FF1000F76ABA0FF66E59
:1018B000180EF7220900F5501200000302FFFFFF87
:1018C000FFFFFFFFFFFFFFFFFFFFF76ADA0FF66E74
:1018D000180EF7220900F550120000FF02FFFFFF6B
:1018E000FFFFFFFFFFFFFFFFFFFFF76AFA0FF66E34
:1018F000180EF7220900F550120040000B004000BE
:1019000000000000000000000000000000000000D7
:101910000000000000000000000007AE03D0F2CF7E
:101920000DF0F29EF76A3C0FF66E190EF7220900D1
:10193000F55007AE02D00DBEF28E1200400000003E
:101940004000000000000000000000000000000057
:10195000000000000000000000000000F76A6C0FAB
:10196000F66E190EF7220900F55012000902430025
:101970000201008032090400000102020100052476
:1019800000100104240202052406000105240100C0
:1019900001070581030B00FA09040100020A000097
:1019A0000007050202400001070582024000010015
:1019B000F76AC00FF66E190EF7220900F5501200F3
:1019C0000200F76AD20FF66E190EF7220900F550E1
:1019D000120012171B20FFFFFFFFF76AEA0FF66ED7
:1019E000190EF7220900F550120012011001020031
:1019F000004005240B00000101020001F76A0C0FF2
:101A0000F66E1A0EF7220900F550120004030904BD
:101A100008034300430053002003430043005300E6
:101A20002000550053004200200074006F00200089
:101A300055004100520054006D92699468A402D090
:101A40006894FCD70CEF15F0400E0401016F040EF2
:101A50000101FB6F180EFBC103F4E8CF02F4880EFE
:101A60000401006F046B040E0101FB6F180EFA6F86
:101A7000400EFA250401066F000E0101FB2104014E
:101A8000076F0001120070A002D0DEDF7090689A2C
:101A900013EF15F06A6A689218EF15F002010A91C7
:101AA00009BF0A81099F0951100803E2000E016E67
:101AB00024D00AA112D0036A0951F2CF0BF2F29E90
:101AC0000001F3DE02010BBFF28EFF0802E1000EFF
:101AD00001D0010E016E11D010D0036A0951F2CF6E
:101AE0000BF2F29E0001F1DE02010BBFF28EFF0845
:101AF00002E1000E01D0010E016E00011200020190
:101B00000E511003F3CF01F0F4CF00F01103F350A6
:101B100000260F511003F3500020026E0001120046
:101B2000036A02010851700FE96E0F0E0320EA6E7E
:101B3000EF6A08C209F20001B1DF015228E0020198
:101B40000F6B08C20EF2116B080E106F0001D7DF89
:101B5000020101C0E9FF040E0224EA6EEF6A0F6B76
:101B600008C20EF2116B080E106F0001C8DF02C030
:101B70000AF201C009F2040E02010927000E0A232D
:101B800009C2E9FF040E0A25EA6EEF6A000112009D
:101B9000010E0201076F07510F0807E307C208F2A1
:101BA0000001BEDF0201072BF6D700011200010180
:101BB000FE6BFD6B250EFC6F800EFB6FEA6A2C0E30
:101BC000E96E010EE26EFB0EE16E020E016EE6CFD3
:101BD000EEFF012EFCD72E6A2F6AFB6BEA6A300EED
:101BE000E96E010EE26EFB0EE16EE6CFEEFFFB6BDF
:101BF000EA6A310EE96E010EE26EFB0EE16EE6CF8F
:101C0000EEFF080EFB6FEA6A320EE96E010EE26E1D
:101C1000FB0EE16EE6CFEEFF0001766B7591346A44
:101C2000336A746B1E90776B1200296A286A01016F
:101C3000FA6BFA5101080AE3036AFA512A0FE96EB6
:101C4000000E0320EA6EEF6AFA2BF3D70001AFDF34
:101C5000186A010E196E176A1200689612006A6AF5
:101C6000686A9F0E6B6E3D0E696E6E6A91DFDDDFF6
:101C7000160E706E68A602D0F0DFFCD76D98E4DE19
:101C8000030E226E1DEF15F0698468986D8222EFB5
:101C900015F0689C27EF15F002C223F012002368AC
:101CA00012000101FD6B2850291045E0FD513F084D
:101CB00042E31A50000A000105E0020A10E0010A9E
:101CC0001BE026D027C003F02650F2CFFFF1F29E92
:101CD00045DE0101FFBFF28EFE6F000119D027C063
:101CE00003F02650F2CFFFF1F29E88DE0101FFBF24
:101CF000F28EFE6F00010CD027C003F02650F2CF09
:101D0000FFF1F29E6ADE0101FFBFF28EFE6F00015D
:101D1000262AD8B4272A2850D8B429062806010133
:101D2000FD51FD2B580FE96E040EEA6ED8B0EA2A79
:101D3000FEC1EFFFB8D72850291004E1FD5140083B
:101D400001E0176AFDC102F20001A6DF1200276A56
:101D5000266A1A6A04011B51010A000107E0030AFE
:101D60000BE0010A0DE0220A29E051D0296A120E87
:101D7000286E030E1A6E4DD0296A430E286E49D084
:101D8000020E1A6E036A04011A511B0FE96E000E4F
:101D90000320EA6E276AEFCF26F027C003F0265013
:101DA000F2CFFCF1F29E000129DE0101FCBFF28EB0
:101DB000036A286E03C029F000012BD0036A0401D6
:101DC0001A51F2CFFCF1F29E0001FBDD0101FCBFD4
:101DD000F28E036A266E03C027F0263C02D02752FB
:101DE00013E027C003F02650F2CFFCF1F29E000171
:101DF000B5DD0101FCBFF28E036A286E03C029F035
:101E0000000107D004D00101000149DF11D047DFF4
:101E10000FD004011F5308E1295203E128501E5D31
:101E200003E2296A1EC428F0010E176E000139DF93
:101E300098EF10F00101FC5306E1040E226E000140
:101E4000A7DE17D10101050E226E040E0201056FF7
:101E5000180E046F800E04250101FE6F000E0201B2
:101E600005210101FF6F010EFD6FFD510F08D8A084
:101E700000D1FDC108F2000153DE0201006B036ACC
:101E80000101FD51F2CF04F2F29E00011EDD0201BC
:101E900004BFF28EFF0873E0040E006FD8900101BA
:101EA000FD35036AF2CF04F2F29E000136DD09002F
:101EB000F5CF03F0020104BFF28E016F03C002F2FE
:101EC0000F6BFDC10EF2116B080E106F000117DED3
:101ED00001C004F2010E02010124016E000E022075
:101EE000036E01C0E9FF040E0324EA6E01C2EFFF96
:101EF0000F6BFDC10EF2116B080E106F0001FFDDBC
:101F000001C004F2020E02010124016E000E022043
:101F1000036E01C0E9FF040E0324EA6EFFC1ECFF6B
:101F2000ED52FEC1EFFFD8900101FD35036AF2CFFB
:101F300004F2F29E0001F1DC0900F5CF03F002018A
:101F400004BFF28E0101FE270350FF23880E020119
:101F5000036F02A101D0038102A301D003830F6BA1
:101F6000FDC10EF2116B080E106F0001C8DD0201F9
:101F700001C0E9FF040E0224EA6E03C2EFFF036A08
:101F80000101FD51F2CF04F2F29E00018EDC02014C
:101F900004BFF28EFF084EE000830F6BFDC10EF20E
:101FA000116B080E106F0001AADD02C005F201C01E
:101FB00004F2040E02010427000E0523020E04257C
:101FC000016E000E0521036E01C0E9FF040E03241B
:101FD000EA6EFFC1ECFFED52FEC1EFFFD8900101A8
:101FE000FD35036AF2CF04F2F29E00017EDC0900A7
:101FF000F5CF03F0020104BFF28E0101FE2703506A
:10200000FF2302010F6BFDC10EF2116B080E106F62
:10201000000175DD02C005F201C004F2040E0201E8
:102020000427000E052304C2E9FF040E0525EA6E0D
:10203000400EEF6E0051060802E10E0E006F036ABB
:102040000101FD51F2CF04F2F29E00012EDC0201EB
:1020500004BFF28E010801E00089036A0101FD510D
:10206000700FE96E0F0E0320EA6E00C2EFFFFD2B2A
:10207000FCD6000190EF10F004011951000A000194
:102080000DE0010A15E0020A21E0060A2CE0030A2D
:1020900033E00E0A33E0010A39E049D019C058F4A0
:1020A0000401596B020E0201026F0001F5DD40D000
:1020B00004011A2D08D0010E19160201026B00014D
:1020C000EBDD03D004010001EADD32D004011A2D5A
:1020D00007D019820201026B0001DEDD03D004018A
:1020E0000001DDDD25D0020E176E1AC424F00201B6
:1020F000026B0001D1DD1CD02AD61AD018C058F4CA
:10210000010E0201026F0001C7DD12D004011A5155
:1021100001080BE31AC418F01AC4FCF100018AD6B6
:102120000201026B0001B8DD0401000101D0B7DD3E
:1021300039EF12F018C0FCF104011951000A000136
:1021400005E00A0A0CE0010A32E047D00401586BAE
:10215000596B020E0201026F00019EDD3FD00101AA
:10216000FC5322E0010EFC5D036AF2CFFDF1F29E0A
:1021700000011EDC0101FDBFF28E016E04011C5D39
:10218000D8A002D0010110D0036A1C512A0FE96EB9
:10219000000E0320EA6EEFCF58F4010E0201026F29
:1021A00000017ADD03D00101000179DD17D00101C2
:1021B000FC5310E0036A04011C512A0FE96E000E63
:1021C0000320EA6E1AC4EFFF0201026B000164DD16
:1021D00003D00101000163DD01D061DD39EF12F0B0
:1021E0000101FD91FCBFFD81FC9FFDA11AD0020100
:1021F0000F6BFCC10EF2116B080E106F00017FDC3B
:1022000002C0FFF101C0FEF1040E0101FE27000E25
:10221000FF23FEC1E9FF040EFF25EA6E880EEF6E74
:1022200010D002010F6BFCC10EF2116B080E106F83
:10223000000165DC010101C0E9FF040E0224EA6E21
:10224000EF6A0001AEEF11F00101FD91FCBFFD81CD
:10225000FC9FFDA11AD002010F6BFCC10EF2116BA5
:10226000080E106F00014BDC02C0FFF101C0FEF14F
:10227000040E0101FE27000EFF23FEC1E9FF040E3C
:10228000FF25EA6E840EEF6E11D002010F6BFCC1C8
:102290000EF2116B080E106F000131DC010101C05C
:1022A000E9FF040E0224EA6E840EEF6E0001B6EF21
:1022B00011F00101FD91FCBFFD81FC9FFDA11DD02E
:1022C00002010F6BFCC10EF2116B080E106F0001C2
:1022D00016DC02C000F201C0FFF1040E0101FF276D
:1022E000000E02010023FFC1E9FF040E02010025D8
:1022F000EA6EEFCFFEF113D0010102010F6BFCC1BA
:102300000EF2116B080E106F00017FEC0DF001C092
:10231000E9FF040E02010224EA6EEFCFFEF1010193
:10232000FEAF02D0FEB502D0000E01D0010E016E4C
:102330000001C2EF11F01CC409F24EEC0DF0015285
:102340002EE004011951010A000105E0020A0BE028
:10235000030A11E023D01CC4FCF142D70201026B36
:1023600000019ADC1CD01CC4FCF16ED70201026B88
:10237000000192DC14D00401586B596B1CC4FCF1B1
:10238000000197D7015204E0010E0401586F0001CB
:10239000020E0201026F00017FDC01D080DC39EF08
:1023A00012F0FE0E236E120004011C2D01D002D08B
:1023B0001C5345E11FC4FDF11EC4FCF11951000A74
:1023C00000010BE0010A0DE0210A0FE0010A12E012
:1023D000030A23E0010A28E030D0010E776FE1DF25
:1023E0002DD0FCC102F258DC29D0020E776F758126
:1023F000D8DF24D0040EEA6E580EE96EE26A2C0E85
:10240000E16E070E016EE6CFEEFF012EFCD7070E40
:102410000201026F000140DC11D01AC476F0020103
:10242000026B000139DC0AD01AC434F01BC433F04B
:102430000201026B000130DC01D031DC040100013B
:1024400039EF12F0176A040118517F0B000A0001DE
:1024500007E0010A07E0030A07E0230A07E008D0C3
:102460000BD607D067D605D066D703D09DD701D04D
:1024700016DCA0EF14F002010F6BFDC10EF2116B20
:10248000080E106F00017FEC0DF0020101C0E9FFA2
:10249000040E0224EA6EEFCFFFF10101FE510208A3
:1024A00006E1FFAD02D0FE6B02D0010EFE6FFE51C1
:1024B00003081EE1840EFF6F02010F6BFDC10EF2D7
:1024C000116B080E106F00017FEC0DF002C003F2DB
:1024D00001C002F2040E02010227000E032302C211
:1024E000E9FF040E0325EA6E840EEF6E09D00101A8
:1024F000FE2D03D0C80EFF6F02D0880EFF6F0201C1
:10250000D8900101FD35036AF2CF02F2F29E00017C
:102510008DEC0CF00900F5CF03F0020102BFF28E42
:10252000006F03C001F20F6BFDC10EF2116B080EBC
:10253000106F00017FEC0DF001C002F2010E0201EC
:102540000124016E000E0220036E01C0E9FF040E9B
:102550000324EA6E00C2EFFF01A103D00101FF8155
:10256000020101A303D00101FF8302010F6BFDC132
:102570000EF2116B080E106F00017FEC0DF00201DE
:1025800001C0E9FF040E0224EA6EFFC1EFFF000163
:102590001200036A02010D51700FE96E0F0E032045
:1025A000EA6EEF521BE00F6B0DC20EF2116B080EBC
:1025B000106F00017FEC0DF002C00FF201C00EF2AF
:1025C000040E02010E27000E0F230EC2E9FF040EB7
:1025D0000F25EA6EEFCF10F210AF02D0000E01D03F
:1025E000010E016E0001120008C20DF2D2DF01528D
:1025F000D8B487D002010F6B08C20EF2116B080E1F
:10260000106F00017FEC0DF002C00EF201C00DF260
:10261000040E02010D27000E0E23010E0D25016E82
:10262000000E0E21036E01C0E9FF040E0324EA6EC2
:1026300009C2EFFF0B51020820E10F6B08C20EF236
:10264000116B080E106F00017FEC0DF002C00EF24E
:1026500001C00DF2040E02010D27000E0E230DC263
:10266000E9FF040E0E25EA6EEFCF0CF20CAD02D09E
:102670000B6B02D0010E0B6F1AD00B51040817E13F
:102680000F6B08C20EF2116B080E106F00017FEC89
:102690000DF0020101C0E9FF040E0224EA6EEFCF43
:1026A0000CF20CAD03D0010E0B6F01D00B6B0B2D98
:1026B00003D0C80E0C6F02D0880E0C6F0AA101D097
:1026C0000C810AA301D00C830F6B08C20EF2116BB0
:1026D000080E106F00017FEC0DF002C00EF201C079
:1026E0000DF2040E02010D27000E0E230DC2E9FFAC
:1026F000040E0E25EA6E0CC2EFFF010E016E04D02F
:102700000001000E016E0201000112007751010A62
:1027100003E0030A08E01BD00201026B00014CEC4D
:102720000EF0776B15D0EA6A2C0EE96E040EE26E9D
:10273000180EE16E070E016EE6CFEEFF012EFCD7FC
:10274000776B0201026B00014CEC0EF001D0776B4D
:10275000E7EF13F002010F6B00C20EF2116B080ECF
:10276000106F00017FEC0DF002C002F201C001F217
:10277000010E02010124016E000E0220036E01C051
:10278000E9FF040E0324EA6E036AEFCF01F003C0F1
:1027900002F00001DBEF13F01E90020E0101FD6F4D
:1027A000FE6F000168DE12001E80206A020E020128
:1027B000006F0001CFD701C01FF01F5201E1ECDF15
:1027C000EEEF13F00101FC5304E100019FD706D0A6
:1027D0000101FC51020803E10001E6D701010001FB
:1027E0001200FDC16EFF0101FD5303E0040E226ED5
:1027F00002D0020E226E000103EF14F0186A176A6D
:1028000024C0FDF1EED77AEF14F0FDC10DF2C1DE68
:10281000015247E002010F6BFDC10EF2116B080E71
:10282000106F00017FEC0DF002C006F201C005F24E
:10283000040E02010527000E0623020E0525016E77
:10284000000E0621036E01C0E9FF040E0324EA6EA8
:10285000ECCF04F2ED52EFCF03F204C2EAFF03C261
:10286000E9FFFFC1E2FFFEC1E1FF01C202F000C2C9
:1028700001F0015202E0022A02D0025206E0E6CF45
:10288000EEFF012EFCD7022EFAD7FDC108F201C2DD
:102890000AF200C209F202C20BF20001A5DE0150E9
:1028A00002D0000E016E1200745311E0020E0101FD
:1028B000FD6FFF6B350EFE6F0201016B74C000F2FD
:1028C000020E026F0001A1DF015201E0746B1200E1
:1028D000EBDF81EF14F00101FC530EE1172C05D062
:1028E000000151EC0EF006D001011750020803E17F
:1028F000000184D7010106D0FC51020803E1000168
:10290000E7D701010001120021300101FA6FFA330B
:10291000FA331F0EFA1721524EE1040100513C0B0D
:102920000101FB6F430E040100170101FB51340844
:1029300025E104010451800B01E0046B000182D504
:102940006D98233C07D00101FD6B030EFE6F000163
:1029500092DD12D00101FD6B020EFE6F00018BDDD6
:102960002350FE0809E00201086B0A6B23C009F23C
:10297000040E0B6F000138DE1CD00101FB5104086E
:1029800019E1FC6B00011EDF0101FD6B020EFE6F01
:10299000000171DD2350FE080CE0233C01D009D07A
:1029A0000201086B0A6B23C009F2010E0B6F0001D4
:1029B0001BDE010122D02150040812E12368FC6BC8
:1029C000000189DF233C01D009D00201086B0A6BAA
:1029D00023C009F2020E0B6F000106DE0DD00101CB
:1029E00021B406D0FAC1FCF10001ECDE05D00101F2
:1029F000FAC1FCF100016FDF0101000133EF15F0B6
:102A0000A19A2252D8B439D06852D8B436D068A42A
:102A100003D069B41CEF0DF06DB22FD068AA03D0BB
:102A200069BA43EF0DF068A203D069B24AEF0DF026
:102A300068A003D069B02FEF0EF068A803D069B882
:102A400044EF0EF068AC03D069BC49EF0EF0010111
:102A5000F96B68A60AD069A608D06CCF21F00001F6
:102A60002DEC0EF051D703D0010106D00001010179
:102A7000F951F92B0308EDE2000134EF0CF00101EC
:102A8000FC51070B006EFC31016E013201321F0E4A
:102A900001160150FE25E96E000EFF21EA6E016A63
:102AA000012A002A01D00136002EFDD7FD5303E094
:102AB0000150EF1203D0011E0150EF160001120069
:102AC000016A026A006A036A0201045102E10351C9
:102AD00018E0100E056FD890013702370036033624
:102AE0000451035C02E10351005C07E30351005E03
:102AF000D8A003060451035ED88001360236052FA4
:102B0000EAD7000112000101F96BF96BF9510308D2
:102B1000D8A0D7D0BBC100F0F951016E04E0D89025
:102B20000032012EFCD70050010BD8B4C8D0D89089
:102B3000F935036ACB0FE96E010E0320EA6EECCF84
:102B400003F0ED52EF50B95DD8A4B9D00350BA5D8F
:102B5000D8A4B5D0BCC100F0F951016E04E0D89002
:102B60000032012EFCD70050010B41E0D890F9351E
:102B7000036ACB0F016E010E032201C0FAF103C0FC
:102B8000FBF103C0EAFF01C0E9FFECCFFDF1ED521C
:102B9000EFCFFCF1036AF951BF0FE96E010E03207C
:102BA000EA6EEF50FC25016E000EFD21FBC1EAFF2D
:102BB000FAC1E9FFEC6EED5201C0EFFFD890F93594
:102BC000036A8C0FE96E010E0320EA6EECCFFBF175
:102BD000ED52EFCFFAF1FAC1FCF1010EFD6F0F0ECD
:102BE000FF6F890EFE6F00014ADF44D00101D890CB
:102BF000F935036ACB0F016E010E032201C0FAF111
:102C000003C0FBF103C0EAFF01C0E9FFECCFFDF117
:102C1000ED52EFCFFCF1D890F935036AC30FE96E9E
:102C2000010E0320EA6EECCF03F0ED52EF50FC25CD
:102C3000016EFD510322FBC1EAFFFAC1E9FF03C0A7
:102C4000ECFFED5201C0EFFFD890F935036A8C0F0D
:102C5000E96E010E0320EA6EECCFFBF1ED52EFCFEF
:102C6000FAF1FAC1FCF1FD6B0F0EFF6F890EFE6FDA
:102C7000000105DF010E006E0101F951016E04E053
:102C8000D8900036012EFCD70050BC1BD890F935E7
:102C9000036ACB0FE96E010E0320EA6EECCF02F25D
:102CA000ED52EFCF01F2010E0201046F900E036F9F
:102CB000000106DF00C0EFFF03C0ECFF0101F92BAC
:102CC00025D7B92BD8B4BA2BBAC102F2B9C101F2D7
:102CD000010E0201046F900E036F0001F1DE00C0CF
:102CE000B9F1010103C0BAF1FD0ED76EA90ED66E7F
:102CF000F294000134EF0CF06D0ECF6E840ECE6EA8
:102D00000101892BD8B48A2B0001955302E1965317
:102D100004E09551D8B49607950783A212D001011B
:102D20008751895DF96F88518A59FA6FFA5303E127
:102D3000F9510F0807E28AC188F189C187F10001C2
:102D4000758501019E90000134EF0CF075A902D049
:102D50008B8401D08B9475799E9234EF0CF0926B3A
:102D6000936B946B75970101886B876B0001759568
:102D7000966B956B01018B6BBD6B0001976B759327
:102D80007597966B956B01018A6B896B000175993C
:102D900001017E6B806B7F6B0001BC6BBD6BF2CF62
:102DA000D5F1F29EF86A760EF76E080EF66E0900FF
:102DB000F5500800F5CF03F0F86A0101D5BFF28E97
:102DC000816F03C082F1846B836B866B856B00011E
:102DD000996B986B9B6B9A6B01018B6B000147EFB2
:102DE0002AF00101BB51010BD8A41DD0D890BB31F2
:102DF000010B000AD8A417D0BB31006E00323F0E81
:102E000000160050010BD8A40ED0BB31006E00326A
:102E100000321F0E00160050010BD8A404D0000190
:102E2000759BF29A0101000112000101BB39006E8D
:102E30000F0E00160050010B18E0BB39006E003277
:102E4000070E00160050010B10E0166AF2BE168E37
:102E5000F29EACC1FCF1FD6B0F0EFF6F890EFE6F91
:102E600000010DDE16BEF28E0101BB39006E00328C
:102E70000032030E00160050010B16E0006ABBBFC3
:102E800000800050010B10E0166AF2BE168EF29E12
:102E9000AEC1FCF1FD6B0F0EFF6F890EFE6F0001DE
:102EA000EEDD16BEF28E0101000175EF17F0010E86
:102EB000006E0101EE51016E04E0D8900036012E43
:102EC000FCD70050FF0ABB17040EEE25016E010E61
:102ED000006E015204E0D8900036012EFCD700505D
:102EE000FF0ABB1700017DDFA0D7D8900101EE35A6
:102EF000036AA40FE96E010E0320EA6EECCFF0F135
:102F0000ED52EFCFEFF1166AF2BE168EF29EEFC1D0
:102F1000FCF1FD6B0F0EFF6F890EFE6F0001AFDD40
:102F200016BEF28ED8900101EE35036A940FE96E59
:102F3000010E0320EA6EECCFF0F1ED52EFCFEFF18E
:102F4000166AF2BE168EF29EEFC1FCF1FD6B0F0EFB
:102F5000FF6F890EFE6F000192DD16BEF28ED890D3
:102F60000101EE35036A9C0FE96E010E0320EA6E43
:102F7000ECCFF0F1ED52EFCFEFF1166AF2BE168E04
:102F8000F29EEFC1FCF1FD6B0F0EFF6F890EFE6F1D
:102F9000000175DD16BEF28E010E006E0101EE51CC
:102FA000016E04E0D8900036012EFCD70050BC130F
:102FB000D890EE35036ACB0FE96E010E0320EA6E5E
:102FC000EC6AED52EF6A000112000101EF5348E193
:102FD000010E006EEE51016E04E0D8900036012E15
:102FE000FCD70050BB13D890EE35036A8C0F016EEE
:102FF000010E032203C0F1F1D890EE35036A940F5D
:10300000E96E010E0320EA6EECCF03F0ED52EFCF34
:10301000F2F1F1C1EAFF01C0E9FF03C0ECFFED529C
:10302000F2C1EFFFD890EE35016E010E006E015235
:1030300004E0D8900036012EFCD70050FF0ABE17DE
:10304000D890EE35010F016E010E006E015204E0C2
:10305000D8900036012EFCD70050FF0ABE175DD075
:10306000EF2D3CD0D890EE35036A8C0F016E010E27
:10307000032203C0F1F1D890EE35036AA40FE96E84
:10308000010E0320EA6EECCF03F0ED52EFCFF2F128
:10309000F1C1EAFF01C0E9FF03C0ECFFED52F2C14C
:1030A000EFFFD890EE35016E010E006E015204E084
:1030B000D8900036012EFCD70050BE13D890EE35C4
:1030C000010F016E010E006E015204E0D89000362F
:1030D000012EFCD70050FF0ABE171FD0EF51020887
:1030E0001CE1D890EE35016E010E006E015204E035
:1030F000D8900036012EFCD70050FF0ABE17D8909A
:10310000EE35010F016E010E006E015204E0D89001
:103110000036012EFCD70050BE1300011200D890DB
:103120000101F135010F016EBEC100F0015204E052
:10313000D8900032012EFCD70050010B03E0020EA4
:10314000016E13D0D890F135016EBEC100F001526E
:1031500004E0D8900032012EFCD70050010B03E0B0
:10316000010E016E02D0000E016E00011200F0C1CE
:10317000F1F1D5DF012C01D001D056D0040E0101B0
:10318000F025016E010E006E015204E0D890003669
:10319000012EFCD70050BC13040EF025016EBBC1FC
:1031A00000F0015204E0D8900032012EFCD700500C
:1031B000010B3BE0D890F035036A940FE96E010EE5
:1031C0000320EA6EECCFF2F1ED52EFCFF1F1166A87
:1031D000F2BE168EF29EF1C1FCF1010EFD6F0F0ED4
:1031E000FF6F890EFE6F00014ADC16BEF28ED8908A
:1031F0000101F035036A9C0FE96E010E0320EA6EAF
:10320000ECCFF2F1ED52EFCFF1F1166AF2BE168E6D
:10321000F29EF1C1FCF1FD6B0F0EFF6F890EFE6F88
:1032200000012DDC16BEF28E0101000112002F0EEE
:10323000926E030E936E000E946E020E956E070E44
:10324000966EC150C00B0709C16EC050C00B070974
:10325000C06EC08EC280000E016EC250C30B011042
:10326000C26E89988C908B908B928B94B50ECD6E9C
:10327000880ED56EF29A9D80FD0ED76EA90ED66E81
:103280006D0ECF6E840ECE6EC00EF2120101D66BA3
:10329000D66BD651030811E3D6C1EEF1000107DE6B
:1032A000D6C1EEF1010E0101EF6F00018EDED6C135
:1032B000F0F15DDF0101D62BECD7000149EF2AF0D8
:1032C0006D926D6A696A080E6F6E94503009010143
:1032D000946E226A166AF2BE168EF29E000115ECFA
:1032E0000EF016BEF28E76EF19F0EAD7A2EF19F0C3
:1032F000166AF2BE168EF29E15EC0EF016BEF28E17
:103300006D926D6A6D8C00D000D000006D9C140E23
:103310006F6E696A6D86010E226E92EF19F06DB6BE
:1033200001D0E6D7222C0BD06DBA09D0686A696A41
:10333000A08AC00EF212110E696E020E226EA3EF69
:1033400019F0D3D7ECD722500208FCE153EF2AF052
:103350000101E65304E1E75302E19D923CD0E651BE
:103360000E0BEA6FEB6BD890EB31036EEA31026E15
:10337000E86FE731036EE631026E03320232033248
:1033800002320332023202C0E9F1E651010BEA6F68
:10339000EB6BEA5311E1EB530FE1010EE85D016EB7
:1033A0000134006E00360036F80E00160050060993
:1033B000CA6EE6C1CBFF0ED0010EE85D016E01348E
:1033C000006E00360036F80E001600500509CA6E71
:1033D000E6C1CBFF9D8200011200010EEA6EE60EEF
:1033E000E96EEF500EE00F0E016E006A002EFED760
:1033F000012EFBD78F0E006E002EFED70000EF2EA1
:10340000F2D712000F0E0101E76FDC0EE66F00012C
:103410009FDF640E0101E66F0001DFDF0101E76B52
:10342000E66B000195DF1200EDDF8C808988640E69
:103430000101E66F0001D1DF8C908998E3DF6AEF2C
:103440002AF01EB001D0FDD72050202AA30FE96E2C
:10345000040EEA6ED8B0EA2AEFCFDDF11F50205CEF
:1034600008E3166AF2BE168EF29ECCEC13F016BE7E
:10347000F28E0101DDC101F000018DEF1AF00101B2
:10348000DE51016ADD5D03E2DDC100F00CD0006AAF
:10349000080EDF6FDD370036DE51005CD8B0006EFD
:1034A0000136DF2FF7D7000112000101E191A0BA28
:1034B000E181A09A000174513E0802E23E0E746F51
:1034C0007451742B036A350FE96E000E0320EA6E07
:1034D000E0C1EFFF0101E1A101D0A08A000174EF7A
:1034E0001AF0DFC1E0F1E1D7166AF2BE168EF29E45
:1034F00054EC14F016BEF28E86EF1AF03F0ED88010
:10350000745501E1FBD7DEC1DFF1EBD712001EA03D
:1035100023D09451130820E394D701C0DCF1036A4F
:1035200093517E0FE96E000E0320EA6EDCC1EFFFBF
:10353000932B93C0DDF1140E0101DE6F00019FDFBC
:1035400000C093F0942BDCC1DEF1D8DF050E010141
:10355000E66F000142DFDBD71200945301E1D7DFB1
:10356000945318E0036A92517E0FE96E000E032017
:10357000EA6EEFCFDBF1922B92C0DDF1140E010168
:10358000DE6F00017CDF00C092F094070101DBC117
:1035900001F0000112000101E6518B5D10E0E635FB
:1035A000006E0036FC0E0016C250C30B0010C26E37
:1035B000E6C18BF1C70E006E002EFED700D0C2828E
:1035C000C2B2FED7C4CF03F0C3CF01F0C4CF02F024
:1035D00000011200EBC101F0EAC100F00066012A0F
:1035E0000900F5CFEEFF002EFBD7012EF9D7F86AC0
:1035F0001200E9C180F1E8C17FF1C00E01017F171F
:103600007F51E85D7E6FF86A80C1F7FF7FC1F6FFEA
:10361000010EEA6E3E0EE96EEB6B400EEA6F0001A2
:10362000D9DF12000101DBC103F0DA51D8B4DB07A6
:10363000DA07DC6F03C0DDF1DC5302E1DD5322E089
:10364000D9C103F0D851D82BD8B4D92B800FDC6F57
:103650005D0E0320DD6FF2CFDEF1F29EF86AF76EA9
:10366000DCC1F6FF0900F5500800F5CF03F0F86A59
:10367000DEBFF28EDC6F03C0DDF1DE6F00013EDFE6
:10368000D1D7010100016BEF20F0F250036EF29EE2
:10369000A68EA6840F01550EA76EAA0EA76EA6824F
:1036A00000000350F21200011200D08CA69CF650CC
:1036B0001F0B006EE00EF6160A00E8C101F000666E
:1036C00008D0F650010F3F0B04E1A6880900DDDFAA
:1036D0000A00006607D0EECFF5FF015204E00F00AC
:1036E000010603D000060B000C001F0EF6141F0A83
:1036F000E6E1CBDF0166E3D7F86A120001017E51F3
:103700007E2B036A3E0FE96E010E0320EA6EDBC1D9
:10371000EFFF7E517E2B036A3E0FE96E010E032000
:10372000EA6EDC51EF6E7E513F0835E280515D0854
:1037300004E331E17F5130082EE2D08CF86A80C179
:10374000F7FF7FC1F6FFA688A69C00019EDFF86AFE
:10375000F86A80C1F7FF7FC1F6FF010EEA6E3E0EE8
:10376000E96E400E0101E86F00019FDF01017E6BF1
:10377000400E7F27000E8023F86A80C1F7FF7FC1CB
:10378000F6FF010EEA6E3E0EE96EEB6B400EEA6F3D
:10379000000120DF010100011200010180515D08DC
:1037A00004E31DE17F5130081AE2D08CF86A80C131
:1037B000F7FF7FC1F6FFA688A69C000166DFF86AC6
:1037C000F86A80C1F7FF7FC1F6FF010EEA6E3E0E78
:1037D000E96E400E0101E86F000167DF01010001A1
:1037E00012000101DA6BD96B855302E1865330E098
:1037F0000001B3DE01C0D8F10101D85180081DE1FC
:10380000DC6BD8C1DBF1000179DFA7DE010101C06B
:10381000DAF1D96B0001A1DE01500101D927000EB8
:10382000DA23DAC1DCF1D9C1DBF1000167DF010184
:103830008551D8B48607850706D0DC6BD8C1DBF18B
:1038400000015CDF01018551D8B486078507CCD71C
:103850000001A3DFF3EF20F0D8900101F035036AF7
:10386000CB0FE96E010E0320EA6E166AF2BE168EC9
:10387000F29EBAC102F2B9C101F20201046B0A0E52
:10388000036F000160EC15F016BEF28E00500101CE
:10389000B95D006E0350BA5900C0EFFFEC6ED890CE
:1038A000F035036ACB0F016E010E032201C0F1F166
:1038B00003C0F2F103C0EAFF01C0E9FFECCFF4F16D
:1038C000ED52EFCFF3F1036AF051BF0FE96E010E35
:1038D0000320EA6EEF50F325016E000EF421F2C1D1
:1038E000EAFFF1C1E9FFEC6EED5201C0EFFFD890A5
:1038F000F035036ACB0FE96E010E0320EA6EECCFC0
:10390000F2F1ED52EFCFF1F1BA51F25D11E303E1C3
:10391000F151B95D0DE2010E006EF051016E04E04F
:10392000D8900036012EFCD70050FF0ABC1738D0C3
:10393000010E006EF051016E04E0D8900036012EA9
:10394000FCD70050BC13D890F035036ACB0F016E42
:10395000010E032201C0F1F103C0F2F103C0EAFF3E
:1039600001C0E9FFECCFF4F1ED52EFCFF3F1D890C5
:10397000F035036AC30FE96E010E0320EA6EECCF47
:1039800003F0ED52EF50F325016EF4510322F2C122
:10399000EAFFF1C1E9FF03C0ECFFED5201C0EFFF08
:1039A000000112000101BA6BB96B0001758BFD0EAD
:1039B000D76EA90ED66EF28A1200EAC1F1F18FEC31
:1039C00018F0012C01D00CD0EAC1EEF157EC17F041
:1039D000EAC1EEF1010E0101EF6F0001E5EC17F015
:1039E0000A0ED8800101EB55EC6F000ED8A0E80656
:1039F000ED6F010E006EEA51016E04E0D8900036C2
:103A0000012EFCD70050FF0ABB17036AEA51BF0F13
:103A1000E96E010E0320EA6EEBC1EFFFD890EA35A4
:103A2000036AC30FE96E010E0320EA6EEDC1ECFFDD
:103A3000ED52ECC1EFFFEC5334E1ED5332E1000104
:103A4000F1EC16F0040E0101EA25016EBBC100F095
:103A5000015204E0D8900032012EFCD70050010B37
:103A60001FE0D890EA35036A8C0FE96E010E03203F
:103A7000EA6EECCFEFF1ED52EFCFEEF1166AF2BE47
:103A8000168EF29EEEC1FCF1010EFD6F0F0EFF6F60
:103A9000890EFE6F00013FEC15F016BEF28E01019B
:103AA0003AD0040EEA25016EBBC100F0015204E0D9
:103AB000D8900032012EFCD70050010B21E000010C
:103AC00075AB04D0EAC1F0F1C7DE19D0010E006E6B
:103AD0000101EA51016E04E0D8900036012EFCD7B6
:103AE0000050BC13D890EA35036ACB0FE96E010E83
:103AF0000320EA6EEC6AED52EF6A000153DF010128
:103B0000010E006EEA51016E04E0D8900036012EDD
:103B1000FCD70050BB130001A6EF1DF00101E96BBB
:103B2000E96BE951030815E3BDC100F0E951016EED
:103B300004E0D8900032012EFCD70050010B07E0C2
:103B4000E9C1EAF1E8C1EBF1000137D70101E92B46
:103B5000E8D700011200F0C1F1F18FEC18F0012C50
:103B600001D001D059D0040E0101F025016E010EE3
:103B7000006E015204E0D8900036012EFCD70050B0
:103B8000FF0ABC17040EF025016EBBC100F0015204
:103B900004E0D8900032012EFCD70050010B3DE02C
:103BA000D890F035036A940FE96E010E0320EA6E97
:103BB000ECCFF2F1ED52EFCFF1F1166AF2BE168EB4
:103BC000F29EF1C1FCF1FD6B0F0EFF6F890EFE6FCF
:103BD00000013FEC15F016BEF28ED8900101F035D1
:103BE000036A9C0FE96E010E0320EA6EECCFF2F13E
:103BF000ED52EFCFF1F1166AF2BE168EF29EF1C1D0
:103C0000FCF1010EFD6F0F0EFF6F890EFE6F0001BC
:103C10003FEC15F016BEF28E010100011200040EF9
:103C20000101EE25016E010E006E015204E0D890F4
:103C30000036012EFCD70050BB13EEC1F1F100019C
:103C40008FEC18F001C0EFF10101EF5368E1D8905B
:103C5000EE35036ACB0FE96E010E0320EA6EEC6AC3
:103C6000ED52EF6AD890EE35036AA40FE96E010EAB
:103C70000320EA6EECCFF1F1ED52EFCFF0F1166ACE
:103C8000F2BE168EF29EF0C1FCF1010EFD6F0F0E1A
:103C9000FF6F890EFE6F00013FEC15F016BEF28E2D
:103CA000D8900101EE35036A9C0FE96E010E0320E6
:103CB000EA6EECCFF1F1ED52EFCFF0F1166AF2BE01
:103CC000168EF29EF0C1FCF1010EFD6F0F0EFF6F1C
:103CD000890EFE6F00013FEC15F016BEF28ED890F3
:103CE0000101EE35036A940FE96E010E0320EA6EBE
:103CF000ECCFF1F1ED52EFCFF0F1166AF2BE168E75
:103D0000F29EF0C1FCF1FD6B0F0EFF6F890EFE6F8E
:103D100000013FEC15F016BEF28E44DE0101EF2DDE
:103D20005CD0040EEE25016EBCC100F0015204E02F
:103D3000D8900032012EFCD70050010B07E0EEC1F5
:103D4000F0F10001B7EC18F005D00101EEC1F0F17F
:103D5000000101DF0101BBC100F0EE51016E04E082
:103D6000D8900032012EFCD70050010B17E0000163
:103D700075AB04D0EEC1F0F16FDD0ED0D89001012B
:103D8000EE35036ACB0FE96E010E0320EA6EEC6A92
:103D9000ED52EF6A000106DE1FD00101D890EE352A
:103DA000036AA40FE96E010E0320EA6EECCFF1F175
:103DB000ED52EFCFF0F1166AF2BE168EF29EF0C110
:103DC000FCF1010EFD6F0F0EFF6F890EFE6F0001FB
:103DD0003FEC15F016BEF28E0101EF51020800E132
:103DE000D890EE31006ED89000360050036AAC0FC8
:103DF000E96E010E0320EA6EECCFF1F1ED52EFCF48
:103E0000F0F1166AF2BE168EF29EF0C1FCF1010EC0
:103E1000FD6F0F0EFF6F890EFE6F00013FEC15F076
:103E200016BEF28E1200EAC1F1F18FEC18F00152C9
:103E30000BE0EAC1EEF157EC17F0EAC1EEF1010137
:103E4000EF6B0001E5EC17F0900ED8800101EB5507
:103E5000EC6F010ED8A0E806ED6F040EEA25016EA6
:103E6000BBC100F0015204E0D8900032012EFCD713
:103E70000050010B0DE0036AEA51BF0FE96E010E1D
:103E80000320EA6EEF50B95D02E1BA53F4E016D0B8
:103E9000010E006EEA51016E04E0D8900036012E4A
:103EA000FCD70050BC13D890EA35036ACB0FE96EFB
:103EB000010E0320EA6EEC6AED52EF6A036AEA51E2
:103EC000BF0FE96E010E0320EA6EEBC1EFFFD89041
:103ED000EA35036AC30FE96E010E0320EA6EEDC1F5
:103EE000ECFFED52ECC1EFFF040EEA25016EBBC101
:103EF00000F0015204E0D8900032012EFCD70050AF
:103F0000010B05E1EAC1EEF1000189DE01010001CA
:103F1000A2EF1FF00101E96BE96BE951030815E31A
:103F2000BDC100F0E951016E04E0D8900032012ECD
:103F3000FCD70050010B07E0E9C1EAF1E8C1EBF161
:103F4000000171D70101E92BE8D700011200945359
:103F5000D8B44AD1ADEC1AF001C0D5F1D5C197F073
:103F600075830101D551000A00012CE0200A37E0D9
:103F7000A30A52E0070AD8B493D0010AD8B4B2D049
:103F8000030AD8B4C3D0420AD8B4C3D0040AD8B400
:103F9000C3D0010AD8B4C2D09B0AD8B4C1D0880A11
:103FA000D8B4C3D0180AD8B4C8D0CF0AD8B4CDD0AA
:103FB000010AD8B4D1D0020AD8B4E8D0010AD8B4E2
:103FC000FCD011D1010E0101DE6F00017EEC1AF070
:103FD000010E0101DE6F00017EEC1AF004D1ADECA0
:103FE0001AF001C0D5F1D5C1E6F1CBEC1AF002C050
:103FF000D7F101C0D6F1D7C1D8F10101D96BD6C133
:10400000DAF1DB6BD7C1DEF100017EEC1AF0DAC128
:10401000DEF17EEC1AF0E7D075857587ADEC1AF00D
:1040200001C0D5F10101D5C184F1836B0001ADEC74
:104030001AF001C0D5F10101D55183138351F00B62
:10404000D86F84510F0BD96FD851F00819E1D951AD
:104050000F0816E183510F0BD86FD96BD890D83564
:10406000026ED935036E0250F00FD86F7F0E032019
:10407000D96F800ED85D836F5D0ED959846F03D0E0
:10408000D89083378437800E8325D86F5D0E8421C6
:10409000D96FE96FD8C1E8F10001F9EC1AF0A3D0AB
:1040A000ADEC1AF001C0D5F10101D5C186F1856BE7
:1040B0000001ADEC1AF001C0D5F10101D551851315
:1040C00084C1D9F183C1D8F186C1DBF185C1DAF1B0
:1040D000000112EF1BF001018551832786518423D3
:1040E000000181D0ADEC1AF001C0D5F10101D5C1BC
:1040F00086F1856B0001ADEC1AF001C0D5F101012C
:10410000D55185130001F1EF1BF06DD075857597C2
:104110006AD002EC1AF067D08C8065D08C9063D0A6
:10412000ADEC1AF001C0BDF15ED0ADEC1AF001C0EB
:10413000D5F1D5C1E8F1F2DC56D0ADEC1AF001C0F2
:10414000D5F1D5C1E8F1E6DE4ED0460E0101DE6FB5
:1041500000017EEC1AF047D0F29CF29EF2BEFDD731
:10416000F250006EF29EA96ACE0EA86EA69CA69E84
:10417000A6840F01550EA76EAA0EA76EA682A6B240
:10418000FED7A6940050F212FF000001F250006E1C
:10419000F29E020EA96EDB0EA86EA69CA69EA684B9
:1041A0000F01550EA76EAA0EA76EA682A6B2FED765
:1041B000A6940050F212000116D0F250006EF29E4A
:1041C000020EA96EA86AA69CA69EA6840F01550E93
:1041D000A76EAA0EA76EA682A6B2FED7A69400501E
:1041E000F212000100D0B3D66EEF2AF0D8C17DF0F4
:1041F000D7C17CF0D6C17BF0D5C17AF07FEF2AF031
:10420000800E01018325EA6F5D0E8421F2CFECF16F
:10421000F29EF86AF76EEAC1F6FF0900F550080051
:10422000F5CF03F0F86AECBFF28EE86F03C0E9F156
:10423000020E8327000E8423E8C101F0E9C102F0D9
:1042400000011200BD5310E0BD07D890BD35036AD0
:10425000FE0FE96E000E0320EA6EEFCF01F0E92AAF
:10426000EF50E906026E04D07597000E016E026EE3
:104270001200BC5310E0BC07D890BC35036ABE0FD7
:10428000E96E000E0320EA6EEFCF01F0E92AEF504D
:10429000E906026E04D07597000E016E026E1200E0
:1042A000BD511F0811E3BD51BD2B006ED8900036E3
:1042B0000050036AFE0FE96E000E0320EA6EE9C1AA
:1042C000ECFFED52E8C1EFFF1200BC511F080EE3F6
:1042D000D890BC35036ABE0FE96E000E0320EA6E6B
:1042E000E9C1ECFFED52E8C1EFFFBC2B1200010168
:1042F000EE6BEF6B010EF06FDA6AD96AF36FE60EC0
:10430000F26F010EEA6EEA0EE96EF3C1E2FFF2C14E
:10431000E1FFF0C1F1F1D890E550EE02F350EE2349
:10432000F450EF23F12FF7D7EEC1DEFFEFC1EEF12E
:10433000EF6BD8B0EF2BF22BD8B4F32BF02BF0515E
:104340000508DFE10001B8EF21F07DC0E9F17CC094
:10435000E8F17BC0E7F17AC0E6F1410E0101ED6FB3
:10436000C60EEC6F4E0EEB6F6D0EEA6F0001BFD7FD
:10437000390E0101002400017A6F300E0101012085
:1043800000017B6F000E0101022000017C6F000E16
:104390000101032000017D6F7CC000F07DC001F0B1
:1043A000026A036A7DC0E8F17CC0E7F1166AF2BEDA
:1043B000168EF29E7DC002F27CC001F27F0E0201D9
:1043C000046F0369000160EC15F016BEF28E00C0A8
:1043D00001F003C002F09EEF26F001017E517E2B1A
:1043E000036A3E0FE96E010E0320EA6EE6C1EFFF9D
:1043F0007E517E2B036A3E0FE96E010E0320EA6EAA
:10440000E751EF6E0001CDEC1BF012000101E66BED
:10441000E66BE651030814E3BDC100F0E651016EFE
:1044200004E0D8900032012EFCD70050010B06E0CA
:10443000E6C1EEF1000157EC17F00101E62BE9D7D8
:10444000000198EF29F00101E66BE66BE6510308E5
:1044500014E3BDC100F0E651016E04E0D8900032D3
:10446000012EFCD70050010B06E0E6C1F0F100017F
:10447000ABEC1DF00101E62BE9D7000198EF29F024
:104480000101E66BE66BE651030814E3BDC100F0E1
:10449000E651016E04E0D8900032012EFCD70050A6
:1044A000010B06E0E6C1F0F10001B7EC18F00101E4
:1044B000E62BE9D7000198EF29F0E7C1F1F18FEC85
:1044C00018F0012C01D001D01BD0040E0101E7250A
:1044D000016EBCC100F0015204E0D8900032012E00
:1044E000FCD70050010B07E0E7C1F0F10001ABEC95
:1044F0001DF006D00101E7C1F0F10001B7EC18F0A2
:1045000098EF22F00101E66BE66BE651030813E336
:10451000BDC100F0E651016E04E0D8900032012EDA
:10452000FCD70050010B05E0E6C1E7F10001C5D75B
:104530000101E62BEAD7000198EF29F00101E66BB3
:10454000E66BE651030814E3BDC100F0E651016ECD
:1045500004E0D8900032012EFCD70050010B06E099
:10456000E6C1EEF100010FEC1EF00101E62BE9D7E8
:1045700000019DEF28F00101EA6BEA5103082DE3E9
:10458000BDC100F0EA51016E04E0D8900032012E66
:10459000FCD70050010B1FE0D890EA35036AB10F39
:1045A000E96E010E0320EA6EE8518925EF6EE951AC
:1045B0008A21EC6E166AF2BE168EF29EEAC1FCF1FA
:1045C000010EFD6FFF6FB00EFE6F00013FEC15F0A6
:1045D00016BEF28E0101EA2BD0D70001B6EF28F00B
:1045E000C69E9E96E8C1C9FF020EC6BE05D09EA615
:1045F000FED7000EC5BC010E016E98EF29F0C69CD7
:10460000C586C5B6FED700B0C59A00A0C58AC588C4
:10461000C5B8FED7C9CF01F08DEF29F00101E06BDD
:10462000DF6BD7AF6FD0020E8325DF6F000E8421C2
:10463000E06FE76BD7C1E6F13F0EE617E76BE6C127
:10464000E7F1E66B0001DCDD02C003F001C002F01F
:10465000D8900236033602500101E625836F0350DD
:10466000E721846F0001CCDD02C0DAF101C0D9F18D
:104670000101D7AD12D0D86B030ED925016E000E03
:10468000DA21036E0150035203E10150D85D05E2C7
:104690000001D8DD0101D82BEFD7D86BDA5303E145
:1046A000D951D85D0EE20001E4DD02C0E7F101C09E
:1046B000E6F102C0E9F101C0E8F1F2DD0101D82B19
:1046C000EDD7E96BBCC0E8F10001EADDE0C1E9F13A
:1046D000DFC1E8F1E5DD020E0101D925016E000E12
:1046E000DA21036E01500001BD5D0101E66F000E8D
:1046F0000354E76FE96FE6C1E8F10001D1DD98EFFF
:1047000029F00101D751000A0001D8B418D1010ADB
:10471000D8B41ED1030AD8B426D1010AD8B439D1ED
:10472000070AD8B452D1010AD8B486D1030AD8B442
:10473000A0D1010AD8B4D3D10F0AD8B4D0D1010A7C
:10474000D8B413D2030AD8B449D2010AD8B464D277
:10475000070AD8B488D2020AD8B488D2010AD8B4D9
:104760009CD21F0AD8B4B2D2010AD8B4BED2030A6E
:10477000D8B4C2D2010AD8B4C4D2070AD8B4C8D2B5
:10478000010AD8B4CED2030AD8B4D6D2010AD8B41A
:10479000E0D20F0AD8B4DDD2010AD8B4DAD2030AC3
:1047A000D8B4D7D2010AD8B4D4D2070AD8B4D1D257
:1047B000010AD8B4CED2030AD8B4CBD2010AD8B4F5
:1047C000C8D23F0AD8B4C5D2010AD8B4C2D2030AAB
:1047D000D8B475D3010AD8B481D3070AD8B48BEF03
:1047E00027F0010AD8B4A8EF27F0030AD8B4D2EF13
:1047F00027F0010AD8B402EF28F00F0AD8B42FEF3F
:1048000028F0010AD8B454EF28F0030AD8B459EFBD
:1048100028F0010AD8B463EF28F0750AD8B48FEFF6
:1048200028F03F0AD8B492EF28F0010AD8B495EFE7
:1048300028F03F0AD8B498EF28F0020AD8B49BEFCA
:1048400028F0010AD8B49BEF28F03E0AD8B4B9EF9B
:1048500028F0390AD8B4C4EF28F0010AD8B4CFEF51
:1048600028F01E0AD8B4D4EF28F0010AD8B4D6EF45
:1048700028F0030AD8B4F3EF28F0010AD8B40CEFFB
:1048800029F00F0AD8B41CEF29F07F0AD8B42CEF16
:1048900029F00F0AD8B42CEF29F0710AD8B42CEF04
:1048A00029F0030AD8B42CEF29F0010AD8B42CEF70
:1048B00029F0070AD8B42CEF29F0010AD8B42CEF5C
:1048C00029F0030AD8B42CEF29F0770AD8B448EFBE
:1048D00029F0030AD8B448EF29F0750AD8B448EF94
:1048E00029F01F0AD8B448EF29F0010AD8B448EFDC
:1048F00029F0030AD8B448EF29F0010AD8B448EFE8
:1049000029F0070AD8B448EF29F0010AD8B46AEFB1
:1049100029F0030AD8B46DEF29F0320AD8B470EF49
:1049200029F0010AD8B474EF29F0030AD8B478EF5B
:1049300029F0010AD8B483EF29F097EF29F0759791
:1049400092988998996B986B9B6B9A6B98EF29F06A
:1049500057DC01C0E1F10101E96BE1C1E8F10001BF
:10496000B4DC98EF29F04CDC01C0E2F149DC01C075
:10497000E3F1E2C1E5F10101E46BE351E427000E4C
:10498000E523E5C1E9F1E4C1E8F100019EDC98EF1F
:1049900029F0020E01018325E66F000E8421E76FE6
:1049A000E96FE6C1E8F1000190DC2ADC02C003F007
:1049B00001C002F0D890023603360250010183276D
:1049C00003508423000198EF29F053DC02C0E0F18A
:1049D00001C0DFF101018451E05D09E303E1DF5132
:1049E000835D05E2E0C184F1DFC183F122D0E0C143
:1049F00084F1DFC183F100013CDC02C09BF001C007
:104A00009AF09B5303E19A51010804E29A51D8B4F9
:104A10009B079A079A2D02D09B530AE09BC0E9F1AD
:104A20009AC0E8F152DC84C1E9F183C1E8F14DDCC0
:104A30000101000198EF29F01CDC0150021007E091
:104A400018DC17DC02C084F101C083F110D011DC46
:104A500002C084F101C083F184C1E9F183C1E8F1AE
:104A600034DC050E0101E66F0001EDEC19F098EF62
:104A700029F000EC21F002C003F0D89001340101CC
:104A8000DF6F0334E06F000122EC21F002C0DAF1A5
:104A900001C0D9F1DAC1E9F1D9C1E8F101DC0101C4
:104AA000DF51D925E66FE051DA21E76FD890E6357E
:104AB000026EE735036E0250FE0FE96E000E032012
:104AC000EA6EECCFE7F1ED52EFCFE6F1E7C1E9F1A5
:104AD000E6C1E8F1000165EC21F098EF29F0010151
:104AE000D751080808E1000139EC21F002C0E0F1DB
:104AF00001C0DFF10101000122EC21F002C0DAF176
:104B000001C0D9F122EC21F002C084F101C083F18F
:104B100022EC21F002C0DCF101C0DBF10101DC5329
:104B20000AE10001BC510101DB5D05E2000139EC45
:104B300021F0F4D70101DA530AE10001BD5101016E
:104B4000D95D05E2000122EC21F00101F4D7D75133
:104B5000080808E1E0C1E9F1DFC1E8F1000165EC16
:104B600021F00101000198EF29F039EC21F002C099
:104B700099F001C098F039EC21F002C09BF001C01F
:104B80009AF084C1E9F183C1E8F165EC21F09B530F
:104B900003E19A51010811E29BC0E9F19AC0E8F1E2
:104BA00065EC21F099C0E9F198C0E8F165EC21F0DD
:104BB00099C084F198C083F10FD09A2D07D09B53F0
:104BC00005E199C084F198C083F106D039EC21F059
:104BD00002C084F101C083F198EF29F039EC21F093
:104BE00002C0DAF101C0D9F139EC21F002C0DCF1E8
:104BF00001C0DBF10101DB51DC110CE084C1E9F102
:104C000083C1E8F1000165EC21F0DAC184F1D9C17A
:104C100083F1010100018CD339EC21F002C0DAF1FB
:104C200001C0D9F139EC21F002C0DCF101C0DBF1A7
:104C300039EC21F002C0DEF101C0DDF184C1E9F1FF
:104C400083C1E8F165EC21F00101DD51DE1105E0E1
:104C5000DCC184F1DBC183F104D0DAC184F1D9C1B4
:104C600083F1000165D302EC1AF062D339EC21F034
:104C700002C099F001C098F084C1E9F183C1E8F164
:104C800065EC21F099C0E9F198C0E8F165EC21F0FC
:104C900099C084F198C083F14BD339EC21F002C064
:104CA00099F001C098F09B6B9A6B0101E96BE86B7E
:104CB000000165EC21F099C0E9F198C0E8F165ECDC
:104CC00021F099C084F198C083F132D339EC21F0FE
:104CD000010101340001956F010102340001966F5A
:104CE00095379637FC0E951723D38AC1E9F189C110
:104CF000E8F165EC21F01CD301018A6B896B00019E
:104D000017D339EC21F002C0E0F101C0DFF110D37C
:104D10000101E96B97C0E8F1000165EC21F07593A2
:104D200007D3000E75B3010E0101E66FE96BE86F62
:104D3000000165EC21F0FCD2A5EF21F002C0E7F103
:104D400001C0E6F102C0E9F101C0E8F165EC21F033
:104D5000EFD239EC21F002C0DCF101C0DBF139EC1B
:104D600021F002C0DAF101C0D9F1170E0101D75DBF
:104D7000F50FD8B09CD00B0F00019AEF29F001017C
:104D8000DB51D927DC51DA2392D00101DB51D95F05
:104D9000DC51DA5B8CD0166AF2BE168EF29EDAC156
:104DA0000FF2D9C10EF2DCC111F2DBC110F27FECBF
:104DB0000DF016BEF28E02C0DAF101C0D9F1010188
:104DC00076D0166AF2BE168EF29EDAC102F2D9C110
:104DD00001F2DCC104F2DBC103F260EC15F016BE97
:104DE000F28E02C0DAF101C0D9F1010160D0166A79
:104DF000F2BE168EF29EDAC102F2D9C101F2DCC116
:104E000004F2DBC103F260EC15F016BEF28E00C0B6
:104E1000D9F1010103C0DAF14AD00101DB51D95DBA
:104E200003E1DC51DA5D02E0000E01D0010EDA6B25
:104E3000D96F3DD00101DC51DA5D04E305E1D951C0
:104E4000DB5D02E3000E01D0010EDA6BD96F2FD0CB
:104E50000101DA51DC5D04E305E1DB51D95D02E3D8
:104E6000000E01D0010EDA6BD96F21D00101D951AA
:104E7000DA1103E0DB51DC1102E1000E01D0010E7A
:104E8000DA6BD96F14D00101D951DA1105E1DB5188
:104E9000DC1102E1000E01D0010EDA6BD96F07D0F0
:104EA0000101DB51D91BDC51DA1B01D00101DAC150
:104EB000E9F1D9C1E8F1000165EC21F039D239EC12
:104EC00021F001500210000ED8B4010E0101E66F6E
:104ED000E96BE86F000165EC21F02AD239EC21F092
:104EE00002C0E0F101C0DFF139EC21F002C0E7F1CE
:104EF000D89001010134026EE735036E02509C0F19
:104F0000E96E000E0320EA6EE0C1ECFFED52DFC156
:104F1000EFFF00010DD239EC21F002C0E7F1D8908B
:104F200001010134026EE735036E02509C0FE96EF9
:104F3000000E0320EA6EECCFE7F1ED52EFCFE6F181
:104F4000E7C1E9F1E6C1E8F1000165EC21F0F0D13B
:104F500039EC21F002C0DCF101C0DBF139EC21F0C9
:104F6000D89001010134D96F0234DA6F000139ECB5
:104F700021F001C0DFF10101670E0224E06FD95179
:104F8000DF25E66FDA51E021E76FE96FE6C1E8F16E
:104F90000001F9EC1AF0DCC1E7F1DBC1E6F1EDEC60
:104FA00021F0C6D139EC21F0D89001010134D96F3C
:104FB0000234DA6F000139EC21F001C0DFF10101A8
:104FC000670E0224E06FD951DF25E66FDA51E02148
:104FD000F2CFE8F1F29EF86AF76EE6C1F6FF09003B
:104FE000F5500800F5CF03F0F86AE8BFF28EDB6FEA
:104FF00003C0DCF1DCC1E9F1DBC1E8F1000165ECE3
:1050000021F096D139EC21F002C0E0F101C0DFF1CE
:10501000010182C103F08151812BD8B4822BC00FD2
:10502000E66F590E0320E76FE96FE6C1E8F1000172
:10503000F9EC1AF0E0C1E7F1DFC1E6F1EDEC21F0A7
:10504000760E0101E96F080EE86F0001F9EC1AF025
:1050500082C1E7F181C1E6F1EDEC21F069D10101F6
:1050600082C103F08151812BD8B4822BC00FE66F2F
:10507000590E0320F2CFE8F1F29EF86AF76EE6C10E
:10508000F6FF0900F5500800F5CF03F0F86AE8BF15
:10509000F28EDF6F03C0E0F1E0C1E9F1DFC1E8F1BA
:1050A000000165EC21F044D10101826B816B0001AC
:1050B0003FD139EC21F0D89001010134816F0234E5
:1050C000826F000135D139EC21F0D8900101013413
:1050D000D96F0234DA6FE06BDF6BE051DA5D1BE30E
:1050E00003E1D951DF5D17E2C00EDF25E66F590EEF
:1050F000E021E76FE96FE6C1E8F10001F9EC1AF091
:105100000101E76BE66B0001EDEC21F00101DF2B03
:10511000D8B4E02BE2D7826B816B000109D106EF96
:1051200022F006D123EF22F003D140EF22F000D18C
:1051300082EF22F0FDD09EEF22F00101D7515D08F1
:1051400016E1000139EC21F002C0E7F101C0E6F1FF
:105150000101E637E737E637E737FC0EE617E7C128
:10516000E9F1E6C1E8F10001BBEF22F00101000125
:10517000DFD039EC21F002C0E7F101C0E6F101C057
:10518000E8F18EEC1DF0D4D039EC21F002C0E7F14B
:1051900001C0E6F101C0E8F18AEC1FF0C9D039EC9A
:1051A00021F001C0BDF1C4D07585C2D039EC21F029
:1051B000F2CFE8F1F29EF86A02C0F7FF01C0F6FFF5
:1051C0000900F5500800F5CF03F0F86A0101E8BFC7
:1051D000F28EE66F03C0E7F103C0E9F1E86F00016A
:1051E00065EC21F0A5D039EC21F002C0DAF101C064
:1051F000D9F139EC21F002C0DCF101C0DBF1DCC1F6
:10520000E9F1DBC1E8F1F9EC1AF0DAC1E7F1D9C153
:10521000E6F1EDEC21F08CD039EC21F002C0E7F1A1
:1052200001C0E6F10101E76BE7C1E9F101C0E8F176
:10523000000165EC21F07CD039EC21F002C0E7F1EF
:1052400002C0E6F10101E76BE7C1E9F102C0E8F154
:10525000000165EC21F06CD00101D751480804E34E
:10526000370ED75DD86F04D0490ED75D020FD86FC7
:10527000D8C1E6F10001CBEC1AF002C0E7F101C0A1
:10528000E6F102C0E9F101C0E8F165EC21F050D08F
:105290000101D7514E0804E3390ED75DD86F04D011
:1052A0004F0ED75D020FD86FD8C1E6F10001CBECED
:1052B0001AF002C0E7F1010102C0E6F1E76BD890F5
:1052C000E733E633E7C1E9F1E6C1E8F1000165EC57
:1052D00021F02ED095908C802BD095908C9028D05A
:1052E000C580C5B0FED724D0C584C5B4FED720D0B4
:1052F00039EC21F002C0E7F101C0E6F101C0E8F1AC
:10530000F0EF22F015D039EC21F002C0E7F101C036
:10531000E6F101C000F0FFEF22F001C0E6F101016B
:10532000E96B01C0E8F1000165EC21F001D0758561
:10533000C3EF2AF0F2CF0DF0F29EE824F76AF736B9
:10534000590FF66E530EF7220A00F550FA6E080058
:10535000F5500DBEF28EF96E7E4D8A4D964DC24DC2
:10536000EE4D1A4E344E504E6C4E864EA04E0101FC
:10537000D551070B006ED531016E013201321F0E7F
:1053800001160150D625E96E000ED721EA6EEFCF47
:1053900001F0002A01D00132002EFDD70001D0EF2C
:1053A0002AF0F86AD09E078E93829380770EC86E9B
:1053B000280EC66EC78EC79C926B936B946B966BD0
:1053C000956B976B7593996B986B9B6B9A6BBC6B9A
:1053D000BD6B01017E6B806B7F6B826B816B846B1D
:1053E000836B866B856B0001759575970101886BE2
:1053F000876B8A6B896B8B6B000175990101BA6BA6
:10540000B96BC150C00B0F09C16E070EB46E19D035
:1054100003001B00040C020078000020409C001CCC
:1054200001940D7C0A7C1C7C167C0C7C1F7C1B7CF4
:10543000177C0E7C0B7C1D7C1A7C0F7C1E7C09C0AB
:105440000000000EF86E540EF76E100EF66E090096
:10545000F550006E000A13E00900F550016EE8BE39
:1054600005D00F0BEA6E0900F5CFE9FF01BC09007A
:1054700001AC0900F5CFEEFF004EE9D7F9D7F86A85
:10548000F29CF29EF2BEFDD70001AFEF16F017EFCF
:1054900019F0166AF2BE168EF29ED7EC0DF016BE0B
:1054A000F28EA1EF19F0F2CFD5F1F29E020EA96EA5
:1054B000A69CA69EA680A8500101D5BFF28ED36FF0
:1054C000D351DB0804E100017585759701010001E6
:1054D00014EF1AF087EC1AF0A7EF1FF075A544D06F
:1054E00075A703D0759789983CD00101D86BD76B0D
:1054F0008AC1D6F189C1D5F10001F6EF20F0F2CFD3
:10550000D5F1F29EF86A7F0EF76EF00EF66E090086
:10551000F5500800F5CF03F0F86A0101D5BFF28E0F
:10552000D56FD66FD56BF2CFD7F1F29EF86A7F0EAA
:10553000F76EF20EF66E0900F5500800F5CF03F095
:10554000F86AD7BFF28ED525836F0350D621846FBA
:10555000D890833784370001BC6BBD6B759375871A
:105560008988966B956B759575A70DD09551961199
:105570000AE100EC21F002C0D6F101C0D5F101C072
:10558000D7F10EEF23F00101D46BD45103083AE3B5
:10559000D4C1D5F1010ED76FB00ED66F0001E7D69A
:1055A0000150010B01082BE1D8900101D435036AA9
:1055B000B10FE96E010E0320EA6EECCF03F0ED525D
:1055C000EFCF01F003508A5D1BE303E18951015CD9
:1055D00017E2D4C1EEF1000157EC17F0166AF2BEE3
:1055E000168EF29ED4C1FCF10101FD6B010EFF6F1E
:1055F000B00EFE6F00013FEC15F016BEF28E0101F9
:0A560000D42BC3D7000166D70300C6
:020000040030CA
:0E00000024CE3E1E0007A1000FC00FE00F40EF
:00000001FF
;PIC18F4550
;CRC=F2A2  CREATED="02-Feb-14 11:01"
