:041750006CEF27F023
:08175800046ED8CF05F0E0CFCC
:1017600006F00001E9CF0CF0EACF07F0E1CF08F076
:10177000E2CF09F0D9CF0AF0DACF0BF0F3CF12F0B5
:10178000F4CF13F0FACF14F0F5CF15F0F6CF16F032
:10179000F7CF17F000C00EF001C00FF002C010F03C
:1017A00003C011F0F2AAD8EF0BF0F2B48DEF14F0F1
:1017B0009DA0DEEF0BF09EB0FBEF15F09DA2E4EFD5
:1017C0000BF09EB225EF16F0A0AAEAEF0BF0A1BA3B
:1017D00028EF14F00EC000F00FC001F010C002F0AE
:1017E00011C003F00CC0E9FF07C0EAFF078E08C074
:1017F000E1FF09C0E2FF0AC0D9FF0BC0DAFF12C047
:10180000F3FF13C0F4FF14C0FAFF15C0F5FF16C0B4
:10181000F6FF17C0F7FF045006C0E0FF05C0D8FF71
:101820001000F76A320FF66E180EF7220900F55015
:101830001200000302FFFFFFFFFFFFFFFFFFFFFF9C
:10184000FFFFF76A520FF66E180EF7220900F550E7
:10185000120000FF02FFFFFFFFFFFFFFFFFFFFFF80
:10186000FFFFF76A720FF66E180EF7220900F550A7
:10187000120040000B0040000000000000000000CB
:101880000000000000000000000000000000000058
:101890000000F76AA20FF66E180EF7220900F55045
:1018A00012004000000040000000000000000000A6
:1018B0000000000000000000000000000000000028
:1018C0000000F76AD20FF66E180EF7220900F550E5
:1018D00012000902430002010080320904000001E5
:1018E000020201000524001001042402020524065E
:1018F00000010524010001070581030B00FA09041A
:101900000100020A0000000705020240000107056D
:10191000820240000100F76A260FF66E190EF722C8
:101920000900F55012000200F76A380FF66E190E22
:10193000F7220900F550120012171B20FFFFFFFFCE
:10194000F76A500FF66E190EF7220900F5501200D3
:101950001201100102000040610433000001010285
:101960000001F76A720FF66E190EF7220900F550A2
:101970001200040309040803430043005300180342
:10198000530045005200490041004C002000440033
:1019900045004D004F006D92699468A402D0689490
:1019A000FCD734EF14F0400E0401016F040E036FF6
:1019B000180E026F880E006F046B040E076F580E2E
:1019C000066F0001120070A002D0EDDF7090689ADF
:1019D0003DEF14F06A6A689243EF14F00101F2914E
:1019E000F1BFF281F19FF151100803E2000E016E88
:1019F0001AD0F2A10DD0036AF151000112DFFF08E5
:101A000002E1000E01D0010E016E01010CD00BD0DD
:101A1000036AF151000115DFFF0802E1000E01D059
:101A2000010E016E0101000112000101F651F803DF
:101A3000F3CF01F0F4CF00F0F903F3500026F75193
:101A4000F803F3500020026E00011200036A010146
:101A5000F051700FE96E0F0E0320EA6EEF6AF0C1CD
:101A6000F1F10001BBDF015228E00101F76BF0C189
:101A7000F6F1F96B080EF86F0001D7DF010101C024
:101A8000E9FF040E0224EA6EEF6AF76BF0C1F6F18B
:101A9000F96B080EF86F0001C8DF02C0F2F101C057
:101AA000F1F1040E0101F127000EF223F1C1E9FF6B
:101AB000040EF225EA6EEF6A00011200010E010128
:101AC000EF6FEF510F0807E3EFC1F0F10001BEDF48
:101AD0000101EF2BF6D7000112000101E96BE86B61
:101AE000250EE76F800EE66FEA6A2C0EE96E010E96
:101AF000E26EE60EE16E020E016EE6CFEEFF012E03
:101B0000FCD72E6A2F6AE66BEA6A300EE96E010E88
:101B1000E26EE60EE16EE6CFEEFFE66BEA6A310EAC
:101B2000E96E010EE26EE60EE16EE6CFEEFF080E04
:101B3000E66FEA6A320EE96E010EE26EE60EE16EC3
:101B4000E6CFEEFF0001816B8091346A336A7C6BD3
:101B50007D91826B1200296A286A0101E56BE551CB
:101B600001080AE3036AE5512A0FE96E000E03201B
:101B7000EA6EEF6AE52BF3D70001AFDF1B6A010EB7
:101B80001C6E1A6A1200689612006A6A686A9F0ED2
:101B90006B6E3D0E696E6E6A91DFDDDF160E706E44
:101BA00068A602D0F0DFFCD76D98FDDE030E226E32
:101BB00049EF14F0698468986D824FEF14F0689CC7
:101BC00055EF14F0EAC123F012002368120001015E
:101BD000E86B2850291033E0E8513F0830E31D50EE
:101BE000000A000105E0020A0AE0010A0FE014D031
:101BF00027C003F0265065DEE8CFE9F10DD027C0FD
:101C000003F02650AEDEE8CFE9F106D027C003F09E
:101C1000265096DEE8CFE9F1262AD8B4272A2850A4
:101C2000D8B4290628060101E851E82B580FE96EBF
:101C3000040EEA6ED8B0EA2AE9C1EFFFCAD72850ED
:101C4000291004E1E851400801E01A6AE8C1EAF10C
:101C50000001B8DF1200276A266A1D6A04011B51C1
:101C6000010A000107E0030A0BE0010A0DE0220A65
:101C700022E03AD0296A120E286E030E1D6E36D06D
:101C8000296A430E286E32D0020E1D6E036A0401CB
:101C90001A511E0FE96E000E0320EA6E276AEFCF7D
:101CA00026F027C003F0265000015BDE036A286E91
:101CB00003C029F01BD0036A04011A51000134DE6D
:101CC000036A266E03C027F0263C02D027520AE0A2
:101CD00027C003F02650F5DD036A286E03C029F003
:101CE00005D002D072DF11D070DF0FD004011F5376
:101CF00008E1295203E128501E5D03E2296A1EC44F
:101D000028F0010E1A6E000162DFD2EF0FF0010120
:101D1000E75306E1040E226E0001D0DEE7D0010198
:101D2000050E226E040EEA6F980EE96F010EE86F41
:101D3000E8510F08D8A0DAD0E8C1F0F1000186DE42
:101D40000101EB6B036AE85100017BDDFF0865E0F0
:101D5000040E0101EB6FD890E835036A000199DDAC
:101D60000900F5CF03F00101EC6F03C0EDF1F76B53
:101D7000E8C1F6F1F96B080EF86F000156DE01C0FC
:101D8000EFF1010E01010124016E000E0220036E2D
:101D900001C0E9FF040E0324EA6EECC1EFFFF76B0C
:101DA000E8C1F6F1F96B080EF86F00013EDE01C0E4
:101DB000EFF1020E01010124016E000E0220036EFC
:101DC00001C0E9FF040E0324EA6EEAC1ECFFED5204
:101DD000E9C1EFFFD890E835036A00015ADD090038
:101DE000F5CF03F00101E9270350EA23880EEE6FD7
:101DF000EDB1EE81EDB3EE83F76BE8C1F6F1F96B6F
:101E0000080EF86F000111DE010101C0E9FF040EA8
:101E10000224EA6EEEC1EFFF0001036A0101E851FE
:101E20000001FFDCFF0847E00101EB83F76BE8C12D
:101E3000F6F1F96B080EF86F0001F7DD02C0F0F162
:101E400001C0EFF1040E0101EF27000EF023020E96
:101E5000EF25016E000EF021036E01C0E9FF040EB4
:101E60000324EA6EEAC1ECFFED52E9C1EFFFD8901E
:101E7000E835036A0001F5DC0900F5CF03F0010144
:101E8000E9270350EA23F76BE8C1F6F1F96B080E76
:101E9000F86F0001CADD02C0F0F101C0EFF1040EDD
:101EA0000101EF27000EF023EFC1E9FF040EF0253A
:101EB000EA6E400EEF6E0101EB51060802E10E0ED4
:101EC000EB6F036AE8510001ACDC010803E001019B
:101ED000EB890001036A0101E851700FE96E0F0EF2
:101EE0000320EA6EEBC1EFFFE82B22D70001CBEF16
:101EF0000FF004011951000A00010DE0010A15E07C
:101F0000020A20E0060A2AE0030A31E00E0A31E064
:101F1000010A37E046D01CC058F40401596B020E88
:101F20000101EA6F00014EDE3DD004011A2D07D0F9
:101F3000010E1C160101EA6B000144DE02D0000113
:101F400044DE30D004011A2D06D01C820101EA6B58
:101F5000000138DE02D0000138DE24D0020E1A6EF5
:101F60001AC424F00101EA6B00012CDE1BD073D6E9
:101F700019D01BC058F4010E0101EA6F000122DEE6
:101F800011D004011A5101080AE31AC41BF01AC443
:101F9000E7F10001BCD60101EA6B000113DE00018C
:101FA00001D013DE67EF11F01BC0E7F104011951F6
:101FB000000A000105E00A0A0CE0010A2BE03FD00C
:101FC0000401586B596B020E0101EA6F0001FADD42
:101FD00037D00101E7531BE0010EE75D036A000102
:101FE0009ADC016E04011C5DD8A002D001010FD063
:101FF000036A1C512A0FE96E000E0320EA6EEFCF30
:1020000058F4010E0101EA6F0001DCDD02D000018D
:10201000DCDD16D00101E7530FE0036A04011C5117
:102020002A0FE96E000E0320EA6E1AC4EFFF0101C9
:10203000EA6B0001C7DD02D00001C7DD01D0C5DDBC
:1020400067EF11F00101E891E7BFE881E79FE8A1A0
:1020500019D0F76BE7C1F6F1F96B080EF86F0001C4
:10206000E4DC02C0EAF101C0E9F1040E0101E92754
:10207000000EEA23E9C1E9FF040EEA25EA6E880EA4
:10208000EF6E0FD0F76BE7C1F6F1F96B080EF86F42
:102090000001CBDC010101C0E9FF040E0224EA6E5D
:1020A000EF6A0001D4EF10F00101E891E7BFE88189
:1020B000E79FE8A119D0F76BE7C1F6F1F96B080EBD
:1020C000F86F0001B2DC02C0EAF101C0E9F1040ED0
:1020D0000101E927000EEA23E9C1E9FF040EEA2520
:1020E000EA6E840EEF6E10D0F76BE7C1F6F1F96B74
:1020F000080EF86F000199DC010101C0E9FF040E30
:102100000224EA6E840EEF6E0001DCEF10F0010194
:10211000E891E7BFE881E79FE8A119D0F76BE7C135
:10212000F6F1F96B080EF86F00017FDC02C0EBF1ED
:1021300001C0EAF1040E0101EA27000EEB23EAC117
:10214000E9FF040EEB25EA6EEFCFE9F110D0F76B53
:10215000E7C1F6F1F96B080EF86F000166DC0101CA
:1021600001C0E9FF040E0224EA6EEFCFE9F1E9AF06
:1021700002D0E9B502D0000E01D0010E016E0001BF
:10218000E8EF10F01CC4F1F129DC01522DE004014C
:102190001951010A000105E0020A0BE0030A11E0EF
:1021A00022D01CC4E7F14ED70101EA6B00010ADD21
:1021B0001BD01CC4E7F178D70101EA6B000102DDF6
:1021C00013D00401586B596B1CC4E7F100019FD771
:1021D000015203E0010E0401586F020E0101EA6F83
:1021E0000001F0DC01D0F1DC67EF11F0FE0E236E90
:1021F000120004011C2D01D002D01C534EE11951D4
:10220000000A00010BE0010A0DE0210A1CE0010AAE
:102210001FE0030A30E0010A35E03DD0010E826F75
:10222000E5DF3AD0040EEA6E580EE96EE26A350E2A
:10223000E16E080E016EE6CFEEFF012EFCD71EC444
:10224000EAF1C0DC29D0020E826F8081CFDF24D07A
:10225000040EEA6E580EE96EE26A2C0EE16E070E6D
:10226000016EE6CFEEFF012EFCD7070E0101EA6FEB
:102270000001A8DC11D01AC481F00101EA6B000151
:10228000A1DC0AD01AC434F01BC433F00101EA6B9C
:10229000000198DC01D099DC0401000167EF11F026
:1022A0001A6A040118517F0B000A000107E0010AB5
:1022B00007E0030A07E0230A07E008D01AD607D090
:1022C00073D605D05FD703D094D701D07EDCC8EF9A
:1022D00013F00101F76BE8C1F6F1F96B080EF86F26
:1022E000000115EC0DF0010101C0E9FF040E02240C
:1022F000EA6EEFCFEAF1E951020806E1EAAD02D059
:10230000E96B02D0010EE96FE95103081CE1840E6C
:10231000EA6FF76BE8C1F6F1F96B080EF86F000190
:1023200015EC0DF002C0EEF101C0EDF1040E01015B
:10233000ED27000EEE23EDC1E9FF040EEE25EA6E57
:10234000840EEF6E07D0E92D03D0C80EEA6F02D0DD
:10235000880EEA6FD890E835036A000149EC0CF06A
:102360000900F5CF03F00101EB6F03C0ECF1F76B4F
:10237000E8C1F6F1F96B080EF86F000115EC0DF0ED
:1023800001C0EDF1010E01010124016E000E0220D9
:10239000036E01C0E9FF040E0324EA6EEBC1EFFFF8
:1023A000ECB1EA81ECB3EA83F76BE8C1F6F1F96BC3
:1023B000080EF86F000115EC0DF0010101C0E9FFF6
:1023C000040E0224EA6EEAC1EFFF00011200036A64
:1023D0000101F551700FE96E0F0E0320EA6EEF5206
:1023E0001BE0F76BF5C1F6F1F96B080EF86F000111
:1023F00015EC0DF002C0F7F101C0F6F1040E010179
:10240000F627000EF723F6C1E9FF040EF725EA6E62
:10241000EFCFF8F1F8AF02D0000E01D0010E016E3F
:1024200000011200F0C1F5F1D2DF0152D8B485D01D
:102430000101F76BF0C1F6F1F96B080EF86F0001BE
:1024400015EC0DF002C0F6F101C0F5F1040E01012A
:10245000F527000EF623010EF525016E000EF6217C
:10246000036E01C0E9FF040E0324EA6EF1C1EFFF21
:10247000F351020820E1F76BF0C1F6F1F96B080E99
:10248000F86F000115EC0DF002C0F6F101C0F5F196
:10249000040E0101F527000EF623F5C1E9FF040E35
:1024A000F625EA6EEFCFF4F1F4AD02D0F36B02D073
:1024B000010EF36F1AD0F351040817E1F76BF0C166
:1024C000F6F1F96B080EF86F000115EC0DF0010143
:1024D00001C0E9FF040E0224EA6EEFCFF4F1F4AD7F
:1024E00003D0010EF36F01D0F36BF32D03D0C80EB0
:1024F000F46F02D0880EF46FF2B1F481F2B3F4837A
:10250000F76BF0C1F6F1F96B080EF86F000115ECEE
:102510000DF002C0F6F101C0F5F1040E0101F5273E
:10252000000EF623F5C1E9FF040EF625EA6EF4C1AC
:10253000EFFF010E016E04D00001000E016E0101DB
:10254000000112008251010A03E0030A15E028D0BD
:10255000EA6A350EE96E040EE26E180EE16E080EA0
:10256000016EE6CFEEFF012EFCD70101EA6B000100
:10257000E2EC0DF0826B15D0EA6A2C0EE96E040EC7
:10258000E26E180EE16E070E016EE6CFEEFF012E31
:10259000FCD7826B0101EA6B0001E2EC0DF001D087
:1025A000826B10EF13F00101F76BE8C1F6F1F96BE4
:1025B000080EF86F000115EC0DF002C0EAF101C041
:1025C000E9F1010E01010124016E000E0220036EEB
:1025D00001C0E9FF040E0324EA6E036AEFCF01F0A5
:1025E00003C002F0000104EF13F07D91020E01011F
:1025F000E86FE96F00016DDE12007D817F6B020ED6
:102600000101E86F0001CFD701C07EF07E5301E1E8
:10261000ECDF17EF13F00101E75304E1000192D75B
:1026200006D00101E751020803E10001E6D70101EC
:1026300000011200E8C16EFF0101E85303E0040E3F
:10264000226E02D0020E226E00012CEF13F01B6AE4
:102650001A6A24C0E8F1EED7A2EF13F0E8C1F5F151
:10266000B6DE015247E00101F76BE8C1F6F1F96B04
:10267000080EF86F000115EC0DF002C0F1F101C079
:10268000F0F1040E0101F027000EF123020EF025F7
:10269000016E000EF121036E01C0E9FF040E032458
:1026A000EA6EECCFEFF1ED52EFCFEEF1EFC1EAFFC2
:1026B000EEC1E9FFEAC1E2FFE9C1E1FFECC102F0CE
:1026C000EBC101F0015202E0022A02D0025206E000
:1026D000E6CFEEFF012EFCD7022EFAD7E8C1F0F1CB
:1026E000ECC1F2F1EBC1F1F1EDC1F3F100019ADEC1
:1026F000015002D0000E016E12007C5310E0020E59
:102700000101E86FEA6B3D0EE96FEC6B7CC0EBF109
:10271000020EED6F0001A2DF015201E07C6B12009E
:10272000ECDFA9EF13F00101E7530EE11A2C05D0FD
:102730000001E7EC0DF006D001011A50020803E198
:10274000000185D7010106D0E751020803E100012D
:10275000E7D701010001120021300101E56FE533E7
:10276000E5331F0EE51721524EE1040100513C0BE9
:102770000101E66F430E040100170101E651340820
:1027800025E104010451800B01E0046B000188D5B0
:102790006D98233C07D00101E86B030EE96F00013F
:1027A00098DD12D00101E86B020EE96F000191DDA6
:1027B0002350FE0809E00101F06BF26B23C0F1F138
:1027C000040EF36F00012EDE1CD00101E651040857
:1027D00019E1E76B00011FDF0101E86B020EE96FF1
:1027E000000177DD2350FE080CE0233C01D009D026
:1027F0000101F06BF26B23C0F1F1010EF36F0001E8
:1028000011DE010122D02150040812E12368E76B98
:10281000000189DF233C01D009D00101F06BF26B8C
:1028200023C0F1F1020EF36F0001FCDD0DD00101B8
:1028300021B406D0E5C1E7F10001EDDE05D00101CC
:10284000E5C1E7F100016FDF0101000161EF14F064
:10285000A19A225201E13ED068523CE068A404D023
:1028600069A402D0CBEF0CF06DA201D033D068AADE
:1028700004D069AA02D0E3EF0CF068A204D069A2E8
:1028800002D0EAEF0CF068A004D069A002D0C5EF36
:102890000DF068A804D069A802D0DAEF0DF068AC9A
:1028A00004D069AC02D0DFEF0DF00101E46B68A643
:1028B0000AD069A608D06CCF21F00001C3EC0DF05E
:1028C0004BD702D0010105D00101E451E42B0308EC
:1028D000EEE20001EAEF0BF00101EA51070B006E96
:1028E000EA31016E013201321F0E01160150EC2552
:1028F000E96E000EED21EA6E016A012A002A01D07C
:102900000136002EFDD7EB5303E00150EF1203D048
:10291000011E0150EF16000112000101112B11518F
:102920000208D8A45FD1116B0001C6510308D8A0DA
:1029300077D0C0C000F0C851016E04E0D8900032DA
:10294000012EFCD70050010B010869E1036AC85150
:10295000C10FE96E000E0320EA6EEF3C01D05FD09C
:10296000BDC000F0C851016E04E0D8900032012EC5
:10297000FCD70050010B3CE1BFC000F0C851016E14
:1029800004E0D8900032012EFCD70050010B18E073
:10299000D890C835036AAC0FE96E000E0320EA6ECA
:1029A000ECCFE9F1ED52EFCFE8F1E8C1EAF1010136
:1029B000EB6B0F0EED6F890EEC6F00018DDF17D002
:1029C000D890C835036AB40FE96E000E0320EA6E92
:1029D000ECCFE9F1ED52EFCFE8F1E8C1EAF1010106
:1029E000EB6B0F0EED6F890EEC6F000175DF17D0EA
:1029F000D890C835036AB40FE96E000E0320EA6E62
:102A0000ECCFE9F1ED52EFCFE8F1E8C1EAF10101D5
:102A1000EB6B0F0EED6F890EEC6F00015DDF84D064
:102A20000101E46BE4510308D8A07ED0C0C000F0DF
:102A30000101E451016E04E0D8900032012EFCD770
:102A40000050010B0108D8A46DD0036AE451C10FF6
:102A5000E96E000E0320EA6EEF5264E0BDC000F0A4
:102A60000101E451016E04E0D8900032012EFCD740
:102A70000050010B3FE1BFC000F00101E451016EC5
:102A800004E0D8900032012EFCD70050010B19E071
:102A9000D890E435036AAC0FE96E000E0320EA6EAD
:102AA000ECCFE9F1ED52EFCFE8F1E8C1EAF1010E28
:102AB000EB6F0F0EED6F890EEC6F00010DDF18D07C
:102AC0000101D890E435036AB40FE96E000E0320CB
:102AD000EA6EECCFE9F1ED52EFCFE8F1E8C1EAF1AF
:102AE000010EEB6F0F0EED6F890EEC6F0001F4DE3F
:102AF00018D00101D890E435036AB40FE96E000ED6
:102B00000320EA6EECCFE9F1ED52EFCFE8F1E8C136
:102B1000EAF1010EEB6F0F0EED6F890EEC6F000105
:102B2000DBDE0101E42B7ED70101E569E46BE451B2
:102B3000040824E3036AE451C10FE96E000E032088
:102B4000EA6EEF50E55D18E3C7C000F00101E45103
:102B5000016E04E0D8900032012EFCD70050010B2A
:102B60000BE1036AE451C10FE96E000E0320EA6E27
:102B7000EFCFE5F1E4C1E6F1E42BD9D7010E006E09
:102B8000E651016E04E0D8900036012EFCD70050CB
:102B90000001C713C65103080DE3036AC851C10FF2
:102BA000E96E000E0320EA6EEF500101E55DE76F6C
:102BB00004D00001E5C1E7F10101E6C1C8F0000160
:102BC000C651030801E1C76BC651030802E3C62BD7
:102BD00001D0C66B0101E75305E10001C653D8A43B
:102BE000A4D60101FF0ED880E755D76AD66EF294BD
:102BF0000001EAEF0BF06D0ECF6E840ECE6ECA2B85
:102C0000D8B4CB2BA25302E1A35304E0A251D8B411
:102C1000A307A20783A214D0A051CA5D0101E46FEB
:102C20000001A151CB590101E56FE55303E1E451E6
:102C30000F0807E2CBC0A1F0CAC0A0F00001808558
:102C400001019E900001EAEF0BF09E92EAEF0BF07B
:102C50009D6B9E6B9F6B8093A16BA06B8095A36B0C
:102C6000A26BBC6BBD6BBE6BBF6BC06B040EC66F43
:102C7000C76BC86BC96B80978093A36BA26BCB6B40
:102C8000CA6BCD6B01010E6B106B0F6B116B126B6E
:102C9000536BF2CFC6F1F29EF86A760EF76E080E0D
:102CA000F66E0900F5500800F5CF03F0F86AC6BFCC
:102CB000F28EB46F03C0B5F1B76BB66BB96BB86B7E
:102CC000BB6BBA6BBD6BBC6B00018099BC6B010127
:102CD000C56BC55104080AE3036AC551C10FE96E0B
:102CE000000E0320EA6EEF68C52BF3D70001FAEF60
:102CF00027F02F0E926E030E936E000E946E020E4E
:102D0000956E070E966EC150C00B0709C16EC0507C
:102D1000C00B0709C06EC08EC280000E016EC2508B
:102D2000C30B0110C26E8A9E8C9C89988C908B90EC
:102D30008B920101C56BC551030859E3D890C53585
:102D4000036AA40FE96E000E0320EA6EECCFC7F110
:102D5000ED52EFCFC6F1196AF2BE198EF29EC6C1CE
:102D6000EAF1EB6B0F0EED6F890EEC6F0001B4DD35
:102D700019BEF28ED8900101C535036AAC0FE96E19
:102D8000000E0320EA6EECCFC7F1ED52EFCFC6F193
:102D9000196AF2BE198EF29EC6C1EAF1EB6B0F0EF4
:102DA000ED6F890EEC6F000197DD19BEF28ED890A1
:102DB0000101C535036AB40FE96E000E0320EA6E07
:102DC000ECCFC7F1ED52EFCFC6F1196AF2BE198E02
:102DD000F29EC6C1EAF1EB6B0F0EED6F890EEC6F40
:102DE00000017ADD19BEF28E0101C52BA4D78B94A8
:102DF0000C0EBD6EB76AB66AB50ECD6E780E0609BA
:102E0000CA6EFA0ECB6EC70ED56EF28A9D809D8279
:102E1000D76AD66A6D0ECF6E840ECE6EC00EF212D9
:102E20000001FCEF27F0010EEA6ED70EE96EEF50BD
:102E30000EE00F0E016E006A002EFED7012EFBD7AA
:102E40008F0E006E002EFED70000EF2EF2D712007C
:102E5000320EBE6E8C8089880101D76F0001E3DFDE
:102E6000BE6A320E0101D76F0001DDDF8C908998B8
:102E7000320EBE6E0101D76F0001D5DFBE6A8C80B5
:102E80008988640E0101D76F0001CDDF8C9089988D
:102E9000FEEF27F06D6A696A080E6F6E9450300974
:102EA0000101946E226A196AF2BE198EF29E000127
:102EB000ABEC0DF019BEF28E5FEF17F0EBD785EF9C
:102EC00017F0196AF2BE198EF29EABEC0DF019BE26
:102ED000F28E6D6A140E6F6E696A6D86010E226E37
:102EE00075EF17F06DB601D0ECD7222C0BD06DBA70
:102EF00009D0686A696AA08AC00EF212110E696E62
:102F0000020E226E86EF17F0D9D7ECD722500208B6
:102F1000FCE108EF28F07DB101D0FDD77F517F2B78
:102F2000A30FE96E040EEA6ED8B0EA2AEFCFCDF116
:102F30007E517F5D08E3196AF2BE198EF29EF5ECB0
:102F400012F019BEF28E0101CDC101F0000104EFB3
:102F500018F00101CE51016ACD5D03E2CDC100F050
:102F60000CD0006A080ECF6FCD370036CE51005C12
:102F7000D8B0006E0136CF2FF7D700011200010143
:102F8000D191F2BED181F29E00017C513E0802E255
:102F90003E0E7C6F7C517C2B036A3D0FE96E000E68
:102FA0000320EA6ED0C1EFFFF29E0101D1B1F28E93
:102FB0000001DEEF17F0CFC1D0F1E1D7196AF2BE00
:102FC000198EF29E020E0101F56F0001E7EC11F07F
:102FD00019BEF28E015208E0196AF2BE198EF29EF5
:102FE0007DEC13F019BEF28EFDEF17F07C513E0818
:102FF00001E2FCD7CEC1CFF1DED712007DA123D0F4
:103000009F51130820E387D701C0CCF1036A9E517A
:10301000890FE96E000E0320EA6ECCC1EFFF9E2BF4
:103020009EC0CDF1140E0101CE6F000192DF00C0F1
:103030009EF09F2BCCC1CEF1D9DF050E0101D76FD9
:103040000001F1DEDBD712009F5301E1D7DF9F5370
:1030500018E0036A9D51890FE96E000E0320EA6EA5
:10306000EFCFCBF19D2B9DC0CDF1140E0101CE6FA2
:1030700000016FDF00C09DF09F070101CBC101F08F
:10308000000112000101D6510001BC5D12E00101F6
:10309000D635006E0036FC0E0016C250C30B001071
:1030A000C26ED6C1BCF0C70E006E002EFED700D097
:1030B0000001C282C2B2FED7C4CF03F0C3CF01F079
:1030C000C4CF02F01200DBC101F0DAC100F00066EB
:1030D000012A0900F5CFEEFF002EFBD7012EF9D70C
:1030E000F86A1200D9C110F1D8C10FF1C00E010168
:1030F0000F170F51D85D0E6FF86A10C1F7FF0FC19F
:10310000F6FFEA6ACE0EE96EDB6B400EDA6F000165
:10311000DADF12000101CBC103F0CA51D8B4CB07EA
:10312000CA07CC6F03C0CDF1CC5302E1CD5322E0EE
:10313000C9C103F0C851C82BD8B4C92B800FCC6FBC
:103140005D0E0320CD6FF2CFCEF1F29EF86AF76EDE
:10315000CCC1F6FF0900F5500800F5CF03F0F86A7E
:10316000CEBFF28ECC6F03C0CDF1CE6F00013EDF3B
:10317000D1D701010001B4EF1DF0F250036EF29EB1
:10318000A68EA6840F01550EA76EAA0EA76EA68264
:1031900000000350F21200011200D08CA69CF650E1
:1031A0001F0B006EE00EF6160A00D8C101F0006693
:1031B00008D0F650010F3F0B04E1A6880900DDDFBF
:1031C0000A00006607D0EECFF5FF015204E00F00C1
:1031D000010603D000060B000C001F0EF6141F0A98
:1031E000E6E1CBDF0166E3D7F86A120001010E5178
:1031F0000E2B036ACE0FE96E000E0320EA6ECBC1E0
:10320000EFFF0E510E2B036ACE0FE96E000E032066
:10321000EA6ECC51EF6E0E513F0833E210515D085B
:1032200004E32FE10F5130082CE2D08CF86A10C172
:10323000F7FF0FC1F6FFA688A69C00019EDFF86A83
:10324000F86A10C1F7FF0FC1F6FFEA6ACE0EE96E09
:10325000400E0101D86F0001A0DF01010E6B400E8E
:103260000F27000E1023F86A10C1F7FF0FC1F6FFF9
:10327000EA6ACE0EE96EDB6B400EDA6F000123DFE7
:10328000010100011200010110515D0804E31CE17D
:103290000F51300819E2D08CF86A10C1F7FF0FC146
:1032A000F6FFA688A69C000168DFF86AF86A10C1DC
:1032B000F7FF0FC1F6FFEA6ACE0EE96E400E01017C
:1032C000D86F00016ADF0101000112000101CA6B21
:1032D000C96BB85302E1B95330E00001B5DE01C05B
:1032E000C8F10101C85180081DE1CC6BC8C1CBF108
:1032F00000017CDFA9DE010101C0CAF1C96B000138
:10330000A3DE01500101C927000ECA23CAC1CCF1B6
:10331000C9C1CBF100016ADF0101B851D8B4B907C6
:10332000B80706D0CC6BC8C1CBF100015FDF01014B
:10333000B851D8B4B907B807CCD70001A4DF53EF10
:103340001EF0320EBE6E0101D76F00016CDDBE6A49
:1033500012000101D96BD95103082DE3BEC000F062
:103360000101D951016E04E0D8900032012EFCD742
:103370000050010B1EE0D8530FE1010E006ED95131
:10338000016E04E0D8900036012EFCD70050FF0AF1
:103390000001BD170DD00101010E006ED951016E63
:1033A00004E0D8900036012EFCD700500001BD1378
:1033B0000101D92BD0D700011200D8900101D935D5
:1033C000036AA40FE96E000E0320EA6EECCFDBF176
:1033D000ED52EFCFDAF1196AF2BE198EF29EDAC120
:1033E000EAF1010EEB6F0F0EED6F890EEC6F00012D
:1033F0006CEC14F019BEF28E8A8E8C8C8AEF1AF067
:10340000BF51006E0101D851016E04E0D890003226
:10341000012EFCD70050010B3EE0D890D835036A4E
:10342000B40FE96E000E0320EA6EECCFDAF1ED5234
:10343000EFCFD9F1196AF2BE198EF29ED9C1EAF125
:10344000EB6B0F0EED6F890EEC6F00016CEC14F05E
:1034500019BEF28ED8900101D835036AAC0FE96E1F
:10346000000E0320EA6EECCFDAF1ED52EFCFD9F186
:10347000196AF2BE198EF29ED9C1EAF1010EEB6F04
:103480000F0EED6F890EEC6F00016CEC14F019BE9D
:10349000F28E3DD00101D890D835036AB40FE96EA1
:1034A000000E0320EA6EECCFDAF1ED52EFCFD9F146
:1034B000196AF2BE198EF29ED9C1EAF1010EEB6FC4
:1034C0000F0EED6F890EEC6F00016CEC14F019BE5D
:1034D000F28ED8900101D835036AAC0FE96E000E68
:1034E0000320EA6EECCFDAF1ED52EFCFD9F1196A91
:1034F000F2BE198EF29ED9C1EAF1EB6B0F0EED6FA1
:10350000890EEC6F00016CEC14F019BEF28ED8C17C
:10351000D9F153D7010E006E0101D851016E04E0BC
:10352000D8900036012EFCD700500001C01363EF85
:103530001CF0D8900101D935036AA40FE96E000E82
:103540000320EA6EECCFDCF1ED52EFCFDBF1196A2C
:10355000F2BE198EF29EDBC1EAF1EB6B0F0EED6F3E
:10356000890EEC6F00016CEC14F019BEF28E0101B3
:10357000D9A104D0010ED95DDA6F03D0010ED9258F
:10358000DA6FC0C000F00101DA51016E04E0D8909A
:103590000032012EFCD70050010B01E106D0D951B9
:1035A000010802E38A9E01D08C9C000137EF1BF0DA
:1035B000D8900101D835036AB40FE96E000E0320DC
:1035C000EA6EECCFDAF1ED52EFCFD9F1196AF2BE23
:1035D000198EF29ED9C1EAF1010EEB6F0F0EED6F5D
:1035E000890EEC6F00016CEC14F019BEF28ED890CD
:1035F0000101D835036AAC0FE96E000E0320EA6EB4
:10360000ECCFDAF1ED52EFCFD9F1196AF2BE198E93
:10361000F29ED9C1EAF1010EEB6F0F0EED6F890E2C
:10362000EC6F00016CEC14F019BEF28ED890010121
:10363000D835036AA40FE96E000E0320EA6EECCFC2
:10364000DAF1ED52EFCFD9F1196AF2BE198EF29E7E
:10365000D9C1EAF1EB6B0F0EED6F890EEC6F000133
:103660006CEC14F019BEF28ED8C1D9F162D7010EFC
:10367000006E0101D851016E04E0D8900036012E91
:10368000FCD70050FF0A0001C01768EF1CF0D8906B
:103690000101D935036AAC0FE96E000E0320EA6E12
:1036A000ECCFDBF1ED52EFCFDAF1196AF2BE198EF1
:1036B000F29EDAC1EAF1EB6B0F0EED6F890EEC6F43
:1036C00000016CEC14F019BEF28ED8900101D935CE
:1036D000036AB40FE96E000E0320EA6EECCFDBF153
:1036E000ED52EFCFDAF1196AF2BE198EF29EDAC10D
:1036F000EAF1010EEB6F0F0EED6F890EEC6F00011A
:103700006CEC14F019BEF28E010E006E0101D9515D
:10371000016E04E0D8900036012EFCD70050FF0A5D
:103720000001BF171200D8900101D935036AAC0F10
:10373000E96E000E0320EA6EECCFDBF1ED52EFCF25
:10374000DAF1196AF2BE198EF29EDAC1EAF1010EBF
:10375000EB6F0F0EED6F890EEC6F00016CEC14F047
:1037600019BEF28ED8900101D935036AB40FE96E03
:10377000000E0320EA6EECCFDBF1ED52EFCFDAF171
:10378000196AF2BE198EF29EDAC1EAF1EB6B0F0EE6
:10379000ED6F890EEC6F00016CEC14F019BEF28E27
:1037A000010E006E0101D951016E04E0D89000367F
:1037B000012EFCD700500001BF131200BF51006E54
:1037C0000101D851016E04E0D8900032012EFCD7DF
:1037D0000050010B06E0D8C1D9F1000158DF05D037
:1037E0000101D8C1D9F100019EDF6DEF1CF0D89026
:1037F0000101D835036AAC0FE96E000E0320EA6EB2
:10380000ECCFDAF1ED52EFCFD9F1196AF2BE198E91
:10381000F29ED9C1EAF1EB6B0F0EED6F890EEC6FE2
:1038200000016CEC14F019BEF28ED8900101D8356D
:10383000036AB40FE96E000E0320EA6EECCFDAF1F2
:10384000ED52EFCFD9F1196AF2BE198EF29ED9C1AD
:10385000EAF1EB6B0F0EED6F890EEC6F00016CEC73
:1038600014F019BEF28E010E006E0101D851016EE6
:1038700004E0D8900036012EFCD70050FF0A00016A
:10388000C0177CEF1CF00101D76BD751030839E357
:10389000BEC000F00101D751016E04E0D8900032A3
:1038A000012EFCD70050010B2AE0D86B000151DD3E
:1038B0000101D651FA0F23E2060F000183EF1CF03D
:1038C000D7C1D8F19DD501011AD0D7C1D8F170D692
:1038D000010115D0D7C1D8F171D7010110D0D7C1DE
:1038E000D9F121DF01010BD0D7C1D9F1D0DE01011F
:1038F00006D0D7C1D8F17BD7010101D00101D72B68
:10390000C4D700011200E824F76AF736210FF66EDB
:10391000390EF7220A00F550FA6E0800F550F96EDC
:10392000C038CA38D438DE38E838F2380101D96BEB
:10393000D95103083CE3BEC000F00101D951016E2A
:1039400004E0D8900032012EFCD70050010B2DE08E
:10395000010ED85DF90F20E2070F0001D9EF1CF02E
:10396000240E0101D86F18D0490E0101D86F14D070
:103970006E0E0101D86F10D0920E0101D86F0CD0DD
:10398000B70E0101D86F08D0DB0E0101D86F04D04B
:103990000101D86901D00101036AD951C10FE96E53
:1039A000000E0320EA6ED8C1EFFFD92BC1D700016A
:1039B0001200E824F76AF736CD0FF66E390EF722BB
:1039C0000A00F550FA6E0800F550F96E6039683952
:1039D000703978398039883990399F53D8B464D197
:1039E00024EC18F001C0C5F1C5C1C9F08087010100
:1039F000C551000A00012FE0200A3AE0A30A55E071
:103A0000070AD8B496D0010AD8B4B5D0030AD8B4FE
:103A1000C6D0420AD8B4C6D0040AD8B4C6D0010A67
:103A2000D8B4C5D0BE0AD8B4C4D0B70AD8B4C6D0AA
:103A3000010AD8B4CBD0030AD8B4D0D0CF0AD8B4B6
:103A4000E4D0010AD8B4E8D0020AD8B4FFD0010A01
:103A5000D8B413D128D1010E0101CE6F0001F6ECCC
:103A600017F0010E0101CE6F0001F6EC17F01BD12B
:103A700024EC18F001C0C5F1C5C1D6F142EC18F034
:103A800002C0C7F101C0C6F1C7C1C8F10101C96BCD
:103A9000C6C1CAF1CB6BC7C1CEF10001F6EC17F07D
:103AA000CAC1CEF1F6EC17F0FED08085808324ECFD
:103AB00018F001C0C5F10101C5C1B7F1B66B000135
:103AC00024EC18F001C0C5F10101C551B613B6517F
:103AD000F00BC86FB7510F0BC96FC851F00819E14F
:103AE000C9510F0816E1B6510F0BC86FC96BD890BA
:103AF000C835026EC935036E0250F00FC86F7F0ED5
:103B00000320C96F800EC85DB66F5D0EC959B76FCF
:103B100003D0D890B637B737800EB625C86F5D0E84
:103B2000B721C96FD96FC8C1D8F1000172EC18F084
:103B3000BAD024EC18F001C0C5F10101C5C1B9F13A
:103B4000B86B000124EC18F001C0C5F10101C551AA
:103B5000B813B7C1C9F1B6C1C8F1B9C1CBF1B8C189
:103B6000CAF100018AEF18F00101B851B627B95126
:103B7000B723000198D024EC18F001C0C5F1010171
:103B8000C5C1B9F1B86B000124EC18F001C0C5F152
:103B90000101C551B813000166EF19F084D080858A
:103BA000809381D0A1EC19F07ED08C807CD08C9059
:103BB0007AD024EC18F001C0BEF075D024EC18F0D7
:103BC00001C0C5F1C5C1D6F15EDE6DD024EC18F0A0
:103BD00001C0C5F1C5C1D8F1A9DE65D024EC18F04B
:103BE00001C0C5F1030E0101D66F00014CDE010ECC
:103BF0000101D86F0001A9EC19F0C5C1D8F196DE1A
:103C00000101D66B00013FDE4ED0460E0101CE6FA2
:103C10000001F6EC17F047D0F29CF29EF2BEFDD701
:103C2000F250006EF29EA96ACE0EA86EA69CA69EC9
:103C3000A6840F01550EA76EAA0EA76EA682A6B285
:103C4000FED7A6940050F212FF000001F250006E61
:103C5000F29E020EA96EDB0EA86EA69CA69EA684FE
:103C60000F01550EA76EAA0EA76EA682A6B2FED7AA
:103C7000A6940050F212000116D0F250006EF29E8F
:103C8000020EA96EA86AA69CA69EA6840F01550ED8
:103C9000A76EAA0EA76EA682A6B2FED7A694005063
:103CA000F212000100D099D621EF28F0C8C188F0A7
:103CB000C7C187F0C6C186F0C5C185F032EF28F0D4
:103CC00080A907D08099330E016E000E026E23D0BA
:103CD0001CD0800E0101B625DA6F5D0EB721F2CF40
:103CE000DCF1F29EF86AF76EDAC1F6FF0900F550D2
:103CF0000800F5CF03F0F86ADCBFF28ED86F03C07E
:103D0000D9F1020EB627000EB7230101D8C101F088
:103D1000D9C102F0000112000101535310E0530712
:103D2000D8905335036A540FE96E010E0320EA6EF2
:103D3000EFCF01F0E92AEF50E906026E06D000014C
:103D40008093000E016E026E01010001120001015C
:103D5000125310E01207D8901235036A130FE96E60
:103D6000010E0320EA6EEFCF01F0E92AEF50E906D9
:103D7000026E06D000018093000E016E026E0101FA
:103D800000011200010153511F0811E35351532B3D
:103D9000006ED89000360050036A540FE96E010E91
:103DA0000320EA6ED9C1ECFFED52D8C1EFFF00014C
:103DB0001200010112511F080EE3D8901235036A58
:103DC000130FE96E010E0320EA6ED9C1ECFFED522C
:103DD000D8C1EFFF122B000112000101DE6BDF6B77
:103DE000010EE06FDA6AD96AE36FD60EE26F010E58
:103DF000EA6EDA0EE96EE3C1E2FFE2C1E1FFE0C183
:103E0000E1F1D890E550EE02F350DE23F450DF23C9
:103E1000E12FF7D7DEC1DEFFDFC1DEF1DF6BD8B007
:103E2000DF2BE22BD8B4E32BE02BE0510508DFE1D8
:103E3000000151EF1FF0016A026A006A036A010182
:103E4000DC5102E1DB5118E0100EDD6FD890D9375C
:103E5000DA3700360336DC51035C02E1DB51005CEB
:103E600007E3DB51005ED8A00306DC51035ED88077
:103E700001360236DD2FEAD70001120088C0D9F1E1
:103E800087C0D8F186C0D7F185C0D6F1410E0101B7
:103E9000DD6FC60EDC6F4E0EDB6F6D0EDA6F00014C
:103EA0009CD7390E010100240001856F300E0101FD
:103EB00001200001866F000E010102200001876FC2
:103EC000000E010103200001886F87C000F088C048
:103ED00001F0026A036A88C0D8F187C0D7F188C0B0
:103EE000DAF187C0D9F17F0E0101DC6FDB690001D7
:103EF000A2DF00C001F003C002F0FBEF23F00101DC
:103F00000E510E2B036ACE0FE96E000E0320EA6EEF
:103F1000D6C1EFFF0E510E2B036ACE0FE96E000ED5
:103F20000320EA6ED751EF6E000143EC19F0120046
:103F30008988320E0101D76F000113EC17F08998C0
:103F4000020E0101D66FFA0ED76F000113EC17F0C5
:103F50000101D62FF8D70001EBD712000101D86B71
:103F6000D851030825E3BEC000F00101D851016E0D
:103F700004E0D8900032012EFCD70050010B16E06F
:103F8000036AD851C10F016E000E032203C0DAF19B
:103F9000036AD851C10FE96E000E0320EA6ED751B3
:103FA000EF24DAC1EAFF01C0E9FFEF6ED82BD8D7C2
:103FB00000011200006A016A0101D651D890D7B100
:103FC000002600320132D7B3002600320132D7B5C5
:103FD000002600320132D7B7002600320132D7B9AD
:103FE000002600320132D7BB002600320132D7BD95
:103FF000002600320132D7BF002600320132000114
:1040000014EF27F0C69E9E96D8C1C9FF020EC6BE09
:1040100005D09EA6FED7000EC5BC010E016E36EF80
:1040200027F0C69CC586C5B6FED700B0C59A00A0CD
:10403000C58AC588C5B8FED7C9CF01F042EF27F0C1
:104040000101D06BCF6BC7AF6DD0020EB625CF6F1D
:10405000000EB721D06FD76BC7C1D6F13F0ED61770
:10406000D76BD6C1D7F1D66B00012ADE02C003F0B0
:1040700001C002F0D8900236033602500101D62565
:10408000B66F0350D721B76F00011ADE02C0CAF124
:1040900001C0C9F10101C7AD12D0C86B030EC9251B
:1040A000016E000ECA21036E0150035203E101505C
:1040B000C85D05E2000130DE0101C82BEFD7C86BF7
:1040C000CA5303E1C951C85D0EE2000140DE02C0DF
:1040D000D7F101C0D6F102C0D9F101C0D8F152DE4A
:1040E0000101C82BEDD7D96B12C1D8F100014ADE0E
:1040F000D0C1D9F1CFC1D8F145DE020E0101C925E9
:10410000016E000ECA21036E0150535DD66F000E82
:104110000354D76FD96FD6C1D8F1000133DE51EF08
:1041200027F00101C751000A0001D8B455D1010A96
:10413000D8B45CD1030AD8B465D1010AD8B479D116
:10414000070AD8B491D1010AD8B4C6D1030AD8B4A9
:10415000E1D1010AD8B414D20F0AD8B411D2010A9D
:10416000D8B44ED2030AD8B489D2010AD8B4A4D2A2
:10417000070AD8B4C8D2010AD8B4CAD2030AD8B43C
:10418000CAD2010AD8B4E0D21F0AD8B4F8D2010AC0
:10419000D8B405D3030AD8B40AD3010AD8B40BD3D0
:1041A000070AD8B410D3010AD8B417D3030AD8B475
:1041B00020D3010AD8B42BD30F0AD8B428D3010ACC
:1041C000D8B425D3030AD8B422D3010AD8B41FD354
:1041D000070AD8B41CD3010AD8B419D3030AD8B437
:1041E00016D3010AD8B413D33F0AD8B410D3010AA6
:1041F000D8B40DD3030AD8B4B2EF24F0010AD8B46E
:10420000C2EF24F0070AD8B4DEEF24F0010AD8B4D4
:10421000FCEF24F0030AD8B427EF25F0010AD8B444
:1042200058EF25F00F0AD8B486EF25F0010AD8B46C
:10423000ACEF25F0030AD8B4B0EF25F0010AD8B4EA
:10424000B9EF25F0070AD8B4E4EF25F0010AD8B495
:10425000E6EF25F0030AD8B4E8EF25F0010AD8B458
:10426000ECEF25F01F0AD8B4F0EF25F0030AD8B41C
:10427000F4EF25F0060AD8B4F7EF25F0010AD8B418
:10428000FAEF25F0020AD8B4FDEF25F00A0AD8B4F7
:1042900000EF26F00D0AD8B403EF26F0030AD8B4D5
:1042A00003EF26F0090AD8B41DEF26F0060AD8B4A9
:1042B00029EF26F0030AD8B429EF26F0010AD8B472
:1042C0002DEF26F07F0AD8B431EF26F0010AD8B4DA
:1042D00035EF26F0030AD8B439EF26F0060AD8B431
:1042E0003DEF26F0010AD8B442EF26F0030AD8B415
:1042F00060EF26F0010AD8B47AEF26F00F0AD8B49E
:104300008BEF26F07F0AD8B49CEF26F00F0AD8B4C2
:104310009CEF26F0710AD8B49CEF26F0030AD8B4BB
:104320009CEF26F0010AD8B49CEF26F0070AD8B417
:104330009CEF26F0010AD8B49CEF26F0030AD8B40B
:104340009CEF26F0770AD8B4B9EF26F0030AD8B468
:10435000B9EF26F0750AD8B4B9EF26F01F0AD8B421
:10436000B9EF26F0010AD8B4B9EF26F0030AD8B4A1
:10437000B9EF26F0010AD8B4B9EF26F0070AD8B48D
:10438000B9EF26F0010AD8B4DCEF26F0030AD8B45E
:10439000E0EF26F0010AD8B4E4EF26F00F0AD8B413
:1043A000E4EF26F0010AD8B4E4EF26F0030AD8B40B
:1043B0001CEF27F0010AD8B422EF27F0070AD8B47F
:1043C00027EF27F0010AD8B42CEF27F0030AD8B45E
:1043D00038EF27F04EEF27F08093929889980101EB
:1043E000BB6BBA6BBD6BBC6B51EF27F069DC01C0D6
:1043F000D1F10101D96BD1C1D8F10001DADC0101A1
:1044000051EF27F05DDC01C0D2F15ADC01C0D3F1DD
:10441000D2C1D5F10101D46BD351D427000ED523DD
:10442000D5C1D9F1D4C1D8F10001C3DC010151EFEC
:1044300027F0020E0101B625D66F000EB721D76F07
:10444000D96FD6C1D8F10001B4DC3ADC02C003F068
:1044500001C002F0D8900236033602500101B6279F
:104460000350B72351EF27F072DC02C0D0F101C036
:10447000CFF10101B751D05D09E303E1CF51B65D42
:1044800005E2D0C1B7F1CFC1B6F124D0D0C1B7F1A8
:10449000CFC1B6F100015BDC02C0BDF101C0BCF1CF
:1044A0000101BD5303E1BC51010804E2BC51D8B481
:1044B000BD07BC07BC2D02D0BD530CE0BDC1D9F176
:1044C000BCC1D8F1000175DCB7C1D9F1B6C1D8F1D2
:1044D00070DC010151EF27F03ADC0150021007E0D7
:1044E00036DC35DC02C0B7F101C0B6F110D02FDCEC
:1044F00002C0B7F101C0B6F1B7C1D9F1B6C1D8F168
:1045000058DC050E0101D76F000113EC17F0010113
:1045100051EF27F060EC1EF002C003F0D890013498
:104520000101CF6F0334D06F00018CEC1EF002C08C
:10453000CAF101C0C9F1CAC1D9F1C9C1D8F122DC9F
:104540000101CF51C925D66FD051CA21D76FD8905C
:10455000D635026ED735036E0250540FE96E010E48
:104560000320EA6EECCFD7F1ED52EFCFD6F1D7C1F1
:10457000D9F1D6C1D8F100011CDC010151EF27F0BF
:104580000101C751080807E10001A7EC1EF002C0B5
:10459000D0F101C0CFF100018CEC1EF002C0CAF1D5
:1045A00001C0C9F18CEC1EF002C0B7F101C0B6F138
:1045B0008CEC1EF002C0CCF101C0CBF10101CC5358
:1045C00008E11251CB5D05E20001A7EC1EF0F6D721
:1045D0000101CA5308E15351C95D05E200018CECA9
:1045E0001EF00101F6D7C751080808E1D0C1D9F182
:1045F000CFC1D8F10001D9EC1EF0010151EF27F035
:10460000A7EC1EF002C0BBF101C0BAF1A7EC1EF08E
:1046100002C0BDF101C0BCF1B7C1D9F1B6C1D8F13A
:10462000D9EC1EF00101BD5303E1BC51010813E2B6
:10463000BDC1D9F1BCC1D8F10001D9EC1EF0BBC19C
:10464000D9F1BAC1D8F1D9EC1EF0BBC1B7F1BAC1EA
:10465000B6F111D00101BC2D07D0BD5305E1BBC19E
:10466000B7F1BAC1B6F108D00001A7EC1EF002C044
:10467000B7F101C0B6F1010151EF27F0A7EC1EF030
:1046800002C0CAF101C0C9F1A7EC1EF002C0CCF112
:1046900001C0CBF10101CB51CC110CE0B7C1D9F174
:1046A000B6C1D8F10001D9EC1EF0CAC1B7F1C9C139
:1046B000B6F1010151EF27F0A7EC1EF002C0CAF1DC
:1046C00001C0C9F1A7EC1EF002C0CCF101C0CBF1D2
:1046D000A7EC1EF002C0CEF101C0CDF1B7C1D9F1F7
:1046E000B6C1D8F1D9EC1EF00101CD51CE1105E0D3
:1046F000CCC1B7F1CBC1B6F104D0CAC1B7F1C9C1C1
:10470000B6F151EF27F0A1EC19F0010151EF27F0BC
:10471000010151EF27F0A7EC1EF002C0BBF101C070
:10472000BAF1B7C1D9F1B6C1D8F1D9EC1EF0BBC10D
:10473000D9F1BAC1D8F1D9EC1EF0BBC1B7F1BAC1F9
:10474000B6F1010151EF27F0A7EC1EF002C0BBF15A
:1047500001C0BAF10101BD6BBC6BD96BD86B000114
:10476000D9EC1EF0BBC1D9F1BAC1D8F1D9EC1EF019
:10477000BBC1B7F1BAC1B6F1010151EF27F0A7EC07
:104780001EF0010101340001A26F01010234000199
:10479000A36FA237A337FC0EA217010182D3CBC0AF
:1047A000D9F1CAC0D8F1D9EC1EF001017AD3CB6B94
:1047B000CA6B010176D3A7EC1EF002C0D0F101C094
:1047C000CFF101016ED30101D96BC9C0D8F100014D
:1047D000D9EC1EF08097010164D3000E80B7010E62
:1047E0000101D66FD96BD86F0001D9EC1EF0010121
:1047F00058D33EEF1FF002C0D7F101C0D6F102C07E
:10480000D9F101C0D8F1D9EC1EF001014AD3A7ECCF
:104810001EF002C0CCF101C0CBF1A7EC1EF002C02B
:10482000CAF101C0C9F1170E0101C75DF50FD8B07B
:1048300090D00B0F000154EF27F00101CB51C92795
:10484000CC51CA2386D00101CB51C95FCC51CA5B80
:1048500080D0196AF2BE198EF29ECAC1F7F1C9C1A1
:10486000F6F1CCC1F9F1CBC1F8F115EC0DF019BEA0
:10487000F28E02C0CAF101C0C9F101016AD0CAC1F9
:10488000DAF1C9C1D9F1CCC1DCF1CBC1DBF11BEC50
:104890001FF002C0CAF101C0C9F101015AD0CAC15A
:1048A000DAF1C9C1D9F1CCC1DCF1CBC1DBF11BEC30
:1048B0001FF000C0C9F1010103C0CAF14AD00101D3
:1048C000CB51C95D03E1CC51CA5D02E0000E01D0BD
:1048D000010ECA6BC96F3DD00101CC51CA5D04E322
:1048E00005E1C951CB5D02E3000E01D0010ECA6B98
:1048F000C96F2FD00101CA51CC5D04E305E1CB5152
:10490000C95D02E3000E01D0010ECA6BC96F21D050
:104910000101C951CA1103E0CB51CC1102E1000ED3
:1049200001D0010ECA6BC96F14D00101C951CA115F
:1049300005E1CB51CC1102E1000E01D0010ECA6B92
:10494000C96F07D00101CB51C91BCC51CA1B01D083
:104950000101CAC1D9F1C9C1D8F10001D9EC1EF0D9
:1049600001019FD2A7EC1EF001500210000ED8B436
:10497000010E0101D66FD96BD86F0001D9EC1EF082
:1049800001018FD2A7EC1EF002C0D0F101C0CFF11F
:10499000A7EC1EF002C0D7F1D89001010134026EDD
:1049A000D735036E0250940FE96E010E0320EA6EB4
:1049B000D0C1ECFFED52CFC1EFFF73D2A7EC1EF0D8
:1049C00002C0D7F1D89001010134026ED735036ED1
:1049D0000250940FE96E010E0320EA6EECCFD7F17E
:1049E000ED52EFCFD6F1D7C1D9F1D6C1D8F1000140
:1049F000D9EC1EF0010155D2A7EC1EF002C0CCF19B
:104A000001C0CBF1A7EC1EF0D89001010134C96FB1
:104A10000234CA6F0001A7EC1EF001C0CFF1010102
:104A2000670E0224D06FC951CF25D66FCA51D0214D
:104A3000D76FD96FD6C1D8F1000172EC18F0CCC194
:104A4000D7F1CBC1D6F17FEC1FF001012AD2A7EC40
:104A50001EF0D89001010134C96F0234CA6F000101
:104A6000A7EC1EF001C0CFF10101670E0224D06F48
:104A7000C951CF25D66FCA51D021F2CFD8F1F29EBD
:104A8000F86AF76ED6C1F6FF0900F5500800F5CFB9
:104A900003F0F86AD8BFF28ECB6F03C0CCF1CCC163
:104AA000D9F1CBC1D8F10001D9EC1EF00101F9D147
:104AB000A7EC1EF002C0D0F101C0CFF10101B5C1D9
:104AC00003F0B451B42BD8B4B52BC00FD66F590E28
:104AD0000320D76FD96FD6C1D8F1000172EC18F05E
:104AE000D0C1D7F1CFC1D6F17FEC1FF0760E010116
:104AF000D96F080ED86F000172EC18F0B5C1D7F16C
:104B0000B4C1D6F17FEC1FF00101CBD10101B5C1D9
:104B100003F0B451B42BD8B4B52BC00FD66F590ED7
:104B20000320F2CFD8F1F29EF86AF76ED6C1F6FFF5
:104B30000900F5500800F5CF03F0F86AD8BFF28EEF
:104B4000CF6F03C0D0F1D0C1D9F1CFC1D8F10001EE
:104B5000D9EC1EF00101A5D10101B56BB46BA1D157
:104B6000A7EC1EF0D89001010134B46F0234B56F88
:104B700098D1A7EC1EF0D89001010134C96F02341E
:104B8000CA6FD06BCF6BD051CA5D1BE303E1C95133
:104B9000CF5D17E2C00ECF25D66F590ED021D76F4B
:104BA000D96FD6C1D8F1000172EC18F00101D76BB2
:104BB000D66B00017FEC1FF00101CF2BD8B4D02BB6
:104BC000E2D7B56BB46B6DD101016BD1010169D135
:104BD000010EBE6F010165D1020EBE6F010161D1F0
:104BE000030EBE6F01015DD10101C82B000101015F
:104BF000C82B00010101C82B00010101C82B0001D5
:104C00000101C82B0001C8C1D6F143EC1CF0010121
:104C1000C751320811E10001A7EC1EF00101013477
:104C20000001A26F010102340001A36FA237A33774
:104C3000FC0EA2178089010134D1A7EC1EF002C03E
:104C4000D7F101C0D6F101C0D8F196EC1CF00101FA
:104C500028D198EC1FF0010124D1040EBE6F010190
:104C600020D1080EBE6F01011CD10C0EBE6F0101D8
:104C700018D10F0EBE6F010114D1809392988998BC
:104C800001010FD1A7EC1EF0F2CFD8F1F29EF86A25
:104C900002C0F7FF01C0F6FF0900F5500800F5CF8C
:104CA00003F0F86A0101D8BFF28ED66F03C0D7F1C6
:104CB00003C0D9F1D86F0001D9EC1EF00101F1D089
:104CC000A7EC1EF002C0CAF101C0C9F1A7EC1EF0AA
:104CD00002C0CCF101C0CBF1CCC1D9F1CBC1D8F12C
:104CE00072EC18F0CAC1D7F1C9C1D6F17FEC1FF040
:104CF0000101D7D0A7EC1EF002C0D7F101C0D6F158
:104D00000101D76BD7C1D9F101C0D8F10001D9ECAD
:104D10001EF00101C6D0A7EC1EF002C0D7F102C000
:104D2000D6F10101D76BD7C1D9F102C0D8F100018A
:104D3000D9EC1EF00101B5D00101C751480804E3C8
:104D4000370EC75DC86F04D0490EC75D020FC86F2C
:104D5000C8C1D6F1000142EC18F002C0D7F101C081
:104D6000D6F102C0D9F101C0D8F1D9EC1EF0010191
:104D700098D00101C7514E0804E3390EC75DC86FD2
:104D800004D04F0EC75D020FC86FC8C1D6F1000135
:104D900042EC18F002C0D7F1010102C0D6F1D76B86
:104DA000D890D733D633D7C1D9F1D6C1D8F10001C5
:104DB000D9EC1EF0010175D095908C80010171D065
:104DC00095908C9001016DD00101D66B000143ECF0
:104DD0001CF0030E0101D66F000143EC1CF0010E24
:104DE0000101D86F0001A9EC19F0A7EC1EF001C079
:104DF000C8F10101C751570807E1C8C1D8F1000146
:104E000096EC1CF017D00101C751580807E1C8C142
:104E1000D7F10001AEEC1FF00DD00101D669C8C179
:104E2000D7F10001DAEF1FF001C0D6F101C0D7F1D0
:104E3000AEEC1FF0010135D0A7EC1EF001C0BEF0B2
:104E400001012FD0C580C5B0FED701012AD0C5848D
:104E5000C5B4FED7010125D0A7EC1EF002C0D7F1E2
:104E600001C0D6F101C0D8F102EF20F0010119D044
:104E7000A7EC1EF002C0D7F101C0D6F101C000F0CE
:104E800011EF20F001C0D6F10101D96B01C0D8F1BA
:104E90000001D9EC1EF0010104D0000198EC1FF0D4
:104EA0000101000177EF28F0E824F76AF736C30F15
:104EB000F66E4E0EF7220A00F550FA6E0800F55015
:104EC000F96E3A48464852487E489E48BE48D848FF
:104ED000F44810492A494449F86AD09E078EEA6A84
:104EE000E96A93829380770EC86E280EC66EC78ECD
:104EF000C79C8093A16BA06B8095A36BA26BBD6BCD
:104F0000BF6BC06B040EC66FC76BC86B8097CB6B53
:104F1000CA6BCC6BCD6B01010E6B116BBB6BBA6BAB
:104F2000BD6BBC6B00018099C150C00B0F09C16EF5
:104F3000070EB46E1E6A040E1F6E0C0E206E836B7D
:104F4000846B0E0EA46F7C0EA56F0B0EA66F7C0EED
:104F5000A76F1D0EA86F7C0EA96F1A0EAA6F7C0E8C
:104F6000AB6F0D0EAC6F7C0EAD6F0A0EAE6F7C0E8C
:104F7000AF6F1C0EB06F7C0EB16F160EB26F7C0E51
:104F8000B36F0C0EB46F7C0EB56F1F0EB66F7C0E38
:104F9000B76F1B0EB86F7C0EB96F170EBA6F7C0E11
:104FA000BB6FC169C269C369C469C5690101946BFA
:104FB000956B966B976B986B996B9A6B9B6B9C6BD5
:104FC0009D6B9E6B9F6BA06BA16BA26BA36BA46B85
:104FD000A56BA66BA76BA86BA96BAA6BAB6BAC6B35
:104FE000AD6BAE6BAF6BB06BB16BB26BB36B000103
:104FF00028EF16F079EF16F028EF17F0196AF2BED5
:10500000198EF29E6DEC0DF019BEF28E84EF17F042
:10501000F2CFC5F1F29E020EA96EA69CA69EA680B6
:10502000A8500101C5BFF28EC46FC451DB0804E172
:1050300000018085809301010001FEEC17F0EDEF87
:105040001CF080A545D080A303D0809389983CD0E4
:105050000101C86BC76BCBC0C6F1CAC0C5F1000166
:1050600056EF1EF0F2CFC5F1F29EF86A7F0EF76E92
:10507000F00EF66E0900F5500800F5CF03F0F86A5F
:105080000101C5BFF28EC56FC66FC56BF2CFC7F108
:10509000F29EF86A7F0EF76EF20EF66E0900F5507A
:1050A0000800F5CF03F0F86AC7BFF28EC525B66FCA
:1050B0000350C621B76FD890B637B737126B536B12
:1050C0000001809780838988A36BA26B809980956B
:1050D00080A30DD0A251A3110AE160EC1EF002C022
:1050E000C6F101C0C5F101C0C7F120EF20F0A5D77E
:0250F0000300BB
:020000040030CA
:0E00000024CE3E1E0087A1000FC00FE00F406F
:00000001FF
;PIC18F4550
;CRC=40F2  CREATED="15-Nov-13 18:07"
