:04175000B2EF28F0DC
:08175800046ED8CF05F0E0CFCC
:1017600006F00001E9CF0CF0EACF07F0E1CF08F076
:10177000E2CF09F0D9CF0AF0DACF0BF0F3CF12F0B5
:10178000F4CF13F0FACF14F0F5CF15F0F6CF16F032
:10179000F7CF17F000C00EF001C00FF002C010F03C
:1017A00003C011F0F2AAD8EF0BF0F2B4C0EF14F0BE
:1017B0009DA0DEEF0BF09EB01CEF16F09DA2E4EFB3
:1017C0000BF09EB281EF16F0A0AAEAEF0BF0A1BADF
:1017D00028EF14F00EC000F00FC001F010C002F0AE
:1017E00011C003F00CC0E9FF07C0EAFF078E08C074
:1017F000E1FF09C0E2FF0AC0D9FF0BC0DAFF12C047
:10180000F3FF13C0F4FF14C0FAFF15C0F5FF16C0B4
:10181000F6FF17C0F7FF045006C0E0FF05C0D8FF71
:101820001000F76A320FF66E180EF7220900F55015
:101830001200000302FFFFFFFFFFFFFFFFFFFFFF9C
:10184000FFFFF76A520FF66E180EF7220900F550E7
:10185000120000FF02FFFFFFFFFFFFFFFFFFFFFF80
:10186000FFFFF76A720FF66E180EF7220900F550A7
:10187000120040000B0040000000000000000000CB
:101880000000000000000000000000000000000058
:101890000000F76AA20FF66E180EF7220900F55045
:1018A00012004000000040000000000000000000A6
:1018B0000000000000000000000000000000000028
:1018C0000000F76AD20FF66E180EF7220900F550E5
:1018D00012000902430002010080320904000001E5
:1018E000020201000524001001042402020524065E
:1018F00000010524010001070581030B00FA09041A
:101900000100020A0000000705020240000107056D
:10191000820240000100F76A260FF66E190EF722C8
:101920000900F55012000200F76A380FF66E190E22
:10193000F7220900F550120012171B20FFFFFFFFCE
:10194000F76A500FF66E190EF7220900F5501200D3
:101950001201100102000040610433000001010285
:101960000001F76A720FF66E190EF7220900F550A2
:101970001200040309040803430043005300180342
:10198000530045005200490041004C002000440033
:1019900045004D004F006D92699468A402D0689490
:1019A000FCD734EF14F0400E0401016F040E036FF6
:1019B000180E026F880E006F046B040E076F580E2E
:1019C000066F0001120070A002D0EDDF7090689ADF
:1019D0003DEF14F06A6A689243EF14F002010E9131
:1019E0000DBF0E810D9F0D51100803E2000E016E18
:1019F0001AD00EA10DD0036A0D51000112DFFF08AD
:101A000002E1000E01D0010E016E02010CD00BD0DC
:101A1000036A0D51000115DFFF0802E1000E01D03D
:101A2000010E016E020100011200020112511403A5
:101A3000F3CF01F0F4CF00F01503F350002613515B
:101A40001403F3500020026E00011200036A020129
:101A50000C51700FE96E0F0E0320EA6EEF6A0CC294
:101A60000DF20001BBDF015228E00201136B0CC232
:101A700012F2156B080E146F0001D7DF020101C0CE
:101A8000E9FF040E0224EA6EEF6A136B0CC212F235
:101A9000156B080E146F0001C8DF02C00EF201C002
:101AA0000DF2040E02010D27000E0E230DC2E9FFF8
:101AB000040E0E25EA6EEF6A00011200010E02010B
:101AC0000B6F0B510F0807E30BC20CF20001BEDFD6
:101AD00002010B2BF6D7000112000201056B046B0B
:101AE000250E036F800E026FEA6A2C0EE96E020E5D
:101AF000E26E020EE16E020E016EE6CFEEFF012EE7
:101B0000FCD72E6A2F6A026BEA6A300EE96E020E6B
:101B1000E26E020EE16EE6CFEEFF026BEA6A310E74
:101B2000E96E020EE26E020EE16EE6CFEEFF080EE7
:101B3000026FEA6A320EE96E020EE26E020EE16E8A
:101B4000E6CFEEFF0001816B8091346A336A7C6BD3
:101B50007D91826B1200296A286A0201016B015192
:101B600001080AE3036A01512A0FE96E000E0320FF
:101B7000EA6EEF6A012BF3D70001AFDF1B6A010E9B
:101B80001C6E1A6A1200689612006A6A686A9F0ED2
:101B90006B6E3D0E696E6E6A91DFDDDF160E706E44
:101BA00068A602D0F0DFFCD76D98FDDE030E226E32
:101BB00049EF14F0698468986D824FEF14F0689CC7
:101BC00055EF14F006C223F0120023681200020140
:101BD000046B2850291033E004513F0830E31D50B6
:101BE000000A000105E0020A0AE0010A0FE014D031
:101BF00027C003F0265065DEE8CF05F20DD027C0E0
:101C000003F02650AEDEE8CF05F206D027C003F081
:101C1000265096DEE8CF05F2262AD8B4272A285087
:101C2000D8B42906280602010451042B580FE96E86
:101C3000040EEA6ED8B0EA2A05C2EFFFCAD72850D0
:101C4000291004E10451400801E01A6A04C206F2B6
:101C50000001B8DF1200276A266A1D6A04011B51C1
:101C6000010A000107E0030A0BE0010A0DE0220A65
:101C700022E03AD0296A120E286E030E1D6E36D06D
:101C8000296A430E286E32D0020E1D6E036A0401CB
:101C90001A511E0FE96E000E0320EA6E276AEFCF7D
:101CA00026F027C003F0265000015BDE036A286E91
:101CB00003C029F01BD0036A04011A51000134DE6D
:101CC000036A266E03C027F0263C02D027520AE0A2
:101CD00027C003F02650F5DD036A286E03C029F003
:101CE00005D002D072DF11D070DF0FD004011F5376
:101CF00008E1295203E128501E5D03E2296A1EC44F
:101D000028F0010E1A6E000162DFD2EF0FF002011F
:101D1000035306E1040E226E0001D0DEE7D002017B
:101D2000050E226E040E066F980E056F010E046FED
:101D300004510F08D8A0DAD004C20CF2000186DEEC
:101D40000201076B036A045100017BDDFF0865E0B7
:101D5000040E0201076FD8900435036A000199DD73
:101D60000900F5CF03F00201086F03C009F2136BFD
:101D700004C212F2156B080E146F000156DE01C08A
:101D80000BF2010E02010124016E000E0220036E0F
:101D900001C0E9FF040E0324EA6E08C2EFFF136BD3
:101DA00004C212F2156B080E146F00013EDE01C072
:101DB0000BF2020E02010124016E000E0220036EDE
:101DC00001C0E9FF040E0324EA6E06C2ECFFED52E7
:101DD00005C2EFFFD8900435036A00015ADD0900FF
:101DE000F5CF03F00201052703500623880E0A6F82
:101DF00009B10A8109B30A83136B04C212F2156B8D
:101E0000080E146F000111DE020101C0E9FF040E8B
:101E10000224EA6E0AC2EFFF0001036A02010451C4
:101E20000001FFDCFF0847E002010783136B04C2D7
:101E300012F2156B080E146F0001F7DD02C00CF2F0
:101E400001C00BF2040E02010B27000E0C23020E40
:101E50000B25016E000E0C21036E01C0E9FF040E7C
:101E60000324EA6E06C2ECFFED5205C2EFFFD890E4
:101E70000435036A0001F5DC0900F5CF03F0020127
:101E8000052703500623136B04C212F2156B080ECC
:101E9000146F0001CADD02C00CF201C00BF2040E87
:101EA00002010B27000E0C230BC2E9FF040E0C25C8
:101EB000EA6E400EEF6E02010751060802E10E0EB7
:101EC000076F036A04510001ACDC010803E0020162
:101ED00007890001036A02010451700FE96E0F0EB9
:101EE0000320EA6E07C2EFFF042B22D70001CBEFDD
:101EF0000FF004011951000A00010DE0010A15E07C
:101F0000020A20E0060A2AE0030A31E00E0A31E064
:101F1000010A37E046D01CC058F40401596B020E88
:101F20000201066F00014EDE3DD004011A2D07D0DC
:101F3000010E1C160201066B000144DE02D00001F6
:101F400044DE30D004011A2D06D01C820201066B3B
:101F5000000138DE02D0000138DE24D0020E1A6EF5
:101F60001AC424F00201066B00012CDE1BD073D6CC
:101F700019D01BC058F4010E0201066F000122DEC9
:101F800011D004011A5101080AE31AC41BF01AC443
:101F900003F20001BCD60201066B000113DE000152
:101FA00001D013DE67EF11F01BC003F204011951D9
:101FB000000A000105E00A0A0CE0010A2BE03FD00C
:101FC0000401586B596B020E0201066F0001FADD25
:101FD00037D0020103531BE0010E035D036A0001C9
:101FE0009ADC016E04011C5DD8A002D002010FD062
:101FF000036A1C512A0FE96E000E0320EA6EEFCF30
:1020000058F4010E0201066F0001DCDD02D0000170
:10201000DCDD16D0020103530FE0036A04011C51FA
:102020002A0FE96E000E0320EA6E1AC4EFFF0201C8
:10203000066B0001C7DD02D00001C7DD01D0C5DDA0
:1020400067EF11F00201049103BF0481039F04A113
:1020500019D0136B03C212F2156B080E146F000136
:10206000E4DC02C006F201C005F2040E02010527FD
:10207000000E062305C2E9FF040E0625EA6E880E4F
:10208000EF6E0FD0136B03C212F2156B080E146FB4
:102090000001CBDC020101C0E9FF040E0224EA6E5C
:1020A000EF6A0001D4EF10F00201049103BF048134
:1020B000039F04A119D0136B03C212F2156B080E13
:1020C000146F0001B2DC02C006F201C005F2040E7A
:1020D00002010527000E062305C2E9FF040E0625AE
:1020E000EA6E840EEF6E10D0136B03C212F2156B02
:1020F000080E146F000199DC020101C0E9FF040E13
:102100000224EA6E840EEF6E0001DCEF10F0020193
:10211000049103BF0481039F04A119D0136B03C270
:1021200012F2156B080E146F00017FDC02C007F27B
:1021300001C006F2040E02010627000E072306C2A4
:10214000E9FF040E0725EA6EEFCF05F210D0136BFE
:1021500003C212F2156B080E146F000166DC020157
:1021600001C0E9FF040E0224EA6EEFCF05F205AFCD
:1021700002D005B502D0000E01D0010E016E0001A3
:10218000E8EF10F01CC40DF229DC01522DE004012F
:102190001951010A000105E0020A0BE0030A11E0EF
:1021A00022D01CC403F24ED70201066B00010ADDE7
:1021B0001BD01CC403F278D70201066B000102DDBC
:1021C00013D00401586B596B1CC403F200019FD754
:1021D000015203E0010E0401586F020E0201066F66
:1021E0000001F0DC01D0F1DC67EF11F0FE0E236E90
:1021F000120004011C2D01D002D01C534EE11951D4
:10220000000A00010BE0010A0DE0210A1CE0010AAE
:102210001FE0030A30E0010A35E03DD0010E826F75
:10222000E5DF3AD0040EEA6E580EE96EE26A350E2A
:10223000E16E080E016EE6CFEEFF012EFCD71EC444
:1022400006F2C0DC29D0020E826F8081CFDF24D05D
:10225000040EEA6E580EE96EE26A2C0EE16E070E6D
:10226000016EE6CFEEFF012EFCD7070E0201066FCE
:102270000001A8DC11D01AC481F00201066B000134
:10228000A1DC0AD01AC434F01BC433F00201066B7F
:10229000000198DC01D099DC0401000167EF11F026
:1022A0001A6A040118517F0B000A000107E0010AB5
:1022B00007E0030A07E0230A07E008D01AD607D090
:1022C00073D605D05FD703D094D701D07EDCC8EF9A
:1022D00013F00201136B04C212F2156B080E146F97
:1022E000000115EC0DF0020101C0E9FF040E02240B
:1022F000EA6EEFCF06F20551020806E106AD02D004
:10230000056B02D0010E056F055103081CE1840E18
:10231000066F136B04C212F2156B080E146F0001E6
:1023200015EC0DF002C00AF201C009F2040E020120
:102330000927000E0A2309C2E9FF040E0A25EA6EE6
:10234000840EEF6E07D0052D03D0C80E066F02D0A5
:10235000880E066FD8900435036A000149EC0CF032
:102360000900F5CF03F00201076F03C008F2136BF9
:1023700004C212F2156B080E146F000115EC0DF07B
:1023800001C009F2010E02010124016E000E0220BB
:10239000036E01C0E9FF040E0324EA6E07C2EFFFDB
:1023A00008B1068108B30683136B04C212F2156BE1
:1023B000080E146F000115EC0DF0020101C0E9FFD9
:1023C000040E0224EA6E06C2EFFF00011200036A47
:1023D00002011151700FE96E0F0E0320EA6EEF52E9
:1023E0001BE0136B11C212F2156B080E146F000183
:1023F00015EC0DF002C013F201C012F2040E02013E
:102400001227000E132312C2E9FF040E1325EA6EF1
:10241000EFCF14F214AF02D0000E01D0010E016E06
:10242000000112000CC211F2D2DF0152D8B485D0E3
:102430000201136B0CC212F2156B080E146F00012F
:1024400015EC0DF002C012F201C011F2040E0201EF
:102450001127000E1223010E1125016E000E12210C
:10246000036E01C0E9FF040E0324EA6E0DC2EFFF04
:102470000F51020820E1136B0CC212F2156B080E0B
:10248000146F000115EC0DF002C012F201C011F240
:10249000040E02011127000E122311C2E9FF040EDF
:1024A0001225EA6EEFCF10F210AD02D00F6B02D002
:1024B000010E0F6F1AD00F51040817E1136B0CC2F5
:1024C00012F2156B080E146F000115EC0DF00201ED
:1024D00001C0E9FF040E0224EA6EEFCF10F210AD46
:1024E00003D0010E0F6F01D00F6B0F2D03D0C80E5C
:1024F000106F02D0880E106F0EB110810EB31083D2
:10250000136B0CC212F2156B080E146F000115EC60
:102510000DF002C012F201C011F2040E02011127E7
:10252000000E122311C2E9FF040E1225EA6E10C23A
:10253000EFFF010E016E04D00001000E016E0201DA
:10254000000112008251010A03E0030A15E028D0BD
:10255000EA6A350EE96E040EE26E180EE16E080EA0
:10256000016EE6CFEEFF012EFCD70201066B0001E3
:10257000E2EC0DF0826B15D0EA6A2C0EE96E040EC7
:10258000E26E180EE16E070E016EE6CFEEFF012E31
:10259000FCD7826B0201066B0001E2EC0DF001D06A
:1025A000826B10EF13F00201136B04C212F2156B71
:1025B000080E146F000115EC0DF002C006F201C008
:1025C00005F2010E02010124016E000E0220036ECD
:1025D00001C0E9FF040E0324EA6E036AEFCF01F0A5
:1025E00003C002F0000104EF13F07D91020E02011E
:1025F000046F056F00016DDE12007D817F6B020E9E
:102600000201046F0001CFD701C07EF07E5301E1CB
:10261000ECDF17EF13F00201035304E1000192D73E
:1026200006D002010351020803E10001E6D70201CE
:102630000001120004C26EFF0201045303E0040E05
:10264000226E02D0020E226E00012CEF13F01B6AE4
:102650001A6A24C004F2EED7A2EF13F004C211F2FA
:10266000B6DE015247E00201136B04C212F2156B91
:10267000080E146F000115EC0DF002C00DF201C040
:102680000CF2040E02010C27000E0D23020E0C2585
:10269000016E000E0D21036E01C0E9FF040E03243C
:1026A000EA6EECCF0BF2ED52EFCF0AF20BC2EAFF6B
:1026B0000AC2E9FF06C2E2FF05C2E1FF08C202F05A
:1026C00007C201F0015202E0022A02D0025206E0E3
:1026D000E6CFEEFF012EFCD7022EFAD704C20CF291
:1026E00008C20EF207C20DF209C20FF200019ADE13
:1026F000015002D0000E016E12007C5310E0020E59
:102700000201046F066B3D0E056F086B7CC007F27B
:10271000020E096F0001A2DF015201E07C6B120082
:10272000ECDFA9EF13F0020103530EE11A2C05D0E0
:102730000001E7EC0DF006D002011A50020803E197
:10274000000185D7020106D00351020803E1000110
:10275000E7D702010001120021300201016F0133AD
:1027600001331F0E011721524EE1040100513C0BB1
:102770000201026F430E04010017020102513408E6
:1027800025E104010451800B01E0046B000188D5B0
:102790006D98233C07D00201046B030E056F000106
:1027A00098DD12D00201046B020E056F000191DD6D
:1027B0002350FE0809E002010C6B0E6B23C00DF2E2
:1027C000040E0F6F00012EDE1CD00201025104081E
:1027D00019E1036B00011FDF0201046B020E056F9C
:1027E000000177DD2350FE080CE0233C01D009D026
:1027F00002010C6B0E6B23C00DF2010E0F6F000176
:1028000011DE020122D02150040812E12368036B7B
:10281000000189DF233C01D009D002010C6B0E6B53
:1028200023C00DF2020E0F6F0001FCDD0DD002017E
:1028300021B406D001C203F20001EDDE05D0020191
:1028400001C203F200016FDF0201000161EF14F029
:10285000A19A225201E13ED068523CE068A404D023
:1028600069A402D0CBEF0CF06DA201D033D068AADE
:1028700004D069AA02D0E3EF0CF068A204D069A2E8
:1028800002D0EAEF0CF068A004D069A002D0C5EF36
:102890000DF068A804D069A802D0DAEF0DF068AC9A
:1028A00004D069AC02D0DFEF0DF00201006B68A626
:1028B0000AD069A608D06CCF21F00001C3EC0DF05E
:1028C0004BD702D0020105D002010051002B0308B2
:1028D000EEE20001EAEF0BF0737461636B206F7638
:1028E0006572666C6F770A00737461636B20656D47
:1028F0007074790A0000020104C200F00551016EF3
:1029000004E0D8900032012EFCD70050010B016E7C
:102910000001120002010651070B006E0631016E24
:10292000013201321F0E011601500825E96E000E1A
:102930000921EA6E016A012A002A01D00136002E1F
:10294000FDD7075303E00150EF1203D0011E0150E1
:10295000EF160001120005C203F0020104C2E9FFF4
:1029600005C2EAFF010E006E0651016E04E0D89028
:102970000036012EFCD70050EF10EF6E0001120060
:102980000101182B18510208D8A43CD1186B000182
:10299000B251030867E3ACC004F2B4C005F2ABDF88
:1029A000012C5FD0036AB451AD0FE96E000E032015
:1029B000EA6EEF3C01D055D0A9C004F2B4C005F2D4
:1029C0009ADF015237E1ABC004F2B4C005F293DFE5
:1029D000015218E0D890B435036A910FE96E000EE9
:1029E0000320EA6EECCF05F2ED52EFCF04F204C201
:1029F00006F20201076B0F0E096F890E086F0001C6
:102A000089DF17D0D890B435036A990FE96E000EAC
:102A10000320EA6EECCF05F2ED52EFCF04F204C2D0
:102A200006F20201076B0F0E096F890E086F000195
:102A300071DF17D0D890B435036A990FE96E000E94
:102A40000320EA6EECCF05F2ED52EFCF04F204C2A0
:102A500006F20201076B0F0E096F890E086F000165
:102A600059DF74D00201006B00510308D8A06ED06A
:102A7000ACC004F200C205F200013DDF012C63D0BE
:102A8000036A02010051AD0FE96E000E0320EA6EE9
:102A9000EF525AE0A9C004F200C205F200012BDF98
:102AA000015239E1ABC004F200C205F224DF015249
:102AB00019E0D89002010035036A910FE96E000E0B
:102AC0000320EA6EECCF05F2ED52EFCF04F204C220
:102AD00006F2010E076F0F0E096F890E086F0001D5
:102AE00019DF18D0D89002010035036A990FE96EFA
:102AF000000E0320EA6EECCF05F2ED52EFCF04F2A8
:102B000004C206F2010E076F0F0E096F890E086FDF
:102B1000000100DF18D0D89002010035036A990F38
:102B2000E96E000E0320EA6EECCF05F2ED52EFCF16
:102B300004F204C206F2010E076F0F0E096F890E30
:102B4000086F0001E7DE0201002B8ED70201016948
:102B5000006B0051040823E3036A0051AD0FE96ED6
:102B6000000E0320EA6EEF50015D17E3B3C004F2DC
:102B700000C205F20001BFDE0152D8B402D002014A
:102B80000CD0036A02010051AD0FE96E000E032064
:102B9000EA6EEFCF01F200C202F2002BDAD7056B2A
:102BA000B30E046F02C206F20001D5DEB251030873
:102BB0000DE3036AB451AD0FE96E000E0320EA6E17
:102BC000EF500201015D036F04D0000101C203F266
:102BD000020102C2B4F00001B251030801E1B36B7B
:102BE000B251030802E3B22B01D0B26B02010353CE
:102BF00004E10001B253D8A4CBD60001B25301E1E5
:102C000080850101FF0ED88002010355D76AD66E78
:102C1000F2940001EAEF0BF003C288F002C287F0E1
:102C200001C286F000C285F03FEF16F001015B6B38
:102C30005BC119F100011200B82BD8B4B92BA12D3A
:102C400001D001D0BA2BB65302E1B75304E0B6511C
:102C5000D8B4B707B60783A24AD080BD47D0807BDF
:102C6000808DB76BB66B809F80B93ED00201036B3D
:102C7000026BB9C001F2B8C000F20001CDD789885B
:102C8000F2CF00F2F29EF86A7F0EF76EF00EF66E4B
:102C90000900F5500800F5CF03F0F86A020100BF03
:102CA000F28E006F016F006BF2CF02F2F29EF86AB3
:102CB0007F0EF76EF20EF66E0900F5500800F5CFA4
:102CC00003F0F86A02BFF28E00250101BE6F0350C7
:102CD000020101210101BF6FD890BE37BF3700014B
:102CE000A5DF8097808902D08099899803D080AD34
:102CF00001D0809D1C0ECF6E770ECE6E9E90EAEFB7
:102D00000BF09E92EAEF0BF0A66B010EA16F80997B
:102D10000101196B5B6B1A6BF2CFCEF1F29EF86A70
:102D2000760EF76E080EF66E0900F5500800F5CF26
:102D300003F0F86ACEBFF28EBC6F03C0BDF1000194
:102D400047EF29F0010EEA6EE90EE96EEF500EE052
:102D50000F0E016E006A002EFED7012EFBD78F0EDC
:102D6000006E002EFED70000EF2EF2D71200320EBA
:102D7000BE6E8C8089880101E96F0001E3DFBE6AC5
:102D8000320E0101E96F0001DDDF8C908998320E6F
:102D9000BE6E0101E96F0001D5DFBE6A8C808988B3
:102DA000640E0101E96F0001CDDF8C90899877EF07
:102DB00017F0AA6B2F0E926E030E936E000E946E98
:102DC000020E956E070E966EC150C00B0709C16EBC
:102DD000C050C00B0709C06EC08EC280A86B000E29
:102DE000016EC250C30B0110C26E8A9E8C9C8998E2
:102DF0008C900101CE6BCF6BCE5103085CE3D89071
:102E0000CE35036A890FE96E000E0320EA6EECCF1F
:102E1000D1F1ED52EFCFD0F1196AF2BE198EF29EC8
:102E2000D0C106F20201076B0F0E096F890E086F01
:102E3000000170DD19BEF28ED8900101CE35036A13
:102E4000910FE96E000E0320EA6EECCFD1F1ED5246
:102E5000EFCFD0F1196AF2BE198EF29ED0C106F200
:102E60000201076B0F0E096F890E086F000152DD1A
:102E700019BEF28ED8900101CE35036A990FE96E22
:102E8000000E0320EA6EECCFD1F1ED52EFCFD0F17E
:102E9000196AF2BE198EF29ED0C106F20201076BCA
:102EA0000F0E096F890E086F000134DD19BEF28E16
:102EB0000101CE2BA1D78B940C0EBD6EB76AB66AFA
:102EC000B50ECD6E780E0609CA6EFA0ECB6EC00E28
:102ED000F212C70ED56ED76AD66AF28A9D809D829D
:102EE0009D8A1C0ECF6E770ECE6E000140D749EF43
:102EF00029F06D6A696A080E6F6E945030090101FD
:102F0000946E226A196AF2BE198EF29E0001ABEC31
:102F10000DF019BEF28E8EEF17F0EBD7B3EF17F06E
:102F2000196AF2BE198EF29EABEC0DF019BEF28E4C
:102F30006D6A140E6F6E696A6D86010E226EA4EFC3
:102F400017F06DB601D0ECD7222C0BD06DBA09D09A
:102F5000686A696AA08AC00EF212110E696E020ECA
:102F6000226E1200DAD7EDDF22500208FCE153EFA7
:102F700029F07DB101D0FDD77F517F2BA30FE96EE2
:102F8000040EEA6ED8B0EA2AEFCFD0F17E517F5D11
:102F900008E3196AF2BE198EF29EF5EC12F019BE22
:102FA000F28E0101D0C101F00001E7EF17F07DA121
:102FB00024D0D1531CE1036ACF51BB0F016E000E28
:102FC000032201C0CEF103C0CFF10001D2D7CFC19F
:102FD000EAFFCEC1E9FF01C0EFFFCF2BCF511308AD
:102FE00001E2CF6BD051CF5D02E1010ED16F050E32
:102FF0000101E96F0001A6DEDAD757EF29F0D12DE4
:103000000FD0D16B020E0101D36F0001CF6BD06BDB
:103010000101D1C1E9FFD2C1EAFFEF6A2AD0000164
:10302000CF51D05D09E10101D36BD1C1E9FFD2C11C
:10303000EAFFEF6A1ED00001D2C103F00101036A6A
:103040000001D051BB0FE96E000E0320EA6EEFCFF6
:10305000D6F10101D2C1EAFFD1C1E9FFD6C1EFFF2C
:103060000001D02BD051130801E2D06B010E0101F9
:10307000D36FD3C101F0000187EF19F00101EE9188
:10308000F2BEEE81F29E00017C513E0802E23E0E4D
:103090007C6F7C517C2B036A3D0FE96E000E032090
:1030A000EA6EEDC1EFFFF29E0101EEB1F28E00017A
:1030B0005DEF18F0ECC1EDF1E1D7196AF2BE198E9F
:1030C000F29E020E0201116F0001E7EC11F019BE31
:1030D000F28E015208E0196AF2BE198EF29E7DEC62
:1030E00013F019BEF28E7CEF18F07C513E0801E21D
:1030F000FCD7EBC1ECF1DED71200E8C101F0E7C16B
:1031000000F00066012A0900F5CFEEFF002EFBD784
:10311000012EF9D7F86A1200E6C117F1E5C116F1E0
:10312000C00E010116171651E55D156FF86A17C13B
:10313000F7FF16C1F6FFEA6AD50EE96EE86B400E9E
:10314000E76F0001DADF12000101D4C103F0D351AF
:10315000D8B4D407D307D56F03C0D6F1D55302E155
:10316000D65322E0D2C103F0D151D12BD8B4D22B07
:10317000800FD56F5D0E0320D66FF2CFD7F1F29E90
:10318000F86AF76ED5C1F6FF0900F5500800F5CFD3
:1031900003F0F86AD7BFF28ED56F03C0D6F1EB6F9C
:1031A0000001A3DFD1D70101000181EF1AF0F25035
:1031B000036EF29EA68EA6840F01550EA76EAA0E70
:1031C000A76EA68200000350F21200011200D08CFC
:1031D000A69CF6501F0B006EE00EF6160A00E7C123
:1031E00001F0006608D0F650010F3F0B04E1A688FD
:1031F0000900DDDF0A00006607D0EECFF5FF0152BF
:1032000004E00F00010603D000060B000C001F0EA7
:10321000F6141F0AE6E1CBDF0166E3D7F86A120075
:1032200001011551152B036AD50FE96E000E03201D
:10323000EA6ED1C1EFFF1551152B036AD50FE96E68
:10324000000E0320EA6ED251EF6E15513F0833E2B3
:1032500017515D0804E32FE1165130082CE2D08CA1
:10326000F86A17C1F7FF16C1F6FFA688A69C0001F1
:103270009EDFF86AF86A17C1F7FF16C1F6FFEA6A1F
:10328000D50EE96E400E0101E76F0001A0DF0101DC
:10329000156B400E1627000E1723F86A17C1F7FFAB
:1032A00016C1F6FFEA6AD50EE96EE86B400EE76FCD
:1032B000000123DF010100011200010117515D0827
:1032C00004E31CE11651300819E2D08CF86A17C1EA
:1032D000F7FF16C1F6FFA688A69C000168DFF86A12
:1032E000F86A17C1F7FF16C1F6FFEA6AD50EE96E54
:1032F000400E0101E76F00016ADF010100011200C9
:10330000010E0101D26FCE0ED16F000178D601C03F
:10331000CFF10101CF2D88D10001BA6BCEC1B5F03C
:103320008087CEC1EBF1E1DEA151010A24E0030A5E
:103330005AE0010AD8B460D0070AD8B480D0010A94
:10334000D8B483D0850AD8B482D0010AD8B488D042
:10335000030AD8B4C0D0010AD8B4C6D0070AD8B47A
:10336000DAD0010AD8B4E0D0030AD8B4E5D0010A13
:10337000D8B444D14DD10101CE51540A00010BE023
:10338000D70A0FE0070A10E0010A11E0030A12E071
:10339000010A1BE01CD0020EA16F0101D0810001C7
:1033A00016D0800EA16F13D0820EA16F10D0840EA4
:1033B000A16F0DD00101D08189880001B76BB66B78
:1033C000809F34DC8097808902D0870EA16F010135
:1033D000D0B107D000018099B76BB66B8998A66B06
:1033E0000101D09118D10101CE51FE0804E1030E74
:1033F0000001A16F01010FD10101CE51E00B006E60
:1034000000380001A26FA233070EA2170101CE51AE
:103410001C0B006E00300001A36FA3333F0EA317F7
:103420000101CE51030B0001A46FA251030803E276
:10343000040EA16F02D0050EA16F0101ECD0CEC128
:10344000A5F0050EA16F0101E6D00101E4D0010154
:10345000CEC1BFF1BE6B810E0001A16F0101DBD0B7
:103460000101CE51BE13010E0001A16F0101BE5139
:10347000F00BD16FBF510F0BD26FD151F0081BE190
:10348000D2510F0818E1BE510F0BD16FD26BD890FB
:10349000D135026ED235036E0250F00FD16F7F0E20
:1034A0000320D26F800ED15DBE6F5D0ED259BF6F0B
:1034B000320EBE6E03D0D890BE37BF37800EBE2509
:1034C000D16F5D0EBF21D26FE66FD1C1E5F1000172
:1034D00023DE0101A0D00101CEC1C1F1C06B830E7A
:1034E0000001A16F010197D00101CE51C013BFC1EE
:1034F000D2F1BEC1D1F1C1C1D4F1C0C1D3F100013B
:1035000023D60101C051BE27C151BF23010E0001C6
:10351000A16F010180D00101CEC1C1F1C06B850E48
:103520000001A16F010177D00101CE51C013860EB9
:103530000001A16F01016FD0BE6AD25102081BE1E8
:103540000101CE510001D327000ED423D26BD4C089
:10355000D2F1D3C0D1F164DE0101C051D8B4C107AA
:10356000C02F07D0C15305E10001A7DE010EA16FF6
:1035700001013BD00001D22D09D0D46BCEC1D3F0D4
:10358000D3C0D4F0D36B020ED26F2ED00101CE5136
:10359000800819E1010E0001D26FD46BD36B0101D9
:1035A000D26BCEC1D1F100013BDE0101C051D8B4D4
:1035B000C107C02F07D0C15305E100017EDE010E17
:1035C000A16F010112D0D26BCEC1D1F1000128DE72
:1035D0000101C051D8B4C107C02F07D0C15305E1C4
:1035E00000016BDE010EA16F0101FF0ED880CE55E8
:1035F000D16FEB6F000179DD01010DD0370E0101B4
:10360000EB6F000172DD010EA16F010104D000011A
:10361000010EA16F01010001A151050803E10101A3
:1036200003D000016DD60101CF51020804E1010E63
:103630000001A16F0101000159EF29F0340E0101D1
:10364000EB6F000152DD20EF2AF00101E635006E3C
:103650000036FC0E0016C250C30B0010C26EC70E1F
:10366000006E002EFED700D000014EEF1BF0C2828C
:10367000C2B2FED7C4CFE7F10101C3CFE6F1E6C184
:1036800001F0E7C102F0000151EF1BF00101E5512B
:103690000001A85D05E0E5C1E6F1D7D7E5C1A8F0D6
:1036A000E6D702501200EDC103F00101ECC1E9FFC1
:1036B000EDC1EAFF010E006EEE51016E04E0D890FC
:1036C0000036012EFCD70050FF0AEF14EF6E000108
:1036D00012000101E86BE85103082AE3AAC000F0D8
:1036E0000101E851016E04E0D8900032012EFCD7B0
:1036F0000050010B1BE0E75309E1ED6BA90EEC6FE5
:10370000E8C1EEF10001CFDF10D00101196AF2BE6D
:10371000198EF29E0201056BA90E046FE8C106F234
:103720000001ABEC14F019BEF28E0101E82BD3D7E7
:1037300000011200D8900101EC35036A890FE96E8F
:10374000000E0320EA6EECCFEEF1ED52EFCFEDF17B
:10375000196AF2BE198EF29EEDC106F2010E020147
:10376000076F0F0E096F890E086F00018AEC14F0C5
:1037700019BEF28E8A8E8C8C32EF1CF0D89001012B
:10378000E735036A910FE96E000E0320EA6EECCF75
:10379000EBF1ED52EFCFEAF1D890E735036A990FDC
:1037A000E96E000E0320EA6EECCFE9F1ED52EFCFA7
:1037B000E8F1196AF2BE198EF29EABC004F2E7C1BD
:1037C00005F200017BEC14F019BEF28E015224E0E8
:1037D000196AF2BE198EF29EE8C106F20201076B69
:1037E0000F0E096F890E086F00018AEC14F019BEE4
:1037F000F28E196AF2BE198EF29EEAC106F2010E2D
:103800000201076F0F0E096F890E086F00018AEC25
:1038100014F019BEF28E23D0196AF2BE198EF29EF0
:10382000E8C106F2010E0201076F0F0E096F890E43
:10383000086F00018AEC14F019BEF28E196AF2BE0C
:10384000198EF29EEAC106F20201076B0F0E096F94
:10385000890E086F00018AEC14F019BEF28EE7C1E0
:10386000ECF168D7196AF2BE198EF29E0201056B5F
:10387000AC0E046FE7C106F20001ABEC14F019BE08
:10388000F28E7AEF1EF0D8900101EC35036A890FB1
:10389000E96E000E0320EA6EECCFEFF1ED52EFCFB0
:1038A000EEF1196AF2BE198EF29EEEC106F2020125
:1038B000076B0F0E096F890E086F00018AEC14F078
:1038C00019BEF28E0101ECA104D0010EEC5DED6F8A
:1038D00003D0010EEC25ED6F196AF2BE198EF29E2F
:1038E000ACC004F2EDC105F200017BEC14F019BE8E
:1038F000F28E015201E10BD00101EC51010805E308
:103900008A9E000104D003D001018C9C0001EAEFE3
:103910001CF0D8900101E735036A910FE96E000EA3
:103920000320EA6EECCFEBF1ED52EFCFEAF1D89045
:10393000E735036A990FE96E000E0320EA6EECCFBB
:10394000E9F1ED52EFCFE8F1196AF2BE198EF29E5D
:10395000E8C106F2010E0201076F0F0E096F890E12
:10396000086F00018AEC14F019BEF28E196AF2BEDB
:10397000198EF29EEAC106F2010E0201076F0F0EC8
:10398000096F890E086F00018AEC14F019BEF28EDF
:10399000D8900101E735036A890FE96E000E032014
:1039A000EA6EECCFEDF1ED52EFCFECF1196AF2BE19
:1039B000198EF29EECC106F20201076B0F0E096F21
:1039C000890E086F00018AEC14F019BEF28EE7C16F
:1039D000ECF159D70101ED6BAC0EEC6FE7C1EEF1E4
:1039E000000161DE7FEF1EF0D8900101E735036A28
:1039F000910FE96E000E0320EA6EECCFEBF1ED5271
:103A0000EFCFEAF1D890E735036A990FE96E000E1F
:103A10000320EA6EECCFE9F1ED52EFCFE8F1196A3D
:103A2000F2BE198EF29EABC004F2E7C105F20001AE
:103A30007BEC14F019BEF28E01522CE0196AF2BE32
:103A4000198EF29EEAC106F20201076B0F0E096F92
:103A5000890E086F00018AEC14F019BEF28E196A03
:103A6000F2BE198EF29EE8C106F2010E0201076F46
:103A70000F0E096F890E086F00018AEC14F019BE51
:103A8000F28E0101ED6BAB0EEC6FE7C1EEF10001C0
:103A90000ADE32D0196AF2BE198EF29EEAC106F22F
:103AA000010E0201076F0F0E096F890E086F0001EA
:103AB0008AEC14F019BEF28E196AF2BE198EF29ECB
:103AC000E8C106F20201076B0F0E096F890E086F3D
:103AD00000018AEC14F019BEF28E196AF2BE198E3A
:103AE000F29E0201056BAB0E046FE7C106F2000106
:103AF000ABEC14F019BEF28E84EF1EF0D8900101E9
:103B0000E735036A910FE96E000E0320EA6EECCFF1
:103B1000EBF1ED52EFCFEAF1D890E735036A990F58
:103B2000E96E000E0320EA6EECCFE9F1ED52EFCF23
:103B3000E8F1196AF2BE198EF29E0201056BAB0E16
:103B4000046FE7C106F20001ABEC14F019BEF28E6F
:103B5000196AF2BE198EF29EE8C106F20201076BE5
:103B60000F0E096F890E086F00018AEC14F019BE60
:103B7000F28E196AF2BE198EF29EEAC106F2010EA9
:103B80000201076F0F0E096F890E086F00018AECA2
:103B900014F019BEF28E89EF1EF0D8900101E735BE
:103BA000036A910FE96E000E0320EA6EECCFEBF191
:103BB000ED52EFCFEAF1D890E735036A990FE96E3D
:103BC000000E0320EA6EECCFE9F1ED52EFCFE8F101
:103BD000ED6BAB0EEC6FE7C1EEF1000164DD196A2D
:103BE000F2BE198EF29EEAC106F20201076B0F0EB9
:103BF000096F890E086F00018AEC14F019BEF28E6D
:103C0000196AF2BE198EF29EE8C106F2010E020197
:103C1000076F0F0E096F890E086F00018AEC14F010
:103C200019BEF28E8EEF1EF0D8900101E735036ABF
:103C3000910FE96E000E0320EA6EECCFEBF1ED522E
:103C4000EFCFEAF1D890E735036A990FE96E000EDD
:103C50000320EA6EECCFE9F1ED52EFCFE8F1ED6B26
:103C6000AC0EEC6FE7C1EEF100011DDD196AF2BE8A
:103C7000198EF29EEAC106F20201076B0F0E096F60
:103C8000890E086F00018AEC14F019BEF28E196AD1
:103C9000F2BE198EF29EE8C106F20201076B0F0E0A
:103CA000096F890E086F00018AEC14F019BEF28EBC
:103CB00093EF1EF00101E66BE651030839E3AAC059
:103CC00000F00101E651016E04E0D8900032012EAF
:103CD000FCD70050010B2AE0E76B0001FADC010180
:103CE000E551FA0F23E2060F00019AEF1EF0E6C13C
:103CF000E7F144D501011AD0E6C1E7F10AD6010186
:103D000015D0E6C1E7F170D6010110D0E6C1E7F1A8
:103D1000F5D601010BD0E6C1E7F13FD7010106D08E
:103D2000E6C1E7F181D7010101D00101E62BC4D73B
:103D300000011200E824F76AF7364F0FF66E3D0EC9
:103D4000F7220A00F550FA6E0800F550F96EEE3CC5
:103D5000F83C023D0C3D163D203D0101E86BE85169
:103D600003083CE3AAC000F00101E851016E04E041
:103D7000D8900032012EFCD70050010B2DE0010E2F
:103D8000E75DF90F20E2070F0001F0EF1EF0240EAF
:103D90000101E76F18D0490E0101E76F14D06E0ED4
:103DA0000101E76F10D0920E0101E76F0CD0B70E42
:103DB0000101E76F08D0DB0E0101E76F04D00101BC
:103DC000E76901D00101036AE851AD0FE96E000E09
:103DD0000320EA6EE7C1EFFFE82BC1D70001120014
:103DE000E824F76AF736FB0FF66E3D0EF7220A005D
:103DF000F550FA6E0800F550F96E8E3D963D9E3DE9
:103E0000A63DAE3DB63DBE3DE5C1AAF01200CEC115
:103E1000A6F00101CF5303E00001808302D000012E
:103E20008093F5EF29F0320EBE6E0101E96F0001BB
:103E3000A2EC16F0BE6A1200C69E9E96E7C1C9FFAC
:103E4000020EC6BE05D09EA6FED7000EC5BC010E52
:103E5000016E1200C69CC586C5B6FED700B0C59AD5
:103E600000A0C58AC588C5B8FED7C9CF01F0120029
:103E70000101CE51FB0F41E2050F000191EF1FF050
:103E80000101CF5302E18C8001D08C9036D0CBDF82
:103E9000010133D00101E56B00010CDF030E0101CC
:103EA000E56F000107DF010E0101E76F000111DC82
:103EB000D0C1E7F152DF010120D001011ED0010184
:103EC000CF51FC0F18E2040F000180EF1FF0C580F6
:103ED000C5B0FED701010FD0C584C5B4FED701011E
:103EE0000AD0D0C1E7F1A8DF010105D0006AB2DF36
:103EF000010101D0010101D0010100010FEF2AF001
:103F0000E824F76AF7361B0FF66E3F0EF7220A0019
:103F1000F550FA6E0800F550F96ECE3ED83EE23EFE
:103F2000EC3EE824F76AF7363D0FF66E3F0EF722B7
:103F30000A00F550FA6E0800F550F96E803E8E3E8C
:103F4000943EBA3EBE3E80A302D080A534D0A6C027
:103F500000F0A751016E04E0D8900032012EFCD78A
:103F60000050010B23E0A7C0E5F146EC1BF002C0B6
:103F7000CFF101C0CEF1A7390101D06FD037E00EEB
:103F8000D017CF51036AD01303C0D1F1CEC1D2F103
:103F9000D36B0C0EEB6F000175EC18F0D0C1EBF198
:103FA00075EC18F0D2C1EBF175EC18F0010EA725F5
:103FB000070BA76F8095B4EF2AF080AF07D0809FE2
:103FC000330E016E000E026E23D01CD0800E010154
:103FD000BE25E36F5D0EBF21F2CFE5F1F29EF86AD8
:103FE000F76EE3C1F6FF0900F5500800F5CF03F0C6
:103FF000F86AE5BFF28EE16F03C0E2F1020EBE2760
:10400000000EBF230101E1C101F0E2C102F0000195
:104010001200958283B215D09298899895908C80E1
:10402000640E0101E96F0001A2EC16F092988988F4
:1040300095908C90640E0101E96F0001A2EC16F0DE
:10404000E8D7120001015B5311E05B07D8905B35A4
:10405000036A5C0FE96E010E0320EA6EEFCF01F0F8
:10406000E92AEF50E906026E05D004D01A87000154
:10407000D0DF0101000112000900F5520DE0F6CF7A
:10408000E9F1F7CFEAF1F5CFEBF175EC18F0E9C102
:10409000F6FFEAC1F7FFF0D712000101195314E04F
:1040A0001907D8901935036A1B0FE96E010E03201A
:1040B000EA6EECCFE6F1ED52EFCFE5F1E5C101F0AC
:1040C000E6C102F00AD009D01A83E80EF66E280E77
:1040D000F76E0001D1DF9DDF010100011200010137
:1040E0005B511F0812E35B515B2B006ED8900036CA
:1040F0000050036A5C0FE96E010E0320EA6EE2C114
:10410000ECFFED52E1C1EFFF04D01A85000181DF21
:10411000010100011200010119511F080FE3D8909D
:104120001935036A1B0FE96E010E0320EA6EE8C120
:10413000ECFFED52E7C1EFFF192B09D01A81D80E21
:10414000F66E280EF76E000197DF63DF01010001B4
:1041500012000101E76BE86B010EE96FDA6AD96AB8
:10416000EC6FDF0EEB6F010EEA6EE30EE96EECC151
:10417000E2FFEBC1E1FFE9C1EAF1D890E550EE02C0
:10418000F350E723F450E823EA2FF7D7E7C1DEFF27
:10419000E8C1E7F1E86BD8B0E82BEB2BD8B4EC2BF7
:1041A000E92BE9510508DFE100010DEF21F0016A7B
:1041B000026A006A036A0101E55102E1E45118E074
:1041C000100EE66FD890E237E33700360336E5513C
:1041D000035C02E1E451005C07E3E451005ED8A017
:1041E0000306E551035ED88001360236E62FEAD792
:1041F0000001120088C0E2F187C0E1F186C0E0F161
:1042000085C0DFF1410E0101E66FC60EE56F4E0E6F
:10421000E46F6D0EE36F00019CD7390E010100249D
:104220000001856F300E010101200001866F000E34
:10423000010102200001876F000E0101032000012F
:10424000886F87C000F088C001F0026A036A88C0E6
:10425000E1F187C0E0F188C0E3F187C0E2F17F0EB1
:104260000101E56FE4690001A2DF00C001F003C0B5
:1042700002F0A8EF26F001011551152B036AD50FA6
:10428000E96E000E0320EA6EE5C1EFFF1551152B14
:10429000036AD50FE96E000E0320EA6EE651EF6E59
:1042A00000015DEC19F012008988320E0101E96FFE
:1042B0000001A2EC16F08998020E0101E56FFA0EDA
:1042C000E96F0001A2EC16F00101E52FF8D700011B
:1042D000EBD712000101E76BE751030825E3AAC001
:1042E00000F00101E751016E04E0D8900032012E88
:1042F000FCD70050010B16E0036AE751AD0F016EC9
:10430000000E032203C0E9F1036AE751AD0FE96E25
:10431000000E0320EA6EE651EF24E9C1EAFF01C076
:10432000E9FFEF6EE72BD8D700011200006A016A9F
:104330000101E551D890E6B1002600320132E6B322
:10434000002600320132E6B5002600320132E6B71F
:10435000002600320132E6B9002600320132E6BB07
:10436000002600320132E6BD002600320132E6BFEF
:10437000002600320132000160EF23F00101E06B02
:10438000DF512C0A0001D8B494D0010AD8B492D0DD
:10439000030AD8B490D0010AD8B490D01F0AD8B478
:1043A00090D0030AD8B490D0060AD8B490D0010AAD
:1043B000D8B490D0020AD8B490D00A0AD8B490D019
:1043C0000D0AD8B490D0030AD8B48DD0090AD8B455
:1043D000A0D0060AD8B4A6D0030AD8B4A3D0010A44
:1043E000D8B4A2D07F0AD8B4A2D0010AD8B4A2D03F
:1043F000030AD8B4A2D0060AD8B4A2D0010AD8B40D
:10440000A3D0030AD8B4BBD0010AD8B4CED00F0AC7
:10441000D8B4D9D07F0AD8B4E4D00F0AD8B4E1D048
:10442000710AD8B4DED0030AD8B4DBD0010AD8B4FC
:10443000D8D0070AD8B4D5D0010AD8B4D2D0030A4C
:10444000D8B4CFD0770AD8B4E7D0030AD8B4E4D030
:10445000750AD8B4E1D01F0AD8B4DED0010AD8B4A6
:10446000DBD0030AD8B4D8D0010AD8B4D5D0070A13
:10447000D8B4D2D0010AD8B4F0D0030AD8B4F0D05E
:10448000010AD8B4F0D00F0AD8B4EDD0010AD8B4DC
:10449000EAD0030AD8B41AD1010AD8B421D1070A44
:1044A000D8B422D1010AD8B423D1030AD8B42AD16E
:1044B0003BD13BD13AD1010EAA6F37D1020EAA6F80
:1044C00034D1030EAA6F31D10101E02B00010101AB
:1044D000E02B00010101E02B00010101E02B0001B4
:1044E0000101E02B0001E0C1E5F15AEC1EF00101F1
:1044F000DF5132080CE10001D0DDD8900101013418
:104500000001B66F010102340001B76F808F000116
:104510000CD1C3DD02C0E6F101C0E5F101C0E7F155
:104520001CDC03D1C1DE01D1040EAA6FFED0080E3F
:10453000AA6FFBD00C0EAA6FF8D00F0EAA6FF5D0A1
:10454000809992988998F1D0A8DDF2CFE7F1F29E98
:10455000F86A02C0F7FF01C0F6FF0900F550080035
:10456000F5CF03F0F86A0101E7BFF28EE56F03C0F3
:10457000E6F103C0E8F1E76F0001CDDDD6D08DDDB7
:1045800002C0E2F101C0E1F188DD02C0E4F101C046
:10459000E3F1E4C1E6F1E3C1E5F18CEC18F0E2C12E
:1045A000E6F1E1C1E5F167DEC0D077DD02C0E6F1FA
:1045B00001C0E5F10101E66BE6C1E8F101C0E7F1F8
:1045C0000001A9DDB2D069DD02C0E6F102C0E5F16B
:1045D0000101E66BE6C1E8F102C0E7F100019BDDF5
:1045E000A4D00101DF51480804E3370EDF5DE06F1E
:1045F00004D0490EDF5D020FE06FE0C1E5F100017C
:1046000046EC1BF002C0E6F101C0E5F102C0E8F1A2
:1046100001C0E7F180DD89D00101DF514E0804E3DC
:10462000390EDF5DE06F04D04F0EDF5D020FE06FEB
:10463000E0C1E5F1000146EC1BF002C0E6F101012A
:1046400002C0E5F1E66BD890E633E533E6C1E8F168
:10465000E5C1E7F100015FDD68D095908C8065D001
:1046600095908C9062D00101E56B00015AEC1EF030
:10467000030E0101E56F00015AEC1EF0010E01016D
:10468000E76F000169EC1BF008DD01C0E0F10101FA
:10469000DF51570807E1E0C1E7F10001ADEC1EF082
:1046A00014D00101DF51580806E1E0C1E6F1000134
:1046B00011DE0BD00101E569E0C1E6F1000136D65B
:1046C00001C0E5F101C0E6F105DE2FD0E6DC02C055
:1046D000E2F101C0E1F1E1C1E5F104EC1FF025D008
:1046E000C580C5B0FED721D0C584C5B4FED71DD0C6
:1046F000D4DC02C0E6F101C0E5F101C0E7F11CEC39
:104700001FF013D0CADC02C0E6F101C0E5F101C020
:1047100000F02AEC1FF001C0E5F10101E86B01C0D7
:10472000E7F10001F8DC01D0BFDD96EF28F00101D0
:10473000D96BD86BD0AF6DD0020EBE25D86F000EEE
:10474000BF21D96FE06BD0C1DFF13F0EDF17E06B07
:10475000DFC1E0F1DF6B000130DC02C003F001C01B
:1047600002F0D8900236033602500101DF25BE6FF9
:104770000350E021BF6F000120DC02C0D3F101C073
:10478000D2F10101D0AD12D0D16B030ED225016E52
:10479000000ED321036E0150035203E10150D15D9D
:1047A00005E200014FDC0101D12BEFD7D16BD353D0
:1047B00003E1D251D15D0EE200016FDC02C0E0F1F5
:1047C00001C0DFF102C0E2F101C0E1F188DC0101CA
:1047D000D12BEDD7E26B19C1E1F1000180DCD9C129
:1047E000E2F1D8C1E1F17BDC020E0101D225016EBC
:1047F000000ED321036E01505B5DDF6F000E03548A
:10480000E06FE26FDFC1E1F1000169DC96EF28F0B3
:104810000101D051000A0001D8B487D0010AD8B4F0
:104820008ED0030AD8B499D0010AD8B4B0D0070A00
:10483000D8B4CAD0010AD8B402D1030AD8B421D15D
:10484000010AD8B455D10F0AD8B452D1010AD8B44C
:104850008ED1030AD8B4C8D1010AD8B4E2D1070A6C
:10486000D8B405D2010AD8B406D2030AD8B405D206
:10487000010AD8B41AD21F0AD8B431D2010AD8B466
:104880003BD2030AD8B440D2010AD8B441D2070AB5
:10489000D8B446D2010AD8B44DD2030AD8B456D2FD
:1048A000010AD8B461D20F0AD8B45ED2010AD8B4D2
:1048B0005BD2030AD8B458D2010AD8B455D2070A39
:1048C000D8B452D2010AD8B44FD2030AD8B44CD2C9
:1048D000010AD8B449D23F0AD8B446D2010AD8B4A2
:1048E00043D2030AD8B4EBD2010AD8B4F8D2070AEB
:1048F000D8B411D3010AD8B42CD3030AD8B454D3F2
:10490000010AD8B482D30F0AD8B433EF28F0010AD1
:10491000D8B459EF28F0030AD8B45DEF28F0010AA3
:10492000D8B466EF28F092EF28F080999298899891
:104930000101C36BC26BC56BC46B97EF28F0DDEC54
:104940001FF001C0DAF10101E86BDAC1E7F1000103
:104950008BEC20F0010197EF28F0DDEC1FF001C097
:10496000DBF1DDEC1FF001C0DCF1DBC1DEF10101A8
:10497000DD6BDC51DD27000EDE23DEC1E8F1DDC199
:10498000E7F100018BEC20F0010197EF28F0020E17
:104990000101BE25DF6F000EBF21E06FE86FDFC1B0
:1049A000E7F100018BEC20F0DDEC1FF002C003F01A
:1049B00001C002F0D8900236033602500101BE2732
:1049C0000350BF2397EF28F04DEC20F002C0D9F13F
:1049D00001C0D8F10101BF51D95D09E303E1D8510C
:1049E000BE5D05E2D9C1BFF1D8C1BEF127D0D9C1A2
:1049F000BFF1D8C1BEF100014DEC20F002C0C5F1FD
:104A000001C0C4F10101C55303E1C451010804E22E
:104A1000C451D8B4C507C407C42D02D0C5530EE095
:104A2000C5C1E8F1C4C1E7F100018BEC20F0BFC1C2
:104A3000E8F1BEC1E7F18BEC20F0010178D34DEC39
:104A400020F00150021009E04DEC20F04DEC20F078
:104A500002C0BFF101C0BEF112D04DEC20F002C087
:104A6000BFF101C0BEF1BFC1E8F1BEC1E7F18BECFF
:104A700020F0050E0101E96F0001A2EC16F0010122
:104A800056D3DDEC1FF002C003F0D89001340101D1
:104A9000D86F0334D96F000122EC20F002C0D3F1AB
:104AA00001C0D2F1D3C1E2F1D2C1E1F16FEC20F04B
:104AB0000101D851D225DF6FD951D321E06FD890B1
:104AC000DF35026EE035036E02505C0FE96E010EB9
:104AD0000320EA6EECCFE0F1ED52EFCFDFF1E0C161
:104AE000E8F1DFC1E7F100018BEC20F001011FD3F9
:104AF0000101D051080807E100014DEC20F002C08F
:104B0000D9F101C0D8F1000122EC20F002C0D3F1AC
:104B100001C0D2F122EC20F002C0BFF101C0BEF111
:104B200022EC20F002C0D5F101C0D4F10101D5532F
:104B300008E11951D45D05E200014DEC20F0F6D7F3
:104B40000101D35308E15B51D25D05E2000122EC83
:104B500020F00101F6D7D051080808E1D9C1E8F1E9
:104B6000D8C1E7F100018BEC20F00101E0D24DEC5F
:104B700020F002C0C3F101C0C2F14DEC20F002C030
:104B8000C5F101C0C4F1BFC1E8F1BEC1E7F18BECD2
:104B900020F00101C55303E1C451010813E2C5C16E
:104BA000E8F1C4C1E7F100018BEC20F0C3C1E8F1EA
:104BB000C2C1E7F18BEC20F0C3C1BFF1C2C1BEF1AD
:104BC00011D00101C42D07D0C55305E1C3C1BFF108
:104BD000C2C1BEF108D000014DEC20F002C0BFF10F
:104BE00001C0BEF10101A3D24DEC20F002C0D3F10F
:104BF00001C0D2F14DEC20F002C0D5F101C0D4F1DA
:104C00000101D451D5110CE0BFC1E8F1BEC1E7F1FB
:104C100000018BEC20F0D3C1BFF1D2C1BEF1010184
:104C200086D24DEC20F002C0D3F101C0D2F14DECA0
:104C300020F002C0D5F101C0D4F14DEC20F002C04B
:104C4000D7F101C0D6F1BFC1E8F1BEC1E7F18BECED
:104C500020F00101D651D71105E0D5C1BFF1D4C173
:104C6000BEF104D0D3C1BFF1D2C1BEF160D213EC0A
:104C70001FF001015CD201015AD24DEC20F002C0BC
:104C8000C3F101C0C2F1BFC1E8F1BEC1E7F18BECD5
:104C900020F0C3C1E8F1C2C1E7F18BEC20F0C3C141
:104CA000BFF1C2C1BEF1010142D24DEC20F002C001
:104CB000C3F101C0C2F10101C56BC46BE86BE76BC6
:104CC00000018BEC20F0C3C1E8F1C2C1E7F18BEC2D
:104CD00020F0C3C1BFF1C2C1BEF1010128D24DEC29
:104CE00020F0D890010101340001B66F01010234B7
:104CF0000001B76F01011BD2B9C0E8F1B8C0E7F1FC
:104D00008BEC20F0010113D2B96BB86B01010FD20B
:104D10004DEC20F002C0D9F101C0D8F1010107D259
:104D20000101E86BB5C0E7F100018BEC20F0809742
:104D30000101FDD1000E80B7010E0101DF6FE86BAC
:104D4000E76F00018BEC20F00101F1D1FAEF20F0C8
:104D500002C0E0F101C0DFF102C0E8F101C0E7F1FB
:104D60008BEC20F00101E3D14DEC20F002C0D5F135
:104D700001C0D4F14DEC20F002C0D3F101C0D2F15A
:104D8000170E0101D05DF50FD8B090D00B0F0001C8
:104D90009AEF28F00101D451D227D551D32386D0E0
:104DA0000101D451D25FD551D35B80D0196AF2BED4
:104DB000198EF29ED3C113F2D2C112F2D5C115F2EF
:104DC000D4C114F215EC0DF019BEF28E02C0D3F16D
:104DD00001C0D2F101016AD0D3C1E3F1D2C1E2F145
:104DE000D5C1E5F1D4C1E4F1D7EC20F002C0D3F194
:104DF00001C0D2F101015AD0D3C1E3F1D2C1E2F135
:104E0000D5C1E5F1D4C1E4F1D7EC20F000C0D2F176
:104E1000010103C0D3F14AD00101D451D25D03E1B5
:104E2000D551D35D02E0000E01D0010ED36BD26FDD
:104E30003DD00101D551D35D04E305E1D251D45DEC
:104E400002E3000E01D0010ED36BD26F2FD001010F
:104E5000D351D55D04E305E1D451D25D02E3000EE8
:104E600001D0010ED36BD26F21D00101D251D311E9
:104E700003E0D451D51102E1000E01D0010ED36B35
:104E8000D26F14D00101D251D31105E1D451D51103
:104E900002E1000E01D0010ED36BD26F07D00101E9
:104EA000D451D21BD551D31B01D00101D3C1E8F19C
:104EB000D2C1E7F100018BEC20F0010138D14DECBB
:104EC00020F001500210000ED8B4010E0101DF6F76
:104ED000E86BE76F00018BEC20F0010128D14DEC6D
:104EE00020F002C0D9F101C0D8F14DEC20F002C091
:104EF000E0F1D89001010134026EE035036E0250FA
:104F00009C0FE96E010E0320EA6ED9C1ECFFED5251
:104F1000D8C1EFFF0CD14DEC20F002C0E0F1D890E9
:104F200001010134026EE035036E02509C0FE96E00
:104F3000010E0320EA6EECCFE0F1ED52EFCFDFF18E
:104F4000E0C1E8F1DFC1E7F100018BEC20F00101E5
:104F5000EED04DEC20F002C0D5F101C0D4F14DEC03
:104F600020F0D89001010134D26F0234D36F0001D8
:104F70004DEC20F001C0D8F10101670E0224D96F79
:104F8000D251D825DF6FD351D921E06FE66FDFC151
:104F9000E5F100018CEC18F0D5C1E6F1D4C1E5F1E2
:104FA0003BEC21F00101C3D04DEC20F0D890010181
:104FB0000134D26F0234D36F00014DEC20F001C0F8
:104FC000D8F10101670E0224D96FD251D825DF6FC5
:104FD000D351D921F2CFE1F1F29EF86AF76EDFC129
:104FE000F6FF0900F5500800F5CF03F0F86AE1BFBD
:104FF000F28ED46F03C0D5F1D5C1E8F1D4C1E7F189
:1050000000018BEC20F0010192D04DEC20F002C0A9
:10501000D9F101C0D8F10101BDC103F0BC51BC2BD5
:10502000D8B4BD2BC00FDF6F590E0320E06FE66FC1
:10503000DFC1E5F100018CEC18F0D9C1E6F1D8C16F
:10504000E5F13BEC21F0760E0101E66F080EE56F0D
:1050500000018CEC18F0BDC1E6F1BCC1E5F13BEC00
:1050600021F0010164D00101BDC103F0BC51BC2B92
:10507000D8B4BD2BC00FDF6F590E0320F2CFE1F182
:10508000F29EF86AF76EDFC1F6FF0900F5500800DE
:10509000F5CF03F0F86AE1BFF28ED86F03C0D9F103
:1050A000D9C1E8F1D8C1E7F100018BEC20F0010192
:1050B0003ED00101BD6BBC6B3AD04DEC20F0D890D6
:1050C00001010134BC6F0234BD6F31D04DEC20F0D2
:1050D000D89001010134D26F0234D36FD96BD86BF1
:1050E000D951D35D1BE303E1D251D85D17E2C00E65
:1050F000D825DF6F590ED921E06FE66FDFC1E5F1EA
:1051000000018CEC18F00101E66BE56B00013BEC53
:1051100021F00101D82BD8B4D92BE2D7BD6BBC6BE1
:1051200006D00001D0C1DFF1BEEF21F00101000186
:10513000C3EF2AF0E824F76AF7364F0FF66E510EE8
:10514000F7220A00F550FA6E0800F550F96E944DFA
:10515000A04DAC4DD84DF84D184E324E4E4E6A4EC5
:10516000844E9E4EF86AD09E078EEA6AE96A938260
:105170009380770EC86E280EC66EC78EC79CA76B2D
:1051800080938095A96BAB6BAC6B040EB26FB36B65
:10519000B46B80978099809B809DB76BB66BB96B21
:1051A000B86BBA6BCF6BD06BD16BD26BD46BD36B4C
:1051B0000101156B186BC36BC26BC56BC46B00012F
:1051C000809FC150C00B0F09C16E070EB46E1E6ADE
:1051D000040E1F6E0C0E206E836B846B0E0E896F97
:1051E0007C0E8A6F0B0E8B6F7C0E8C6F1D0E8D6F7D
:1051F0007C0E8E6F1A0E8F6F7C0E906F0D0E916F5E
:105200007C0E926F0A0E936F7C0E946F1C0E956F3E
:105210007C0E966F160E976F7C0E986F0C0E996F22
:105220007C0E9A6F1F0E9B6F7C0E9C6F1B0E9D6FEA
:105230007C0E9E6F170E9F6F7C0EA06FAD69AE69DE
:10524000AF69B069B16901019C6B9D6B9E6B9F6BEF
:10525000A06BA16BA26BA36BA46BA56BA66BA76BDA
:10526000A86BA96BAA6BAB6BAC6BAD6BAE6BAF6B8A
:10527000B06BB16BB26BB36BB46BB56BB66BB76B3A
:10528000B86BB96BBA6BBB6B000184EF16F0D9EF4A
:1052900016F0196AF2BE198EF29E6DEC0DF019BE71
:1052A000F28EB2EF17F0A1EC17F0D7EF17F080EF06
:1052B00019F0A1510508D8A455D1A251F80FD8B0C2
:1052C000BFD0080FCBEF2AF0550E0101EB6F0001A4
:1052D00075EC18F00101EB69000175EC18F0AA0EED
:1052E0000101EB6F000175EC18F0010E0101EB6F8D
:1052F000000175EC18F0300E0101EB6F000175EC48
:1053000018F0010E0101EB6F000175EC18F098D058
:105310001EEF1BF095D0A3C0E5F146EC1BF002C0D8
:10532000C7F101C0C6F1C7C1CEF10101CF6BC6C143
:10533000D0F1D16B550EEB6F000175EC18F0010147
:10534000EB69000175EC18F0CEC1EBF175EC18F0CB
:10535000D0C1EBF175EC18F073D0A3C0E5F15AECB5
:105360001EF0550E0101EB6F000175EC18F0010104
:10537000EB69000175EC18F0AA0E0101EB6F00015A
:1053800075EC18F05DD0A3C0E7F1ADEC1EF0550E42
:105390000101EB6F000175EC18F00101EB690001F0
:1053A00075EC18F0AA0E0101EB6F000175EC18F016
:1053B00047D0A5C0E5F104EC1FF0550E0101EB6FDD
:1053C000000175EC18F00101EB69000175EC18F0B3
:1053D000AA0E0101EB6F000175EC18F031D0A5C0E9
:1053E000CEF1A4C0CFF107EF1FF0550E0101EB6F16
:1053F000000175EC18F00101EB69000175EC18F083
:10540000AA0E0101EB6F000175EC18F019D0A3C0D2
:10541000CEF1A4C0CFF1A5C0D0F138EF1FF0550EEA
:105420000101EB6F000175EC18F00101EB6900015F
:1054300075EC18F0AA0E0101EB6F000175EC18F085
:10544000A2510608D8A48BD0A3510308D8A487D0B2
:105450000101CF6BA4C0CEF1A4C0CFF1CE6B00018F
:10546000A5510101CE27000ECF23CE35C86FCF3511
:10547000C96FC837C937C837C937C837C937C837F8
:10548000C937E00EC817C85315E1C95313E1F2CF6D
:10549000CEF1F29EF86A760EF76E080EF66E0900EF
:1054A000F5500800F5CF03F0F86ACEBFF28EC86F52
:1054B00003C0C9F1D890C837C937C8C1CEF1CF6B86
:1054C000C9C1D0F1D16BEE0EEB6F000175EC18F095
:1054D000110E0101EB6F000175EC18F0CEC1EBF17C
:1054E00075EC18F0D0C1EBF175EC18F0D890010113
:1054F000C933C833CB6BCA6BCB51C95D2FE303E112
:10550000C851CA5D2BE2C00ECA25CE6F590ECB2101
:10551000F2CFD0F1F29EF86AF76ECEC1F6FF090025
:10552000F5500800F5CF03F0F86AD0BFF28ECC6FCB
:1055300003C0CDF1CCC1CEF1CF6BCDC1D0F1D16BD9
:10554000CCC1EBF1000175EC18F0D0C1EBF175ECBA
:1055500018F00101CA2BD8B4CB2BCED70001010E15
:10556000A16F02D0A3EF1FF080A90DD0B651B711E3
:105570000AE1DDEC1FF002C0CFF101C0CEF101C0A5
:10558000D0F197EF23F0BA51020803E2010EA16FA8
:10559000BA6B8BD60300E824F76AF736B10FF66EC4
:1055A000550EF7220A00F550FA6E0800F550F96E14
:1055B000C85216535A538653B253DE530E541053E7
:020000040030CA
:0E00000024CE3E1E0087A1000FC00FE00F406F
:00000001FF
;PIC18F4550
;CRC=352B  CREATED="06-Nov-13 15:44"
