:0417500053EF29F03A
:08175800046ED8CF05F0E0CFCC
:1017600006F00001E9CF0CF0EACF07F0E1CF08F076
:10177000E2CF09F0D9CF0AF0DACF0BF0F3CF12F0B5
:10178000F4CF13F0FACF14F0F5CF15F0F6CF16F032
:10179000F7CF17F000C00EF001C00FF002C010F03C
:1017A00003C011F0F2AAD8EF0BF0F2B4ACEF14F0D2
:1017B0009DA0DEEF0BF09EB01EEF16F09DA2E4EFB1
:1017C0000BF09EB24CEF16F0A0AAEAEF0BF0A1BA14
:1017D00047EF14F00EC000F00FC001F010C002F08F
:1017E00011C003F00CC0E9FF07C0EAFF078E08C074
:1017F000E1FF09C0E2FF0AC0D9FF0BC0DAFF12C047
:10180000F3FF13C0F4FF14C0FAFF15C0F5FF16C0B4
:10181000F6FF17C0F7FF045006C0E0FF05C0D8FF71
:101820001000F76A320FF66E180EF7220900F55015
:101830001200000302FFFFFFFFFFFFFFFFFFFFFF9C
:10184000FFFFF76A520FF66E180EF7220900F550E7
:10185000120000FF02FFFFFFFFFFFFFFFFFFFFFF80
:10186000FFFFF76A720FF66E180EF7220900F550A7
:10187000120040000B0040000000000000000000CB
:101880000000000000000000000000000000000058
:101890000000F76AA20FF66E180EF7220900F55045
:1018A00012004000000040000000000000000000A6
:1018B0000000000000000000000000000000000028
:1018C0000000F76AD20FF66E180EF7220900F550E5
:1018D00012000902430002010080320904000001E5
:1018E000020201000524001001042402020524065E
:1018F00000010524010001070581030B00FA09041A
:101900000100020A0000000705020240000107056D
:10191000820240000100F76A260FF66E190EF722C8
:101920000900F55012000200F76A380FF66E190E22
:10193000F7220900F550120012171B20FFFFFFFFCE
:10194000F76A500FF66E190EF7220900F5501200D3
:101950001201100102000040610433000001010285
:101960000001F76A720FF66E190EF7220900F550A2
:101970001200040309040803430043005300180342
:10198000530045005200490041004C002000440033
:1019900045004D004F006D92699468A402D0689490
:1019A000FCD753EF14F0400E0401016F040E036FD7
:1019B000180E026F880E006F046B040E076F580E2E
:1019C000066F0001120070A002D0EDDF7090689ADF
:1019D0005CEF14F06A6A689262EF14F00101FC9106
:1019E000FBBFFC81FB9FFB51100803E2000E016E60
:1019F0001AD0FCA10DD0036AFB51000112DFFF08D1
:101A000002E1000E01D0010E016E01010CD00BD0DD
:101A1000036AFB51000115DFFF0802E1000E01D04F
:101A2000010E016E010100011200020102510403C6
:101A3000F3CF01F0F4CF00F00503F350002603517B
:101A40000403F3500020026E00011200036A01013A
:101A5000FA51700FE96E0F0E0320EA6EEF6AFAC1B9
:101A6000FBF10001BBDF015229E00201036BFAC167
:101A700002F2056B080E046F0001D7DF010101C0FF
:101A8000E9FF040E0224EA6EEF6A0201036BFAC159
:101A900002F2056B080E046F0001C7DF02C0FCF103
:101AA00001C0FBF1040E0101FB27000EFC23FBC16A
:101AB000E9FF040EFC25EA6EEF6A00011200010E38
:101AC0000101F96FF9510F0807E3F9C1FAF10001BB
:101AD000BDDF0101F92BF6D7000112000101F36B04
:101AE000F26B250EF16F800EF06FEA6A2C0EE96E34
:101AF000010EE26EF00EE16E020E016EE6CFEEFF19
:101B0000012EFCD72E6A2F6AF06BEA6A300EE96E5E
:101B1000010EE26EF00EE16EE6CFEEFFF06BEA6AC8
:101B2000310EE96E010EE26EF00EE16EE6CFEEFFD1
:101B3000080EF06FEA6A320EE96E010EE26EF00EE8
:101B4000E16EE6CFEEFF0001816B8091346A336A6B
:101B50007C6B7D91826B1200296A286A0101EF6B10
:101B6000EF5101080AE3036AEF512A0FE96E000EF4
:101B70000320EA6EEF6AEF2BF3D70001AFDF1B6A99
:101B8000010E1C6E1A6A1200689612006A6A686A70
:101B90009F0E6B6E3D0E696E6E6A91DFDDDF160E75
:101BA000706E68A602D0F0DFFCD76D98FCDE030EE5
:101BB000226E68EF14F0698468986D826EEF14F0FD
:101BC000689C74EF14F0F4C123F012002368120033
:101BD0000101F26B2850291033E0F2513F0830E345
:101BE0001D50000A000105E0020A0AE0010A0FE0A8
:101BF00014D027C003F0265064DEE8CFF3F10DD0F7
:101C000027C003F02650ADDEE8CFF3F106D027C0A1
:101C100003F0265095DEE8CFF3F1262AD8B4272A20
:101C20002850D8B4290628060101F251F22B580F8A
:101C3000E96E040EEA6ED8B0EA2AF3C1EFFFCAD704
:101C40002850291004E1F251400801E01A6AF2C15B
:101C5000F4F10001B8DF1200276A266A1D6A040148
:101C60001B51010A000107E0030A0BE0010A0DE025
:101C7000220A22E03AD0296A120E286E030E1D6E47
:101C800036D0296A430E286E32D0020E1D6E036ACA
:101C900004011A511E0FE96E000E0320EA6E276A36
:101CA000EFCF26F027C003F0265000015ADE036A6A
:101CB000286E03C029F01BD0036A04011A510001E9
:101CC00033DE036A266E03C027F0263C02D027527B
:101CD0000AE027C003F02650F4DD036A286E03C033
:101CE00029F005D002D072DF11D070DF0FD00401CF
:101CF0001F5308E1295203E128501E5D03E2296ABF
:101D00001EC428F0010E1A6E000162DFD8EF0FF03A
:101D10000101F15306E1040E226E0001D0DEECD089
:101D20000101050E226E040EF46F980EF36F010E82
:101D3000F26FF2510F08D8A0DFD0F2C1FAF1000122
:101D400085DE0101F56B036AF25100017ADDFF08BF
:101D500068E0040E0101F56FD890F235036A0001C6
:101D600098DD0900F5CF03F00101F66F03C0F7F12C
:101D70000201036BF2C102F2056B080E046F000151
:101D800054DE01C0F9F1010E01010124016E000EC3
:101D90000220036E01C0E9FF040E0324EA6EF6C1BF
:101DA000EFFF0201036BF2C102F2056B080E046F34
:101DB00000013BDE01C0F9F1020E01010124016EB8
:101DC000000E0220036E01C0E9FF040E0324EA6E38
:101DD000F4C1ECFFED52F3C1EFFFD890F235036A86
:101DE000000157DD0900F5CF03F00101F32703508F
:101DF000F423880EF86FF7B1F881F7B3F883020186
:101E0000036BF2C102F2056B080E046F00010DDED8
:101E1000010101C0E9FF040E0224EA6EF8C1EFFFE0
:101E20000001036A0101F2510001FBDCFF0849E0F7
:101E30000101F5830201036BF2C102F2056B080E8A
:101E4000046F0001F2DD02C0FAF101C0F9F1040EE5
:101E50000101F927000EFA23020EF925016E000E8A
:101E6000FA21036E01C0E9FF040E0324EA6EF4C1F7
:101E7000ECFFED52F3C1EFFFD890F235036A000199
:101E8000F0DC0900F5CF03F00101F3270350F42340
:101E90000201036BF2C102F2056B080E046F000130
:101EA000C4DD02C0FAF101C0F9F1040E0101F92705
:101EB000000EFA23F9C1E9FF040EFA25EA6E400E7E
:101EC000EF6E0101F551060802E10E0EF56F036A8F
:101ED000F2510001A6DC010803E00101F5890001CF
:101EE000036A0101F251700FE96E0F0E0320EA6ED2
:101EF000F5C1EFFFF22B1DD70001D1EF0FF0040168
:101F00001951000A00010DE0010A15E0020A20E063
:101F1000060A2AE0030A31E00E0A31E0010A37E03E
:101F200046D01CC058F40401596B020E0101F46F35
:101F3000000149DE3DD004011A2D07D0010E1C1608
:101F40000101F46B00013FDE02D000013FDE30D022
:101F500004011A2D06D01C820101F46B000133DE4E
:101F600002D0000133DE24D0020E1A6E1AC424F00F
:101F70000101F46B000127DE1BD06ED619D01BC007
:101F800058F4010E0101F46F00011DDE11D00401AF
:101F90001A5101080AE31AC41BF01AC4F1F1000136
:101FA000B7D60101F46B00010EDE000101D00EDE98
:101FB00073EF11F01BC0F1F104011951000A000187
:101FC00005E00A0A0CE0010A2BE03FD00401586B3F
:101FD000596B020E0101F46F0001F5DD37D00101EC
:101FE000F1531BE0010EF15D036A000194DC016E08
:101FF00004011C5DD8A002D001010FD0036A1C515E
:102000002A0FE96E000E0320EA6EEFCF58F4010E9E
:102010000101F46F0001D7DD02D00001D7DD16D039
:102020000101F1530FE0036A04011C512A0FE96E0C
:10203000000E0320EA6E1AC4EFFF0101F46B0001E9
:10204000C2DD02D00001C2DD01D0C0DD73EF11F0AE
:102050000101F291F1BFF281F19FF2A11AD00201C8
:10206000036BF1C102F2056B080E046F0001DDDCA9
:1020700002C0F4F101C0F3F1040E0101F327000ED8
:10208000F423F3C1E9FF040EF425EA6E880EEF6E27
:1020900010D00201036BF1C102F2056B080E046F50
:1020A0000001C3DC010101C0E9FF040E0224EA6E55
:1020B000EF6A0001E0EF10F00101F291F1BFF2814F
:1020C000F19FF2A11AD00201036BF1C102F2056B7C
:1020D000080E046F0001A9DC02C0F4F101C0F3F1A5
:1020E000040E0101F327000EF423F3C1E9FF040EEF
:1020F000F425EA6E840EEF6E11D00201036BF1C17C
:1021000002F2056B080E046F00018FDC010101C0B3
:10211000E9FF040E0224EA6E840EEF6E0001E8EF80
:1021200010F00101F291F1BFF281F19FF2A11AD0FA
:102130000201036BF1C102F2056B080E046F00018E
:1021400074DC02C0F5F101C0F4F1040E0101F427C2
:10215000000EF523F4C1E9FF040EF525EA6EEFCF7A
:10216000F3F111D00201036BF1C102F2056B080E0D
:10217000046F00015ADC010101C0E9FF040E0224D2
:10218000EA6EEFCFF3F1F3AF02D0F3B502D0000E59
:1021900001D0010E016E0001F4EF10F01CC4FBF140
:1021A0001DDC01522DE004011951010A000105E076
:1021B000020A0BE0030A11E022D01CC4F1F148D757
:1021C0000101F46B0001FFDC1BD01CC4F1F174D7DA
:1021D0000101F46B0001F7DC13D00401586B596B5B
:1021E0001CC4F1F100019DD7015203E0010E04016E
:1021F000586F020E0101F46F0001E5DC01D0E6DC4E
:1022000073EF11F0FE0E236E120004011C2D01D09D
:1022100002D01C534EE11951000A00010BE0010AE3
:102220000DE0210A1CE0010A1FE0030A30E0010A68
:1022300035E03DD0010E826FE5DF3AD0040EEA6E44
:10224000580EE96EE26A350EE16E080E016EE6CFB9
:10225000EEFF012EFCD71EC4F4F1B5DC29D0020E2E
:10226000826F8081CFDF24D0040EEA6E580EE96EB3
:10227000E26A2C0EE16E070E016EE6CFEEFF012E34
:10228000FCD7070E0101F46F00019DDC11D01AC4C8
:1022900081F00101F46B000196DC0AD01AC434F01D
:1022A0001BC433F00101F46B00018DDC01D08EDC26
:1022B0000401000173EF11F01A6A040118517F0B39
:1022C000000A000107E0010A07E0030A07E0230A09
:1022D00007E008D014D607D06DD605D05FD703D05D
:1022E00094D701D073DCE7EF13F00201036BF2C166
:1022F00002F2056B080E046F000115EC0DF00101F0
:1023000001C0E9FF040E0224EA6EEFCFF4F1F351AD
:10231000020806E1F4AD02D0F36B02D0010EF36FB8
:10232000F35103081DE1840EF46F0201036BF2C147
:1023300002F2056B080E046F000115EC0DF002C0EF
:10234000F8F101C0F7F1040E0101F727000EF823A0
:10235000F7C1E9FF040EF825EA6E840EEF6E07D090
:10236000F32D03D0C80EF46F02D0880EF46FD8900E
:10237000F235036A000149EC0CF00900F5CF03F0D7
:102380000101F56F03C0F6F10201036BF2C102F225
:10239000056B080E046F000115EC0DF001C0F7F19C
:1023A000010E01010124016E000E0220036E01C026
:1023B000E9FF040E0324EA6EF5C1EFFFF6B1F481E4
:1023C000F6B3F4830201036BF2C102F2056B080E4F
:1023D000046F000115EC0DF0010101C0E9FF040ECE
:1023E0000224EA6EF4C1EFFF00011200036A01014A
:1023F000FF51700FE96E0F0E0320EA6EEF521DE0E1
:102400000201036BFFC102F2056B080E046F0001AD
:1024100015EC0DF002C001F201C000F2040E020141
:102420000027000E012300C2E9FF040E0125EA6E19
:10243000EFCF02F202AF03D00101000E02D0010E75
:102440000101016E00011200FAC1FFF1CFDF01525C
:10245000D8B492D00201036BFAC102F2056B080EE8
:10246000046F000115EC0DF002C000F201C0FFF195
:10247000040E0101FF27000E02010023010E0101DD
:10248000FF25016E000E02010021036E01C0E9FF6D
:10249000040E0324EA6EFBC1EFFF0101FD510208A7
:1024A00024E10201036BFAC102F2056B080E046F0E
:1024B000000115EC0DF002C000F201C0FFF1040EA6
:1024C0000101FF27000E02010023FFC1E9FF040EF6
:1024D00002010025EA6EEFCFFEF10101FEAD02D050
:1024E000FD6B02D0010EFD6F1CD0FD51040819E1F7
:1024F0000201036BFAC102F2056B080E046F0001C2
:1025000015EC0DF001C0E9FF040E02010224EA6E91
:10251000EFCFFEF10101FEAD03D0010EFD6F01D042
:10252000FD6BFD2D03D0C80EFE6F02D0880EFE6F2E
:10253000FCB1FE81FCB3FE830201036BFAC102F21F
:10254000056B080E046F000115EC0DF002C000F2DF
:1025500001C0FFF1040E0101FF27000E020100235C
:10256000FFC1E9FF040E02010025EA6EFEC1EFFF84
:10257000010E016E04D00001000E016E0201000187
:1025800012008251010A03E0030A15E028D0EA6A2A
:10259000350EE96E040EE26E180EE16E080E016E45
:1025A000E6CFEEFF012EFCD70101F46B0001E3EC56
:1025B0000DF0826B15D0EA6A2C0EE96E040EE26E05
:1025C000180EE16E070E016EE6CFEEFF012EFCD76E
:1025D000826B0101F46B0001E3EC0DF001D0826B22
:1025E0002FEF13F00201036BF2C102F2056B080E2C
:1025F000046F000115EC0DF002C0F4F101C0F3F11D
:10260000010E01010124016E000E0220036E01C0C3
:10261000E9FF040E0324EA6E036AEFCF01F003C062
:1026200002F0000123EF13F07D91020E0101F26F21
:10263000F36F00015ADE12007D817F6B020E0101F3
:10264000F26F0001CFD701C07EF07E5301E1ECDFD5
:1026500036EF13F00101F15304E1000192D706D0E7
:102660000101F151020803E10001E6D70101000177
:102670001200F2C16EFF0101F25303E0040E226E5C
:1026800002D0020E226E00014BEF13F01B6A1A6A91
:1026900024C0F2F1EED7C1EF13F0F2C1FFF1A6DED4
:1026A000015247E00201036BF2C102F2056B080E12
:1026B000046F000115EC0DF002C0FBF101C0FAF14E
:1026C000040E0101FA27000EFB23020EFA25016E0B
:1026D000000EFB21036E01C0E9FF040E0324EA6E25
:1026E000ECCFF9F1ED52EFCFF8F1F9C1EAFFF8C103
:1026F000E9FFF4C1E2FFF3C1E1FFF6C102F0F5C169
:1027000001F0015202E0022A02D0025206E0E6CFB6
:10271000EEFF012EFCD7022EFAD7F2C1FAF1F6C174
:10272000FCF1F5C1FBF1F7C1FDF100018DDE0150B7
:1027300002D0000E016E12007C5310E0020E010167
:10274000F26FF46B3D0EF36FF66B7CC0F5F1020E89
:10275000F76F0001A2DF015201E07C6B1200ECDF99
:10276000C8EF13F00101F1530EE11A2C05D000015E
:10277000E8EC0DF006D001011A50020803E1000157
:1027800085D7010106D0F151020803E10001E7D726
:1027900001010001120021300101EF6FEF33EF332F
:1027A0001F0EEF1721524EE1040100513C0B0101B5
:1027B000F06F430E040100170101F051340825E1C8
:1027C00004010451800B01E0046B000175D56D9884
:1027D000233C07D00101F26B030EF36F000185DD8E
:1027E00012D00101F26B020EF36F00017EDD235067
:1027F000FE0809E00101FA6BFC6B23C0FBF1040E3B
:10280000FD6F000121DE1CD00101F051040819E127
:10281000F16B00011FDF0101F26B020EF36F00018B
:1028200064DD2350FE080CE0233C01D009D00101F7
:10283000FA6BFC6B23C0FBF1010EFD6F000104DE9F
:10284000010122D02150040812E12368F16B00013C
:1028500089DF233C01D009D00101FA6BFC6B23C056
:10286000FBF1020EFD6F0001EFDD0DD0010121B47F
:1028700006D0EFC1F1F10001EDDE05D00101EFC19D
:10288000F1F100016FDF0101000180EF14F0A19A66
:10289000225201E13ED068523CE068A404D069A411
:1028A00002D0CBEF0CF06DA201D033D068AA04D0D7
:1028B00069AA02D0E3EF0CF068A204D069A202D0AA
:1028C000EAEF0CF068A004D069A002D0C6EF0DF0CA
:1028D00068A804D069A802D0DBEF0DF068AC04D082
:1028E00069AC02D0E0EF0DF00101EE6B68A60AD0F2
:1028F00069A608D06CCF21F00001C4EC0DF04BD7D5
:1029000002D0010105D00101EE51EE2B0308EEE2E9
:102910000001EAEF0BF00101F451070B006EF431F6
:10292000016E013201321F0E01160150F625E96ECB
:10293000000EF721EA6E016A012A002A01D0013651
:10294000002EFDD7F55303E00150EF1203D0011E16
:102950000150EF160001120001011A2B1A51020852
:10296000D8A463D11A6B0001CD510308D8A077D049
:10297000C7C000F0CF51016E04E0D8900032012EA4
:10298000FCD70050010B010869E1036ACF51C80F61
:10299000E96E000E0320EA6EEF3C01D05FD0C4C0A8
:1029A00000F0CF51016E04E0D8900032012EFCD728
:1029B0000050010B3CE1C6C000F0CF51016E04E0B5
:1029C000D8900032012EFCD70050010B18E0D890AF
:1029D000CF35036AAC0FE96E000E0320EA6EECCF30
:1029E000F3F1ED52EFCFF2F1F2C1F4F10101F56B29
:1029F0000F0EF76F890EF66F00018DDF17D0D8909C
:102A0000CF35036AB40FE96E000E0320EA6EECCFF7
:102A1000F3F1ED52EFCFF2F1F2C1F4F10101F56BF8
:102A20000F0EF76F890EF66F000175DF17D0D89083
:102A3000CF35036AB40FE96E000E0320EA6EECCFC7
:102A4000F3F1ED52EFCFF2F1F2C1F4F10101F56BC8
:102A50000F0EF76F890EF66F00015DDF84D0010164
:102A6000EE6BEE510308D8A07ED0C7C000F0010184
:102A7000EE51016E04E0D8900032012EFCD70050D8
:102A8000010B0108D8A46DD0036AEE51C80FE96E9E
:102A9000000E0320EA6EEF5264E0C4C000F00101B2
:102AA000EE51016E04E0D8900032012EFCD70050A8
:102AB000010B3FE1C6C000F00101EE51016E04E0E0
:102AC000D8900032012EFCD70050010B19E0D890AD
:102AD000EE35036AAC0FE96E000E0320EA6EECCF10
:102AE000F3F1ED52EFCFF2F1F2C1F4F1010EF56F17
:102AF0000F0EF76F890EF66F00010DDF18D0010180
:102B0000D890EE35036AB40FE96E000E0320EA6E2A
:102B1000ECCFF3F1ED52EFCFF2F1F2C1F4F1010E8F
:102B2000F56F0F0EF76F890EF66F0001F4DE18D007
:102B30000101D890EE35036AB40FE96E000E032050
:102B4000EA6EECCFF3F1ED52EFCFF2F1F2C1F4F116
:102B5000010EF56F0F0EF76F890EF66F0001DBDEC9
:102B60000101EE2B7ED70101EF69EE6BEE510408F7
:102B700024E3036AEE51C80FE96E000E0320EA6EEB
:102B8000EF50EF5D18E3CEC000F00101EE51016E91
:102B900004E0D8900032012EFCD70050010B0BE16D
:102BA000036AEE51C80FE96E000E0320EA6EEFCF04
:102BB000EFF1EEC1F0F1EE2BD9D7010E006EF0511E
:102BC000016E04E0D8900036012EFCD700500001C1
:102BD000CE13CD5103080DE3036ACF51C80FE96E40
:102BE000000E0320EA6EEF500101EF5DF16F04D09B
:102BF0000001EFC1F1F10101F0C1CFF00001CD51B1
:102C0000030801E1CE6BCD51030802E3CD2B01D0C7
:102C1000CD6B0101F15304E10001CD53D8A4A4D63A
:102C20000001CD5301E180890101FF0ED880F155EB
:102C3000D76AD66EF2940001EAEF0BF06D0ECF6EFC
:102C4000840ECE6ED12BD8B4D22BBC2D01D001D0A6
:102C5000D32BA25302E1A35304E0A251D8B4A3079B
:102C6000A20783A214D0A051D15D0101EE6F000133
:102C7000A151D2590101EF6FEF5303E1EE510F085B
:102C800007E2D2C0A1F0D1C0A0F00001808501010F
:102C90009E900001EAEF0BF09E92EAEF0BF04D6F71
:102CA000746F72436F6E74726F6C2025750A0D001D
:102CB0004D54525F4F4E0A0D00004D54525F4F4627
:102CC000460A0D004D54525F52440A0D00004D5407
:102CD000525F544849535741590A0D004D54525FB1
:102CE000544841545741590A0D004D54525F434FC7
:102CF0004153540A0D005365744D6F746F72506FD9
:102D00007765722025752025750A0D006D6973633E
:102D1000436F6E74726F6C0A0D00656D707479206C
:102D20006275666665720A0D00009D6B9E6B9F6BF7
:102D30008093A16BA06B8095A36BA26B010EBC6FFF
:102D4000BD6BBE6BBF6BC06BC16BC26B8097809954
:102D5000C36BC46BC56BC66BC76B040ECD6FCE6BFC
:102D6000CF6BD06B809B8093A36BA26BD26BD16B2C
:102D7000D36BD46BD66BD56B0101176B196B186BCA
:102D80001A6B1B6B5C6BF2CFD1F1F29EF86A760E78
:102D9000F76E080EF66E0900F5500800F5CF03F047
:102DA000F86AD1BFF28EBD6F03C0BEF1C06BBF6BBE
:102DB000C26BC16BC46BC36BC66BC56B0001809DDE
:102DC000C36B0101D06BD05104080AE3036AD051F0
:102DD000C80FE96E000E0320EA6EEF68D02BF3D720
:102DE00000012BEF17F0010EEA6EE10EE96EEF50D5
:102DF0000EE00F0E016E006A002EFED7012EFBD7EB
:102E00008F0E006E002EFED70000EF2EF2D71200BC
:102E1000320EBE6E8C8089880101E16F0001E3DF14
:102E2000BE6A320E0101E16F0001DDDF8C908998EE
:102E3000320EBE6E0101E16F0001D5DFBE6A8C80EB
:102E40008988640E0101E16F0001CDDF8C908998C3
:102E5000C4EF17F06AD72F0E926E030E936E000E1A
:102E6000946E020E956E070E966EC150C00B070948
:102E7000C16EC050C00B0709C06EC08EC280000E6C
:102E8000016EC250C30B0110C26E8A9E8C9C899841
:102E90008C908B908B920101CF6BCF51030859E33B
:102EA000D890CF35036AA40FE96E000E0320EA6EB6
:102EB000ECCFD1F1ED52EFCFD0F1196AF2BE198EFD
:102EC000F29ED0C1F4F1F56B0F0EF76F890EF66F1D
:102ED000000121DD19BEF28ED8900101CF35036AC1
:102EE000AC0FE96E000E0320EA6EECCFD1F1ED528B
:102EF000EFCFD0F1196AF2BE198EF29ED0C1F4F173
:102F0000F56B0F0EF76F890EF66F000104DD19BE29
:102F1000F28ED8900101CF35036AB40FE96E000E2E
:102F20000320EA6EECCFD1F1ED52EFCFD0F1196A68
:102F3000F2BE198EF29ED0C1F4F1F56B0F0EF76F51
:102F4000890EF66F0001E7DC19BEF28E0101CF2B6E
:102F5000A4D78B940C0EBD6EB76AB66AB50ECD6E53
:102F6000780E0609CA6EFA0ECB6EC70ED56EF28ABF
:102F70009D809D82D76AD66A6D0ECF6E840ECE6E0E
:102F8000C00EF212000144D7EFEF29F06D6A696AB2
:102F9000080E6F6E945030090101946E226A196A0E
:102FA000F2BE198EF29E0001ACEC0DF019BEF28E4D
:102FB000DBEF17F0EBD701EF18F0196AF2BE198EAC
:102FC000F29EACEC0DF019BEF28E6D6A140E6F6EAF
:102FD000696A6D86010E226EF1EF17F06DB601D0B1
:102FE000ECD7222C0BD06DBA09D0686A696AA08A26
:102FF000C00EF212110E696E020E226E02EF18F070
:10300000D9D7ECD722500208FCE1F9EF29F07DB1C5
:1030100001D0FDD77F517F2BA30FE96E040EEA6E1E
:10302000D8B0EA2AEFCFD0F17E517F5D08E3196A6C
:10303000F2BE198EF29E14EC13F019BEF28E01014D
:10304000D0C101F0000180EF18F00101E751016AE1
:10305000E65D03E2E6C100F00CD0006A080EE86FFE
:10306000E6370036E751005CD8B0006E0136E82F35
:10307000F7D7000112000101DC91F2BEDC81F29E63
:1030800000017C513E0802E23E0E7C6F7C517C2B9D
:10309000036A3D0FE96E000E0320EA6EDBC1EFFF0D
:1030A000F29E0101DCB1F28E00015AEF18F0DAC194
:1030B000DBF1E1D7196AF2BE198EF29E020E010110
:1030C000FF6F0001F6EC11F019BEF28E015208E01C
:1030D000196AF2BE198EF29E9CEC13F019BEF28EA4
:1030E00079EF18F07C513E0801E2FCD7D9C1DAF142
:1030F000DED712007DA123D09F51130820E387D78C
:1031000001C0CFF1036A9E51890FE96E000E0320C2
:10311000EA6ECFC1EFFF9E2B9EC0E6F1140E0101B7
:10312000E76F000192DF00C09EF09F2BCFC1D9F165
:10313000D9DF050E0101E16F000155DEDBD7FBEFA2
:1031400029F00900F5520DE0F6CFE2F1F7CFE3F1F7
:10315000F5509EA8FED7AD6EE2C1F6FFE3C1F7FFC2
:10316000F0D712009F5319E0036A9D51890FE96E51
:10317000000E0320EA6EEFCFD3F19D2B9DC0E6F148
:10318000140E0101E76F000160DF00C09DF09F0792
:103190000101D3C101F009D000011A0EF66E2D0E07
:1031A000F76ECFDF000E016E010100011200010178
:1031B000E0510001C35D12E00101E035006E003610
:1031C000FC0E0016C250C30B0010C26EE0C1C3F06B
:1031D000C70E006E002EFED700D00001C282C2B220
:1031E000FED7C4CF03F0C3CF01F0C4CF02F012006A
:1031F000E5C101F0E4C100F00066012A0900F5CF45
:10320000EEFF002EFBD7012EF9D7F86A1200E3C1BA
:1032100019F1E2C118F1C00E010118171851E25D51
:10322000176FF86A19C1F7FF18C1F6FFEA6AD70EDF
:10323000E96EE56B400EE46F0001DADF1200320E3A
:10324000BE6E0101E16F0001CEDDBE6A1200090011
:10325000F6CFE5F1F7CFE6F1F5509EA8FED7AD6EBB
:10326000E5C1F6FFE6C1F7FF0101E42F01D002D06E
:103270000001EDD7000112000150E4C1E6F1640E37
:103280000101E76F0001E1DE00C0E4F10150300E02
:1032900008E10101E5A30ED0E5B70CD0E5B9200E99
:1032A00004D00101E597E599E581012601509EA82A
:1032B000FED7AD6EE4C1E6F10A0EE76F0001C5DE90
:1032C00000C0E4F10150300E08E10101E5B70BD078
:1032D000E5A109D0E5B9200E0001012601509EA804
:1032E000FED7AD6E0101300EE427E4519EA8FED753
:1032F000AD6E000112000101E36BE35103082DE301
:10330000C5C000F00101E351016E04E0D890003225
:10331000012EFCD70050010B1EE0E2530FE1010E1D
:10332000006EE351016E04E0D8900036012EFCD708
:103330000050FF0A0001C4170DD00101010E006EFC
:10334000E351016E04E0D8900036012EFCD7005006
:103350000001C4130101E32BD0D700011200D89063
:103360000101E335036AA40FE96E000E0320EA6E43
:10337000ECCFE5F1ED52EFCFE4F1196AF2BE198E10
:10338000F29EE4C1F4F1010EF56F0F0EF76F890E96
:10339000F66F00018BEC14F019BEF28E8A8E8C8CC5
:1033A0005CEF1AF0C651006E0101E251016E04E0BB
:1033B000D8900032012EFCD70050010B3EE0D8908F
:1033C000E235036AB40FE96E000E0320EA6EECCF1B
:1033D000E4F1ED52EFCFE3F1196AF2BE198EF29EDD
:1033E000E3C1F4F1F56B0F0EF76F890EF66F000174
:1033F0008BEC14F019BEF28ED8900101E235036A0D
:10340000AC0FE96E000E0320EA6EECCFE4F1ED5252
:10341000EFCFE3F1196AF2BE198EF29EE3C1F4F127
:10342000010EF56F0F0EF76F890EF66F00018BEC32
:1034300014F019BEF28E3DD00101D890E235036A36
:10344000B40FE96E000E0320EA6EECCFE4F1ED520A
:10345000EFCFE3F1196AF2BE198EF29EE3C1F4F1E7
:10346000010EF56F0F0EF76F890EF66F00018BECF2
:1034700014F019BEF28ED8900101E235036AAC0F48
:10348000E96E000E0320EA6EECCFE4F1ED52EFCFCF
:10349000E3F1196AF2BE198EF29EE3C1F4F1F56B05
:1034A0000F0EF76F890EF66F00018BEC14F019BE4A
:1034B000F28EE2C1E3F153D7010E006E0101E25139
:1034C000016E04E0D8900036012EFCD700500001B8
:1034D000C71352EF1CF0D8900101E335036AA40F23
:1034E000E96E000E0320EA6EECCFE6F1ED52EFCF6D
:1034F000E5F1196AF2BE198EF29EE5C1F4F1F56BA1
:103500000F0EF76F890EF66F00018BEC14F019BEE9
:10351000F28E0101E3A104D0010EE35DE46F03D05C
:10352000010EE325E46FC7C000F00101E451016E14
:1035300004E0D8900032012EFCD70050010B01E1CD
:1035400006D0E351010802E38A9E01D08C9C000161
:1035500009EF1BF0D8900101E235036AB40FE96E60
:10356000000E0320EA6EECCFE4F1ED52EFCFE3F171
:10357000196AF2BE198EF29EE3C1F4F1010EF56FE5
:103580000F0EF76F890EF66F00018BEC14F019BE69
:10359000F28ED8900101E235036AAC0FE96E000E9D
:1035A0000320EA6EECCFE4F1ED52EFCFE3F1196ABC
:1035B000F2BE198EF29EE3C1F4F1010EF56F0F0E0B
:1035C000F76F890EF66F00018BEC14F019BEF28EC6
:1035D000D8900101E235036AA40FE96E000E0320C2
:1035E000EA6EECCFE4F1ED52EFCFE3F1196AF2BEEF
:1035F000198EF29EE3C1F4F1F56B0F0EF76F890E91
:10360000F66F00018BEC14F019BEF28EE2C1E3F10B
:1036100062D7010E006E0101E251016E04E0D89004
:103620000036012EFCD70050FF0A0001C7175CEFDF
:103630001CF0D8900101E335036AAC0FE96E000E6F
:103640000320EA6EECCFE5F1ED52EFCFE4F1196A19
:10365000F2BE198EF29EE4C1F4F1F56B0F0EF76F16
:10366000890EF66F00018BEC14F019BEF28ED89023
:103670000101E335036AB40FE96E000E0320EA6E20
:10368000ECCFE5F1ED52EFCFE4F1196AF2BE198EFD
:10369000F29EE4C1F4F1010EF56F0F0EF76F890E83
:1036A000F66F00018BEC14F019BEF28E010E006E65
:1036B0000101E351016E04E0D8900036012EFCD7E1
:1036C0000050FF0A0001C6171200D8900101E3352F
:1036D000036AAC0FE96E000E0320EA6EECCFE5F151
:1036E000ED52EFCFE4F1196AF2BE198EF29EE4C1F9
:1036F000F4F1010EF56F0F0EF76F890EF66F0001F2
:103700008BEC14F019BEF28ED8900101E335036AF8
:10371000B40FE96E000E0320EA6EECCFE5F1ED5236
:10372000EFCFE4F1196AF2BE198EF29EE4C1F4F112
:10373000F56B0F0EF76F890EF66F00018BEC14F02E
:1037400019BEF28E010E006E0101E351016E04E01C
:10375000D8900036012EFCD700500001C61312008D
:10376000C651006E0101E251016E04E0D8900032B2
:10377000012EFCD70050010B06E0E2C1E3F100018D
:1037800058DF05D00101E2C1E3F100019EDF66EFE1
:103790001CF0D8900101E235036AAC0FE96E000E0F
:1037A0000320EA6EECCFE4F1ED52EFCFE3F1196ABA
:1037B000F2BE198EF29EE3C1F4F1F56B0F0EF76FB6
:1037C000890EF66F00018BEC14F019BEF28ED890C2
:1037D0000101E235036AB40FE96E000E0320EA6EC0
:1037E000ECCFE4F1ED52EFCFE3F1196AF2BE198E9E
:1037F000F29EE3C1F4F1F56B0F0EF76F890EF66FD1
:1038000000018BEC14F019BEF28E010E006E010166
:10381000E251016E04E0D8900036012EFCD7005032
:10382000FF0A0001C71784EF1CF09E0EF66E2C0EE7
:10383000F76E0D0E0101E46F000109DDE0C1E4F156
:103840001B0E0101E56F000117DD0A0E9EA8FED7D1
:10385000AD6E0D0E9EA8FED7AD6E0101E16BE1517C
:10386000030857E3C5C000F00101E151016E04E017
:10387000D8900032012EFCD70050010B48E0E26BDB
:10388000000139DD0101E051FA0F41E2060F0001AC
:103890008BEF1CF0B00EF66E2C0EF76E52DCE1C111
:1038A000E2F180D5010133D0BA0EF66E2C0EF76E20
:1038B00048DCE1C1E2F14ED6010129D0C40EF66E1A
:1038C0002C0EF76E3EDCE1C1E2F14AD701011FD0B8
:1038D000CE0EF66E2C0EF76E34DCE1C1E3F1F5DEB0
:1038E000010115D0DC0EF66E2C0EF76E2ADCE1C15C
:1038F000E3F19FDE01010BD0EA0EF66E2C0EF76E9F
:1039000020DCE1C1E2F145D7010101D00101E12B49
:10391000A6D700011200E824F76AF736310FF66ED9
:10392000390EF7220A00F550FA6E0800F550F96ECC
:103930009438A838BC38D038E438F838F60EF66E2B
:103940002C0EF76E0E0E0101E46F000180DCE2C167
:10395000E4F11B0E0101E56F00018EDC200E9EA834
:10396000FED7AD6EC5C0E4F11B0E0101E56F00018D
:1039700083DC0A0E9EA8FED7AD6E0D0E9EA8FED764
:10398000AD6E0101E36BE35103083CE3C5C000F0F9
:103990000101E351016E04E0D8900032012EFCD702
:1039A0000050010B2DE0010EE25DF90F20E2070F40
:1039B000000104EF1DF0240E0101E26F18D0490E42
:1039C0000101E26F14D06E0E0101E26F10D0920E71
:1039D0000101E26F0CD0B70E0101E26F08D0DB0EDF
:1039E0000101E26F04D00101E26901D00101036A23
:1039F000E351C80FE96E000E0320EA6EE2C1EFFF4B
:103A0000E32BC1D700011200E824F76AF736230F31
:103A1000F66E3A0EF7220A00F550FA6E0800F550DD
:103A2000F96EB639BE39C639CE39D639DE39E639FE
:103A30000101D6C103F0D551D8B4D607D507D76F49
:103A400003C0D8F1D75302E1D85323E0D4C103F027
:103A5000D351D32BD8B4D42B800FD76F5D0E032056
:103A6000D86FF2CFD9F1F29EF86AF76ED7C1F6FFA0
:103A70000900F5500800F5CF03F0F86AD9BFF28EBF
:103A8000D76F03C0D8F1D96F000172EC18F0D0D70E
:103A9000010100015FEF1FF0F250036EF29EA68E4F
:103AA000A6840F01550EA76EAA0EA76EA68200006F
:103AB0000350F21200011200D08CA69CF6501F0B8E
:103AC000006EE00EF6160A00E2C101F0006608D0B2
:103AD000F650010F3F0B04E1A6880900DDDF0A0064
:103AE000006607D0EECFF5FF015204E00F0001069B
:103AF00003D000060B000C001F0EF6141F0AE6E1AF
:103B0000CBDF0166E3D7F86A120001011751172BCA
:103B1000036AD70FE96E000E0320EA6ED3C1EFFFF0
:103B20001751172B036AD70FE96E000E0320EA6EB8
:103B3000D451EF6E17513F0834E219515D0804E388
:103B400030E1185130082DE2D08CF86A19C1F7FF26
:103B500018C1F6FFA688A69C00019EDFF86AF86AE5
:103B600019C1F7FF18C1F6FFEA6AD70EE96E400ED9
:103B70000101E26F0001A0DF0101176B400E182761
:103B8000000E1923F86A19C1F7FF18C1F6FFEA6A97
:103B9000D70EE96EE56B400EE46F0001F8EC18F00B
:103BA000010100011200010119515D0804E31CE14B
:103BB0001851300819E2D08CF86A19C1F7FF18C102
:103BC000F6FFA688A69C000167DFF86AF86A19C1AB
:103BD000F7FF18C1F6FFEA6AD70EE96E400E010141
:103BE000E26F000169DF0101000112009F53D8B4A8
:103BF000DED1B2EC18F001C0CFF1D36BCFC1D0F061
:103C0000808BBC51010A19E0030AD8B40ED1010A15
:103C1000D8B414D1070AD8B434D1010AD8B437D1F2
:103C2000870AD8B436D1010AD8B43CD1050AD8B431
:103C300050D1010AD8B4A7D1B1D10101CF51000AA6
:103C4000000125E0200A30E0740A4DE0D70A51E077
:103C5000070AD8B494D0010AD8B494D0030AD8B4CF
:103C6000A5D0010AD8B4AAD0430AD8B4AAD0040A6D
:103C7000D8B4ACD0010AD8B4ADD0BE0AD8B4AED056
:103C8000B70AD8B4B2D0010AD8B4B9D0C2D0010EA4
:103C90000101D96F000172EC18F0010E0101D96F1A
:103CA000000172EC18F0B5D0B2EC18F001C0CFF101
:103CB000CFC1E0F1D7EC18F002C0D2F101C0D1F1D0
:103CC000D2C1D3F10101D46BD1C1D5F1D66BD2C130
:103CD000D9F1000172EC18F0D5C1D9F172EC18F0ED
:103CE000010EBC6F96D0020EBC6F0101D0810001A5
:103CF00090D0B2EC18F001C0CFF10101CFC1C0F1FA
:103D0000BF6B0001B2EC18F001C0CFF10101CF513F
:103D1000BF13BF51F00BD36FC0510F0BD46FD351F2
:103D2000F0081BE1D4510F0818E1BF510F0BD36FFE
:103D3000D46BD890D335026ED435036E0250F00F99
:103D4000D36F7F0E0320D46F800ED35DBF6F5D0EE7
:103D5000D459C06F320EBE6E03D0D890BF37C03773
:103D6000800EBF25D36F5D0EC021D46FE36FD3C12A
:103D7000E2F1000107EC19F0010EBC6F4AD0820E8F
:103D8000BC6F47D0B2EC18F001C0CFF10101CFC138
:103D9000C2F1C16B0001B2EC18F001C0CFF101011A
:103DA000CF51C113860E0001BC6F33D00101D08109
:103DB000000180858093010EBC6F2BD0870EBC6FF5
:103DC00028D01FEC19F0010EBC6F23D08C80010E9F
:103DD000BC6F1FD08C90010EBC6F1BD0B2EC18F0E2
:103DE00001C0C5F0010EBC6F14D0B2EC18F001C0D8
:103DF000CFF1CFC1E0F119DD010EBC6F0AD0B2ECFA
:103E000018F001C0CFF1CFC1E2F198DD010EBC6F17
:103E100000D00101D0B107D000018093A36BA26B49
:103E20008998C16B0101D091BCD00101CF51FE082E
:103E300004E1030E0001BC6F0101B3D00101CF51B9
:103E4000E00B006E00380001BD6FBD33070EBD17DB
:103E50000101CF511C0B006E00300001BE6FBE335C
:103E60003F0EBE170101CF51030B0001BF6FBD51C3
:103E7000030803E2040EBC6F02D0050EBC6F010103
:103E800090D0CFC1C0F0050EBC6F01018AD00101F6
:103E900088D00101CFC1C2F1C16B830E0001BC6F9C
:103EA00001017FD00101CF51C113C0C1D4F1BFC105
:103EB000D3F1C2C1D6F1C1C1D5F10001B9D501011B
:103EC000C151BF27C251C023010E0001BC6F0101C7
:103ED00068D0BE6AD45102081BE10101CF51000134
:103EE000D527000ED623D46BD6C0D4F1D5C0D3F1DC
:103EF0000CDE0101C151D8B4C207C12F07D0C25393
:103F000005E1000150DE010EBC6F01013BD0000154
:103F1000D42D09D0D66BCFC1D5F0D5C0D6F0D56B96
:103F2000020ED46F2ED00101CF51800819E1010E8D
:103F30000001D46FD66BD56B0101D46BCFC1D3F127
:103F40000001E3DD0101C151D8B4C207C12F07D080
:103F5000C25305E1000127DE010EBC6F010112D042
:103F6000D46BCFC1D3F10001D0DD0101C151D8B470
:103F7000C207C12F07D0C25305E1000114DE010EB4
:103F8000BC6F01010ED0370E0101D96F000172EC38
:103F900018F0010EBC6F010104D00001010EBC6FCE
:103FA00001010001BC51050801E101D01FD6FDEF60
:103FB00029F0340E0101D96F000172EC18F03EEFC8
:103FC0002AF0CFC1C1F00101D05304E00001808785
:103FD00003D001010001809712EF2AF0C69E9E9641
:103FE000E2C1C9FF020EC6BE05D09EA6FED7000ED6
:103FF000C5BC010E016E1200C69CC586C5B6FED7B3
:1040000000B0C59A00A0C58AC588C5B8FED7C9CF7B
:1040100001F012000C0EF66E2D0EF76EA1EC18F0EA
:104020000101CF51020A000105E0010A18E0070A68
:1040300017E031D0030E0101E06F000115EC1CF018
:10404000010E0101E26F00017BEC19F0D1C1E2F138
:1040500075DC0101E06B000115EC1CF01CD01BD0DD
:104060000101D051FC0F16E2040F00014DEF20F0CA
:10407000C580C5B0FED701010DD0C584C5B4FED73B
:10408000010108D0D1C1E2F1A9DF010103D0006A2A
:10409000B3DF010100012CEF2AF0E824F76AF736BC
:1040A000B50FF66E400EF7220A00F550FA6E0800C2
:1040B000F550F96E70407A4084408E40D2C188F04D
:1040C000D1C187F0D0C186F0CFC185F019EF2BF0B8
:1040D00080AD07D0809D330E016E000E026E23D09E
:1040E0001CD0800E0101BF25E46F5D0EC021F2CF10
:1040F000E6F1F29EF86AF76EE4C1F6FF0900F550AA
:104100000800F5CF03F0F86AE6BFF28EE26F03C055
:10411000E3F1020EBF27000EC0230101E2C101F04E
:10412000E3C102F00001120001015C5310E05C07E2
:10413000D8905C35036A5D0FE96E010E0320EA6ECC
:10414000EFCF01F0E92AEF50E906026E06D0000138
:104150008093000E016E026E010100011200010148
:104160001B5310E01B07D8901B35036A1C0FE96E28
:10417000010E0320EA6EEFCF01F0E92AEF50E906C5
:10418000026E06D000018093000E016E026E0101E6
:104190000001120001015C511F0811E35C515C2B0E
:1041A000006ED89000360050036A5D0FE96E010E74
:1041B0000320EA6EE3C1ECFFED52E2C1EFFF000124
:1041C000120001011B511F080EE3D8901B35036A32
:1041D0001C0FE96E010E0320EA6EE3C1ECFFED5205
:1041E000E2C1EFFF1B2B000112000101E86BE96B3C
:1041F000010EEA6FDA6AD96AED6FE00EEC6F010E1C
:10420000EA6EE40EE96EEDC1E2FFECC1E1FFEAC146
:10421000EBF1D890E550EE02F350E823F450E92397
:10422000EB2FF7D7E8C1DEFFE9C1E8F1E96BD8B0C1
:10423000E92BEC2BD8B4ED2BEA2BEA510508DFE192
:10424000000159EF21F0016A026A006A036A010164
:10425000E65102E1E55118E0100EE76FD890E33720
:10426000E43700360336E651035C02E1E551005CB9
:1042700007E3E551005ED8A00306E651035ED8804F
:1042800001360236E72FEAD70001120088C0E3F1B9
:1042900087C0E2F186C0E1F185C0E0F1410E010185
:1042A000E76FC60EE66F4E0EE56F6D0EE46F000110
:1042B0009CD7390E010100240001856F300E0101E9
:1042C00001200001866F000E010102200001876FAE
:1042D000000E010103200001886F87C000F088C034
:1042E00001F0026A036A88C0E2F187C0E1F188C088
:1042F000E4F187C0E3F17F0E0101E66FE56900019B
:10430000A2DF00C001F003C002F0E2EF25F00101DE
:104310001751172B036AD70FE96E000E0320EA6EC0
:10432000E0C1EFFF1751172B036AD70FE96E000E9C
:104330000320EA6EE151EF6E000135DC120089883E
:10434000320E0101E16F0001F3EC16F08998020EC4
:104350000101E06FFA0EE16F0001F3EC16F00101CC
:10436000E02FF8D70001EBD712000101E26BE25118
:10437000030825E3C5C000F00101E251016E04E02D
:10438000D8900032012EFCD70050010B16E0036AD2
:10439000E251C80F016E000E032203C0E4F1036A6C
:1043A000E251C80FE96E000E0320EA6EE151EF24DE
:1043B000E4C1EAFF01C0E9FFEF6EE22BD8D70001AC
:1043C0001200006A016A0101E051D890E1B10026B3
:1043D00000320132E1B3002600320132E1B500269D
:1043E00000320132E1B7002600320132E1B9002685
:1043F00000320132E1BB002600320132E1BD00266D
:1044000000320132E1BF0026003201320001FBEF31
:1044100028F00101DA6BD96BD1AF6DD0020EBF2548
:10442000D96F000EC021DA6FE16BD1C1E0F13F0E10
:10443000E017E16BE0C1E1F1E06B000149DE02C091
:1044400003F001C002F0D890023603360250010199
:10445000E025BF6F0350E121C06F000139DE02C0CB
:10446000D4F101C0D3F10101D1AD12D0D26B030E52
:10447000D325016E000ED421036E0150035203E1D7
:104480000150D25D05E200014FDE0101D22BEFD7D2
:10449000D26BD45303E1D351D25D0EE200015FDE53
:1044A00002C0E1F101C0E0F102C0E3F101C0E2F1BC
:1044B00071DE0101D22BEDD7E36B1BC1E2F10001EC
:1044C00069DEDAC1E3F1D9C1E2F164DE020E010175
:1044D000D325016E000ED421036E01505C5DE06FA8
:1044E000000E0354E16FE36FE0C1E2F1000152DE20
:1044F00038EF29F00101D151000A0001D8B455D19B
:10450000010AD8B45CD1030AD8B465D1010AD8B481
:1045100079D1070AD8B491D1010AD8B4C6D1030A17
:10452000D8B4E1D1010AD8B413D20F0AD8B410D24A
:10453000010AD8B44CD2030AD8B487D2010AD8B43D
:10454000A2D2070AD8B4C6D2010AD8B4C8D2030A84
:10455000D8B4C8D2010AD8B4DED21F0AD8B4F6D271
:10456000010AD8B403D3030AD8B408D3010AD8B4D3
:1045700009D3070AD8B40ED3010AD8B415D3030A55
:10458000D8B41ED3010AD8B429D30F0AD8B426D37D
:10459000010AD8B423D3030AD8B420D3010AD8B46B
:1045A0001DD3070AD8B41AD3010AD8B417D3030A03
:1045B000D8B414D3010AD8B411D33F0AD8B40ED357
:1045C000010AD8B40BD3030AD8B499EF26F0010A34
:1045D000D8B4A9EF26F0070AD8B4C5EF26F0010A2F
:1045E000D8B4E3EF26F0030AD8B40EEF27F0010A9F
:1045F000D8B43FEF27F00F0AD8B46DEF27F0010AC7
:10460000D8B493EF27F0030AD8B497EF27F0010A44
:10461000D8B4A0EF27F0070AD8B4CBEF27F0010AEF
:10462000D8B4CDEF27F0030AD8B4CFEF27F0010AB2
:10463000D8B4D3EF27F01F0AD8B4D7EF27F0030A76
:10464000D8B4DBEF27F0060AD8B4DEEF27F0010A72
:10465000D8B4E1EF27F0020AD8B4E4EF27F00A0A51
:10466000D8B4E7EF27F00D0AD8B4EAEF27F0030A31
:10467000D8B4EAEF27F0090AD8B404EF28F0060A04
:10468000D8B410EF28F0030AD8B410EF28F0010ACC
:10469000D8B414EF28F07F0AD8B418EF28F0010A34
:1046A000D8B41CEF28F0030AD8B420EF28F0060A8B
:1046B000D8B424EF28F0010AD8B429EF28F0030A6F
:1046C000D8B447EF28F0010AD8B461EF28F00F0AF8
:1046D000D8B472EF28F07F0AD8B483EF28F00F0A1D
:1046E000D8B483EF28F0710AD8B483EF28F0030A16
:1046F000D8B483EF28F0010AD8B483EF28F0070A72
:10470000D8B483EF28F0010AD8B483EF28F0030A65
:10471000D8B483EF28F0770AD8B4A0EF28F0030AC2
:10472000D8B4A0EF28F0750AD8B4A0EF28F01F0A7B
:10473000D8B4A0EF28F0010AD8B4A0EF28F0030AFB
:10474000D8B4A0EF28F0010AD8B4A0EF28F0070AE7
:10475000D8B4A0EF28F0010AD8B4C3EF28F0030AB8
:10476000D8B4C7EF28F0010AD8B4CBEF28F00F0A6D
:10477000D8B4CBEF28F0010AD8B4CBEF28F0030A65
:10478000D8B403EF29F0010AD8B409EF29F0070AD9
:10479000D8B40EEF29F0010AD8B413EF29F0030AB8
:1047A000D8B41FEF29F035EF29F0809392988998BB
:1047B0000101C46BC36BC66BC56B38EF29F088DC95
:1047C00001C0DBF10101E36BDBC1E2F10001F9DCC7
:1047D000010138EF29F07CDC01C0DCF179DC01C09B
:1047E000DDF1DCC1DFF10101DE6BDD51DE27000E02
:1047F000DF23DFC1E3F1DEC1E2F10001E2DC010110
:1048000038EF29F0020E0101BF25E06F000EC02134
:10481000E16FE36FE0C1E2F10001D3DC59DC02C0DB
:1048200003F001C002F0D8900236033602500101B5
:10483000BF270350C02338EF29F091DC02C0DAF122
:1048400001C0D9F10101C051DA5D09E303E1D95199
:10485000BF5D05E2DAC1C0F1D9C1BFF124D0DAC130
:10486000C0F1D9C1BFF100017ADC02C0C6F101C0BC
:10487000C5F10101C65303E1C551010804E2C55168
:10488000D8B4C607C507C52D02D0C6530CE0C6C1B3
:10489000E3F1C5C1E2F1000194DCC0C1E3F1BFC1A5
:1048A000E2F18FDC010138EF29F059DC01500210F0
:1048B00007E055DC54DC02C0C0F101C0BFF110D0EC
:1048C0004EDC02C0C0F101C0BFF1C0C1E3F1BFC105
:1048D000E2F177DC050E0101E16F0001F3EC16F067
:1048E000010138EF29F068EC20F002C003F0D89005
:1048F00001340101D96F0334DA6F000115DC02C005
:10490000D4F101C0D3F1D4C1E3F1D3C1E2F142DC6F
:104910000101D951D325E06FDA51D421E16FD8904C
:10492000E035026EE135036E02505D0FE96E010E57
:104930000320EA6EECCFE1F1ED52EFCFE0F1E1C1FF
:10494000E3F1E0C1E2F100013CDC010138EF29F0C4
:104950000101D151080806E1000101DC02C0DAF1D1
:1049600001C0D9F1000194EC20F002C0D4F101C0E3
:10497000D3F194EC20F002C0C0F101C0BFF194EC7F
:1049800020F002C0D6F101C0D5F10101D65308E1F3
:104990001B51D55D05E20001AFEC20F0F6D7010117
:1049A000D45308E15C51D35D05E2000194EC20F0A2
:1049B0000101F6D7D151080808E1DAC1E3F1D9C104
:1049C000E2F10001E1EC20F0010138EF29F0AFEC59
:1049D00020F002C0C4F101C0C3F1AFEC20F002C06E
:1049E000C6F101C0C5F1C0C1E3F1BFC1E2F1E1EC24
:1049F00020F00101C65303E1C551010813E2C6C10D
:104A0000E3F1C5C1E2F10001E1EC20F0C4C1E3F142
:104A1000C3C1E2F1E1EC20F0C4C1C0F1C3C1BFF1F8
:104A200011D00101C52D07D0C65305E1C4C1C0F1A5
:104A3000C3C1BFF108D00001AFEC20F002C0C0F14B
:104A400001C0BFF1010138EF29F0AFEC20F002C046
:104A5000D4F101C0D3F1AFEC20F002C0D6F101C017
:104A6000D5F10101D551D6110CE0C0C1E3F1BFC1B0
:104A7000E2F10001E1EC20F0D4C1C0F1D3C1BFF1FB
:104A8000010138EF29F0AFEC20F002C0D4F101C0F1
:104A9000D3F1AFEC20F002C0D6F101C0D5F1AFECFC
:104AA00020F002C0D8F101C0D7F1C0C1E3F1BFC10D
:104AB000E2F1E1EC20F00101D751D81105E0D6C1B7
:104AC000C0F1D5C1BFF104D0D4C1C0F1D3C1BFF191
:104AD00038EF29F01FEC19F0010138EF29F001013E
:104AE00038EF29F0AFEC20F002C0C4F101C0C3F1EF
:104AF000C0C1E3F1BFC1E2F1E1EC20F0C4C1E3F1D8
:104B0000C3C1E2F1E1EC20F0C4C1C0F1C3C1BFF107
:104B1000010138EF29F0AFEC20F002C0C4F101C070
:104B2000C3F10101C66BC56BE36BE26B0001E1EC05
:104B300020F0C4C1E3F1C3C1E2F1E1EC20F0C4C153
:104B4000C0F1C3C1BFF1010138EF29F0AFEC20F093
:104B5000010101340001A26F010102340001A36FC1
:104B6000A237A337FC0EA217010182D3D2C0E3F112
:104B7000D1C0E2F1E1EC20F001017AD3D26BD16B2C
:104B8000010176D3AFEC20F002C0DAF101C0D9F117
:104B900001016ED30101E36BD0C0E2F10001E1EC51
:104BA00020F0809B010164D3000E80BB010E010147
:104BB000E06FE36BE26F0001E1EC20F0010158D3FC
:104BC00046EF21F002C0E1F101C0E0F102C0E3F1E3
:104BD00001C0E2F1E1EC20F001014AD3AFEC20F09A
:104BE00002C0D6F101C0D5F1AFEC20F002C0D4F183
:104BF00001C0D3F1170E0101D15DF50FD8B090D0EF
:104C00000B0F00013BEF29F00101D551D327D651FD
:104C1000D42386D00101D551D35FD651D45B80D047
:104C2000196AF2BE198EF29ED4C103F2D3C102F208
:104C3000D6C105F2D5C104F215EC0DF019BEF28E05
:104C400002C0D4F101C0D3F101016AD0D4C1E4F1B2
:104C5000D3C1E3F1D6C1E6F1D5C1E5F123EC21F0F2
:104C600002C0D4F101C0D3F101015AD0D4C1E4F1A2
:104C7000D3C1E3F1D6C1E6F1D5C1E5F123EC21F0D2
:104C800000C0D3F1010103C0D4F14AD00101D551D4
:104C9000D35D03E1D651D45D02E0000E01D0010ED8
:104CA000D46BD36F3DD00101D651D45D04E305E14F
:104CB000D351D55D02E3000E01D0010ED46BD36F4A
:104CC0002FD00101D451D65D04E305E1D551D35D68
:104CD00002E3000E01D0010ED46BD36F21D001018D
:104CE000D351D41103E0D551D61102E1000E01D009
:104CF000010ED46BD36F14D00101D351D41105E14F
:104D0000D551D61102E1000E01D0010ED46BD36F44
:104D100007D00101D551D31BD651D41B01D00101BD
:104D2000D4C1E3F1D3C1E2F10001E1EC20F00101D3
:104D30009FD2AFEC20F001500210000ED8B4010E4B
:104D40000101E06FE36BE26F0001E1EC20F0010193
:104D50008FD2AFEC20F002C0DAF101C0D9F1AFEC94
:104D600020F002C0E1F1D89001010134026EE1357A
:104D7000036E02509D0FE96E010E0320EA6EDAC148
:104D8000ECFFED52D9C1EFFF73D2AFEC20F002C0BF
:104D9000E1F1D89001010134026EE135036E025059
:104DA0009D0FE96E010E0320EA6EECCFE1F1ED52AA
:104DB000EFCFE0F1E1C1E3F1E0C1E2F10001E1ECAC
:104DC00020F0010155D2AFEC20F002C0D6F101C0B5
:104DD000D5F1AFEC20F0D89001010134D36F02344B
:104DE000D46F0001AFEC20F001C0D9F10101670ED2
:104DF0000224DA6FD351D925E06FD451DA21E16F63
:104E0000E36FE0C1E2F1000107EC19F0D6C1E1F176
:104E1000D5C1E0F187EC21F001012AD2AFEC20F0FE
:104E2000D89001010134D36F0234D46F0001AFEC8C
:104E300020F001C0D9F10101670E0224DA6FD351CD
:104E4000D925E06FD451DA21F2CFE2F1F29EF86A6F
:104E5000F76EE0C1F6FF0900F5500800F5CF03F04A
:104E6000F86AE2BFF28ED56F03C0D6F1D6C1E3F186
:104E7000D5C1E2F10001E1EC20F00101F9D1AFEC84
:104E800020F002C0DAF101C0D9F10101BEC103F086
:104E9000BD51BD2BD8B4BE2BC00FE06F590E0320FF
:104EA000E16FE36FE0C1E2F1000107EC19F0DAC154
:104EB000E1F1D9C1E0F187EC21F0760E0101E36F59
:104EC000080EE26F000107EC19F0BEC1E1F1BDC1AF
:104ED000E0F187EC21F00101CBD10101BEC103F06B
:104EE000BD51BD2BD8B4BE2BC00FE06F590E0320AF
:104EF000F2CFE2F1F29EF86AF76EE0C1F6FF090028
:104F0000F5500800F5CF03F0F86AE2BFF28ED96FD2
:104F100003C0DAF1DAC1E3F1D9C1E2F10001E1EC59
:104F200020F00101A5D10101BE6BBD6BA1D1AFEC99
:104F300020F0D89001010134BD6F0234BE6F98D1CA
:104F4000AFEC20F0D89001010134D36F0234D46F5C
:104F5000DA6BD96BDA51D45D1BE303E1D351D95D30
:104F600017E2C00ED925E06F590EDA21E16FE36F29
:104F7000E0C1E2F1000107EC19F00101E16BE06B27
:104F8000000187EC21F00101D92BD8B4DA2BE2D74C
:104F9000BE6BBD6B6DD101016BD1010169D1010EF9
:104FA000C56F010165D1020EC56F010161D1030E0C
:104FB000C56F01015DD10101D22B00010101D22B8E
:104FC00000010101D22B00010101D22B00010101DE
:104FD000D22B0001D2C1E0F115EC1CF00101D1513E
:104FE000320811E10001AFEC20F0010101340001B1
:104FF000A26F010102340001A36FA237A337FC0E98
:10500000A217808D010134D1AFEC20F002C0E1F194
:1050100001C0E0F101C0E2F19EEC1CF0010128D1D9
:105020009FEC21F0010124D1040EC56F010120D1B4
:10503000080EC56F01011CD10C0EC56F010118D1FE
:105040000F0EC56F010114D18093929889980101C8
:105050000FD1AFEC20F0F2CFE2F1F29EF86A02C07D
:10506000F7FF01C0F6FF0900F5500800F5CF03F087
:10507000F86A0101E2BFF28EE06F03C0E1F103C004
:10508000E3F1E26F0001E1EC20F00101F1D0AFECBF
:1050900020F002C0D4F101C0D3F1AFEC20F002C087
:1050A000D6F101C0D5F1D6C1E3F1D5C1E2F107ECEB
:1050B00019F0D4C1E1F1D3C1E0F187EC21F0010195
:1050C000D7D0AFEC20F002C0E1F101C0E0F1010166
:1050D000E16BE1C1E3F101C0E2F10001E1EC20F09C
:1050E0000101C6D0AFEC20F002C0E1F102C0E0F156
:1050F0000101E16BE1C1E3F102C0E2F10001E1EC89
:1051000020F00101B5D00101D151480804E3370E68
:10511000D15DD26F04D0490ED15D020FD26FD2C1E2
:10512000E0F10001D7EC18F002C0E1F101C0E0F1BC
:1051300002C0E3F101C0E2F1E1EC20F0010198D0FE
:105140000101D1514E0804E3390ED15DD26F04D074
:105150004F0ED15D020FD26FD2C1E0F10001D7EC4A
:1051600018F002C0E1F1010102C0E0F1E16BD8905A
:10517000E133E033E1C1E3F1E0C1E2F10001E1EC50
:1051800020F0010175D095908C80010171D095902F
:105190008C9001016DD00101E06B000115EC1CF059
:1051A000030E0101E06F000115EC1CF0010E01017E
:1051B000E26F00017BEC19F0AFEC20F001C0D2F1FE
:1051C0000101D151570807E1D2C1E2F100019EEC83
:1051D0001CF017D00101D151580807E1D2C1E1F10B
:1051E0000001B5EC21F00DD00101E069D2C1E1F17F
:1051F0000001E1EF21F001C0E0F101C0E1F1B5EC07
:1052000021F0010135D0AFEC20F001C0C5F0010163
:105210002FD0C580C5B0FED701012AD0C584C5B442
:10522000FED7010125D0AFEC20F002C0E1F101C0B2
:10523000E0F101C0E2F1EEEC1FF0010119D0AFEC9A
:1052400020F002C0E1F101C0E0F101C000F0FCEC8F
:105250001FF001C0E0F10101E36B01C0E2F10001C8
:10526000E1EC20F0010104D000019FEC21F00101EC
:1052700000015EEF2BF0E824F76AF736910FF66E27
:10528000520EF7220A00F550FA6E0800F550F96E3A
:10529000084C144C204C4C4C6C4C8C4CA64CC24CC6
:1052A000DE4CF84C124DF86AD09E078EEA6AE96A25
:1052B00093829380770EC86E280EC66EC78EC79CE9
:1052C000B886E10EAF6E040EB06EA60EAC6E900EF8
:1052D000AB6E8093A16BA06B8095A36BA26BC26B2E
:1052E00080978099C46BC66BC76B040ECD6FCE6B75
:1052F000CF6B809BD26BD16BD36BD46BD66BD56BE2
:105300000101176B1A6BC46BC36BC66BC56B0001D5
:10531000809DC150C00B0F09C16E070EB46E1E6A8E
:10532000040E1F6E0C0E206E836B846B0E0EA46F2A
:105330007C0EA56F0B0EA66F7C0EA76F1D0EA86FBF
:105340007C0EA96F1A0EAA6F7C0EAB6F0D0EAC6FA0
:105350007C0EAD6F0A0EAE6F7C0EAF6F1C0EB06F81
:105360007C0EB16F160EB26F7C0EB36F0C0EB46F65
:105370007C0EB56F1F0EB66F7C0EB76F1B0EB86F2D
:105380007C0EB96F170EBA6F7C0EBB6FC869C96906
:10539000CA69CB69CC6901019D6B9E6B9F6BA06B49
:1053A000A16BA26BA36BA46BA56BA66BA76BA86B81
:1053B000A96BAA6BAB6BAC6BAD6BAE6BAF6BB06B31
:1053C000B16BB26BB36BB46BB56BB66BB76BB86BE1
:1053D000B96BBA6BBB6BBC6B00012AEF17F0196A93
:1053E000F2BE198EF29E6EEC0DF019BEF28E00EF39
:1053F00018F07AEF18F0F6EF1DF0BC510508D8A4AC
:10540000CFD0BD51070A05E0020A06E0030A1CE0FE
:1054100035D0D9EF1FF032D0C0C0CFF1BFC0D0F12E
:10542000E1EF1FF0550E0101D96F000172EC18F089
:105430000101D969000172EC18F0AA0E0101D96FBF
:10544000000172EC18F01AD0BEC0CFF1BFC0D0F18D
:10545000C0C0D1F10AEF20F0550E0101D96F000153
:1054600072EC18F00101D969000172EC18F0AA0E73
:105470000101D96F000172EC18F000D0BD5106088F
:10548000D8A48BD0BE510308D8A487D00101D06B1B
:10549000BFC0CFF1BFC0D0F1CF6B0001C05101013F
:1054A000CF27000ED023CF35C76FD035C86FC73791
:1054B000C837C737C837C737C837C737C837E00E08
:1054C000C717C75315E1C85313E1F2CFCFF1F29ECE
:1054D000F86A760EF76E080EF66E0900F5500800B1
:1054E000F5CF03F0F86ACFBFF28EC76F03C0C8F1E3
:1054F000D890C737C837C7C1CFF1D06BC8C1D1F179
:10550000D26BEE0ED96F000172EC18F0110E010192
:10551000D96F000172EC18F0CFC1D9F172EC18F01C
:10552000D1C1D9F172EC18F0D8900101C833C7335A
:10553000CA6BC96BCA51C85D2FE303E1C751C95D8E
:105540002BE2C00EC925CF6F590ECA21F2CFD1F17F
:10555000F29EF86AF76ECFC1F6FF0900F550080019
:10556000F5CF03F0F86AD1BFF28ECB6F03C0CCF158
:10557000CBC1CFF1D06BCCC1D1F1D26BCBC1D9F1C2
:10558000000172EC18F0D1C1D9F172EC18F00101F0
:10559000C92BD8B4CA2BCED70001010EBC6F38D0AE
:1055A00080A702D080A934D0C1C000F0C251016EE2
:1055B00004E0D8900032012EFCD70050010B23E00C
:1055C000C2C0E0F1D7EC18F002C0CEF101C0CDF1BD
:1055D000C2390101CF6FCF37E00ECF17CE51036A2A
:1055E000CF1303C0D0F1CDC1D1F1D26B0C0ED96F66
:1055F000000172EC18F0CFC1D9F172EC18F0D1C1F2
:10560000D9F172EC18F0010EC225070BC26F809918
:1056100080A545D080A303D0809389983CD0010118
:10562000D26BD16BD2C0D0F1D1C0CFF100015EEF0F
:1056300020F0F2CFCFF1F29EF86A7F0EF76EF00EF7
:10564000F66E0900F5500800F5CF03F0F86A010185
:10565000CFBFF28ECF6FD06FCF6BF2CFD1F1F29E72
:10566000F86A7F0EF76EF20EF66E0900F55008002C
:10567000F5CF03F0F86AD1BFF28ECF25BF6F03508C
:10568000D021C06FD890BF37C0371B6B5C6B000157
:10569000809B80838988A36BA26B809D809580A36B
:1056A0000DD0A251A3110AE168EC20F002C0D0F1A4
:1056B00001C0CFF101C0D1F109EF22F0D3510208AE
:0C56C00003E2010EBC6FD36B94D6030014
:020000040030CA
:0E00000024CE3E1E0087A1000FC00FE00F406F
:00000001FF
;PIC18F4550
;CRC=7618  CREATED="14-Nov-13 14:41"
