:0C1870006A6A6892D3EF14F033EF29F09D
:10188000046ED8CF05F0E0CF06F00001E9CF0CF0F0
:10189000EACF07F0E1CF08F0E2CF09F0D9CF0AF0A4
:1018A000DACF0BF0F3CF12F0F4CF13F0FACF14F03D
:1018B000F5CF15F0F6CF16F0F7CF17F000C00EF009
:1018C00001C00FF002C010F003C011F0F2AA6CEFDB
:1018D0000CF0F2B441EF15F09DA072EF0CF09EB049
:1018E000A5EF16F09DA278EF0CF09EB20FEF17F067
:1018F000A0AA7EEF0CF0A1BAB8EF14F00EC000F071
:101900000FC001F010C002F011C003F00CC0E9FFDD
:1019100007C0EAFF078E08C0E1FF09C0E2FF0AC066
:10192000D9FF0BC0DAFF12C0F3FF13C0F4FF14C0DD
:10193000FAFF15C0F5FF16C0F6FF17C0F7FF0450F9
:1019400006C0E0FF05C0D8FF1000F76A5A0FF66E18
:10195000190EF7220900F5501200000302FFFFFFE5
:10196000FFFFFFFFFFFFFFFFFFFFF76A7A0FF66E33
:10197000190EF7220900F550120000FF02FFFFFFC9
:10198000FFFFFFFFFFFFFFFFFFFFF76A9A0FF66EF3
:10199000190EF7220900F550120040000B0040001C
:1019A0000000000000000000000000000000000037
:1019B00000000000000000000000F76ACA0FF66E89
:1019C000190EF7220900F5501200400000004000F7
:1019D0000000000000000000000000000000000007
:1019E00000000000000000000000F76AFA0FF66E29
:1019F000190EF7220900F5501200090243000201F6
:101A000000803209040000010202010005240010D8
:101A10000104240202052406000105240100010737
:101A20000581030B00FA09040100020A0000000707
:101A30000502024000010705820240000100F76A2A
:101A40004E0FF66E1A0EF7220900F5501200020032
:101A5000F76A600FF66E1A0EF7220900F5501200B1
:101A600012171B20FFFFFFFFF76A780FF66E1A0EA2
:101A7000F7220900F5501200120110010200004087
:101A800061043300000101020001F76A9A0FF66E4B
:101A90001A0EF7220900F550120004030904080386
:101AA000430043005300180353004500520049000F
:101AB00041004C002000440045004D004F006D9255
:101AC000699468A402D06894FCD7C4EF14F0400E67
:101AD0000401016F040E036F180E026F880E006F71
:101AE000046B040E076F580E066F0001120070A001
:101AF00002D0EDDF7090689ACDEF14F002010E91E4
:101B00000DBF0E810D9F0D51100803E2000E016EF6
:101B10001AD00EA10DD0036A0D51000116DFFF0887
:101B200002E1000E01D0010E016E02010CD00BD0BB
:101B3000036A0D51000119DFFF0802E1000E01D018
:101B4000010E016E02010001120002011251140384
:101B5000F3CF01F0F4CF00F01503F350002613513A
:101B60001403F3500020026E00011200036A020108
:101B70000C51700FE96E0F0E0320EA6EEF6A0CC273
:101B80000DF20001BBDF015228E00201136B0CC211
:101B900012F2156B080E146F0001D7DF020101C0AD
:101BA000E9FF040E0224EA6EEF6A136B0CC212F214
:101BB000156B080E146F0001C8DF02C00EF201C0E1
:101BC0000DF2040E02010D27000E0E230DC2E9FFD7
:101BD000040E0E25EA6EEF6A00011200010E0201EA
:101BE0000B6F0B510F0807E30BC20CF20001BEDFB5
:101BF00002010B2BF6D7000112000201056B046BEA
:101C0000250E036F800E026FEA6A2C0EE96E020E3B
:101C1000E26E020EE16E020E016EE6CFEEFF012EC5
:101C2000FCD72E6A2F6A026BEA6A300EE96E020E4A
:101C3000E26E020EE16EE6CFEEFF026BEA6A310E53
:101C4000E96E020EE26E020EE16EE6CFEEFF080EC6
:101C5000026FEA6A320EE96E020EE26E020EE16E69
:101C6000E6CFEEFF0001816B8091346A336A7C6BB2
:101C70007D91826B1200296A286A0201016B015171
:101C800001080AE3036A01512A0FE96E000E0320DE
:101C9000EA6EEF6A012BF3D70001AFDF1B6A010E7A
:101CA0001C6E1A6A1200689612006A6A686A9F0EB1
:101CB0006B6E3D0E696E6E6A91DFDDDF160E706E23
:101CC00068A602D0F0DFFCD76D9801DF030E226E0C
:101CD000D9EF14F0698468986D82DFEF14F0689C86
:101CE000E5EF14F006C223F012002368120002018F
:101CF000046B2850291033E004513F0830E31D5095
:101D0000000A000105E0020A0AE0010A0FE014D00F
:101D100027C003F0265069DEE8CF05F20DD027C0BA
:101D200003F02650B2DEE8CF05F206D027C003F05C
:101D300026509ADEE8CF05F2262AD8B4272A285062
:101D4000D8B42906280602010451042B580FE96E65
:101D5000040EEA6ED8B0EA2A05C2EFFFCAD72850AF
:101D6000291004E10451400801E01A6A04C206F295
:101D70000001B8DF1200276A266A1D6A04011B51A0
:101D8000010A000107E0030A0BE0010A0DE0220A44
:101D900022E03AD0296A120E286E030E1D6E36D04C
:101DA000296A430E286E32D0020E1D6E036A0401AA
:101DB0001A511E0FE96E000E0320EA6E276AEFCF5C
:101DC00026F027C003F0265000015FDE036A286E6C
:101DD00003C029F01BD0036A04011A51000138DE48
:101DE000036A266E03C027F0263C02D027520AE081
:101DF00027C003F02650F9DD036A286E03C029F0DE
:101E000005D002D072DF11D070DF0FD004011F5354
:101E100008E1295203E128501E5D03E2296A1EC42D
:101E200028F0010E1A6E000162DF62EF10F002016D
:101E3000035306E1040E226E0001D0DEE7D002015A
:101E4000050E226E040E066F980E056F010E046FCC
:101E500004510F08D8A0DAD004C20CF2000186DECB
:101E60000201076B036A045100017FDDFF0865E092
:101E7000040E0201076FD8900435036A00019DDD4E
:101E80000900F5CF03F00201086F03C009F2136BDC
:101E900004C212F2156B080E146F000156DE01C069
:101EA0000BF2010E02010124016E000E0220036EEE
:101EB00001C0E9FF040E0324EA6E08C2EFFF136BB2
:101EC00004C212F2156B080E146F00013EDE01C051
:101ED0000BF2020E02010124016E000E0220036EBD
:101EE00001C0E9FF040E0324EA6E06C2ECFFED52C6
:101EF00005C2EFFFD8900435036A00015EDD0900DA
:101F0000F5CF03F00201052703500623880E0A6F60
:101F100009B10A8109B30A83136B04C212F2156B6B
:101F2000080E146F000111DE020101C0E9FF040E6A
:101F30000224EA6E0AC2EFFF0001036A02010451A3
:101F4000000103DDFF0847E002010783136B04C2B1
:101F500012F2156B080E146F0001F7DD02C00CF2CF
:101F600001C00BF2040E02010B27000E0C23020E1F
:101F70000B25016E000E0C21036E01C0E9FF040E5B
:101F80000324EA6E06C2ECFFED5205C2EFFFD890C3
:101F90000435036A0001F9DC0900F5CF03F0020102
:101FA000052703500623136B04C212F2156B080EAB
:101FB000146F0001CADD02C00CF201C00BF2040E66
:101FC00002010B27000E0C230BC2E9FF040E0C25A7
:101FD000EA6E400EEF6E02010751060802E10E0E96
:101FE000076F036A04510001B0DC010803E002013D
:101FF00007890001036A02010451700FE96E0F0E98
:102000000320EA6E07C2EFFF042B22D700015BEF2B
:1020100010F004011951000A00010DE0010A15E059
:10202000020A20E0060A2AE0030A31E00E0A31E043
:10203000010A37E046D01CC058F40401596B020E67
:102040000201066F00014EDE3DD004011A2D07D0BB
:10205000010E1C160201066B000144DE02D00001D5
:1020600044DE30D004011A2D06D01C820201066B1A
:10207000000138DE02D0000138DE24D0020E1A6ED4
:102080001AC424F00201066B00012CDE1BD073D6AB
:1020900019D01BC058F4010E0201066F000122DEA8
:1020A00011D004011A5101080AE31AC41BF01AC422
:1020B00003F20001BCD60201066B000113DE000131
:1020C00001D013DEF7EF11F01BC003F20401195128
:1020D000000A000105E00A0A0CE0010A2BE03FD0EB
:1020E0000401586B596B020E0201066F0001FADD04
:1020F00037D0020103531BE0010E035D036A0001A8
:102100009EDC016E04011C5DD8A002D002010FD03C
:10211000036A1C512A0FE96E000E0320EA6EEFCF0E
:1021200058F4010E0201066F0001DCDD02D000014F
:10213000DCDD16D0020103530FE0036A04011C51D9
:102140002A0FE96E000E0320EA6E1AC4EFFF0201A7
:10215000066B0001C7DD02D00001C7DD01D0C5DD7F
:10216000F7EF11F00201049103BF0481039F04A162
:1021700019D0136B03C212F2156B080E146F000115
:10218000E4DC02C006F201C005F2040E02010527DC
:10219000000E062305C2E9FF040E0625EA6E880E2E
:1021A000EF6E0FD0136B03C212F2156B080E146F93
:1021B0000001CBDC020101C0E9FF040E0224EA6E3B
:1021C000EF6A000164EF11F00201049103BF048182
:1021D000039F04A119D0136B03C212F2156B080EF2
:1021E000146F0001B2DC02C006F201C005F2040E59
:1021F00002010527000E062305C2E9FF040E06258D
:10220000EA6E840EEF6E10D0136B03C212F2156BE0
:10221000080E146F000199DC020101C0E9FF040EF1
:102220000224EA6E840EEF6E00016CEF11F00201E1
:10223000049103BF0481039F04A119D0136B03C24F
:1022400012F2156B080E146F00017FDC02C007F25A
:1022500001C006F2040E02010627000E072306C283
:10226000E9FF040E0725EA6EEFCF05F210D0136BDD
:1022700003C212F2156B080E146F000166DC020136
:1022800001C0E9FF040E0224EA6EEFCF05F205AFAC
:1022900002D005B502D0000E01D0010E016E000182
:1022A00078EF11F01CC40DF229DC01522DE004017D
:1022B0001951010A000105E0020A0BE0030A11E0CE
:1022C00022D01CC403F24ED70201066B00010ADDC6
:1022D0001BD01CC403F278D70201066B000102DD9B
:1022E00013D00401586B596B1CC403F200019FD733
:1022F000015203E0010E0401586F020E0201066F45
:102300000001F0DC01D0F1DCF7EF11F0FE0E236EDE
:10231000120004011C2D01D002D01C534EE11951B2
:10232000000A00010BE0010A0DE0210A1CE0010A8D
:102330001FE0030A30E0010A35E03DD0010E826F54
:10234000E5DF3AD0040EEA6E580EE96EE26A350E09
:10235000E16E080E016EE6CFEEFF012EFCD71EC423
:1023600006F2C0DC29D0020E826F8081CFDF24D03C
:10237000040EEA6E580EE96EE26A2C0EE16E070E4C
:10238000016EE6CFEEFF012EFCD7070E0201066FAD
:102390000001A8DC11D01AC481F00201066B000113
:1023A000A1DC0AD01AC434F01BC433F00201066B5E
:1023B000000198DC01D099DC04010001F7EF11F075
:1023C0001A6A040118517F0B000A000107E0010A94
:1023D00007E0030A07E0230A07E008D01AD607D06F
:1023E00073D605D05FD703D094D701D07EDC58EFE9
:1023F00014F00201136B04C212F2156B080E146F75
:102400000001A5EC0DF0020101C0E9FF040E022459
:10241000EA6EEFCF06F20551020806E106AD02D0E2
:10242000056B02D0010E056F055103081CE1840EF7
:10243000066F136B04C212F2156B080E146F0001C5
:10244000A5EC0DF002C00AF201C009F2040E02016F
:102450000927000E0A2309C2E9FF040E0A25EA6EC5
:10246000840EEF6E07D0052D03D0C80E066F02D084
:10247000880E066FD8900435036A0001DDEC0CF07D
:102480000900F5CF03F00201076F03C008F2136BD8
:1024900004C212F2156B080E146F0001A5EC0DF0CA
:1024A00001C009F2010E02010124016E000E02209A
:1024B000036E01C0E9FF040E0324EA6E07C2EFFFBA
:1024C00008B1068108B30683136B04C212F2156BC0
:1024D000080E146F0001A5EC0DF0020101C0E9FF28
:1024E000040E0224EA6E06C2EFFF00011200036A26
:1024F00002011151700FE96E0F0E0320EA6EEF52C8
:102500001BE0136B11C212F2156B080E146F000161
:10251000A5EC0DF002C013F201C012F2040E02018C
:102520001227000E132312C2E9FF040E1325EA6ED0
:10253000EFCF14F214AF02D0000E01D0010E016EE5
:10254000000112000CC211F2D2DF0152D8B485D0C2
:102550000201136B0CC212F2156B080E146F00010E
:10256000A5EC0DF002C012F201C011F2040E02013E
:102570001127000E1223010E1125016E000E1221EB
:10258000036E01C0E9FF040E0324EA6E0DC2EFFFE3
:102590000F51020820E1136B0CC212F2156B080EEA
:1025A000146F0001A5EC0DF002C012F201C011F28F
:1025B000040E02011127000E122311C2E9FF040EBE
:1025C0001225EA6EEFCF10F210AD02D00F6B02D0E1
:1025D000010E0F6F1AD00F51040817E1136B0CC2D4
:1025E00012F2156B080E146F0001A5EC0DF002013C
:1025F00001C0E9FF040E0224EA6EEFCF10F210AD25
:1026000003D0010E0F6F01D00F6B0F2D03D0C80E3A
:10261000106F02D0880E106F0EB110810EB31083B0
:10262000136B0CC212F2156B080E146F0001A5ECAF
:102630000DF002C012F201C011F2040E02011127C6
:10264000000E122311C2E9FF040E1225EA6E10C219
:10265000EFFF010E016E04D00001000E016E0201B9
:10266000000112008251010A03E0030A15E028D09C
:10267000EA6A350EE96E040EE26E180EE16E080E7F
:10268000016EE6CFEEFF012EFCD70201066B0001C2
:1026900072EC0EF0826B15D0EA6A2C0EE96E040E15
:1026A000E26E180EE16E070E016EE6CFEEFF012E10
:1026B000FCD7826B0201066B000172EC0EF001D0B8
:1026C000826BA0EF13F00201136B04C212F2156BC0
:1026D000080E146F0001A5EC0DF002C006F201C057
:1026E00005F2010E02010124016E000E0220036EAC
:1026F00001C0E9FF040E0324EA6E036AEFCF01F084
:1027000003C002F0000194EF13F07D91020E02016C
:10271000046F056F00016DDE12007D817F6B020E7C
:102720000201046F0001CFD701C07EF07E5301E1AA
:10273000ECDFA7EF13F00201035304E1000192D78D
:1027400006D002010351020803E10001E6D70201AD
:102750000001120004C26EFF0201045303E0040EE4
:10276000226E02D0020E226E0001BCEF13F01B6A33
:102770001A6A24C004F2EED732EF14F004C211F248
:10278000B6DE015247E00201136B04C212F2156B70
:10279000080E146F0001A5EC0DF002C00DF201C08F
:1027A0000CF2040E02010C27000E0D23020E0C2564
:1027B000016E000E0D21036E01C0E9FF040E03241B
:1027C000EA6EECCF0BF2ED52EFCF0AF20BC2EAFF4A
:1027D0000AC2E9FF06C2E2FF05C2E1FF08C202F039
:1027E00007C201F0015202E0022A02D0025206E0C2
:1027F000E6CFEEFF012EFCD7022EFAD704C20CF270
:1028000008C20EF207C20DF209C20FF200019ADEF1
:10281000015002D0000E016E12007C5310E0020E37
:102820000201046F066B3D0E056F086B7CC007F25A
:10283000020E096F0001A2DF015201E07C6B120061
:10284000ECDF39EF14F0020103530EE11A2C05D02E
:10285000000177EC0EF006D002011A50020803E1E5
:10286000000185D7020106D00351020803E10001EF
:10287000E7D702010001120021300201016F01338C
:1028800001331F0E011721524EE1040100513C0B90
:102890000201026F430E04010017020102513408C5
:1028A00025E104010451800B01E0046B000188D58F
:1028B0006D98233C07D00201046B030E056F0001E5
:1028C00098DD12D00201046B020E056F000191DD4C
:1028D0002350FE0809E002010C6B0E6B23C00DF2C1
:1028E000040E0F6F00012EDE1CD0020102510408FD
:1028F00019E1036B00011FDF0201046B020E056F7B
:10290000000177DD2350FE080CE0233C01D009D004
:1029100002010C6B0E6B23C00DF2010E0F6F000154
:1029200011DE020122D02150040812E12368036B5A
:10293000000189DF233C01D009D002010C6B0E6B32
:1029400023C00DF2020E0F6F0001FCDD0DD002015D
:1029500021B406D001C203F20001EDDE05D0020170
:1029600001C203F200016FDF02010001F1EF14F078
:10297000A19A225201E13ED068523CE068A404D002
:1029800069A402D05FEF0DF06DA201D033D068AA28
:1029900004D069AA02D077EF0DF068A204D069A232
:1029A00002D038EF0CF068A004D069A002D055EF37
:1029B0000EF068A804D069A802D06AEF0EF068ACE7
:1029C00004D069AC02D06FEF0EF00201006B68A674
:1029D0000AD069A608D06CCF21F0000153EC0EF0AC
:1029E0004BD702D0020105D002010051002B030891
:1029F000EEE200017EEF0CF0020104C200F005518E
:102A0000016E04E0D8900032012EFCD70050010B7B
:102A1000016E0001120002010651070B006E063123
:102A2000016E013201321F0E011601500825E96EB8
:102A3000000E0921EA6E016A012A002A01D001363E
:102A4000002EFDD7075303E00150EF1203D0011E03
:102A50000150EF160001120005C203F0020104C28A
:102A6000E9FF05C2EAFF010E006E0651016E04E0A7
:102A7000D8900036012EFCD70050EF10EF6E000109
:102A800012000101C52BC5510208D8A446D1C56B5F
:102A90005F510308D8A06ED059C104F261C105F29C
:102AA0000001AADF012C64D0036A010161515A0FB1
:102AB000E96E010E0320EA6EEF3C01D05AD056C1F8
:102AC00004F261C105F2000197DF015239E158C1FA
:102AD00004F261C105F290DF015219E0D8900101C2
:102AE0006135036A3E0FE96E010E0320EA6EECCFFA
:102AF00005F2ED52EFCF04F204C206F20201076BB9
:102B00000F0E096F890E086F000185DF18D0D8906D
:102B100001016135036A460FE96E010E0320EA6E7A
:102B2000ECCF05F2ED52EFCF04F204C206F202013F
:102B3000076B0F0E096F890E086F00016CDF18D04C
:102B4000D89001016135036A460FE96E010E03203A
:102B5000EA6EECCF05F2ED52EFCF04F204C206F2BA
:102B60000201076B0F0E096F890E086F000153DF1A
:102B7000010174D00201006B00510308D8A06ED08F
:102B800059C104F200C205F2000136DF012C63D006
:102B9000036A020100515A0FE96E010E0320EA6E2A
:102BA000EF525AE056C104F200C205F2000124DFE0
:102BB000015239E158C104F200C205F21DDF015291
:102BC00019E0D89002010035036A3E0FE96E010E4C
:102BD0000320EA6EECCF05F2ED52EFCF04F204C20F
:102BE00006F2010E076F0F0E096F890E086F0001C4
:102BF00012DF18D0D89002010035036A460FE96E43
:102C0000010E0320EA6EECCF05F2ED52EFCF04F295
:102C100004C206F2010E076F0F0E096F890E086FCE
:102C20000001F9DE18D0D89002010035036A460F82
:102C3000E96E010E0320EA6EECCF05F2ED52EFCF04
:102C400004F204C206F2010E076F0F0E096F890E1F
:102C5000086F0001E0DE0201002B8ED7020101693E
:102C6000006B0051040823E3036A00515A0FE96E18
:102C7000010E0320EA6EEF50015D17E360C104F21C
:102C800000C205F20001B8DE0152D8B402D0020140
:102C90000CD0036A020100515A0FE96E010E0320A5
:102CA000EA6EEFCF01F200C202F2002BDAD7010E7A
:102CB000056F600E046F02C206F20001CDDE010155
:102CC0005F5103080DE3036A61515A0FE96E010E6B
:102CD0000320EA6EEF500201015D036F04D0010191
:102CE00001C203F2020102C261F101015F51030856
:102CF00001E1606B5F51030802E35F2B01D05F6B62
:102D00000201035304E101015F53D8A4C1D60101BC
:102D10005F5303E1000180870101FF0ED8800201AB
:102D20000355D76AD66EF29400017EEF0CF003C211
:102D300035F102C234F101C233F100C232F1CCEFFD
:102D400016F0C56BC5C083F012000101652BD8B425
:102D5000662B4E2D01D001D0672B635302E16453E3
:102D600004E06351D8B46407630783A24DD0000127
:102D700080BF49D0807D808F0101646B636B00014F
:102D8000809380BB3ED00201036B026B66C101F2EF
:102D900065C100F20001CBD78988F2CF00F2F29E24
:102DA000F86A7F0EF76EF00EF66E0900F550080017
:102DB000F5CF03F0F86A020100BFF28E006F016FD9
:102DC000006BF2CF02F2F29EF86A7F0EF76EF20EFF
:102DD000F66E0900F5500800F5CF03F0F86A02BF5F
:102DE000F28E002501012C6F035002010121010127
:102DF0002D6FD8902C372D370001A3DF8099808B61
:102E000002D0809B899804D0000180AF01D0809FC0
:102E10001C0ECF6E770ECE6E9E907EEF0CF09E92C3
:102E20007EEF0CF0737461636B206F766572666C75
:102E30006F770A00737461636B20656D7074790A33
:102E400000000101536B010E4E6F0001809B836BEC
:102E5000C56B846BF2CFCEF1F29EF86A760EF76EF8
:102E6000080EF66E0900F5500800F5CF03F0F86A79
:102E70000101CEBFF28E2A6F03C02BF10001CCEF0F
:102E800029F0010EEA6EE90EE96EEF500EE00F0E2A
:102E9000016E006A002EFED7012EFBD78F0E006E4A
:102EA000002EFED70000EF2EF2D71200320EBE6EBB
:102EB0008C8089880101E96F0001E3DFBE6A320E70
:102EC0000101E96F0001DDDF8C908998320EBE6E42
:102ED0000101E96F0001D5DFBE6A8C808988640E2C
:102EE0000101E96F0001CDDF8C90899814EF18F093
:102EF0000101576B2F0E926E000E936E946E020EB0
:102F0000956E070E966EC150C00BC16EC050C00BBF
:102F10000709C06EC08EC280556B000E016EC25094
:102F2000C30B0110C26E8A9E8C9C89988C90CE6BCC
:102F3000CF6BCE5103085CE3D890CE35036A360FD1
:102F4000E96E010E0320EA6EECCFD1F1ED52EFCF26
:102F5000D0F1196AF2BE198EF29ED0C106F20201BA
:102F6000076B0F0E096F890E086F000154DD19BE43
:102F7000F28ED8900101CE35036A3E0FE96E010E44
:102F80000320EA6EECCFD1F1ED52EFCFD0F1196A08
:102F9000F2BE198EF29ED0C106F20201076B0F0E2F
:102FA000096F890E086F000136DD19BEF28ED890C8
:102FB0000101CE35036A460FE96E010E0320EA6E69
:102FC000ECCFD1F1ED52EFCFD0F1196AF2BE198EEC
:102FD000F29ED0C106F20201076B0F0E096F890E37
:102FE000086F000118DD19BEF28E0101CE2BA1D7AA
:102FF0008B940C0EBD6EB76AB66AB50ECD6E780EA8
:103000000609CA6EFA0ECB6EC00EF212C70ED56E4E
:10301000D76AD66AF28A9D809D829D8A1C0ECF6EE9
:10302000770ECE6E000142D7CEEF29F06D6A696A45
:10303000080E6F6E945030090101946E226A196A6D
:10304000F2BE198EF29E00013BEC0EF019BEF28E1C
:103050002BEF18F0EBD750EF18F0196AF2BE198E6B
:10306000F29E3BEC0EF019BEF28E6D6A140E6F6E7E
:10307000696A6D86010E226E41EF18F06DB601D0BF
:10308000ECD7222C0BD06DBA09D0686A696AA08A85
:10309000C00EF212110E696E020E226E1200DAD705
:1030A000EDDF22500208FCE1D8EF29F07DB101D01C
:1030B000FDD77F517F2BA30FE96E040EEA6ED8B0C7
:1030C000EA2AEFCFD0F17E517F5D08E3196AF2BEA4
:1030D000198EF29E85EC13F019BEF28E0101D0C15B
:1030E00001F0000185EF18F07DA125D001017E538C
:1030F0001DE1036A7C51680F016E010E032201C0BD
:10310000CEF103C0CFF10001D1D7CFC1EAFFCEC1CC
:10311000E9FF01C0EFFF01017C2B7C51130801E2A4
:103120007C6B7D517C5D02E1010E7E6F050EE96FC7
:103130000001A7DED9D7DCEF29F001017E2D0BD0ED
:103140007E6B020ED36F7C6B7D6BD1C1E9FFD2C168
:10315000EAFFEF6A22D07C517D5D07E1D36BD1C1DC
:10316000E9FFD2C1EAFFEF6A18D0D2C103F0036AC7
:103170007D51680FE96E010E0320EA6EEFCFD6F1A4
:10318000D2C1EAFFD1C1E9FFD6C1EFFF7D2B7D514E
:10319000130801E27D6B010ED36FD3C101F0000172
:1031A0001FEF1AF00101EE91F2BEEE81F29E0001D6
:1031B0007C513E0802E23E0E7C6F7C517C2B036A00
:1031C0003D0FE96E000E0320EA6EEDC1EFFFF29EA7
:1031D0000101EEB1F28E0001F1EF18F0ECC1EDF15A
:1031E000E1D7196AF2BE198EF29E020E0201116F2A
:1031F000000177EC12F019BEF28E015208E0196A54
:10320000F2BE198EF29E0DEC14F019BEF28E10EF84
:1032100019F07C513E0801E2FCD7EBC1ECF1DED79E
:103220001200E8C101F0E7C100F00066012A0900C0
:10323000F5CFEEFF002EFBD7012EF9D7F86A12006A
:10324000E6C1C4F1E5C1C3F1C00E0101C317C3510A
:10325000E55DC26FF86AC4C1F7FFC3C1F6FF010E96
:10326000EA6E820EE96EE86B400EE76F0001D9DF6F
:1032700012000101D4C103F0D351D8B4D407D3074D
:10328000D56F03C0D6F1D55302E1D65322E0D2C1A7
:1032900003F0D151D12BD8B4D22B800FD56F5D0E56
:1032A0000320D66FF2CFD7F1F29EF86AF76ED5C140
:1032B000F6FF0900F5500800F5CF03F0F86AD7BF14
:1032C000F28ED56F03C0D6F1EB6F0001A2DFD1D72C
:1032D0000101000116EF1BF0F250036EF29EA68E64
:1032E000A6840F01550EA76EAA0EA76EA682000037
:1032F0000350F21200011200D08CA69CF6501F0B56
:10330000006EE00EF6160A00E7C101F0006608D074
:10331000F650010F3F0B04E1A6880900DDDF0A002B
:10332000006607D0EECFF5FF015204E00F00010662
:1033300003D000060B000C001F0EF6141F0AE6E176
:10334000CBDF0166E3D7F86A12000101C251C22B3C
:10335000036A820FE96E010E0320EA6ED1C1EFFF0E
:10336000C251C22B036A820FE96E010E0320EA6E7E
:10337000D251EF6EC2513F0835E2C4515D0804E3FB
:1033800031E1C35130082EE2D08CF86AC4C1F7FF96
:10339000C3C1F6FFA688A69C00019EDFF86AF86A02
:1033A000C4C1F7FFC3C1F6FF010EEA6E820EE96EDB
:1033B000400E0101E76F00019FDF0101C26B400E6B
:1033C000C327000EC423F86AC4C1F7FFC3C1F6FFC8
:1033D000010EEA6E820EE96EE86B400EE76F0001A7
:1033E00020DF0101000112000101C4515D0804E366
:1033F0001DE1C35130081AE2D08CF86AC4C1F7FF4E
:10340000C3C1F6FFA688A69C000166DFF86AF86AC9
:10341000C4C1F7FFC3C1F6FF010EEA6E820EE96E6A
:10342000400E0101E76F000167DF0101000112009A
:10343000010E0101D26FCE0ED16F00017ED601C008
:10344000CFF10101CF2D78D1676BCEC162F10001C0
:103450008089CEC1EBF1DDDE01014E51010A000190
:1034600025E0030AD8B462D0010AD8B466D0070AAE
:10347000D8B480D0010AD8B483D0850AD8B482D019
:10348000010AD8B486D0030AD8B4BCD0010AD8B493
:10349000C0D0070AD8B4D2D0010AD8B4D6D0030A13
:1034A000D8B4D9D0010AD8B434D13CD10101CE511D
:1034B000540A00010BE0D70A0FE0070A12E0010AE4
:1034C00015E0030A18E0010A21E024D0020E0101F0
:1034D0004E6FD08100011ED0800E01014E6F0001A1
:1034E00019D0820E01014E6F000114D0840E01012B
:1034F0004E6F00010FD00101D0818988646B636B2E
:10350000000180931EDC8099808B04D0870E01011E
:103510004E6F00010101D0B107D00001809B010175
:10352000646B636B8998536BD091FFD00101CE51CE
:10353000FE0802E1030E4E6FF8D00101CE51E00B00
:10354000006E00384F6F4F33070E4F17CE511C0BD4
:10355000006E0030506F50333F0E5017CE51030BAA
:10356000516F4F51030803E2040E4E6F02D0050E57
:103570004E6FDBD0CEC152F1050E01014E6FD5D09A
:103580000101D3D00101CEC12DF12C6B810E4E6F04
:10359000CCD00101CE512C13010E4E6F2C51F00BEB
:1035A000D16F2D510F0BD26FD151F0081BE1D251C9
:1035B0000F0818E12C510F0BD16FD26BD890D13579
:1035C000026ED235036E0250F00FD16F7F0E0320D2
:1035D000D26F800ED15D2C6F5D0ED2592D6F320EE1
:1035E000BE6E03D0D8902C372D37800E2C25D16F8E
:1035F0005D0E2D21D26FE66FD1C1E5F1000120DE15
:10360000010193D00101CEC12FF12E6B830E4E6FBD
:103610008CD00101CE512E132DC1D2F12CC1D1F18C
:103620002FC1D4F12EC1D3F1000123D601012E51B7
:103630002C272F512D23010E4E6F77D00101CEC1C3
:103640002FF12E6B850E4E6F70D00101CE512E13CF
:10365000860E4E6F6AD0BE6A01017F51020819E1E1
:10366000CE518027000E81237F6B81C1D2F180C1B2
:10367000D1F100016ADE01012E51D8B42F072E2F9F
:1036800007D02F5305E10001AFDE010E01014E6F9F
:1036900037D07F2D09D0816BCEC180F180C181F1FF
:1036A000806B020E7F6F2CD0CE51800817E1010E87
:1036B0007F6F816B806BD26BCEC1D1F1000145DE93
:1036C00001012E51D8B42F072E2F07D02F5305E11B
:1036D00000018ADE010E01014E6F12D0D26BCEC105
:1036E000D1F1000132DE01012E51D8B42F072E2F67
:1036F00007D02F5305E1000177DE010E01014E6F67
:10370000FF0ED880CE55D16FEB6F000182DD010135
:103710000CD0370E0101EB6F00017BDD010E0101C2
:103720004E6F03D0010E01014E6F4E51050801E1AD
:1037300003D000017DD60101CF51020802E1010E44
:103740004E6F0001DEEF29F0340E0101EB6F000136
:1037500060DD12EF2AF00101E635006E0036FC0E46
:103760000016C250C30B0010C26EC70E006E002EB2
:10377000FED700D00001D4EF1BF0C282C2B2FED748
:10378000C4CFE7F10101C3CFE6F1E6C101F0E7C123
:1037900002F00001D8EF1BF00101E551555D06E094
:1037A000E5C1E6F10001D7D7E5C155F10001E5D744
:1037B00002501200EDC103F00101ECC1E9FFEDC1BF
:1037C000EAFF010E006EEE51016E04E0D890003663
:1037D000012EFCD70050FF0AEF14EF6E000112001B
:1037E0000101E86BE85103082BE357C100F0E851F1
:1037F000016E04E0D8900032012EFCD70050010B7E
:103800001DE0E7530AE1010EED6F560EEC6FE8C1C3
:10381000EEF10001CFDF11D00101196AF2BE198E5D
:10382000F29E010E0201056F560E046FE8C106F20A
:1038300000012CEC15F019BEF28E0101E82BD2D755
:1038400000011200D8900101EC35036A360FE96ED1
:10385000010E0320EA6EECCFEEF1ED52EFCFEDF169
:10386000196AF2BE198EF29EEDC106F2010E020136
:10387000076F0F0E096F890E086F00010BEC15F032
:1038800019BEF28E8A8E8C8CBAEF1CF0D890010192
:10389000E735036A3E0FE96E010E0320EA6EECCFB6
:1038A000EBF1ED52EFCFEAF1D890E735036A460F1E
:1038B000E96E010E0320EA6EECCFE9F1ED52EFCF95
:1038C000E8F1196AF2BE198EF29E58C104F2E7C1FE
:1038D00005F20001FCEC14F019BEF28E015224E056
:1038E000196AF2BE198EF29EE8C106F20201076B58
:1038F0000F0E096F890E086F00010BEC15F019BE51
:10390000F28E196AF2BE198EF29EEAC106F2010E1B
:103910000201076F0F0E096F890E086F00010BEC93
:1039200015F019BEF28E23D0196AF2BE198EF29EDE
:10393000E8C106F2010E0201076F0F0E096F890E32
:10394000086F00010BEC15F019BEF28E196AF2BE79
:10395000198EF29EEAC106F20201076B0F0E096F83
:10396000890E086F00010BEC15F019BEF28EE7C14D
:10397000ECF168D7196AF2BE198EF29E010E0201AF
:10398000056F590E046FE7C106F200012CEC15F02B
:1039900019BEF28E08EF1FF0D8900101EC35036AD2
:1039A000360FE96E010E0320EA6EECCFEFF1ED5217
:1039B000EFCFEEF1196AF2BE198EF29EEEC106F259
:1039C0000201076B0F0E096F890E086F00010BECE7
:1039D00015F019BEF28E0101ECA104D0010EEC5DD0
:1039E000ED6F03D0010EEC25ED6F196AF2BE198E52
:1039F000F29E59C104F2EDC105F20001FCEC14F095
:103A000019BEF28E015201E10BD00101EC51010807
:103A100005E38A9E000104D003D001018C9C0001C3
:103A200073EF1DF0D8900101E735036A3E0FE96E90
:103A3000010E0320EA6EECCFEBF1ED52EFCFEAF18D
:103A4000D890E735036A460FE96E010E0320EA6E4F
:103A5000ECCFE9F1ED52EFCFE8F1196AF2BE198E21
:103A6000F29EE8C106F2010E0201076F0F0E096F08
:103A7000890E086F00010BEC15F019BEF28E196A61
:103A8000F2BE198EF29EEAC106F2010E0201076F24
:103A90000F0E096F890E086F00010BEC15F019BEAF
:103AA000F28ED8900101E735036A360FE96E010EF8
:103AB0000320EA6EECCFEDF1ED52EFCFECF1196A95
:103AC000F2BE198EF29EECC106F20201076B0F0ED8
:103AD000096F890E086F00010BEC15F019BEF28E0C
:103AE000E7C1ECF159D7010E0101ED6F590EEC6FF2
:103AF000E7C1EEF100015EDE0DEF1FF0D89001018D
:103B0000E735036A3E0FE96E010E0320EA6EECCF43
:103B1000EBF1ED52EFCFEAF1D890E735036A460FAB
:103B2000E96E010E0320EA6EECCFE9F1ED52EFCF22
:103B3000E8F1196AF2BE198EF29E58C104F2E7C18B
:103B400005F20001FCEC14F019BEF28E01522DE0DA
:103B5000196AF2BE198EF29EEAC106F20201076BE3
:103B60000F0E096F890E086F00010BEC15F019BEDE
:103B7000F28E196AF2BE198EF29EE8C106F2010EAB
:103B80000201076F0F0E096F890E086F00010BEC21
:103B900015F019BEF28E010E0101ED6F580EEC6F9B
:103BA000E7C1EEF1000106DE33D0196AF2BE198ECC
:103BB000F29EEAC106F2010E0201076F0F0E096FB5
:103BC000890E086F00010BEC15F019BEF28E196A10
:103BD000F2BE198EF29EE8C106F20201076B0F0ECB
:103BE000096F890E086F00010BEC15F019BEF28EFB
:103BF000196AF2BE198EF29E010E0201056F580E6F
:103C0000046FE7C106F200012CEC15F019BEF28E2C
:103C100012EF1FF0D8900101E735036A3E0FE96EFD
:103C2000010E0320EA6EECCFEBF1ED52EFCFEAF19B
:103C3000D890E735036A460FE96E010E0320EA6E5D
:103C4000ECCFE9F1ED52EFCFE8F1196AF2BE198E2F
:103C5000F29E010E0201056F580E046FE7C106F2D5
:103C600000012CEC15F019BEF28E196AF2BE198E05
:103C7000F29EE8C106F20201076B0F0E096F890E72
:103C8000086F00010BEC15F019BEF28E196AF2BE36
:103C9000198EF29EEAC106F2010E0201076F0F0EA5
:103CA000096F890E086F00010BEC15F019BEF28E3A
:103CB00017EF1FF0D8900101E735036A3E0FE96E58
:103CC000010E0320EA6EECCFEBF1ED52EFCFEAF1FB
:103CD000D890E735036A460FE96E010E0320EA6EBD
:103CE000ECCFE9F1ED52EFCFE8F1010EED6F580E98
:103CF000EC6FE7C1EEF100015DDD196AF2BE198ECD
:103D0000F29EEAC106F20201076B0F0E096F890EDF
:103D1000086F00010BEC15F019BEF28E196AF2BEA5
:103D2000198EF29EE8C106F2010E0201076F0F0E16
:103D3000096F890E086F00010BEC15F019BEF28EA9
:103D40001CEF1FF0D8900101E735036A3E0FE96EC2
:103D5000010E0320EA6EECCFEBF1ED52EFCFEAF16A
:103D6000D890E735036A460FE96E010E0320EA6E2C
:103D7000ECCFE9F1ED52EFCFE8F1010EED6F590E06
:103D8000EC6FE7C1EEF1000115DD196AF2BE198E84
:103D9000F29EEAC106F20201076B0F0E096F890E4F
:103DA000086F00010BEC15F019BEF28E196AF2BE15
:103DB000198EF29EE8C106F20201076B0F0E096F21
:103DC000890E086F00010BEC15F019BEF28E21EF81
:103DD0001FF00101E66BE651030838E357C100F01C
:103DE000E651016E04E0D8900032012EFCD700505D
:103DF000010B2AE0E76B0001F3DC0101E551FA0F4A
:103E000023E2060F000128EF1FF0E6C1E7F13ED5DF
:103E100001011AD0E6C1E7F105D6010115D0E6C1CE
:103E2000E7F16CD6010110D0E6C1E7F1F3D601014C
:103E30000BD0E6C1E7F13ED7010106D0E6C1E7F1BC
:103E400081D7010101D00101E62BC5D70001120085
:103E5000E824F76AF7366B0FF66E3E0EF7220A007B
:103E6000F550FA6E0800F550F96E0A3E143E1E3EFB
:103E7000283E323E3C3E0101E86BE85103083BE33B
:103E800057C100F0E851016E04E0D8900032012ED5
:103E9000FCD70050010B2DE0010EE75DF90F20E289
:103EA000070F00017DEF1FF0240E0101E76F18D00E
:103EB000490E0101E76F14D06E0E0101E76F10D0BB
:103EC000920E0101E76F0CD0B70E0101E76F08D029
:103ED000DB0E0101E76F04D00101E76901D00101A8
:103EE000036AE8515A0FE96E010E0320EA6EE7C13A
:103EF000EFFFE82BC2D700011200E824F76AF7367B
:103F0000150FF66E3F0EF7220A00F550FA6E080004
:103F1000F550F96EA83EB03EB83EC03EC83ED03E19
:103F2000D83EE5C157F11200CEC153F10101CF5384
:103F300003E00001808502D00001809582EF2AF025
:103F4000320EBE6E0101E96F000141EC17F0BE6A4E
:103F50001200C69E9E96E7C1C9FF020EC6BE05D0DE
:103F60009EA6FED7000EC5BC010E016E1200C69CB7
:103F7000C586C5B6FED700B0C59A00A0C58AC5885B
:103F8000C5B8FED7C9CF01F012000101CE51FB0F19
:103F900041E2050F00011EEF20F00101CF5302E1C5
:103FA0008C8001D08C9036D0CBDF010133D0010161
:103FB000E56B00010EDF030E0101E56F000109DF73
:103FC000010E0101E76F00010BDCD0C1E7F153DF07
:103FD000010120D001011ED00101CF51FC0F18E2D8
:103FE000040F00010DEF20F0C580C5B0FED7010120
:103FF0000FD0C584C5B4FED701010AD0D0C1E7F106
:10400000A8DF010105D0006AB2DF010101D0010182
:1040100001D0010100019DEF2AF0E824F76AF7368C
:10402000350FF66E400EF7220A00F550FA6E0800C2
:10403000F550F96EE83FF23FFC3F0640E824F76A8E
:10404000F736570FF66E400EF7220A00F550FA6E5B
:104050000800F550F96E9A3FA83FAE3FD43FD83FD5
:1040600080A502D080A738D0010153C100F054517F
:10407000016E04E0D8900032012EFCD70050010BF5
:1040800025E054C1E5F10001CCEC1BF002C0CFF1FA
:1040900001C0CEF101015439D06FD037E00ED017F6
:1040A000CF51036AD01303C0D1F1CEC1D2F1D36B8B
:1040B0000C0EEB6F000109EC19F0D0C1EBF109EC2B
:1040C00019F0D2C1EBF109EC19F00101010E5425F0
:1040D000070B546F0001809742EF2BF080A307D0AD
:1040E0008093330E016E000E026E23D01CD0800E22
:1040F00001012C25E36F5D0E2D21F2CFE5F1F29E3B
:10410000F86AF76EE3C1F6FF0900F5500800F5CF35
:1041100003F0F86AE5BFF28EE16F03C0E2F1020E30
:104120002C27000E2D230101E1C101F0E2C102F0B4
:104130000001120083B211D089988C80640E0101B5
:10414000E96F000141EC17F089888C90640E010141
:10415000E96F000141EC17F0EDD71200C55311E0F3
:10416000C507D890C535036AC60FE96E000E032057
:10417000EA6EEFCF01F0E92AEF50E906026E03D0B4
:1041800002D08487D7DF12000900F5520DE0F6CF88
:10419000E9F1F7CFEAF1F5CFEBF109EC19F0E9C15C
:1041A000F6FFEAC1F7FFF0D71200835316E083074A
:1041B000D8908335036A850FE96E000E0320EA6EFE
:1041C000ECCFE6F1ED52EFCFE5F10101E5C101F0F1
:1041D000E6C102F00AD009D000018483340EF66EE5
:1041E0002E0EF76ED1DFA6DF010100011200C551CE
:1041F0001F0812E3C551C52B006ED8900036005041
:10420000036AC60FE96E000E0320EA6EE2C1ECFFFE
:10421000ED52E1C1EFFF02D084858CDF12008351A3
:104220001F080FE3D8908335036A850FE96E000EEF
:104230000320EA6EE8C1ECFFED52E7C1EFFF832BEC
:1042400007D08481240EF66E2E0EF76E9DDF72DF8E
:1042500012000101E76BE86B010EE96FDA6AD96AB7
:10426000EC6FDF0EEB6F010EEA6EE30EE96EECC150
:10427000E2FFEBC1E1FFE9C1EAF1D890E550EE02BF
:10428000F350E723F450E823EA2FF7D7E7C1DEFF26
:10429000E8C1E7F1E86BD8B0E82BEB2BD8B4EC2BF6
:1042A000E92BE9510508DFE100018DEF21F0016AFA
:1042B000026A006A036A0101E55102E1E45118E073
:1042C000100EE66FD890E237E33700360336E5513B
:1042D000035C02E1E451005C07E3E451005ED8A016
:1042E0000306E551035ED88001360236E62FEAD791
:1042F0000001120035C1E2F134C1E1F133C1E0F156
:1043000032C1DFF1410E0101E66FC60EE56F4E0EC0
:10431000E46F6D0EE36F00019CD7390E010100249C
:10432000326F300E0120336F000E0220346F000E0A
:104330000320356F34C100F035C101F0026A036A11
:1043400035C1E1F134C1E0F135C1E3F134C1E2F14D
:104350007F0EE56FE4690001AADF00C001F003C031
:1043600002F029EF27F00101C251C22B036A820F2C
:10437000E96E010E0320EA6EE5C1EFFFC251C22BC8
:10438000036A820FE96E010E0320EA6EE651EF6EBA
:104390000001F4EC19F012008988320E0101E96F76
:1043A000000141EC17F08998020E0101E56FFA0E49
:1043B000E96F000141EC17F00101E52FF8D700018A
:1043C000EBD712000101E76BE751030824E357C163
:1043D00000F0E751016E04E0D8900032012EFCD7C6
:1043E0000050010B16E0036AE7515A0F016E010EEF
:1043F000032203C0E9F1036AE7515A0FE96E010E87
:104400000320EA6EE651EF24E9C1EAFF01C0E9FFAB
:10441000EF6EE72BD9D700011200006A016A010193
:10442000E551D890E6B1002600320132E6B300260D
:1044300000320132E6B5002600320132E6B700262E
:1044400000320132E6B9002600320132E6BB002616
:1044500000320132E6BD002600320132E6BF0026FE
:10446000003201320001E0EF23F00101E06BDF5187
:104470002C0A0001D8B494D0010AD8B492D0030A0F
:10448000D8B490D0010AD8B492D01F0AD8B494D02E
:10449000030AD8B496D0060AD8B496D0010AD8B484
:1044A00096D0020AD8B496D00A0AD8B496D00D0A8B
:1044B000D8B496D0030AD8B493D0090AD8B4A4D0FB
:1044C000060AD8B4AAD0030AD8B4A7D0010AD8B42F
:1044D000A6D07F0AD8B4A8D0010AD8B4AAD0030ABB
:1044E000D8B4ACD0060AD8B4AED0010AD8B4AED095
:1044F000030AD8B4C6D0010AD8B4D9D00F0AD8B4A8
:10450000E4D07F0AD8B4EFD00F0AD8B4ECD0710A47
:10451000D8B4E9D0030AD8B4E6D0010AD8B4E3D0BD
:10452000070AD8B4E0D0010AD8B4DDD0030AD8B461
:10453000DAD0770AD8B4F2D0030AD8B4EFD0750A2B
:10454000D8B4ECD01F0AD8B4E9D0010AD8B4E6D068
:10455000030AD8B4E3D0010AD8B4E0D0070AD8B42B
:10456000DDD0010AD8B4FBD0030AD8B4FAD0010ACE
:10457000D8B4F9D00F0AD8B4F6D0010AD8B4F3D021
:10458000030AD8B423D1010AD8B42AD1070AD8B46F
:104590002BD1010AD8B42CD1030AD8B433D144D1D9
:1045A00044D143D1010E0101576F00013ED1020EEB
:1045B0000101576F000139D1030E0101576F00014E
:1045C00034D10101E02B00010101E02B00010101C8
:1045D000E02B00010101E02B00010101E02B0001B3
:1045E000E0C1E5F1E9EC1EF00101DF5132080AE11A
:1045F0000001DBDDD89001010134636F0234646F88
:1046000000018083000111D1D0DD02C0E6F101C0BC
:10461000E5F101C0E7F12FDC08D1BEDE06D1040EC2
:104620000101576F000101D1080E0101576F000110
:10463000FCD00C0E0101576F0001F7D00F0E0101E5
:10464000576F0001F2D0809B8998EFD0AEDDF2CF9A
:10465000E7F1F29EF86A02C0F7FF01C0F6FF090019
:10466000F5500800F5CF03F0F86A0101E7BFF28EBC
:10467000E56F03C0E6F103C0E8F1E76F0001CFDDAD
:10468000D4D093DD02C0E2F101C0E1F18EDD02C0C1
:10469000E4F101C0E3F1E4C1E6F1E3C1E5F120ECAE
:1046A00019F0E2C1E6F1E1C1E5F15DDEBED07DDDEC
:1046B00002C0E6F101C0E5F10101E66BE6C1E8F1F7
:1046C00001C0E7F10001ABDDB0D06FDD02C0E6F163
:1046D00002C0E5F10101E66BE6C1E8F102C0E7F1D5
:1046E00000019DDDA2D00101DF51480804E3370E2F
:1046F000DF5DE06F04D0490EDF5D020FE06FE0C1C7
:10470000E5F10001CCEC1BF002C0E6F101C0E5F1DF
:1047100002C0E8F101C0E7F182DD87D00101DF517D
:104720004E0804E3390EDF5DE06F04D04F0EDF5D0D
:10473000020FE06FE0C1E5F10001CCEC1BF002C01C
:10474000E6F1010102C0E5F1E66BD890E633E5330E
:10475000E6C1E8F1E5C1E7F1000161DD66D08C80DA
:1047600064D08C9062D00101E56B0001E9EC1EF091
:10477000030E0101E56F0001E9EC1EF0010E0101DD
:10478000E76F0001F0EC1BF010DD01C0E0F101016A
:10479000DF51570807E1E0C1E7F100013BEC1FF0F2
:1047A00014D00101DF51580806E1E0C1E6F1000133
:1047B00009DE0BD00101E569E0C1E6F100012DD66B
:1047C00001C0E5F101C0E6F1FDDD2FD0EEDC02C055
:1047D000E2F101C0E1F1E1C1E5F191EC1FF025D07A
:1047E000C580C5B0FED721D0C584C5B4FED71DD0C5
:1047F000DCDC02C0E6F101C0E5F101C0E7F1A9ECA3
:104800001FF013D0D2DC02C0E6F101C0E5F101C017
:1048100000F0B7EC1FF001C0E5F10101E86B01C049
:10482000E7F10001FCDC01D0B7DD17EF29F0010151
:10483000D96BD86BD0AF6FD0020E2C25D86F000E7D
:104840002D21D96FE06BD0C1DFF13F0EDF17E06B98
:10485000DFC1E0F1DF6B000141DC02C003F001C009
:1048600002F0D8900236033602500101DF252C6F8A
:104870000350E0212D6F000131DC02C0D3F101C0F3
:10488000D2F10101D0AD12D0D16B030ED225016E51
:10489000000ED321036E0150035203E10150D15D9C
:1048A00005E200015BDC0101D12BEFD7D16BD353C3
:1048B00003E1D251D15D0EE2000177DC02C0E0F1EC
:1048C00001C0DFF102C0E2F101C0E1F190DC0101C1
:1048D000D12BEDD7E26B83C0E1F1000188DCD9C1B7
:1048E000E2F1D8C1E1F183DC020E0101D225016EB3
:1048F000000ED321036E01500001C55D0101DF6F81
:10490000000E0354E06FE26FDFC1E1F100016FDCE4
:1049100017EF29F00101D051000A0001D8B487D067
:10492000010AD8B48DD0030AD8B498D0010AD8B4FB
:10493000AFD0070AD8B4C9D0010AD8B401D1030A4C
:10494000D8B420D1010AD8B454D10F0AD8B451D167
:10495000010AD8B491D1030AD8B4CBD1010AD8B492
:10496000E5D1070AD8B408D2010AD8B409D2030A9B
:10497000D8B408D2010AD8B41DD21F0AD8B434D290
:10498000010AD8B43AD2030AD8B43FD2010AD8B443
:1049900040D2070AD8B445D2010AD8B44CD2030A8F
:1049A000D8B455D2010AD8B460D20F0AD8B45DD2B7
:1049B000010AD8B45AD2030AD8B457D2010AD8B4DB
:1049C00054D2070AD8B451D2010AD8B44ED2030A3D
:1049D000D8B44BD2010AD8B448D23F0AD8B445D291
:1049E000010AD8B442D2030AD8B4EAD2010AD8B430
:1049F000F7D2070AD8B410D3010AD8B42BD3030ACC
:104A0000D8B453D3010AD8B481D30F0AD8B4B4EFC1
:104A100028F0010AD8B4DAEF28F0030AD8B4DEEFA0
:104A200028F0010AD8B4E7EF28F013EF29F0809BB3
:104A300089980101076B066B096B086B18EF29F069
:104A40006EEC20F001C0DAF10101E86BDAC1E7F1A8
:104A500000010FEC21F0010118EF29F06EEC20F0BD
:104A600001C0DBF16EEC20F001C0DCF1DBC1DEF156
:104A70000101DD6BDC51DD27000EDE23DEC1E8F134
:104A8000DDC1E7F100010FEC21F0010118EF29F081
:104A9000020E01012C25DF6F000E2D21E06FE86F63
:104AA000DFC1E7F100010FEC21F06EEC20F002C055
:104AB00003F001C002F0D890023603360250010123
:104AC0002C2703502D2318EF29F0D5EC20F002C03D
:104AD000D9F101C0D8F101012D51D95D09E303E1FC
:104AE000D8512C5D05E2D9C12DF1D8C12CF127D0C8
:104AF000D9C12DF1D8C12CF10001D5EC20F002C0B4
:104B000009F101C008F10101095303E1085101084D
:104B100004E20851D8B409070807082D02D0095348
:104B20000EE009C1E8F108C1E7F100010FEC21F046
:104B30002DC1E8F12CC1E7F10FEC21F0010178D390
:104B4000D5EC20F00150021009E0D5EC20F0D5ECB6
:104B500020F002C02DF101C02CF112D0D5EC20F0D4
:104B600002C02DF101C02CF12DC1E8F12CC1E7F1FB
:104B70000FEC21F0050E0101E96F000141EC17F087
:104B8000010156D36EEC20F002C003F0D89001343E
:104B90000101D86F0334D96F0001AEEC20F002C0E0
:104BA000D3F101C0D2F1D3C1E2F1D2C1E1F1F7EC0E
:104BB00020F00101D851D225DF6FD951D321E06F08
:104BC000D890DF35026EE035036E0250C60FE96EF5
:104BD000000E0320EA6EECCFE0F1ED52EFCFDFF1F3
:104BE000E0C1E8F1DFC1E7F100010FEC21F00101C4
:104BF0001FD30101D051080807E10001D5EC20F0D6
:104C000002C0D9F101C0D8F10001AEEC20F002C021
:104C1000D3F101C0D2F1AEEC20F002C02DF101C001
:104C20002CF1AEEC20F002C0D5F101C0D4F10101AD
:104C3000D5530AE1000183510101D45D05E2000171
:104C4000D5EC20F0F4D70101D3530AE10001C5519E
:104C50000101D25D05E20001AEEC20F00101F4D7C4
:104C6000D051080808E1D9C1E8F1D8C1E7F1000145
:104C70000FEC21F00101DCD2D5EC20F002C007F1ED
:104C800001C006F1D5EC20F002C009F101C008F125
:104C90002DC1E8F12CC1E7F10FEC21F0010109531E
:104CA00003E10851010813E209C1E8F108C1E7F185
:104CB00000010FEC21F007C1E8F106C1E7F10FECAC
:104CC00021F007C12DF106C12CF111D00101082DF1
:104CD00007D0095305E107C12DF106C12CF108D019
:104CE0000001D5EC20F002C02DF101C02CF1010132
:104CF0009FD2D5EC20F002C0D3F101C0D2F1D5ECA7
:104D000020F002C0D5F101C0D4F10101D451D51178
:104D10000CE02DC1E8F12CC1E7F100010FEC21F00E
:104D2000D3C12DF1D2C12CF1010182D2D5EC20F0FA
:104D300002C0D3F101C0D2F1D5EC20F002C0D5F110
:104D400001C0D4F1D5EC20F002C0D7F101C0D6F1FA
:104D50002DC1E8F12CC1E7F10FEC21F00101D65192
:104D6000D71105E0D5C12DF1D4C12CF104D0D3C1A8
:104D70002DF1D2C12CF15CD2A0EC1FF0010158D270
:104D8000010156D2D5EC20F002C007F101C006F1B6
:104D90002DC1E8F12CC1E7F10FEC21F007C1E8F1DA
:104DA00006C1E7F10FEC21F007C12DF106C12CF18E
:104DB00001013ED2D5EC20F002C007F101C006F19E
:104DC0000101096B086BE86BE76B00010FEC21F048
:104DD00007C1E8F106C1E7F10FEC21F007C12DF1A1
:104DE00006C12CF1010124D2D5EC20F0D8900101AC
:104DF0000134636F0234646F1BD266C1E8F165C190
:104E0000E7F10FEC21F0010113D20101666B656B34
:104E10000FD2D5EC20F002C0D9F101C0D8F10101C8
:104E200007D20101E86B62C1E7F100010FEC21F04C
:104E300080990101FDD1000E80B9010E0101DF6FE3
:104E4000E86BE76F00010FEC21F00101F1D17AEF7F
:104E500021F002C0E0F101C0DFF102C0E8F101C0C1
:104E6000E7F10FEC21F00101E3D1D5EC20F002C015
:104E7000D5F101C0D4F1D5EC20F002C0D3F101C0CE
:104E8000D2F1170E0101D05DF50FD8B090D00B0F05
:104E900000011BEF29F00101D451D227D551D323B2
:104EA00086D00101D451D25FD551D35B80D0196A2D
:104EB000F2BE198EF29ED3C113F2D2C112F2D5C145
:104EC00015F2D4C114F2A5EC0DF019BEF28E02C099
:104ED000D3F101C0D2F101016AD0D3C1E3F1D2C153
:104EE000E2F1D5C1E5F1D4C1E4F157EC21F002C003
:104EF000D3F101C0D2F101015AD0D3C1E3F1D2C143
:104F0000E2F1D5C1E5F1D4C1E4F157EC21F000C0E4
:104F1000D2F1010103C0D3F14AD00101D451D25DD5
:104F200003E1D551D35D02E0000E01D0010ED36B39
:104F3000D26F3DD00101D551D35D04E305E1D251DB
:104F4000D45D02E3000E01D0010ED36BD26F2FD0DF
:104F50000101D351D55D04E305E1D451D25D02E3F3
:104F6000000E01D0010ED36BD26F21D00101D251BE
:104F7000D31103E0D451D51102E1000E01D0010E8E
:104F8000D36BD26F14D00101D251D31105E1D451AA
:104F9000D51102E1000E01D0010ED36BD26F07D004
:104FA0000101D451D21BD551D31B01D00101D3C172
:104FB000E8F1D2C1E7F100010FEC21F0010138D195
:104FC000D5EC20F001500210000ED8B4010E010102
:104FD000DF6FE86BE76F00010FEC21F0010128D1D2
:104FE000D5EC20F002C0D9F101C0D8F1D5EC20F009
:104FF00002C0E0F1D89001010134026EE035036E89
:1050000002500A0FE96E010E0320EA6ED9C1ECFFCF
:10501000ED52D8C1EFFF0CD1D5EC20F002C0E0F189
:10502000D89001010134026EE035036E02500A0F80
:10503000E96E010E0320EA6EECCFE0F1ED52EFCF06
:10504000DFF1E0C1E8F1DFC1E7F100010FEC21F091
:105050000101EED0D5EC20F002C0D5F101C0D4F1B1
:10506000D5EC20F0D89001010134D26F0234D36F17
:105070000001D5EC20F001C0D8F10101670E022437
:10508000D96FD251D825DF6FD351D921E06FE66FA8
:10509000DFC1E5F1000120EC19F0D5C1E6F1D4C182
:1050A000E5F1B3EC21F00101C3D0D5EC20F0D890AC
:1050B00001010134D26F0234D36F0001D5EC20F02E
:1050C00001C0D8F10101670E0224D96FD251D82551
:1050D000DF6FD351D921F2CFE1F1F29EF86AF76E7A
:1050E000DFC1F6FF0900F5500800F5CF03F0F86ABC
:1050F000E1BFF28ED46F03C0D5F1D5C1E8F1D4C1C0
:10510000E7F100010FEC21F0010192D0D5EC20F085
:1051100002C0D9F101C0D8F101012BC103F02A511D
:105120002A2BD8B42B2BC00FDF6F590E0320E06F52
:10513000E66FDFC1E5F1000120EC19F0D9C1E6F11D
:10514000D8C1E5F1B3EC21F0760E0101E66F080E4F
:10515000E56F000120EC19F02BC1E6F12AC1E5F161
:10516000B3EC21F0010164D001012BC103F02A51FD
:105170002A2BD8B42B2BC00FDF6F590E0320F2CF90
:10518000E1F1F29EF86AF76EDFC1F6FF0900F55013
:105190000800F5CF03F0F86AE1BFF28ED86F03C0C4
:1051A000D9F1D9C1E8F1D8C1E7F100010FEC21F044
:1051B00001013ED001012B6B2A6B3AD0D5EC20F0D7
:1051C000D890010101342A6F02342B6F31D0D5EC15
:1051D00020F0D89001010134D26F0234D36FD96B23
:1051E000D86BD951D35D1BE303E1D251D85D17E2EF
:1051F000C00ED825DF6F590ED921E06FE66FDFC1F1
:10520000E5F1000120EC19F00101E66BE56B00010E
:10521000B3EC21F00101D82BD8B4D92BE2D72B6BFA
:105220002A6B06D00001D0C1DFF135EF22F0010179
:10523000000154EF2BF0E824F76AF736510FF66EB1
:10524000520EF7220A00F550FA6E0800F550F96E7A
:10525000964EA24EAE4EDA4EFA4E1A4F344F504F83
:105260006C4F864FA04FF86AD09E078EEA6AE96AB3
:1052700093829380770EC86E280EC66EC78EC79C29
:105280000101076B066B096B086B0001809301013C
:10529000546B0001809580970101566B586B596BD8
:1052A000040E5F6F606B616B00018099809B809D35
:1052B000809F0101646B636B666B656B676B7C6BD6
:1052C0007D6B7E6B7F6B816B806BC26BC56BC150DE
:1052D000C00B0F09C16E070EB46E1E6A040E1F6E5E
:1052E0000C0E206E0A6B0B6B0C6B0D6B0E6B0F6B49
:1052F000106B116B126B136B146B156B166B176BBA
:10530000186B196B1A6B1B6B1C6B1D6B1E6B1F6B69
:10531000206B216B226B236B246B256B266B276B19
:10532000286B296B306B316B0E0E366F7C0E376F2E
:105330000B0E386F7C0E396F1D0E3A6F7C0E3B6F73
:105340001A0E3C6F7C0E3D6F0D0E3E6F7C0E3F6F54
:105350000A0E406F7C0E416F1C0E426F7C0E436F35
:10536000160E446F7C0E456F0C0E466F7C0E476F19
:105370001F0E486F7C0E496F1B0E4A6F7C0E4B6FE1
:10538000170E4C6F7C0E4D6F5A695B695C695D69E5
:105390005E69000121EF17F078EF17F0196AF2BE8D
:1053A000198EF29EFDEC0DF019BEF28E4FEF18F043
:1053B0003EEC18F074EF18F018EF1AF001014E519E
:1053C0000508D8A45CD14F51F80FD8B0CAD0080F47
:1053D00000015EEF2BF0550E0101EB6F000109ECAF
:1053E00019F00101EB69000109EC19F0AA0E0101A5
:1053F000EB6F000109EC19F0010E0101EB6F0001E8
:1054000009EC19F0300E0101EB6F000109EC19F005
:10541000010E0101EB6F000109EC19F00101A1D0AF
:10542000A4EF1BF001019DD050C1E5F1CCEC1BF0C5
:1054300002C0C7F101C0C6F1C7C1CEF10101CF6BF7
:10544000C6C1D0F1D16B550EEB6F000109EC19F01C
:105450000101EB69000109EC19F0CEC1EBF109EC97
:1054600019F0D0C1EBF109EC19F001017AD050C16B
:10547000E5F1E9EC1EF0550E0101EB6F000109ECBE
:1054800019F00101EB69000109EC19F0AA0E010104
:10549000EB6F000109EC19F0010163D050C1E7F195
:1054A0003BEC1FF0550E0101EB6F000109EC19F008
:1054B0000101EB69000109EC19F0AA0E0101EB6F83
:1054C000000109EC19F001014CD052C1E5F191EC59
:1054D0001FF0550E0101EB6F000109EC19F00101FD
:1054E000EB69000109EC19F0AA0E0101EB6F000154
:1054F00009EC19F0010135D052C1CEF151C1CFF103
:1055000094EF1FF0550E0101EB6F000109EC19F04B
:105510000101EB69000109EC19F0AA0E0101EB6F22
:10552000000109EC19F001011CD050C1CEF151C1AC
:10553000CFF152C1D0F1C5EF1FF0550E0101EB6F55
:10554000000109EC19F00101EB69000109EC19F007
:10555000AA0E0101EB6F000109EC19F0010101D065
:1055600001014F510608D8A487D050510308D8A490
:1055700083D0CF6B51C1CEF151C1CFF1CE6B52511F
:10558000CE27000ECF23CE35C86FCF35C96FC837B1
:10559000C937C837C937C837C937C837C937E00E20
:1055A000C817C85315E1C95313E1F2CFCEF1F29EEB
:1055B000F86A760EF76E080EF66E0900F5500800D0
:1055C000F5CF03F0F86ACEBFF28EC86F03C0C9F101
:1055D000D890C837C937C8C1CEF1CF6BC9C1D0F197
:1055E000D16BEE0EEB6F000109EC19F0110E010109
:1055F000EB6F000109EC19F0CEC1EBF109EC19F0E9
:10560000D0C1EBF109EC19F0D8900101C933C833CE
:10561000CB6BCA6BCB51C95D2FE303E1C851CA5DA7
:105620002BE2C00ECA25CE6F590ECB21F2CFD0F19E
:10563000F29EF86AF76ECEC1F6FF0900F550080039
:10564000F5CF03F0F86AD0BFF28ECC6F03C0CDF176
:10565000CCC1CEF1CF6BCDC1D0F1D16BCCC1EBF1D0
:10566000000109EC19F0D0C1EBF109EC19F00101CE
:10567000CA2BD8B4CB2BCED7010E4E6F03D000016E
:1056800030EF20F0000180AB0FD0010163516411B5
:105690000CE100016EEC20F002C0CFF101C0CEF1B0
:1056A00001C0D0F117EF24F001016751020803E2B5
:1056B000010E4E6F676B00017DD60300E824F76A88
:1056C000F736D70FF66E560EF7220A00F550FA6E2F
:1056D0000800F550F96ED65328546E549C54CA54A1
:0656E000F8542A55205485
:020000040030CA
:0E00000024CE3E1E0087A1000FC00FE00F406F
:00000001FF
;PIC18F4550
;CRC=3F12  CREATED="23-Jun-13 21:31"
