:04175000DDEF27F0B2
:08175800046ED8CF05F0E0CFCC
:1017600006F00001E9CF0CF0EACF07F0E1CF08F076
:10177000E2CF09F0D9CF0AF0DACF0BF0F3CF12F0B5
:10178000F4CF13F0FACF14F0F5CF15F0F6CF16F032
:10179000F7CF17F000C00EF001C00FF002C010F03C
:1017A00003C011F0F2AAD8EF0BF0F2B4ACEF14F0D2
:1017B0009DA0DEEF0BF09EB01AEF16F09DA2E4EFB5
:1017C0000BF09EB244EF16F0A0AAEAEF0BF0A1BA1C
:1017D00047EF14F00EC000F00FC001F010C002F08F
:1017E00011C003F00CC0E9FF07C0EAFF078E08C074
:1017F000E1FF09C0E2FF0AC0D9FF0BC0DAFF12C047
:10180000F3FF13C0F4FF14C0FAFF15C0F5FF16C0B4
:10181000F6FF17C0F7FF045006C0E0FF05C0D8FF71
:101820001000F76A320FF66E180EF7220900F55015
:101830001200000302FFFFFFFFFFFFFFFFFFFFFF9C
:10184000FFFFF76A520FF66E180EF7220900F550E7
:10185000120000FF02FFFFFFFFFFFFFFFFFFFFFF80
:10186000FFFFF76A720FF66E180EF7220900F550A7
:10187000120040000B0040000000000000000000CB
:101880000000000000000000000000000000000058
:101890000000F76AA20FF66E180EF7220900F55045
:1018A00012004000000040000000000000000000A6
:1018B0000000000000000000000000000000000028
:1018C0000000F76AD20FF66E180EF7220900F550E5
:1018D00012000902430002010080320904000001E5
:1018E000020201000524001001042402020524065E
:1018F00000010524010001070581030B00FA09041A
:101900000100020A0000000705020240000107056D
:10191000820240000100F76A260FF66E190EF722C8
:101920000900F55012000200F76A380FF66E190E22
:10193000F7220900F550120012171B20FFFFFFFFCE
:10194000F76A500FF66E190EF7220900F5501200D3
:101950001201100102000040610433000001010285
:101960000001F76A720FF66E190EF7220900F550A2
:101970001200040309040803430043005300180342
:10198000530045005200490041004C002000440033
:1019900045004D004F006D92699468A402D0689490
:1019A000FCD753EF14F0400E0401016F040E036FD7
:1019B000180E026F880E006F046B040E076F580E2E
:1019C000066F0001120070A002D0EDDF7090689ADF
:1019D0005CEF14F06A6A689262EF14F00101FC9106
:1019E000FBBFFC81FB9FFB51100803E2000E016E60
:1019F0001AD0FCA10DD0036AFB51000112DFFF08D1
:101A000002E1000E01D0010E016E01010CD00BD0DD
:101A1000036AFB51000115DFFF0802E1000E01D04F
:101A2000010E016E010100011200020102510403C6
:101A3000F3CF01F0F4CF00F00503F350002603517B
:101A40000403F3500020026E00011200036A01013A
:101A5000FA51700FE96E0F0E0320EA6EEF6AFAC1B9
:101A6000FBF10001BBDF015229E00201036BFAC167
:101A700002F2056B080E046F0001D7DF010101C0FF
:101A8000E9FF040E0224EA6EEF6A0201036BFAC159
:101A900002F2056B080E046F0001C7DF02C0FCF103
:101AA00001C0FBF1040E0101FB27000EFC23FBC16A
:101AB000E9FF040EFC25EA6EEF6A00011200010E38
:101AC0000101F96FF9510F0807E3F9C1FAF10001BB
:101AD000BDDF0101F92BF6D7000112000101F36B04
:101AE000F26B250EF16F800EF06FEA6A2C0EE96E34
:101AF000010EE26EF00EE16E020E016EE6CFEEFF19
:101B0000012EFCD72E6A2F6AF06BEA6A300EE96E5E
:101B1000010EE26EF00EE16EE6CFEEFFF06BEA6AC8
:101B2000310EE96E010EE26EF00EE16EE6CFEEFFD1
:101B3000080EF06FEA6A320EE96E010EE26EF00EE8
:101B4000E16EE6CFEEFF0001816B8091346A336A6B
:101B50007C6B7D91826B1200296A286A0101EF6B10
:101B6000EF5101080AE3036AEF512A0FE96E000EF4
:101B70000320EA6EEF6AEF2BF3D70001AFDF1B6A99
:101B8000010E1C6E1A6A1200689612006A6A686A70
:101B90009F0E6B6E3D0E696E6E6A91DFDDDF160E75
:101BA000706E68A602D0F0DFFCD76D98FCDE030EE5
:101BB000226E68EF14F0698468986D826EEF14F0FD
:101BC000689C74EF14F0F4C123F012002368120033
:101BD0000101F26B2850291033E0F2513F0830E345
:101BE0001D50000A000105E0020A0AE0010A0FE0A8
:101BF00014D027C003F0265064DEE8CFF3F10DD0F7
:101C000027C003F02650ADDEE8CFF3F106D027C0A1
:101C100003F0265095DEE8CFF3F1262AD8B4272A20
:101C20002850D8B4290628060101F251F22B580F8A
:101C3000E96E040EEA6ED8B0EA2AF3C1EFFFCAD704
:101C40002850291004E1F251400801E01A6AF2C15B
:101C5000F4F10001B8DF1200276A266A1D6A040148
:101C60001B51010A000107E0030A0BE0010A0DE025
:101C7000220A22E03AD0296A120E286E030E1D6E47
:101C800036D0296A430E286E32D0020E1D6E036ACA
:101C900004011A511E0FE96E000E0320EA6E276A36
:101CA000EFCF26F027C003F0265000015ADE036A6A
:101CB000286E03C029F01BD0036A04011A510001E9
:101CC00033DE036A266E03C027F0263C02D027527B
:101CD0000AE027C003F02650F4DD036A286E03C033
:101CE00029F005D002D072DF11D070DF0FD00401CF
:101CF0001F5308E1295203E128501E5D03E2296ABF
:101D00001EC428F0010E1A6E000162DFD8EF0FF03A
:101D10000101F15306E1040E226E0001D0DEECD089
:101D20000101050E226E040EF46F980EF36F010E82
:101D3000F26FF2510F08D8A0DFD0F2C1FAF1000122
:101D400085DE0101F56B036AF25100017ADDFF08BF
:101D500068E0040E0101F56FD890F235036A0001C6
:101D600098DD0900F5CF03F00101F66F03C0F7F12C
:101D70000201036BF2C102F2056B080E046F000151
:101D800054DE01C0F9F1010E01010124016E000EC3
:101D90000220036E01C0E9FF040E0324EA6EF6C1BF
:101DA000EFFF0201036BF2C102F2056B080E046F34
:101DB00000013BDE01C0F9F1020E01010124016EB8
:101DC000000E0220036E01C0E9FF040E0324EA6E38
:101DD000F4C1ECFFED52F3C1EFFFD890F235036A86
:101DE000000157DD0900F5CF03F00101F32703508F
:101DF000F423880EF86FF7B1F881F7B3F883020186
:101E0000036BF2C102F2056B080E046F00010DDED8
:101E1000010101C0E9FF040E0224EA6EF8C1EFFFE0
:101E20000001036A0101F2510001FBDCFF0849E0F7
:101E30000101F5830201036BF2C102F2056B080E8A
:101E4000046F0001F2DD02C0FAF101C0F9F1040EE5
:101E50000101F927000EFA23020EF925016E000E8A
:101E6000FA21036E01C0E9FF040E0324EA6EF4C1F7
:101E7000ECFFED52F3C1EFFFD890F235036A000199
:101E8000F0DC0900F5CF03F00101F3270350F42340
:101E90000201036BF2C102F2056B080E046F000130
:101EA000C4DD02C0FAF101C0F9F1040E0101F92705
:101EB000000EFA23F9C1E9FF040EFA25EA6E400E7E
:101EC000EF6E0101F551060802E10E0EF56F036A8F
:101ED000F2510001A6DC010803E00101F5890001CF
:101EE000036A0101F251700FE96E0F0E0320EA6ED2
:101EF000F5C1EFFFF22B1DD70001D1EF0FF0040168
:101F00001951000A00010DE0010A15E0020A20E063
:101F1000060A2AE0030A31E00E0A31E0010A37E03E
:101F200046D01CC058F40401596B020E0101F46F35
:101F3000000149DE3DD004011A2D07D0010E1C1608
:101F40000101F46B00013FDE02D000013FDE30D022
:101F500004011A2D06D01C820101F46B000133DE4E
:101F600002D0000133DE24D0020E1A6E1AC424F00F
:101F70000101F46B000127DE1BD06ED619D01BC007
:101F800058F4010E0101F46F00011DDE11D00401AF
:101F90001A5101080AE31AC41BF01AC4F1F1000136
:101FA000B7D60101F46B00010EDE000101D00EDE98
:101FB00073EF11F01BC0F1F104011951000A000187
:101FC00005E00A0A0CE0010A2BE03FD00401586B3F
:101FD000596B020E0101F46F0001F5DD37D00101EC
:101FE000F1531BE0010EF15D036A000194DC016E08
:101FF00004011C5DD8A002D001010FD0036A1C515E
:102000002A0FE96E000E0320EA6EEFCF58F4010E9E
:102010000101F46F0001D7DD02D00001D7DD16D039
:102020000101F1530FE0036A04011C512A0FE96E0C
:10203000000E0320EA6E1AC4EFFF0101F46B0001E9
:10204000C2DD02D00001C2DD01D0C0DD73EF11F0AE
:102050000101F291F1BFF281F19FF2A11AD00201C8
:10206000036BF1C102F2056B080E046F0001DDDCA9
:1020700002C0F4F101C0F3F1040E0101F327000ED8
:10208000F423F3C1E9FF040EF425EA6E880EEF6E27
:1020900010D00201036BF1C102F2056B080E046F50
:1020A0000001C3DC010101C0E9FF040E0224EA6E55
:1020B000EF6A0001E0EF10F00101F291F1BFF2814F
:1020C000F19FF2A11AD00201036BF1C102F2056B7C
:1020D000080E046F0001A9DC02C0F4F101C0F3F1A5
:1020E000040E0101F327000EF423F3C1E9FF040EEF
:1020F000F425EA6E840EEF6E11D00201036BF1C17C
:1021000002F2056B080E046F00018FDC010101C0B3
:10211000E9FF040E0224EA6E840EEF6E0001E8EF80
:1021200010F00101F291F1BFF281F19FF2A11AD0FA
:102130000201036BF1C102F2056B080E046F00018E
:1021400074DC02C0F5F101C0F4F1040E0101F427C2
:10215000000EF523F4C1E9FF040EF525EA6EEFCF7A
:10216000F3F111D00201036BF1C102F2056B080E0D
:10217000046F00015ADC010101C0E9FF040E0224D2
:10218000EA6EEFCFF3F1F3AF02D0F3B502D0000E59
:1021900001D0010E016E0001F4EF10F01CC4FBF140
:1021A0001DDC01522DE004011951010A000105E076
:1021B000020A0BE0030A11E022D01CC4F1F148D757
:1021C0000101F46B0001FFDC1BD01CC4F1F174D7DA
:1021D0000101F46B0001F7DC13D00401586B596B5B
:1021E0001CC4F1F100019DD7015203E0010E04016E
:1021F000586F020E0101F46F0001E5DC01D0E6DC4E
:1022000073EF11F0FE0E236E120004011C2D01D09D
:1022100002D01C534EE11951000A00010BE0010AE3
:102220000DE0210A1CE0010A1FE0030A30E0010A68
:1022300035E03DD0010E826FE5DF3AD0040EEA6E44
:10224000580EE96EE26A350EE16E080E016EE6CFB9
:10225000EEFF012EFCD71EC4F4F1B5DC29D0020E2E
:10226000826F8081CFDF24D0040EEA6E580EE96EB3
:10227000E26A2C0EE16E070E016EE6CFEEFF012E34
:10228000FCD7070E0101F46F00019DDC11D01AC4C8
:1022900081F00101F46B000196DC0AD01AC434F01D
:1022A0001BC433F00101F46B00018DDC01D08EDC26
:1022B0000401000173EF11F01A6A040118517F0B39
:1022C000000A000107E0010A07E0030A07E0230A09
:1022D00007E008D014D607D06DD605D05FD703D05D
:1022E00094D701D073DCE7EF13F00201036BF2C166
:1022F00002F2056B080E046F000115EC0DF00101F0
:1023000001C0E9FF040E0224EA6EEFCFF4F1F351AD
:10231000020806E1F4AD02D0F36B02D0010EF36FB8
:10232000F35103081DE1840EF46F0201036BF2C147
:1023300002F2056B080E046F000115EC0DF002C0EF
:10234000F8F101C0F7F1040E0101F727000EF823A0
:10235000F7C1E9FF040EF825EA6E840EEF6E07D090
:10236000F32D03D0C80EF46F02D0880EF46FD8900E
:10237000F235036A000149EC0CF00900F5CF03F0D7
:102380000101F56F03C0F6F10201036BF2C102F225
:10239000056B080E046F000115EC0DF001C0F7F19C
:1023A000010E01010124016E000E0220036E01C026
:1023B000E9FF040E0324EA6EF5C1EFFFF6B1F481E4
:1023C000F6B3F4830201036BF2C102F2056B080E4F
:1023D000046F000115EC0DF0010101C0E9FF040ECE
:1023E0000224EA6EF4C1EFFF00011200036A01014A
:1023F000FF51700FE96E0F0E0320EA6EEF521DE0E1
:102400000201036BFFC102F2056B080E046F0001AD
:1024100015EC0DF002C001F201C000F2040E020141
:102420000027000E012300C2E9FF040E0125EA6E19
:10243000EFCF02F202AF03D00101000E02D0010E75
:102440000101016E00011200FAC1FFF1CFDF01525C
:10245000D8B492D00201036BFAC102F2056B080EE8
:10246000046F000115EC0DF002C000F201C0FFF195
:10247000040E0101FF27000E02010023010E0101DD
:10248000FF25016E000E02010021036E01C0E9FF6D
:10249000040E0324EA6EFBC1EFFF0101FD510208A7
:1024A00024E10201036BFAC102F2056B080E046F0E
:1024B000000115EC0DF002C000F201C0FFF1040EA6
:1024C0000101FF27000E02010023FFC1E9FF040EF6
:1024D00002010025EA6EEFCFFEF10101FEAD02D050
:1024E000FD6B02D0010EFD6F1CD0FD51040819E1F7
:1024F0000201036BFAC102F2056B080E046F0001C2
:1025000015EC0DF001C0E9FF040E02010224EA6E91
:10251000EFCFFEF10101FEAD03D0010EFD6F01D042
:10252000FD6BFD2D03D0C80EFE6F02D0880EFE6F2E
:10253000FCB1FE81FCB3FE830201036BFAC102F21F
:10254000056B080E046F000115EC0DF002C000F2DF
:1025500001C0FFF1040E0101FF27000E020100235C
:10256000FFC1E9FF040E02010025EA6EFEC1EFFF84
:10257000010E016E04D00001000E016E0201000187
:1025800012008251010A03E0030A15E028D0EA6A2A
:10259000350EE96E040EE26E180EE16E080E016E45
:1025A000E6CFEEFF012EFCD70101F46B0001E3EC56
:1025B0000DF0826B15D0EA6A2C0EE96E040EE26E05
:1025C000180EE16E070E016EE6CFEEFF012EFCD76E
:1025D000826B0101F46B0001E3EC0DF001D0826B22
:1025E0002FEF13F00201036BF2C102F2056B080E2C
:1025F000046F000115EC0DF002C0F4F101C0F3F11D
:10260000010E01010124016E000E0220036E01C0C3
:10261000E9FF040E0324EA6E036AEFCF01F003C062
:1026200002F0000123EF13F07D91020E0101F26F21
:10263000F36F00015ADE12007D817F6B020E0101F3
:10264000F26F0001CFD701C07EF07E5301E1ECDFD5
:1026500036EF13F00101F15304E1000192D706D0E7
:102660000101F151020803E10001E6D70101000177
:102670001200F2C16EFF0101F25303E0040E226E5C
:1026800002D0020E226E00014BEF13F01B6A1A6A91
:1026900024C0F2F1EED7C1EF13F0F2C1FFF1A6DED4
:1026A000015247E00201036BF2C102F2056B080E12
:1026B000046F000115EC0DF002C0FBF101C0FAF14E
:1026C000040E0101FA27000EFB23020EFA25016E0B
:1026D000000EFB21036E01C0E9FF040E0324EA6E25
:1026E000ECCFF9F1ED52EFCFF8F1F9C1EAFFF8C103
:1026F000E9FFF4C1E2FFF3C1E1FFF6C102F0F5C169
:1027000001F0015202E0022A02D0025206E0E6CFB6
:10271000EEFF012EFCD7022EFAD7F2C1FAF1F6C174
:10272000FCF1F5C1FBF1F7C1FDF100018DDE0150B7
:1027300002D0000E016E12007C5310E0020E010167
:10274000F26FF46B3D0EF36FF66B7CC0F5F1020E89
:10275000F76F0001A2DF015201E07C6B1200ECDF99
:10276000C8EF13F00101F1530EE11A2C05D000015E
:10277000E8EC0DF006D001011A50020803E1000157
:1027800085D7010106D0F151020803E10001E7D726
:1027900001010001120021300101EF6FEF33EF332F
:1027A0001F0EEF1721524EE1040100513C0B0101B5
:1027B000F06F430E040100170101F051340825E1C8
:1027C00004010451800B01E0046B000175D56D9884
:1027D000233C07D00101F26B030EF36F000185DD8E
:1027E00012D00101F26B020EF36F00017EDD235067
:1027F000FE0809E00101FA6BFC6B23C0FBF1040E3B
:10280000FD6F000121DE1CD00101F051040819E127
:10281000F16B00011FDF0101F26B020EF36F00018B
:1028200064DD2350FE080CE0233C01D009D00101F7
:10283000FA6BFC6B23C0FBF1010EFD6F000104DE9F
:10284000010122D02150040812E12368F16B00013C
:1028500089DF233C01D009D00101FA6BFC6B23C056
:10286000FBF1020EFD6F0001EFDD0DD0010121B47F
:1028700006D0EFC1F1F10001EDDE05D00101EFC19D
:10288000F1F100016FDF0101000180EF14F0A19A66
:10289000225201E13ED068523CE068A404D069A411
:1028A00002D0CBEF0CF06DA201D033D068AA04D0D7
:1028B00069AA02D0E3EF0CF068A204D069A202D0AA
:1028C000EAEF0CF068A004D069A002D0C6EF0DF0CA
:1028D00068A804D069A802D0DBEF0DF068AC04D082
:1028E00069AC02D0E0EF0DF00101EE6B68A60AD0F2
:1028F00069A608D06CCF21F00001C4EC0DF04BD7D5
:1029000002D0010105D00101EE51EE2B0308EEE2E9
:102910000001EAEF0BF00101F451070B006EF431F6
:10292000016E013201321F0E01160150F625E96ECB
:10293000000EF721EA6E016A012A002A01D0013651
:10294000002EFDD7F55303E00150EF1203D0011E16
:102950000150EF160001120001011A2B1A51020852
:10296000D8A45FD11A6B0001CF510308D8A077D04B
:10297000C9C000F0D151016E04E0D8900032012EA0
:10298000FCD70050010B010869E1036AD151CA0F5D
:10299000E96E000E0320EA6EEF3C01D05FD0C6C0A6
:1029A00000F0D151016E04E0D8900032012EFCD726
:1029B0000050010B3CE1C8C000F0D151016E04E0B1
:1029C000D8900032012EFCD70050010B18E0D890AF
:1029D000D135036AAC0FE96E000E0320EA6EECCF2E
:1029E000F3F1ED52EFCFF2F1F2C1F4F10101F56B29
:1029F0000F0EF76F890EF66F00018DDF17D0D8909C
:102A0000D135036AB40FE96E000E0320EA6EECCFF5
:102A1000F3F1ED52EFCFF2F1F2C1F4F10101F56BF8
:102A20000F0EF76F890EF66F000175DF17D0D89083
:102A3000D135036AB40FE96E000E0320EA6EECCFC5
:102A4000F3F1ED52EFCFF2F1F2C1F4F10101F56BC8
:102A50000F0EF76F890EF66F00015DDF84D0010164
:102A6000EE6BEE510308D8A07ED0C9C000F0010182
:102A7000EE51016E04E0D8900032012EFCD70050D8
:102A8000010B0108D8A46DD0036AEE51CA0FE96E9C
:102A9000000E0320EA6EEF5264E0C6C000F00101B0
:102AA000EE51016E04E0D8900032012EFCD70050A8
:102AB000010B3FE1C8C000F00101EE51016E04E0DE
:102AC000D8900032012EFCD70050010B19E0D890AD
:102AD000EE35036AAC0FE96E000E0320EA6EECCF10
:102AE000F3F1ED52EFCFF2F1F2C1F4F1010EF56F17
:102AF0000F0EF76F890EF66F00010DDF18D0010180
:102B0000D890EE35036AB40FE96E000E0320EA6E2A
:102B1000ECCFF3F1ED52EFCFF2F1F2C1F4F1010E8F
:102B2000F56F0F0EF76F890EF66F0001F4DE18D007
:102B30000101D890EE35036AB40FE96E000E032050
:102B4000EA6EECCFF3F1ED52EFCFF2F1F2C1F4F116
:102B5000010EF56F0F0EF76F890EF66F0001DBDEC9
:102B60000101EE2B7ED70101EF69EE6BEE510408F7
:102B700024E3036AEE51CA0FE96E000E0320EA6EE9
:102B8000EF50EF5D18E3D0C000F00101EE51016E8F
:102B900004E0D8900032012EFCD70050010B0BE16D
:102BA000036AEE51CA0FE96E000E0320EA6EEFCF02
:102BB000EFF1EEC1F0F1EE2BD9D7010E006EF0511E
:102BC000016E04E0D8900036012EFCD700500001C1
:102BD000D013CF5103080DE3036AD151CA0FE96E38
:102BE000000E0320EA6EEF500101EF5DF16F04D09B
:102BF0000001EFC1F1F10101F0C1D1F00001CF51AD
:102C0000030801E1D06BCF51030802E3CF2B01D0C1
:102C1000CF6B0101F15305E10001CF53D8A4A4D635
:102C20000101FF0ED880F155D76AD66EF2940001EB
:102C3000EAEF0BF06D0ECF6E840ECE6ED32BD8B4B0
:102C4000D42BA25302E1A35304E0A251D8B4A307AA
:102C5000A20783A214D0A051D35D0101EE6F000141
:102C6000A151D4590101EF6FEF5303E1EE510F0869
:102C700007E2D4C0A1F0D3C0A0F00001808501011B
:102C80009E900001EAEF0BF09E92EAEF0BF09D6B35
:102C90009E6B9F6B8093A16BA06B8095A36BA26BC7
:102CA000C56BC66BC76BC86BC96B040ECF6FD06B9F
:102CB000D16BD26B80978093A36BA26BD46BD36BD9
:102CC000D66B0101176B196B186B1A6B1B6B5C6B66
:102CD000F2CFD0F1F29EF86A760EF76E080EF66E1D
:102CE0000900F5500800F5CF03F0F86AD0BFF28E66
:102CF000BD6F03C0BEF1C06BBF6BC26BC16BC46B59
:102D0000C36BC66BC56B0001C56B0101CF6BCF51A7
:102D100004080AE3036ACF51CA0FE96E000E0320CC
:102D2000EA6EEF68CF2BF3D7000173EF28F02F0E78
:102D3000926E030E936E000E946E020E956E070E49
:102D4000966EC150C00B0709C16EC050C00B070979
:102D5000C06EC08EC280000E016EC250C30B011047
:102D6000C26E8A9E8C9C89988C908B908B9201016C
:102D7000CF6BCF51030859E3D890CF35036AA40F26
:102D8000E96E000E0320EA6EECCFD1F1ED52EFCFE9
:102D9000D0F1196AF2BE198EF29ED0C1F4F1F56B32
:102DA0000F0EF76F890EF66F0001B5DD19BEF28EBA
:102DB000D8900101CF35036AAC0FE96E000E0320F5
:102DC000EA6EECCFD1F1ED52EFCFD0F1196AF2BE3D
:102DD000198EF29ED0C1F4F1F56B0F0EF76F890ECC
:102DE000F66F000198DD19BEF28ED8900101CF3543
:102DF000036AB40FE96E000E0320EA6EECCFD1F146
:102E0000ED52EFCFD0F1196AF2BE198EF29ED0C109
:102E1000F4F1F56B0F0EF76F890EF66F00017BDD95
:102E200019BEF28E0101CF2BA4D78B940C0EBD6E70
:102E3000B76AB66AB50ECD6E780E0609CA6EFA0E7E
:102E4000CB6EC70ED56EF28A9D809D82D76AD66AF8
:102E50006D0ECF6E840ECE6EC00EF212000175EFB5
:102E600028F0010EEA6EE10EE96EEF500EE00F0E53
:102E7000016E006A002EFED7012EFBD78F0E006E6A
:102E8000002EFED70000EF2EF2D71200320EBE6EDB
:102E90008C8089880101E16F0001E3DFBE6A320E98
:102EA0000101E16F0001DDDF8C908998320EBE6E6A
:102EB0000101E16F0001D5DFBE6A8C808988640E54
:102EC0000101E16F0001CDDF8C90899877EF28F048
:102ED0006D6A696A080E6F6E945030090101946E34
:102EE000226A196AF2BE198EF29E0001ACEC0DF056
:102EF00019BEF28E7DEF17F0EBD7A3EF17F0196A2A
:102F0000F2BE198EF29EACEC0DF019BEF28E6D6A17
:102F1000140E6F6E696A6D86010E226E93EF17F0C4
:102F20006DB601D0ECD7222C0BD06DBA09D0686AEF
:102F3000696AA08AC00EF212110E696E020E226E2C
:102F4000A4EF17F0D9D7ECD722500208FCE181EFAB
:102F500028F07DB101D0FDD77F517F2BA30FE96E03
:102F6000040EEA6ED8B0EA2AEFCFD7F17E517F5D2A
:102F700008E3196AF2BE198EF29E14EC13F019BE22
:102F8000F28E0101D7C101F0000122EF18F001011A
:102F9000D851016AD75D03E2D7C100F00CD0006AB6
:102FA000080ED96FD7370036D851005CD8B0006E04
:102FB0000136D92FF7D7000112000101DB91F2BED3
:102FC000DB81F29E00017C513E0802E23E0E7C6FE6
:102FD0007C517C2B036A3D0FE96E000E0320EA6EE4
:102FE000DAC1EFFFF29E0101DBB1F28E0001FCEFCE
:102FF00017F0D9C1DAF1E1D7196AF2BE198EF29E43
:10300000020E0101FF6F0001F6EC11F019BEF28E05
:10301000015208E0196AF2BE198EF29E9CEC13F080
:1030200019BEF28E1BEF18F07C513E0801E2FCD76E
:10303000D8C1D9F1DED712007DA123D09F5113084A
:1030400020E387D701C0D6F1036A9E51890FE96E4C
:10305000000E0320EA6ED6C1EFFF9E2B9EC0D7F173
:10306000140E0101D86F000192DF00C09EF09F2B6B
:10307000D6C1D8F1D9DF050E0101E16F0001F1DE03
:10308000DBD712009F5301E1D7DF9F5318E0036A9B
:103090009D51890FE96E000E0320EA6EEFCFD5F146
:1030A0009D2B9DC0D7F1140E0101D86F00016FDF79
:1030B00000C09DF09F070101D5C101F00001120081
:1030C0000101E0510001C55D12E00101E035006E33
:1030D0000036FC0E0016C250C30B0010C26EE0C1D9
:1030E000C5F0C70E006E002EFED700D00001C282D0
:1030F000C2B2FED7C4CF03F0C3CF01F0C4CF02F0F9
:103100001200E5C101F0E4C100F00066012A0900E7
:10311000F5CFEEFF002EFBD7012EF9D7F86A12008B
:10312000E3C119F1E2C118F1C00E010118171851DD
:10313000E25D176FF86A19C1F7FF18C1F6FFEA6A76
:10314000D70EE96EE56B400EE46F0001DADF120086
:103150000101D5C103F0D451D8B4D507D407D66F37
:1031600003C0D7F1D65302E1D75322E0D3C103F015
:10317000D251D22BD8B4D32B800FD66F5D0E032043
:10318000D76FF2CFD8F1F29EF86AF76ED6C1F6FF8C
:103190000900F5500800F5CF03F0F86AD8BFF28EA9
:1031A000D66F03C0D7F1D86F00013EDFD1D7010140
:1031B0000001D1EF1DF0F250036EF29EA68EA684A0
:1031C0000F01550EA76EAA0EA76EA682000003502F
:1031D000F21200011200D08CA69CF6501F0B006E5C
:1031E000E00EF6160A00E2C101F0006608D0F650C3
:1031F000010F3F0B04E1A6880900DDDF0A0000662D
:1032000007D0EECFF5FF015204E00F00010603D016
:1032100000060B000C001F0EF6141F0AE6E1CBDFC0
:103220000166E3D7F86A120001011751172B036AF0
:10323000D70FE96E000E0320EA6ED5C1EFFF1751DC
:10324000172B036AD70FE96E000E0320EA6ED651E2
:10325000EF6E17513F0833E219515D0804E32FE187
:10326000185130082CE2D08CF86A19C1F7FF18C148
:10327000F6FFA688A69C00019EDFF86AF86A19C1CD
:10328000F7FF18C1F6FFEA6AD70EE96E400E01019A
:10329000E26F0001A0DF0101176B400E1827000E3E
:1032A0001923F86A19C1F7FF18C1F6FFEA6AD70EA9
:1032B000E96EE56B400EE46F000123DF01010001C0
:1032C0001200010119515D0804E31CE11851300896
:1032D00019E2D08CF86A19C1F7FF18C1F6FFA68869
:1032E000A69C000168DFF86AF86A19C1F7FF18C1E7
:1032F000F6FFEA6AD70EE96E400E0101E26F0001A7
:103300006ADF0101000112000101D46BD36BC153CC
:1033100002E1C25330E00001B5DE01C0D2F101018B
:10332000D25180081DE1D66BD2C1D5F100017CDFFE
:10333000A9DE010101C0D4F1D36B0001A3DE01506D
:103340000101D327000ED423D4C1D6F1D3C1D5F1C6
:1033500000016ADF0101C151D8B4C207C10706D01C
:10336000D66BD2C1D5F100015FDF0101C151D8B4E4
:10337000C207C107CCD70001A4DF70EF1EF0320EE8
:10338000BE6E0101E16F00016CDDBE6A1200010139
:10339000E36BE35103082DE3C7C000F00101E351E3
:1033A000016E04E0D8900032012EFCD70050010BD2
:1033B0001EE0E2530FE1010E006EE351016E04E0E6
:1033C000D8900036012EFCD70050FF0A0001C61726
:1033D0000DD00101010E006EE351016E04E0D890A2
:1033E0000036012EFCD700500001C6130101E32B6B
:1033F000D0D700011200D8900101E335036AA40F71
:10340000E96E000E0320EA6EECCFE5F1ED52EFCF4E
:10341000E4F1196AF2BE198EF29EE4C1F4F1010ED4
:10342000F56F0F0EF76F890EF66F00018BEC14F03D
:1034300019BEF28E8A8E8C8CA8EF1AF0C851006EDD
:103440000101E251016E04E0D8900032012EFCD758
:103450000050010B3EE0D890E235036AB40FE96EEC
:10346000000E0320EA6EECCFE4F1ED52EFCFE3F172
:10347000196AF2BE198EF29EE3C1F4F1F56B0F0EDC
:10348000F76F890EF66F00018BEC14F019BEF28E07
:10349000D8900101E235036AAC0FE96E000E0320FB
:1034A000EA6EECCFE4F1ED52EFCFE3F1196AF2BE30
:1034B000198EF29EE3C1F4F1010EF56F0F0EF76F56
:1034C000890EF66F00018BEC14F019BEF28E3DD020
:1034D0000101D890E235036AB40FE96E000E0320B3
:1034E000EA6EECCFE4F1ED52EFCFE3F1196AF2BEF0
:1034F000198EF29EE3C1F4F1010EF56F0F0EF76F16
:10350000890EF66F00018BEC14F019BEF28ED89084
:103510000101E235036AAC0FE96E000E0320EA6E8A
:10352000ECCFE4F1ED52EFCFE3F1196AF2BE198E60
:10353000F29EE3C1F4F1F56B0F0EF76F890EF66F93
:1035400000018BEC14F019BEF28EE2C1E3F153D707
:10355000010E006E0101E251016E04E0D8900036C8
:10356000012EFCD700500001C91380EF1CF0D89049
:103570000101E335036AA40FE96E000E0320EA6E31
:10358000ECCFE6F1ED52EFCFE5F1196AF2BE198EFC
:10359000F29EE5C1F4F1F56B0F0EF76F890EF66F31
:1035A00000018BEC14F019BEF28E0101E3A104D0EE
:1035B000010EE35DE46F03D0010EE325E46FC9C0A3
:1035C00000F00101E451016E04E0D8900032012EB8
:1035D000FCD70050010B01E106D0E351010802E3E2
:1035E0008A9E01D08C9C000155EF1BF0D890010100
:1035F000E235036AB40FE96E000E0320EA6EECCFE9
:10360000E4F1ED52EFCFE3F1196AF2BE198EF29EAA
:10361000E3C1F4F1010EF56F0F0EF76F890EF66F2F
:1036200000018BEC14F019BEF28ED8900101E23546
:10363000036AAC0FE96E000E0320EA6EECCFE4F1F2
:10364000ED52EFCFE3F1196AF2BE198EF29EE3C19B
:10365000F4F1010EF56F0F0EF76F890EF66F000192
:103660008BEC14F019BEF28ED8900101E235036A9A
:10367000A40FE96E000E0320EA6EECCFE4F1ED52E8
:10368000EFCFE3F1196AF2BE198EF29EE3C1F4F1B5
:10369000F56B0F0EF76F890EF66F00018BEC14F0CF
:1036A00019BEF28EE2C1E3F162D7010E006E010194
:1036B000E251016E04E0D8900036012EFCD7005094
:1036C000FF0A0001C9171200D8900101E335036A0F
:1036D000AC0FE96E000E0320EA6EECCFE5F1ED527F
:1036E000EFCFE4F1196AF2BE198EF29EE4C1F4F153
:1036F000F56B0F0EF76F890EF66F00018BEC14F06F
:1037000019BEF28ED8900101E335036AB40FE96E59
:10371000000E0320EA6EECCFE5F1ED52EFCFE4F1BD
:10372000196AF2BE198EF29EE4C1F4F1010EF56F32
:103730000F0EF76F890EF66F00018BEC14F019BEB7
:10374000F28E010E006E0101E351016E04E0D8908B
:103750000036012EFCD70050FF0A0001C8171200E6
:10376000D8900101E335036AAC0FE96E000E032027
:10377000EA6EECCFE5F1ED52EFCFE4F1196AF2BE5B
:10378000198EF29EE4C1F4F1010EF56F0F0EF76F82
:10379000890EF66F00018BEC14F019BEF28ED890F2
:1037A0000101E335036AB40FE96E000E0320EA6EEF
:1037B000ECCFE5F1ED52EFCFE4F1196AF2BE198ECC
:1037C000F29EE4C1F4F1F56B0F0EF76F890EF66F00
:1037D00000018BEC14F019BEF28E010E006E010197
:1037E000E351016E04E0D8900036012EFCD7005062
:1037F0000001C8131200C851006E0101E251016EB0
:1038000004E0D8900032012EFCD70050010B06E0F6
:10381000E2C1E3F1000158DF05D00101E2C1E3F1AB
:1038200000019EDF8AEF1CF0D8900101E235036AA7
:10383000AC0FE96E000E0320EA6EECCFE4F1ED521E
:10384000EFCFE3F1196AF2BE198EF29EE3C1F4F1F3
:10385000F56B0F0EF76F890EF66F00018BEC14F00D
:1038600019BEF28ED8900101E235036AB40FE96EF9
:10387000000E0320EA6EECCFE4F1ED52EFCFE3F15E
:10388000196AF2BE198EF29EE3C1F4F1F56B0F0EC8
:10389000F76F890EF66F00018BEC14F019BEF28EF3
:1038A000010E006E0101E251016E04E0D890003675
:1038B000012EFCD70050FF0A0001C91799EF1CF038
:1038C0000101E16BE151030839E3C7C000F00101D8
:1038D000E151016E04E0D8900032012EFCD7005077
:1038E000010B2AE0E26B000152DD0101E051FA0F09
:1038F00023E2060F0001A0EF1CF0E1C1E2F19ED52A
:1039000001011AD0E1C1E2F171DE010115D0E1C17E
:10391000E2F171D7010110D0E1C1E3F121DF010132
:103920000BD0E1C1E3F1D0DE010106D0E1C1E2F14B
:103930007BD7010101D00101E12BC4D700011200A6
:10394000E824F76AF7365B0FF66E390EF7220A00A5
:10395000F550FA6E0800F550F96EFA3804390E3950
:10396000183922392C390101E36BE35103083CE398
:10397000C7C000F00101E351016E04E0D8900032AD
:10398000012EFCD70050010B2DE0010EE25DF90F76
:1039900020E2070F0001F6EF1CF0240E0101E26F98
:1039A00018D0490E0101E26F14D06E0E0101E26FD2
:1039B00010D0920E0101E26F0CD0B70E0101E26F40
:1039C00008D0DB0E0101E26F04D00101E26901D0F1
:1039D0000101036AE351CA0FE96E000E0320EA6E8B
:1039E000E2C1EFFFE32BC1D700011200E824F76A20
:1039F000F736070FF66E3A0EF7220A00F550FA6E08
:103A00000800F550F96E9A39A239AA39B239BA3993
:103A1000C239CA399F53D8B464D142EC18F001C0FE
:103A2000CFF1CFC1D2F080870101CF51000A000150
:103A30002FE0200A3AE0A30A55E0070AD8B496D04E
:103A4000010AD8B4B5D0030AD8B4C6D0420AD8B453
:103A5000C6D0040AD8B4C6D0010AD8B4C5D0BE0AAC
:103A6000D8B4C4D0B70AD8B4C6D0010AD8B4CBD021
:103A7000030AD8B4D0D0CF0AD8B4E4D0010AD8B45D
:103A8000E8D0020AD8B4FFD0010AD8B413D128D1A3
:103A9000010E0101D86F000114EC18F0010E0101B4
:103AA000D86F000114EC18F01BD142EC18F001C0E3
:103AB000CFF1CFC1E0F160EC18F002C0D1F101C04C
:103AC000D0F1D1C1D2F10101D36BD0C1D4F1D56B0A
:103AD000D1C1D8F1000114EC18F0D4C1D8F114EC24
:103AE00018F0FED08085808342EC18F001C0CFF141
:103AF0000101CFC1C0F1BF6B000142EC18F001C061
:103B0000CFF10101CF51BF13BF51F00BD26FC051A4
:103B10000F0BD36FD251F00819E1D3510F0816E102
:103B2000BF510F0BD26FD36BD890D235026ED33505
:103B3000036E0250F00FD26F7F0E0320D36F800E02
:103B4000D25DBF6F5D0ED359C06F03D0D890BF3721
:103B5000C037800EBF25D26F5D0EC021D36FE36FDB
:103B6000D2C1E2F1000190EC18F0BAD042EC18F0AA
:103B700001C0CFF10101CFC1C2F1C16B000142EC24
:103B800018F001C0CFF10101CF51C113C0C1D3F171
:103B9000BFC1D2F1C2C1D5F1C1C1D4F10001A8EFBA
:103BA00018F00101C151BF27C251C023000198D0B4
:103BB00042EC18F001C0CFF10101CFC1C2F1C16BDD
:103BC000000142EC18F001C0CFF10101CF51C11347
:103BD000000184EF19F084D08085809381D0BFEC00
:103BE00019F07ED08C807CD08C907AD042EC18F08A
:103BF00001C0C7F075D042EC18F001C0CFF1CFC1C1
:103C0000E0F15EDE6DD042EC18F001C0CFF1CFC123
:103C1000E2F1A9DE65D042EC18F001C0CFF1030E4D
:103C20000101E06F00014CDE010E0101E26F0001B5
:103C3000C7EC19F0CFC1E2F196DE0101E06B0001A3
:103C40003FDE4ED0460E0101D86F000114EC18F093
:103C500047D0F29CF29EF2BEFDD7F250006EF29E6B
:103C6000A96ACE0EA86EA69CA69EA6840F01550E2C
:103C7000A76EAA0EA76EA682A6B2FED7A694005083
:103C8000F212FF000001F250006EF29E020EA96EC9
:103C9000DB0EA86EA69CA69EA6840F01550EA76EED
:103CA000AA0EA76EA682A6B2FED7A6940050F21264
:103CB000000116D0F250006EF29E020EA96EA86AA4
:103CC000A69CA69EA6840F01550EA76EAA0EA76EEF
:103CD000A682A6B2FED7A6940050F212000100D030
:103CE00099D69AEF28F0D2C188F0D1C187F0D0C11F
:103CF00086F0CFC185F0ABEF28F0800E0101BF2523
:103D0000E46F5D0EC021F2CFE6F1F29EF86AF76E25
:103D1000E4C1F6FF0900F5500800F5CF03F0F86A9A
:103D2000E6BFF28EE26F03C0E3F1020EBF27000E82
:103D3000C023E2C101F0E3C102F000011200010161
:103D40005C5310E05C07D8905C35036A5D0FE96E48
:103D5000010E0320EA6EEFCF01F0E92AEF50E906E9
:103D6000026E06D000018093000E016E026E01010A
:103D70000001120001011B5310E01B07D8901B35F6
:103D8000036A1C0FE96E010E0320EA6EEFCF01F00B
:103D9000E92AEF50E906026E06D000018093000E7A
:103DA000016E026E01010001120001015C511F0849
:103DB00011E35C515C2B006ED89000360050036A12
:103DC0005D0FE96E010E0320EA6EE3C1ECFFED52D8
:103DD000E2C1EFFF0001120001011B511F080EE3B9
:103DE000D8901B35036A1C0FE96E010E0320EA6EA2
:103DF000E3C1ECFFED52E2C1EFFF1B2B000112000B
:103E00000101E86BE96B010EEA6FDA6AD96AED6FBE
:103E1000E00EEC6F010EEA6EE40EE96EEDC1E2FF1A
:103E2000ECC1E1FFEAC1EBF1D890E550EE02F350AE
:103E3000E823F450E923EB2FF7D7E8C1DEFFE9C10F
:103E4000E8F1E96BD8B0E92BEC2BD8B4ED2BEA2BD9
:103E5000EA510508DFE1000164EF1FF0016A026A20
:103E6000006A036A0101E65102E1E55118E0100E13
:103E7000E76FD890E337E43700360336E651035C4A
:103E800002E1E551005C07E3E551005ED8A00306BE
:103E9000E651035ED88001360236E72FEAD70001EB
:103EA000120088C0E3F187C0E2F186C0E1F185C06D
:103EB000E0F1410E0101E76FC60EE66F4E0EE56FB1
:103EC0006D0EE46F00019CD7390E01010024000142
:103ED000856F300E010101200001866F000E010187
:103EE00002200001876F000E010103200001886F8E
:103EF00087C000F088C001F0026A036A88C0E2F15E
:103F000087C0E1F188C0E4F187C0E3F17F0E0101D1
:103F1000E66FE5690001A2DF00C001F003C002F016
:103F20004DEF24F001011751172B036AD70FE96EEB
:103F3000000E0320EA6EE0C1EFFF1751172B036A52
:103F4000D70FE96E000E0320EA6EE151EF6E00011B
:103F500061EC19F012000101E46BE451030832E353
:103F6000C7C000F00101E451016E04E0D8900032B6
:103F7000012EFCD70050010B23E0D890E435036AF2
:103F8000BC0FE96E000E0320EA6EE2510001D3255A
:103F9000EF6E0101E3510001D421EC6E196AF2BE0B
:103FA000198EF29EE4C1F4F1010E0101F56FF76B79
:103FB000C40EF66F00018BEC14F019BEF28E0101F5
:103FC000E42BCBD7000172EF26F08988320E010175
:103FD000E16F000131EC17F08998020E0101E06FEA
:103FE000FA0EE16F000131EC17F00101E02FF8D774
:103FF0000001EBD712000101E26BE251030825E357
:10400000C7C000F00101E251016E04E0D890003217
:10401000012EFCD70050010B16E0036AE251CA0FD3
:10402000016E000E032203C0E4F1036AE251CA0FDD
:10403000E96E000E0320EA6EE151EF24E4C1EAFFCD
:1040400001C0E9FFEF6EE22BD8D700011200006A31
:10405000016A0101E051D890E1B10026003201323D
:10406000E1B3002600320132E1B500260032013210
:10407000E1B7002600320132E1B9002600320132F8
:10408000E1BB002600320132E1BD002600320132E0
:10409000E1BF00260032013200016BEF27F0C69E1F
:1040A0009E96E2C1C9FF020EC6BE05D09EA6FED7EF
:1040B000000EC5BC010E016E8DEF27F0C69CC586B3
:1040C000C5B6FED700B0C59A00A0C58AC588C5B8D8
:1040D000FED7C9CF01F099EF27F00101DA6BD96B58
:1040E000D1AF6DD0020EBF25D96F000EC021DA6F9F
:1040F000E16BD1C1E0F13F0EE017E16BE0C1E1F10E
:10410000E06B0001FADD02C003F001C002F0D890BC
:104110000236033602500101E025BF6F0350E12152
:10412000C06F0001EADD02C0D4F101C0D3F101018A
:10413000D1AD12D0D26B030ED325016E000ED42167
:10414000036E0150035203E10150D25D05E200010C
:10415000F6DD0101D22BEFD7D26BD45303E1D3515B
:10416000D25D0EE2000106DE02C0E1F101C0E0F125
:1041700002C0E3F101C0E2F118DE0101D22BEDD75C
:10418000E36B1BC1E2F1000110DEDAC1E3F1D9C13A
:10419000E2F10BDE020E0101D325016E000ED421E7
:1041A000036E01505C5DE06F000E0354E16FE36F3E
:1041B000E0C1E2F10001F9DDA8EF27F00101D151E2
:1041C000000A0001D8B455D1010AD8B45CD1030A61
:1041D000D8B465D1010AD8B479D1070AD8B491D13D
:1041E000010AD8B4C6D1030AD8B4E4D1010AD8B4BC
:1041F00019D20F0AD8B416D2010AD8B453D2030A7E
:10420000D8B48ED2010AD8B4A9D2070AD8B4CDD274
:10421000010AD8B4CFD2030AD8B4CFD2010AD8B495
:10422000E5D21F0AD8B4FDD2010AD8B40AD3030AD2
:10423000D8B40FD3010AD8B410D3070AD8B415D311
:10424000010AD8B41CD3030AD8B425D3010AD8B4C0
:1042500030D30F0AD8B42DD3010AD8B42AD3030A15
:10426000D8B427D3010AD8B424D3070AD8B421D3A9
:10427000010AD8B41ED3030AD8B41BD3010AD8B498
:1042800018D33F0AD8B415D3010AD8B412D3030AFD
:10429000D8B404EF25F0010AD8B414EF25F0070ACA
:1042A000D8B430EF25F0010AD8B44EEF25F0030A58
:1042B000D8B479EF25F0010AD8B4AAEF25F00F0A97
:1042C000D8B4D8EF25F0010AD8B4FEEF25F0030AE0
:1042D000D8B402EF26F0010AD8B40BEF26F0070A93
:1042E000D8B436EF26F0010AD8B438EF26F0030A26
:1042F000D8B43AEF26F0010AD8B43EEF26F01F0AF0
:10430000D8B442EF26F0030AD8B446EF26F0060AE6
:10431000D8B449EF26F0010AD8B44CEF26F0020ACF
:10432000D8B44FEF26F00A0AD8B452EF26F00D0A9F
:10433000D8B455EF26F0030AD8B455EF26F0090A91
:10434000D8B474EF26F0060AD8B480EF26F0030A3A
:10435000D8B480EF26F0010AD8B484EF26F07F0AA3
:10436000D8B488EF26F0010AD8B48CEF26F0030AFF
:10437000D8B490EF26F0060AD8B494EF26F0010ADC
:10438000D8B499EF26F0030AD8B4B7EF26F0010AA3
:10439000D8B4D1EF26F00F0AD8B4E2EF26F07F0AA6
:1043A000D8B4F3EF26F00F0AD8B4F3EF26F0710A71
:1043B000D8B4F3EF26F0030AD8B4F3EF26F0010ADD
:1043C000D8B4F3EF26F0070AD8B4F3EF26F0010AC9
:1043D000D8B4F3EF26F0030AD8B4F3EF26F0770A47
:1043E000D8B410EF27F0030AD8B410EF27F0750AFD
:1043F000D8B410EF27F01F0AD8B410EF27F0010A45
:10440000D8B410EF27F0030AD8B410EF27F0010A50
:10441000D8B410EF27F0070AD8B410EF27F0010A3C
:10442000D8B433EF27F0030AD8B437EF27F0010AE6
:10443000D8B43BEF27F00F0AD8B43BEF27F0010ABE
:10444000D8B43BEF27F0030AD8B473EF27F0010A82
:10445000D8B479EF27F0070AD8B47EEF27F0010A25
:10446000D8B483EF27F0030AD8B48FEF27F0A5EF75
:1044700027F08093929889980101C46BC36BC66B37
:10448000C56BA8EF27F039DC01C0DBF10101E36B5C
:10449000DBC1E2F10001A0DC0101A8EF27F02DDC77
:1044A00001C0DCF12ADC01C0DDF1DCC1DFF101017A
:1044B000DE6BDD51DE27000EDF23DFC1E3F1DEC15D
:1044C000E2F1000189DC0101A8EF27F0020E0101F1
:1044D000BF25E06F000EC021E16FE36FE0C1E2F1A4
:1044E00000017ADC0ADC02C003F001C002F0D890BF
:1044F0000236033602500101BF270350C023A8EF44
:1045000027F038DC02C0DAF101C0D9F10101C05155
:10451000DA5D09E303E1D951BF5D05E2DAC1C0F11B
:10452000D9C1BFF124D0DAC1C0F1D9C1BFF10001B6
:1045300021DC02C0C6F101C0C5F10101C65303E18F
:10454000C551010804E2C551D8B4C607C507C52D39
:1045500002D0C6530CE0C6C1E3F1C5C1E2F10001CF
:104560003BDCC0C1E3F1BFC1E2F136DC0101A8EFE1
:1045700027F000DC0150021009E0BAEC1EF0BAECA2
:104580001EF002C0C0F101C0BFF111D0BAEC1EF0A4
:1045900002C0C0F101C0BFF1C0C1E3F1BFC1E2F18F
:1045A0001BDC050E0101E16F000131EC17F0010188
:1045B000A8EF27F07DEC1EF002C003F0D890013484
:1045C0000101D96F0334DA6F00019FEC1EF002C0C5
:1045D000D4F101C0D3F1D4C1E3F1D3C1E2F1D5EC00
:1045E0001EF00101D951D325E06FDA51D421E16FDA
:1045F000D890E035026EE135036E02505D0FE96E32
:10460000010E0320EA6EECCFE1F1ED52EFCFE0F1C5
:10461000E1C1E3F1E0C1E2F10001ECEC1EF00101C7
:10462000A8EF27F00101D151080807E10001BAEC19
:104630001EF002C0DAF101C0D9F100019FEC1EF0BA
:1046400002C0D4F101C0D3F19FEC1EF002C0C0F152
:1046500001C0BFF19FEC1EF002C0D6F101C0D5F140
:104660000101D65308E11B51D55D05E20001BAEC0A
:104670001EF0F6D70101D45308E15C51D35D05E289
:1046800000019FEC1EF00101F6D7D151080808E1A6
:10469000DAC1E3F1D9C1E2F10001ECEC1EF0010155
:1046A000A8EF27F0BAEC1EF002C0C4F101C0C3F1BC
:1046B000BAEC1EF002C0C6F101C0C5F1C0C1E3F101
:1046C000BFC1E2F1ECEC1EF00101C65303E1C5519C
:1046D000010813E2C6C1E3F1C5C1E2F10001ECEC4F
:1046E0001EF0C4C1E3F1C3C1E2F1ECEC1EF0C4C1A1
:1046F000C0F1C3C1BFF111D00101C52D07D0C65310
:1047000005E1C4C1C0F1C3C1BFF108D00001BAECDA
:104710001EF002C0C0F101C0BFF10101A8EF27F0F7
:10472000BAEC1EF002C0D4F101C0D3F1BAEC1EF015
:1047300002C0D6F101C0D5F10101D551D6110CE06E
:10474000C0C1E3F1BFC1E2F10001ECEC1EF0D4C145
:10475000C0F1D3C1BFF10101A8EF27F0BAEC1EF000
:1047600002C0D4F101C0D3F1BAEC1EF002C0D6F100
:1047700001C0D5F1BAEC1EF002C0D8F101C0D7F1EA
:10478000C0C1E3F1BFC1E2F1ECEC1EF00101D75171
:10479000D81105E0D6C1C0F1D5C1BFF104D0D4C154
:1047A000C0F1D3C1BFF1A8EF27F0BFEC19F00101B0
:1047B000A8EF27F00101A8EF27F0BAEC1EF002C025
:1047C000C4F101C0C3F1C0C1E3F1BFC1E2F1ECEC3F
:1047D0001EF0C4C1E3F1C3C1E2F1ECEC1EF0C4C1B0
:1047E000C0F1C3C1BFF10101A8EF27F0BAEC1EF080
:1047F00002C0C4F101C0C3F10101C66BC56BE36B1C
:10480000E26B0001ECEC1EF0C4C1E3F1C3C1E2F1C4
:10481000ECEC1EF0C4C1C0F1C3C1BFF10101A8EFAF
:1048200027F0BAEC1EF0010101340001A26F010172
:1048300002340001A36FA237A337FC0EA2170101B7
:1048400087D3D4C0E3F1D3C0E2F1ECEC1EF0010158
:104850007FD3D46BD36B01017BD3BAEC1EF002C0C3
:10486000DAF101C0D9F1010173D30101E36BD2C0C8
:10487000E2F10001ECEC1EF08097010169D3000E1B
:1048800080B7010E0101E06FE36BE26F0001ECEC19
:104890001EF001015DD351EF1FF002C0E1F101C034
:1048A000E0F102C0E3F101C0E2F1ECEC1EF0010125
:1048B0004FD3BAEC1EF002C0D6F101C0D5F1BAEC6C
:1048C0001EF002C0D4F101C0D3F1170E0101D15D79
:1048D000F50FD8B090D00B0F0001ABEF27F001011E
:1048E000D551D327D651D42386D00101D551D35FDA
:1048F000D651D45B80D0196AF2BE198EF29ED4C113
:1049000003F2D3C102F2D6C105F2D5C104F215EC0F
:104910000DF019BEF28E02C0D4F101C0D3F1010135
:104920006AD0D4C1E4F1D3C1E3F1D6C1E6F1D5C177
:10493000E5F12EEC1FF002C0D4F101C0D3F101016A
:104940005AD0D4C1E4F1D3C1E3F1D6C1E6F1D5C167
:10495000E5F12EEC1FF000C0D3F1010103C0D4F14A
:104960004AD00101D551D35D03E1D651D45D02E0B7
:10497000000E01D0010ED46BD36F3DD00101D65192
:10498000D45D04E305E1D351D55D02E3000E01D00F
:10499000010ED46BD36F2FD00101D451D65D04E347
:1049A00005E1D551D35D02E3000E01D0010ED46BB9
:1049B000D36F21D00101D351D41103E0D551D611C9
:1049C00002E1000E01D0010ED46BD36F14D00101AF
:1049D000D351D41105E1D551D61102E1000E01D019
:1049E000010ED46BD36F07D00101D551D31BD65123
:1049F000D41B01D00101D4C1E3F1D3C1E2F1000124
:104A0000ECEC1EF00101A4D2BAEC1EF00150021031
:104A1000000ED8B4010E0101E06FE36BE26F0001FC
:104A2000ECEC1EF0010194D2BAEC1EF002C0DAF1F7
:104A300001C0D9F1BAEC1EF002C0E1F1D890010139
:104A40000134026EE135036E02509D0FE96E010ED6
:104A50000320EA6EDAC1ECFFED52D9C1EFFF78D244
:104A6000BAEC1EF002C0E1F1D89001010134026EEF
:104A7000E135036E02509D0FE96E010E0320EA6ED0
:104A8000ECCFE1F1ED52EFCFE0F1E1C1E3F1E0C1B4
:104A9000E2F10001ECEC1EF001015AD2BAEC1EF07A
:104AA00002C0D6F101C0D5F1BAEC1EF0D8900101D8
:104AB0000134D36F0234D46F0001BAEC1EF001C090
:104AC000D9F10101670E0224DA6FD351D925E06FC5
:104AD000D451DA21E16FE36FE0C1E2F1000190EC23
:104AE00018F0D6C1E1F1D5C1E0F192EC1FF001015F
:104AF0002FD2BAEC1EF0D89001010134D36F0234EA
:104B0000D46F0001BAEC1EF001C0D9F10101670EAB
:104B10000224DA6FD351D925E06FD451DA21F2CFD4
:104B2000E2F1F29EF86AF76EE0C1F6FF0900F55077
:104B30000800F5CF03F0F86AE2BFF28ED56F03C02C
:104B4000D6F1D6C1E3F1D5C1E2F10001ECEC1EF0E3
:104B50000101FED1BAEC1EF002C0DAF101C0D9F1B8
:104B60000101BEC103F0BD51BD2BD8B4BE2BC00F97
:104B7000E06F590E0320E16FE36FE0C1E2F1000145
:104B800090EC18F0DAC1E1F1D9C1E0F192EC1FF03C
:104B9000760E0101E36F080EE26F000190EC18F051
:104BA000BEC1E1F1BDC1E0F192EC1FF00101D0D135
:104BB0000101BEC103F0BD51BD2BD8B4BE2BC00F47
:104BC000E06F590E0320F2CFE2F1F29EF86AF76E21
:104BD000E0C1F6FF0900F5500800F5CF03F0F86AD0
:104BE000E2BFF28ED96F03C0DAF1DAC1E3F1D9C1C5
:104BF000E2F10001ECEC1EF00101AAD10101BE6B53
:104C0000BD6BA6D1BAEC1EF0D89001010134BD6F86
:104C10000234BE6F9DD1BAEC1EF0D8900101013470
:104C2000D36F0234D46FDA6BD96BDA51D45D1BE3E6
:104C300003E1D351D95D17E2C00ED925E06F590EBB
:104C4000DA21E16FE36FE0C1E2F1000190EC18F0CE
:104C50000101E16BE06B000192EC1FF00101D92B27
:104C6000D8B4DA2BE2D7BE6BBD6B72D1010170D123
:104C700001016ED1010EC76F01016AD1020EC76F2B
:104C8000010166D1030EC76F010162D10101D22B70
:104C900000010101D22B00010101D22B0001010111
:104CA000D22B00010101D22B0001D2C1E0F160EC56
:104CB0001CF00101D151320816E10001BAEC1EF0DE
:104CC00002C0E1F101C0E0F10101E037E137E03776
:104CD000E137FC0EE017E1C1E3F1E0C1E2F10001D0
:104CE000ABEF1FF0010134D1BAEC1EF002C0E1F1CC
:104CF00001C0E0F101C0E2F1B3EC1CF0010128D1E8
:104D0000E5EC1FF0010124D1040EC76F010120D191
:104D1000080EC76F01011CD10C0EC76F010118D11D
:104D20000F0EC76F010114D18093929889980101E9
:104D30000FD1BAEC1EF0F2CFE2F1F29EF86A02C097
:104D4000F7FF01C0F6FF0900F5500800F5CF03F0AA
:104D5000F86A0101E2BFF28EE06F03C0E1F103C027
:104D6000E3F1E26F0001ECEC1EF00101F1D0BAECCE
:104D70001EF002C0D4F101C0D3F1BAEC1EF002C0A3
:104D8000D6F101C0D5F1D6C1E3F1D5C1E2F190EC85
:104D900018F0D4C1E1F1D3C1E0F192EC1FF00101B0
:104DA000D7D0BAEC1EF002C0E1F101C0E0F1010180
:104DB000E16BE1C1E3F101C0E2F10001ECEC1EF0B6
:104DC0000101C6D0BAEC1EF002C0E1F102C0E0F170
:104DD0000101E16BE1C1E3F102C0E2F10001ECECA1
:104DE0001EF00101B5D00101D151480804E3370E8E
:104DF000D15DD26F04D0490ED15D020FD26FD2C106
:104E0000E0F1000160EC18F002C0E1F101C0E0F156
:104E100002C0E3F101C0E2F1ECEC1EF0010198D018
:104E20000101D1514E0804E3390ED15DD26F04D097
:104E30004F0ED15D020FD26FD2C1E0F1000160ECE4
:104E400018F002C0E1F1010102C0E0F1E16BD8907D
:104E5000E133E033E1C1E3F1E0C1E2F10001ECEC68
:104E60001EF0010175D095908C80010171D0959054
:104E70008C9001016DD00101E06B000160EC1CF031
:104E8000030E0101E06F000160EC1CF0010E010156
:104E9000E26F0001C7EC19F0BAEC1EF001C0D2F1CC
:104EA0000101D151570807E1D2C1E2F10001B3EC91
:104EB0001CF017D00101D151580807E1D2C1E1F12E
:104EC0000001FBEC1FF00DD00101E069D2C1E1F15E
:104ED000000127EF20F001C0E0F101C0E1F1FBEC9F
:104EE0001FF0010135D0BAEC1EF001C0C7F001017E
:104EF0002FD0C580C5B0FED701012AD0C584C5B466
:104F0000FED7010125D0BAEC1EF002C0E1F101C0CC
:104F1000E0F101C0E2F14FEF20F0010119D0BAEC4D
:104F20001EF002C0E1F101C0E0F101C000F05EEF4F
:104F300020F001C0E0F10101E36B01C0E2F10001EA
:104F4000ECEC1EF0010104D00001E5EC1FF00101C2
:104F50000001EFEF28F0E824F76AF736710FF66EDC
:104F60004F0EF7220A00F550FA6E0800F550F96E60
:104F7000DE48EA48F6482249424962497C49984954
:104F8000B449CE49E8490101CF51070B006ECF313A
:104F9000016E013201321F0E01160150D025E96E5B
:104FA000000ED121EA6EEFCF01F0002A01D00132CC
:104FB000002EFDD70001FBEF28F0F86AD09E078E87
:104FC000EA6AE96A93829380770EC86E280EC66EED
:104FD000C78EC79C8093A16BA06B8095A36BA26BBF
:104FE000C66BC86BC96B040ECF6FD06BD16B80974B
:104FF000D46BD36BD56BD66B0101176B1A6BC46B7B
:10500000C36BC66BC56BC150C00B0F09C16E070ED9
:10501000B46E1E6A040E1F6E0C0E206E0001836BB0
:10502000846B0E0EA46F7C0EA56F0B0EA66F7C0E0C
:10503000A76F1D0EA86F7C0EA96F1A0EAA6F7C0EAB
:10504000AB6F0D0EAC6F7C0EAD6F0A0EAE6F7C0EAB
:10505000AF6F1C0EB06F7C0EB16F160EB26F7C0E70
:10506000B36F0C0EB46F7C0EB56F1F0EB66F7C0E57
:10507000B76F1B0EB86F7C0EB96F170EBA6F7C0E30
:10508000BB6FBC6BBD6BBE6BBF6BC06BC16BC26BD0
:10509000C36BC46BCA69CB69CC69CD69CE690101A8
:1050A0009D6B9E6B9F6BA06BA16BA26BA36BA46BA4
:1050B000A56BA66BA76BA86BA96BAA6BAB6BAC6B54
:1050C000AD6BAE6BAF6BB06BB16BB26BB36BB46B04
:1050D000B56BB66BB76BB86BB96BBA6BBB6BBC6BB4
:1050E000000147EF16F097EF16F046EF17F0196A38
:1050F000F2BE198EF29E6EEC0DF019BEF28EA2EF8A
:1051000017F0F2CFCFF1F29E020EA96EA69CA69EDA
:10511000A680A8500101CFBFF28ECD6FCD51DB0824
:1051200004E1000180858093010100011CEC18F06E
:105130000AEF1DF080A544D080A303D08093899806
:105140003CD00101D26BD16BD4C0D0F1D3C0CFF130
:10515000000173EF1EF0F2CFCFF1F29EF86A7F0EDE
:10516000F76EF00EF66E0900F5500800F5CF03F06B
:10517000F86A0101CFBFF28ECF6FD06FCF6BF2CF45
:10518000D1F1F29EF86A7F0EF76EF20EF66E09000C
:10519000F5500800F5CF03F0F86AD1BFF28ECF25A5
:1051A000BF6F0350D021C06FD890BF37C0371B6B83
:1051B0005C6B0001809780838988A36BA26B8095CC
:1051C00080A30DD0A251A3110AE17DEC1EF002C014
:1051D000D0F101C0CFF101C0D1F16DEF20F001019C
:1051E000CE6BCE5103083AE3CEC1CFF1D16BC40EE2
:1051F000D06F0001C8D6000E01B0010E010B0108EE
:105200002AE1D8900101CE35036ABC0FE96E000E89
:105210000320EA6EECCF03F0ED52EFCF01F0035024
:105220000001D45D18E303E1D351015C14E2CEC167
:10523000E2F1F6EC1AF0196AF2BE198EF29ECEC1B6
:10524000F4F10101F56BF76BC40EF66F00018BEC06
:1052500014F019BEF28E0101CE2BC3D766D703001E
:020000040030CA
:0E00000024CE3E1E0087A1000FC00FE00F406F
:00000001FF
;PIC18F4550
;CRC=DE18  CREATED="15-Nov-13 23:18"
