:0417500015EF28F079
:08175800046ED8CF05F0E0CFCC
:1017600006F00001E9CF0CF0EACF07F0E1CF08F076
:10177000E2CF09F0D9CF0AF0DACF0BF0F3CF12F0B5
:10178000F4CF13F0FACF14F0F5CF15F0F6CF16F032
:10179000F7CF17F000C00EF001C00FF002C010F03C
:1017A00003C011F0F2AAD8EF0BF0F2B4ADEF14F0D1
:1017B0009DA0DEEF0BF09EB01FEF16F09DA2E4EFB0
:1017C0000BF09EB24DEF16F0A0AAEAEF0BF0A1BA13
:1017D00048EF14F00EC000F00FC001F010C002F08E
:1017E00011C003F00CC0E9FF07C0EAFF078E08C074
:1017F000E1FF09C0E2FF0AC0D9FF0BC0DAFF12C047
:10180000F3FF13C0F4FF14C0FAFF15C0F5FF16C0B4
:10181000F6FF17C0F7FF045006C0E0FF05C0D8FF71
:101820001000F76A320FF66E180EF7220900F55015
:101830001200000302FFFFFFFFFFFFFFFFFFFFFF9C
:10184000FFFFF76A520FF66E180EF7220900F550E7
:10185000120000FF02FFFFFFFFFFFFFFFFFFFFFF80
:10186000FFFFF76A720FF66E180EF7220900F550A7
:10187000120040000B0040000000000000000000CB
:101880000000000000000000000000000000000058
:101890000000F76AA20FF66E180EF7220900F55045
:1018A00012004000000040000000000000000000A6
:1018B0000000000000000000000000000000000028
:1018C0000000F76AD20FF66E180EF7220900F550E5
:1018D00012000902430002010080320904000001E5
:1018E000020201000524001001042402020524065E
:1018F00000010524010001070581030B00FA09041A
:101900000100020A0000000705020240000107056D
:10191000820240000100F76A260FF66E190EF722C8
:101920000900F55012000200F76A380FF66E190E22
:10193000F7220900F550120012171B20FFFFFFFFCE
:10194000F76A500FF66E190EF7220900F5501200D3
:101950001201100102000040610433000001010285
:101960000001F76A720FF66E190EF7220900F550A2
:101970001200040309040803430043005300180342
:10198000530045005200490041004C002000440033
:1019900045004D004F006D92699468A402D0689490
:1019A000FCD754EF14F0400E0401016F040E036FD6
:1019B000180E026F880E006F046B040E076F580E2E
:1019C000066F0001120070A002D0EDDF7090689ADF
:1019D0005DEF14F06A6A689263EF14F00101FE9102
:1019E000FDBFFE81FD9FFD51100803E2000E016E58
:1019F0001AD0FEA10DD0036AFD51000112DFFF08CD
:101A000002E1000E01D0010E016E01010CD00BD0DD
:101A1000036AFD51000115DFFF0802E1000E01D04D
:101A2000010E016E010100011200020102510403C6
:101A3000F3CF01F0F4CF00F00503F350002603517B
:101A40000403F3500020026E00011200036A01013A
:101A5000FC51700FE96E0F0E0320EA6EEF6AFCC1B5
:101A6000FDF10001BBDF015229E00201036BFCC163
:101A700002F2056B080E046F0001D7DF010101C0FF
:101A8000E9FF040E0224EA6EEF6A0201036BFCC157
:101A900002F2056B080E046F0001C7DF02C0FEF101
:101AA00001C0FDF1040E0101FD27000EFE23FDC162
:101AB000E9FF040EFE25EA6EEF6A00011200010E36
:101AC0000101FB6FFB510F0807E3FBC1FCF10001B3
:101AD000BDDF0101FB2BF6D7000112000101F56B00
:101AE000F46B250EF36F800EF26FEA6A2C0EE96E2E
:101AF000010EE26EF20EE16E020E016EE6CFEEFF17
:101B0000012EFCD72E6A2F6AF26BEA6A300EE96E5C
:101B1000010EE26EF20EE16EE6CFEEFFF26BEA6AC4
:101B2000310EE96E010EE26EF20EE16EE6CFEEFFCF
:101B3000080EF26FEA6A320EE96E010EE26EF20EE4
:101B4000E16EE6CFEEFF0001816B8091346A336A6B
:101B50007C6B7D91826B1200296A286A0101F16B0E
:101B6000F15101080AE3036AF1512A0FE96E000EF0
:101B70000320EA6EEF6AF12BF3D70001AFDF1B6A97
:101B8000010E1C6E1A6A1200689612006A6A686A70
:101B90009F0E6B6E3D0E696E6E6A91DFDDDF160E75
:101BA000706E68A602D0F0DFFCD76D98FCDE030EE5
:101BB000226E69EF14F0698468986D826FEF14F0FB
:101BC000689C75EF14F0F6C123F012002368120030
:101BD0000101F46B2850291033E0F4513F0830E341
:101BE0001D50000A000105E0020A0AE0010A0FE0A8
:101BF00014D027C003F0265064DEE8CFF5F10DD0F5
:101C000027C003F02650ADDEE8CFF5F106D027C09F
:101C100003F0265095DEE8CFF5F1262AD8B4272A1E
:101C20002850D8B4290628060101F451F42B580F86
:101C3000E96E040EEA6ED8B0EA2AF5C1EFFFCAD702
:101C40002850291004E1F451400801E01A6AF4C157
:101C5000F6F10001B8DF1200276A266A1D6A040146
:101C60001B51010A000107E0030A0BE0010A0DE025
:101C7000220A22E03AD0296A120E286E030E1D6E47
:101C800036D0296A430E286E32D0020E1D6E036ACA
:101C900004011A511E0FE96E000E0320EA6E276A36
:101CA000EFCF26F027C003F0265000015ADE036A6A
:101CB000286E03C029F01BD0036A04011A510001E9
:101CC00033DE036A266E03C027F0263C02D027527B
:101CD0000AE027C003F02650F4DD036A286E03C033
:101CE00029F005D002D072DF11D070DF0FD00401CF
:101CF0001F5308E1295203E128501E5D03E2296ABF
:101D00001EC428F0010E1A6E000162DFD8EF0FF03A
:101D10000101F35306E1040E226E0001D0DEECD087
:101D20000101050E226E040EF66F980EF56F010E7E
:101D3000F46FF4510F08D8A0DFD0F4C1FCF100011A
:101D400085DE0101F76B036AF45100017ADDFF08BB
:101D500068E0040E0101F76FD890F435036A0001C2
:101D600098DD0900F5CF03F00101F86F03C0F9F128
:101D70000201036BF4C102F2056B080E046F00014F
:101D800054DE01C0FBF1010E01010124016E000EC1
:101D90000220036E01C0E9FF040E0324EA6EF8C1BD
:101DA000EFFF0201036BF4C102F2056B080E046F32
:101DB00000013BDE01C0FBF1020E01010124016EB6
:101DC000000E0220036E01C0E9FF040E0324EA6E38
:101DD000F6C1ECFFED52F5C1EFFFD890F435036A80
:101DE000000157DD0900F5CF03F00101F52703508D
:101DF000F623880EFA6FF9B1FA81F9B3FA8302017A
:101E0000036BF4C102F2056B080E046F00010DDED6
:101E1000010101C0E9FF040E0224EA6EFAC1EFFFDE
:101E20000001036A0101F4510001FBDCFF0849E0F5
:101E30000101F7830201036BF4C102F2056B080E86
:101E4000046F0001F2DD02C0FCF101C0FBF1040EE1
:101E50000101FB27000EFC23020EFB25016E000E84
:101E6000FC21036E01C0E9FF040E0324EA6EF6C1F3
:101E7000ECFFED52F5C1EFFFD890F435036A000195
:101E8000F0DC0900F5CF03F00101F5270350F6233C
:101E90000201036BF4C102F2056B080E046F00012E
:101EA000C4DD02C0FCF101C0FBF1040E0101FB27FF
:101EB000000EFC23FBC1E9FF040EFC25EA6E400E78
:101EC000EF6E0101F751060802E10E0EF76F036A8B
:101ED000F4510001A6DC010803E00101F7890001CB
:101EE000036A0101F451700FE96E0F0E0320EA6ED0
:101EF000F7C1EFFFF42B1DD70001D1EF0FF0040164
:101F00001951000A00010DE0010A15E0020A20E063
:101F1000060A2AE0030A31E00E0A31E0010A37E03E
:101F200046D01CC058F40401596B020E0101F66F33
:101F3000000149DE3DD004011A2D07D0010E1C1608
:101F40000101F66B00013FDE02D000013FDE30D020
:101F500004011A2D06D01C820101F66B000133DE4C
:101F600002D0000133DE24D0020E1A6E1AC424F00F
:101F70000101F66B000127DE1BD06ED619D01BC005
:101F800058F4010E0101F66F00011DDE11D00401AD
:101F90001A5101080AE31AC41BF01AC4F3F1000134
:101FA000B7D60101F66B00010EDE000101D00EDE96
:101FB00073EF11F01BC0F3F104011951000A000185
:101FC00005E00A0A0CE0010A2BE03FD00401586B3F
:101FD000596B020E0101F66F0001F5DD37D00101EA
:101FE000F3531BE0010EF35D036A000194DC016E04
:101FF00004011C5DD8A002D001010FD0036A1C515E
:102000002A0FE96E000E0320EA6EEFCF58F4010E9E
:102010000101F66F0001D7DD02D00001D7DD16D037
:102020000101F3530FE0036A04011C512A0FE96E0A
:10203000000E0320EA6E1AC4EFFF0101F66B0001E7
:10204000C2DD02D00001C2DD01D0C0DD73EF11F0AE
:102050000101F491F3BFF481F39FF4A11AD00201BE
:10206000036BF3C102F2056B080E046F0001DDDCA7
:1020700002C0F6F101C0F5F1040E0101F527000ED2
:10208000F623F5C1E9FF040EF625EA6E880EEF6E21
:1020900010D00201036BF3C102F2056B080E046F4E
:1020A0000001C3DC010101C0E9FF040E0224EA6E55
:1020B000EF6A0001E0EF10F00101F491F3BFF48149
:1020C000F39FF4A11AD00201036BF3C102F2056B76
:1020D000080E046F0001A9DC02C0F6F101C0F5F1A1
:1020E000040E0101F527000EF623F5C1E9FF040EE9
:1020F000F625EA6E840EEF6E11D00201036BF3C178
:1021000002F2056B080E046F00018FDC010101C0B3
:10211000E9FF040E0224EA6E840EEF6E0001E8EF80
:1021200010F00101F491F3BFF481F39FF4A11AD0F0
:102130000201036BF3C102F2056B080E046F00018C
:1021400074DC02C0F7F101C0F6F1040E0101F627BC
:10215000000EF723F6C1E9FF040EF725EA6EEFCF74
:10216000F5F111D00201036BF3C102F2056B080E09
:10217000046F00015ADC010101C0E9FF040E0224D2
:10218000EA6EEFCFF5F1F5AF02D0F5B502D0000E53
:1021900001D0010E016E0001F4EF10F01CC4FDF13E
:1021A0001DDC01522DE004011951010A000105E076
:1021B000020A0BE0030A11E022D01CC4F3F148D755
:1021C0000101F66B0001FFDC1BD01CC4F3F174D7D6
:1021D0000101F66B0001F7DC13D00401586B596B59
:1021E0001CC4F3F100019DD7015203E0010E04016C
:1021F000586F020E0101F66F0001E5DC01D0E6DC4C
:1022000073EF11F0FE0E236E120004011C2D01D09D
:1022100002D01C534EE11951000A00010BE0010AE3
:102220000DE0210A1CE0010A1FE0030A30E0010A68
:1022300035E03DD0010E826FE5DF3AD0040EEA6E44
:10224000580EE96EE26A350EE16E080E016EE6CFB9
:10225000EEFF012EFCD71EC4F6F1B5DC29D0020E2C
:10226000826F8081CFDF24D0040EEA6E580EE96EB3
:10227000E26A2C0EE16E070E016EE6CFEEFF012E34
:10228000FCD7070E0101F66F00019DDC11D01AC4C6
:1022900081F00101F66B000196DC0AD01AC434F01B
:1022A0001BC433F00101F66B00018DDC01D08EDC24
:1022B0000401000173EF11F01A6A040118517F0B39
:1022C000000A000107E0010A07E0030A07E0230A09
:1022D00007E008D014D607D06DD605D05FD703D05D
:1022E00094D701D073DCE8EF13F00201036BF4C163
:1022F00002F2056B080E046F000115EC0DF00101F0
:1023000001C0E9FF040E0224EA6EEFCFF6F1F551A9
:10231000020806E1F6AD02D0F56B02D0010EF56FB2
:10232000F55103081DE1840EF66F0201036BF4C141
:1023300002F2056B080E046F000115EC0DF002C0EF
:10234000FAF101C0F9F1040E0101F927000EFA2398
:10235000F9C1E9FF040EFA25EA6E840EEF6E07D08C
:10236000F52D03D0C80EF66F02D0880EF66FD89008
:10237000F435036A000149EC0CF00900F5CF03F0D5
:102380000101F76F03C0F8F10201036BF4C102F21F
:10239000056B080E046F000115EC0DF001C0F9F19A
:1023A000010E01010124016E000E0220036E01C026
:1023B000E9FF040E0324EA6EF7C1EFFFF8B1F681DE
:1023C000F8B3F6830201036BF4C102F2056B080E49
:1023D000046F000115EC0DF0010101C0E9FF040ECE
:1023E0000224EA6EF6C1EFFF00011200036A020147
:1023F0000151700FE96E0F0E0320EA6EEF521BE0E1
:10240000036B01C202F2056B080E046F000115ECAC
:102410000DF002C003F201C002F2040E0201022715
:10242000000E032302C2E9FF040E0325EA6EEFCF7C
:1024300004F204AF02D0000E01D0010E016E0001C3
:102440001200FCC101F2D2DF0152D8B496D00201D1
:10245000036BFCC102F2056B080E046F000115EC62
:102460000DF002C002F201C001F2040E02010127C8
:10247000000E0223010E0125016E000E0221036EE3
:1024800001C0E9FF040E0324EA6EFDC1EFFF010164
:10249000FF51020823E10201036BFCC102F2056B4C
:1024A000080E046F000115EC0DF002C002F201C02D
:1024B00001F2040E02010127000E022301C2E9FF0E
:1024C000040E0225EA6EEFCF00F200AD03D0010149
:1024D000FF6B03D0010E0101FF6F1DD0FF510408F7
:1024E0001AE10201036BFCC102F2056B080E046FD6
:1024F000000115EC0DF0020101C0E9FF040E0224F9
:10250000EA6EEFCF00F200AD04D0010E0101FF6FC3
:1025100002D00101FF6BFF2D04D0C80E0201006F35
:1025200003D0880E0201006F0101FEA103D0020159
:1025300000810101FEA303D0020100830101020119
:10254000036BFCC102F2056B080E046F000115EC71
:102550000DF002C002F201C001F2040E02010127D7
:10256000000E022301C2E9FF040E0225EA6E00C23A
:10257000EFFF010E016E04D00001000E016E02019A
:10258000000112008251010A03E0030A15E028D07D
:10259000EA6A350EE96E040EE26E180EE16E080E60
:1025A000016EE6CFEEFF012EFCD70101F66B0001B4
:1025B000E3EC0DF0826B15D0EA6A2C0EE96E040E86
:1025C000E26E180EE16E070E016EE6CFEEFF012EF1
:1025D000FCD7826B0101F66B0001E3EC0DF001D03A
:1025E000826B30EF13F00201036BF4C102F2056B52
:1025F000080E046F000115EC0DF002C0F6F101C0E9
:10260000F5F1010E01010124016E000E0220036E9E
:1026100001C0E9FF040E0324EA6E036AEFCF01F064
:1026200003C002F0000124EF13F07D91020E0101BE
:10263000F46FF56F000159DE12007D817F6B020E91
:102640000101F46F0001CFD701C07EF07E5301E19C
:10265000ECDF37EF13F00101F35304E1000192D7EF
:1026600006D00101F351020803E10001E6D70101A0
:1026700000011200F4C16EFF0101F45303E0040EE7
:10268000226E02D0020E226E00014CEF13F01B6A84
:102690001A6A24C0F4F1EED7C2EF13F0F4C101F2CC
:1026A000A5DE015247E00201036BF4C102F2056BA3
:1026B000080E046F000115EC0DF002C0FDF101C021
:1026C000FCF1040E0101FC27000EFD23020EFC2587
:1026D000016E000EFD21036E01C0E9FF040E03240C
:1026E000EA6EECCFFBF1ED52EFCFFAF1FBC1EAFF5E
:1026F000FAC1E9FFF6C1E2FFF5C1E1FFF8C102F05E
:10270000F7C101F0015202E0022A02D0025206E0B3
:10271000E6CFEEFF012EFCD7022EFAD7F4C1FCF172
:10272000F8C1FEF1F7C1FDF1F9C1FFF1000189DE49
:10273000015002D0000E016E12007C5310E0020E18
:102740000101F46FF66B3D0EF56FF86B7CC0F7F18D
:10275000020EF96F0001A2DF015201E07C6B120052
:10276000ECDFC9EF13F00101F3530EE11A2C05D091
:102770000001E8EC0DF006D001011A50020803E157
:10278000000185D7010106D0F351020803E10001E1
:10279000E7D701010001120021300101F16FF1338F
:1027A000F1331F0EF11721524EE1040100513C0B91
:1027B0000101F26F430E040100170101F2513408C8
:1027C00025E104010451800B01E0046B000174D584
:1027D0006D98233C07D00101F46B030EF56F0001E7
:1027E00084DD12D00101F46B020EF56F00017DDD76
:1027F0002350FE0809E00101FC6BFE6B23C0FDF1D4
:10280000040EFF6F00011DDE1CD00101F25104080F
:1028100019E1F36B00011FDF0101F46B020EF56F8C
:10282000000163DD2350FE080CE0233C01D009D0F9
:102830000101FC6BFE6B23C0FDF1010EFF6F000177
:1028400000DE010122D02150040812E12368F36B5D
:10285000000189DF233C01D009D00101FC6BFE6B34
:1028600023C0FDF1020EFF6F0001EBDD0DD0010171
:1028700021B406D0F1C1F3F10001EDDE05D0010174
:10288000F1C1F3F100016FDF0101000181EF14F0EC
:10289000A19A225201E13ED068523CE068A404D0E3
:1028A00069A402D0CBEF0CF06DA201D033D068AA9E
:1028B00004D069AA02D0E3EF0CF068A204D069A2A8
:1028C00002D0EAEF0CF068A004D069A002D0C6EFF5
:1028D0000DF068A804D069A802D0DBEF0DF068AC59
:1028E00004D069AC02D0E0EF0DF00101F06B68A6F6
:1028F0000AD069A608D06CCF21F00001C4EC0DF01D
:102900004BD702D0010105D00101F051F02B030893
:10291000EEE20001EAEF0BF00101F651070B006E49
:10292000F631016E013201321F0E01160150F825F9
:10293000E96E000EF921EA6E016A012A002A01D02F
:102940000136002EFDD7F75303E00150EF1203D0FC
:10295000011E0150EF160001120001011A2B1A513D
:102960000208D8A463D11A6B0001B6510308D8A09D
:1029700077D0B0C000F0B851016E04E0D8900032BA
:10298000012EFCD70050010B010869E1036AB85120
:10299000B10FE96E000E0320EA6EEF3C01D05FD06C
:1029A000ADC000F0B851016E04E0D8900032012EA5
:1029B000FCD70050010B3CE1AFC000F0B851016EF4
:1029C00004E0D8900032012EFCD70050010B18E033
:1029D000D890B835036A950FE96E000E0320EA6EB1
:1029E000ECCFF5F1ED52EFCFF4F1F4C1F6F10101C6
:1029F000F76B0F0EF96F890EF86F00018DDF17D09E
:102A0000D890B835036A9D0FE96E000E0320EA6E78
:102A1000ECCFF5F1ED52EFCFF4F1F4C1F6F1010195
:102A2000F76B0F0EF96F890EF86F000175DF17D085
:102A3000D890B835036A9D0FE96E000E0320EA6E48
:102A4000ECCFF5F1ED52EFCFF4F1F4C1F6F1010165
:102A5000F76B0F0EF96F890EF86F00015DDF84D000
:102A60000101F06BF0510308D8A07ED0B0C000F097
:102A70000101F051016E04E0D8900032012EFCD724
:102A80000050010B0108D8A46DD0036AF051B10FBA
:102A9000E96E000E0320EA6EEF5264E0ADC000F074
:102AA0000101F051016E04E0D8900032012EFCD7F4
:102AB0000050010B3FE1AFC000F00101F051016E89
:102AC00004E0D8900032012EFCD70050010B19E031
:102AD000D890F035036A950FE96E000E0320EA6E78
:102AE000ECCFF5F1ED52EFCFF4F1F4C1F6F1010EB8
:102AF000F76F0F0EF96F890EF86F00010DDF18D018
:102B00000101D890F035036A9D0FE96E000E032095
:102B1000EA6EECCFF5F1ED52EFCFF4F1F4C1F6F13E
:102B2000010EF76F0F0EF96F890EF86F0001F4DEDA
:102B300018D00101D890F035036A9D0FE96E000EA0
:102B40000320EA6EECCFF5F1ED52EFCFF4F1F4C1D2
:102B5000F6F1010EF76F0F0EF96F890EF86F000195
:102B6000DBDE0101F02B7ED70101F169F06BF05142
:102B7000040824E3036AF051B10FE96E000E03204C
:102B8000EA6EEF50F15D18E3B7C000F00101F051BB
:102B9000016E04E0D8900032012EFCD70050010BEA
:102BA0000BE1036AF051B10FE96E000E0320EA6EEB
:102BB000EFCFF1F1F0C1F2F1F02BD9D7010E006E99
:102BC000F251016E04E0D8900036012EFCD700507F
:102BD0000001B713B65103080DE3036AB851B10FF2
:102BE000E96E000E0320EA6EEF500101F15DF36F14
:102BF00004D00001F1C1F3F10101F2C1B8F000010C
:102C0000B651030801E1B76BB651030802E3B62BD6
:102C100001D0B66B0101F35304E10001B653D8A40F
:102C2000A4D60001B65301E180890101FF0ED880CE
:102C3000F355D76AD66EF2940001EAEF0BF06D0EF1
:102C4000CF6E840ECE6EBA2BD8B4BB2BA52D01D07F
:102C500001D0BC2B8B5302E18C5304E08B51D8B4D0
:102C60008C078B0783A214D08951BA5D0101F06FE4
:102C700000018A51BB590101F16FF15303E1F05199
:102C80000F0807E2BBC08AF0BAC089F00001808556
:102C900001019E900001EAEF0BF09E92EAEF0BF02B
:102CA00080938A6B896B80958C6B8B6B010EA56F03
:102CB000A66BA76BA86BA96BAA6BAB6B809780996F
:102CC000AC6BAD6BAE6BAF6BB06B040EB66FB76B2E
:102CD000B86BB96B809B80938C6B8B6BBB6BBA6B47
:102CE000BC6BD16BD26BD36BD46BD66BD56B010144
:102CF000176B196B186B1A6B1B6B5C6BF2CFD3F1F4
:102D0000F29EF86A760EF76E080EF66E0900F55020
:102D10000800F5CF03F0F86AD3BFF28EBD6F03C091
:102D2000BEF1C06BBF6BC26BC16BC46BC36BC66BB8
:102D3000C56B0001809DAC6B0101D26BD2510408C0
:102D40000AE3036AD251B10FE96E000E0320EA6E66
:102D5000EF68D22BF3D70001E6EF16F0010EEA6E12
:102D6000E30EE96EEF500EE00F0E016E006A002ECA
:102D7000FED7012EFBD78F0E006E002EFED700006F
:102D8000EF2EF2D71200320EBE6E8C8089880101C0
:102D9000E36F0001E3DFBE6A320E0101E36F000161
:102DA000DDDF8C908998320EBE6E0101E36F000169
:102DB000D5DFBE6A8C808988640E0101E36F000153
:102DC000CDDF8C9089987FEF17F06AD72F0E926E27
:102DD000030E936E000E946E020E956E070E966EA5
:102DE000C150C00B0709C16EC050C00B0709C06EAF
:102DF000C08EC280000E016EC250C30B0110C26EA5
:102E00008A9E8C9C89988C908B908B920101D16BBF
:102E1000D151030859E3D890D135036A8D0FE96E7B
:102E2000000E0320EA6EECCFD3F1ED52EFCFD2F1DA
:102E3000196AF2BE198EF29ED2C1F6F1F76B0F0E2F
:102E4000F96F890EF86F000167DD19BEF28ED89018
:102E50000101D135036A950FE96E000E0320EA6E79
:102E6000ECCFD3F1ED52EFCFD2F1196AF2BE198E49
:102E7000F29ED2C1F6F1F76B0F0EF96F890EF86F63
:102E800000014ADD19BEF28ED8900101D135036AE6
:102E90009D0FE96E000E0320EA6EECCFD3F1ED52E8
:102EA000EFCFD2F1196AF2BE198EF29ED2C1F6F1BD
:102EB000F76B0F0EF96F890EF86F00012DDD19BE4B
:102EC000F28E0101D12BA4D78B940C0EBD6EB76A84
:102ED000B66AB50ECD6E780E0609CA6EFA0ECB6EC6
:102EE000C70ED56EF28A9D809D82D76AD66A6D0E16
:102EF000CF6E840ECE6EC00EF212000144D7ABEF3F
:102F000028F06D6A696A080E6F6E945030090101ED
:102F1000946E226A196AF2BE198EF29E0001ACEC20
:102F20000DF019BEF28E96EF17F0EBD7BCEF17F04D
:102F3000196AF2BE198EF29EACEC0DF019BEF28E3B
:102F40006D6A140E6F6E696A6D86010E226EACEFAB
:102F500017F06DB601D0ECD7222C0BD06DBA09D08A
:102F6000686A696AA08AC00EF212110E696E020EBA
:102F7000226EBDEF17F0D9D7ECD722500208FCE142
:102F8000B5EF28F07DB101D0FDD77F517F2BA30F86
:102F9000E96E040EEA6ED8B0EA2AEFCFD3F17E5183
:102FA0007F5D08E3196AF2BE198EF29E15EC13F0EC
:102FB00019BEF28E0101D3C101F00001F0EF17F04C
:102FC0007DA124D0D3531CE1036AD151BD0F016E02
:102FD000000E032201C0D1F103C0D2F10001D2D70B
:102FE000D2C1EAFFD1C1E9FF01C0EFFFD12BD1511E
:102FF000130801E2D16BD251D15D02E1010ED36F12
:10300000050E0101E36F0001A9DEDAD7B7EF28F062
:10301000D32D0FD0D36B020E0101D66F0001D16BFF
:10302000D26B0101D4C1E9FFD5C1EAFFEF6A2AD012
:103030000001D151D25D09E10101D66BD4C1E9FF94
:10304000D5C1EAFFEF6A1ED00001D5C103F001012E
:10305000036A0001D251BD0FE96E000E0320EA6E33
:10306000EFCFD9F10101D5C1EAFFD4C1E9FFD9C140
:10307000EFFF0001D22BD251130801E2D26B010EF7
:103080000101D66FD6C101F0000198EF19F00101DE
:10309000DD91F2BEDD81F29E00017C513E0802E22C
:1030A0003E0E7C6F7C517C2B036A3D0FE96E000E57
:1030B0000320EA6EDCC1EFFFF29E0101DDB1F28E6A
:1030C000000166EF18F0DBC1DCF1E1D7196AF2BE4E
:1030D000198EF29E020E0201016F0001F6EC11F052
:1030E00019BEF28E015208E0196AF2BE198EF29EE4
:1030F0009DEC13F019BEF28E85EF18F07C513E085E
:1031000001E2FCD7DAC1DBF1DED71200320EBE6E6F
:103110000101E36F000122DEBE6A1200E7C101F087
:10312000E6C100F00066012A0900F5CFEEFF002E8F
:10313000FBD7012EF9D7F86A1200E5C119F1E4C1F5
:1031400018F1C00E010118171851E45D176FF86AE5
:1031500019C1F7FF18C1F6FFEA6AD70EE96EE76BEF
:10316000400EE66F0001DADF12000101D7C103F063
:10317000D651D8B4D707D607D86F03C0D9F1D853E2
:1031800002E1D95322E0D5C103F0D451D42BD8B4F5
:10319000D52B800FD86F5D0E0320D96FF2CFDAF1F7
:1031A000F29EF86AF76ED8C1F6FF0900F5500800E4
:1031B000F5CF03F0F86ADABFF28ED86F03C0D9F109
:1031C000DA6F00019BDFD1D701010001AAEF1AF0ED
:1031D000F250036EF29EA68EA6840F01550EA76EC6
:1031E000AA0EA76EA68200000350F2120001120080
:1031F000D08CA69CF6501F0B006EE00EF6160A004F
:10320000E4C101F0006608D0F650010F3F0B04E165
:10321000A6880900DDDF0A00006607D0EECFF5FFC3
:10322000015204E00F00010603D000060B000C0061
:103230001F0EF6141F0AE6E1CBDF0166E3D7F86A3A
:10324000120001011751172B036AD70FE96E000E08
:103250000320EA6ED4C1EFFF1751172B036AD70F73
:10326000E96E000E0320EA6ED551EF6E17513F084C
:1032700033E219515D0804E32FE1185130082CE2C4
:10328000D08CF86A19C1F7FF18C1F6FFA688A69C72
:1032900000019EDFF86AF86A19C1F7FF18C1F6FF4E
:1032A000EA6AD70EE96E400E0101E46F0001A0DF6B
:1032B0000101176B400E1827000E1923F86A19C177
:1032C000F7FF18C1F6FFEA6AD70EE96EE76B400E0A
:1032D000E66F000123DF0101000112000101195115
:1032E0005D0804E31CE11851300819E2D08CF86A3B
:1032F00019C1F7FF18C1F6FFA688A69C000168DF78
:10330000F86AF86A19C1F7FF18C1F6FFEA6AD70E22
:10331000E96E400E0101E46F00016ADF0101000166
:103320001200010E0101D56FD10ED46F000170D6CD
:1033300001C0D2F10101D22D98D10001BC6BD1C1E5
:10334000B9F0808BD1C1DAF1D9DEA551010A25E0AF
:10335000030AD8B471D0010AD8B477D0070AD8B418
:1033600097D0010AD8B49AD0850AD8B499D0010A66
:10337000D8B49FD0030AD8B4D7D0010AD8B4DDD0CE
:10338000070AD8B4F1D0010AD8B4F7D0030AD8B4E8
:10339000FCD0010AD8B453D15CD10101D151540AF7
:1033A000000111E0D70A14E0070A16E0010A18E04C
:1033B000030A1AE0010A21E0430A23E0040A26E096
:1033C000010A29E02DD0020EA56F0101D38129D079
:1033D000800EA56F010125D0820EA56F010121D0BD
:1033E000840EA56F01011DD00101D38100018085EC
:1033F0008093010EA56F010114D0870EA56F010106
:1034000010D084DE010EA56F01010BD08C80010E5F
:10341000A56F010106D08C90010EA56F010101D0AE
:103420000101D3B107D0000180938C6B8B6B89981D
:10343000AA6B0101D39110D10101D151FE0804E121
:10344000030E0001A56F010107D10101D151E00B6D
:10345000006E00380001A66FA633070EA617010103
:10346000D1511C0B006E00300001A76FA7333F0E37
:10347000A7170101D151030B0001A86FA651030842
:1034800003E2040EA56F02D0050EA56F0101E4D082
:10349000D1C1A9F0050EA56F0101DED00101DCD07C
:1034A0000101D1C1C0F1BF6B810E0001A56F010107
:1034B000D3D00101D151BF13010E0001A56F01014D
:1034C000BF51F00BD46FC0510F0BD56FD451F00822
:1034D0001BE1D5510F0818E1BF510F0BD46FD56B0D
:1034E000D890D435026ED535036E0250F00FD46FEC
:1034F0007F0E0320D56F800ED45DBF6F5D0ED55952
:10350000C06F320EBE6E03D0D890BF37C037800E6A
:10351000BF25D46F5D0EC021D56FE56FD4C1E4F136
:1035200000010BDE010198D00101D1C1C2F1C16BD4
:10353000830E0001A56F01018FD00101D151C1138C
:10354000C0C1D5F1BFC1D4F1C2C1D7F1C1C1D6F15B
:1035500000010BD60101C151BF27C251C023010E8A
:103560000001A56F010178D00101D1C1C2F1C16B89
:10357000850E0001A56F01016FD00101D151C1136A
:10358000860E0001A56F010167D0BE6AD451020802
:103590001BE10101D1510001D527000ED623D46BC8
:1035A000D6C0D5F1D5C0D4F14CDE0101C151D8B49B
:1035B000C207C12F07D0C25305E100018FDE010E03
:1035C000A56F01013BD00001D42D09D0D66BD1C12C
:1035D000D5F0D5C0D6F0D56B020ED46F2ED0010138
:1035E000D151800819E1010E0001D46FD66BD56B63
:1035F0000101D56BD1C1D4F1000123DE0101C1511C
:10360000D8B4C207C12F07D0C25305E1000166DE5E
:10361000010EA56F010112D0D56BD1C1D4F100010B
:1036200010DE0101C151D8B4C207C12F07D0C25367
:1036300005E1000153DE010EA56F01010DD0370E2B
:103640000101DA6F00015ADD010EA56F010104D0FE
:103650000001010EA56F01010001A551050803E15C
:10366000010103D000015DD60101D251020804E13D
:10367000010E0001A56F01010001B9EF28F0340E21
:103680000101DA6F00013ADD82EF29F00101E25118
:103690000001AC5D12E00101E235006E0036FC0E67
:1036A0000016C250C30B0010C26EE2C1ACF0C70ED0
:1036B000006E002EFED700D00001C282C2B2FED73B
:1036C000C4CF03F0C3CF01F0C4CF02F01200010158
:1036D000E56BE55103082DE3AEC000F00101E551B3
:1036E000016E04E0D8900032012EFCD70050010B8F
:1036F0001EE0E4530FE1010E006EE551016E04E09F
:10370000D8900036012EFCD70050FF0A0001AD17FB
:103710000DD00101010E006EE551016E04E0D8905C
:103720000036012EFCD700500001AD130101E52B3E
:10373000D0D700011200D8900101E535036A8D0F42
:10374000E96E000E0320EA6EECCFE7F1ED52EFCF09
:10375000E6F1196AF2BE198EF29EE6C1F6F1010E8B
:10376000F76F0F0EF96F890EF86F00018CEC14F0F3
:1037700019BEF28E8A8E8C8C48EF1CF0AF51006E11
:103780000101E451016E04E0D8900032012EFCD713
:103790000050010B3EE0D890E435036A9D0FE96EBE
:1037A000000E0320EA6EECCFE6F1ED52EFCFE5F12B
:1037B000196AF2BE198EF29EE5C1F6F1F76B0F0E93
:1037C000F96F890EF86F00018CEC14F019BEF28EBF
:1037D000D8900101E435036A950FE96E000E0320CD
:1037E000EA6EECCFE6F1ED52EFCFE5F1196AF2BEE9
:1037F000198EF29EE5C1F6F1010EF76F0F0EF96F0B
:10380000890EF86F00018CEC14F019BEF28E3DD0D9
:103810000101D890E435036A9D0FE96E000E032084
:10382000EA6EECCFE6F1ED52EFCFE5F1196AF2BEA8
:10383000198EF29EE5C1F6F1010EF76F0F0EF96FCA
:10384000890EF86F00018CEC14F019BEF28ED8903E
:103850000101E435036A950FE96E000E0320EA6E5C
:10386000ECCFE6F1ED52EFCFE5F1196AF2BE198E19
:10387000F29EE5C1F6F1F76B0F0EF96F890EF86F46
:1038800000018CEC14F019BEF28EE4C1E5F153D7BF
:10389000010E006E0101E451016E04E0D890003683
:1038A000012EFCD700500001B01321EF1EF0D8907C
:1038B0000101E535036A8D0FE96E000E0320EA6E03
:1038C000ECCFE8F1ED52EFCFE7F1196AF2BE198EB5
:1038D000F29EE7C1F6F1F76B0F0EF96F890EF86FE4
:1038E00000018CEC14F019BEF28E0101E5A104D0A8
:1038F000010EE55DE66F03D0010EE525E66FB0C071
:1039000000F00101E651016E04E0D8900032012E72
:10391000FCD70050010B01E106D0E551010802E39C
:103920008A9E01D08C9C0001F5EF1CF0D89001011B
:10393000E435036A9D0FE96E000E0320EA6EECCFBA
:10394000E6F1ED52EFCFE5F1196AF2BE198EF29E63
:10395000E5C1F6F1010EF76F0F0EF96F890EF86FE2
:1039600000018CEC14F019BEF28ED8900101E43500
:10397000036A950FE96E000E0320EA6EECCFE6F1C4
:10398000ED52EFCFE5F1196AF2BE198EF29EE5C154
:10399000F6F1010EF76F0F0EF96F890EF86F000147
:1039A0008CEC14F019BEF28ED8900101E435036A54
:1039B0008D0FE96E000E0320EA6EECCFE6F1ED52BA
:1039C000EFCFE5F1196AF2BE198EF29EE5C1F6F16C
:1039D000F76B0F0EF96F890EF86F00018CEC14F085
:1039E00019BEF28EE4C1E5F162D7010E006E01014D
:1039F000E451016E04E0D8900036012EFCD700504F
:103A0000FF0A0001B01726EF1EF0D8900101E5353E
:103A1000036A950FE96E000E0320EA6EECCFE7F122
:103A2000ED52EFCFE6F1196AF2BE198EF29EE6C1B1
:103A3000F6F1F76B0F0EF96F890EF86F00018CEC41
:103A400014F019BEF28ED8900101E535036A9D0F7E
:103A5000E96E000E0320EA6EECCFE7F1ED52EFCFF6
:103A6000E6F1196AF2BE198EF29EE6C1F6F1010E78
:103A7000F76F0F0EF96F890EF86F00018CEC14F0E0
:103A800019BEF28E010E006E0101E551016E04E0D7
:103A9000D8900036012EFCD70050FF0A0001AF1766
:103AA0001200D8900101E535036A950FE96E000E0A
:103AB0000320EA6EECCFE7F1ED52EFCFE6F1196AA1
:103AC000F2BE198EF29EE6C1F6F1010EF76F0F0EEF
:103AD000F96F890EF86F00018CEC14F019BEF28EAC
:103AE000D8900101E535036A9D0FE96E000E0320B1
:103AF000EA6EECCFE7F1ED52EFCFE6F1196AF2BED4
:103B0000198EF29EE6C1F6F1F76B0F0EF96F890E72
:103B1000F86F00018CEC14F019BEF28E010E006EED
:103B20000101E551016E04E0D8900036012EFCD76A
:103B300000500001AF131200AF51006E0101E451BB
:103B4000016E04E0D8900032012EFCD70050010B2A
:103B500006E0E4C1E5F1000158DF05D00101E4C150
:103B6000E5F100019EDF2BEF1EF0D8900101E43556
:103B7000036A950FE96E000E0320EA6EECCFE6F1C2
:103B8000ED52EFCFE5F1196AF2BE198EF29EE5C152
:103B9000F6F1F76B0F0EF96F890EF86F00018CECE0
:103BA00014F019BEF28ED8900101E435036A9D0F1E
:103BB000E96E000E0320EA6EECCFE6F1ED52EFCF96
:103BC000E5F1196AF2BE198EF29EE5C1F6F1F76BC6
:103BD0000F0EF96F890EF86F00018CEC14F019BE0E
:103BE000F28E010E006E0101E451016E04E0D890E6
:103BF0000036012EFCD70050FF0A0001B0173AEF43
:103C00001EF00101E36BE351030839E3AEC000F09D
:103C10000101E351016E04E0D8900032012EFCD77F
:103C20000050010B2AE0E46B000151DD0101E2517B
:103C3000FA0F23E2060F000141EF1EF0E3C1E4F1A9
:103C40009DD501011AD0E3C1E4F170D6010115D070
:103C5000E3C1E4F171D7010110D0E3C1E5F121DF47
:103C600001010BD0E3C1E5F1D0DE010106D0E3C1D3
:103C7000E4F17BD7010101D00101E32BC4D700019E
:103C80001200E824F76AF7369D0FF66E3C0EF72215
:103C90000A00F550FA6E0800F550F96E3C3C463CBF
:103CA000503C5A3C643C6E3C0101E56BE551030815
:103CB0003CE3AEC000F00101E551016E04E0D89094
:103CC0000032012EFCD70050010B2DE0010EE45D07
:103CD000F90F20E2070F000197EF1EF0240E0101FB
:103CE000E46F18D0490E0101E46F14D06E0E01018B
:103CF000E46F10D0920E0101E46F0CD0B70E0101F9
:103D0000E46F08D0DB0E0101E46F04D00101E46927
:103D100001D00101036AE551B10FE96E000E0320E5
:103D2000EA6EE4C1EFFFE52BC1D700011200E824E1
:103D3000F76AF736490FF66E3D0EF7220A00F55086
:103D4000FA6E0800F550F96EDC3CE43CEC3CF43CC7
:103D5000FC3C043D0C3DD1C1AAF00101D25304E06A
:103D60000001808703D001010001809756EF29F000
:103D7000C69E9E96E4C1C9FF020EC6BE05D09EA691
:103D8000FED7000EC5BC010E016E1200C69CC58692
:103D9000C5B6FED700B0C59A00A0C58AC588C5B80B
:103DA000FED7C9CF01F012000101D151020A000172
:103DB00005E0010A15E0070A14E02ED0030E010108
:103DC000E26F00011EDF010E0101E46F00017FDCE4
:103DD000D3C1E4F169DF0101E26B000112DF1CD005
:103DE0001BD00101D251FC0F16E2040F00010EEFAF
:103DF0001FF0C580C5B0FED701010DD0C584C5B484
:103E0000FED7010108D0D3C1E4F1B2DF010103D034
:103E1000006ABCDF0101000170EF29F0E824F76AB5
:103E2000F736370FF66E3E0EF7220A00F550FA6E9F
:103E30000800F550F96EF23DFC3D063E103ED4C13F
:103E400088F0D3C187F0D2C186F0D1C185F05DEF93
:103E50002AF080AD07D0809D330E016E000E026EF9
:103E600023D01CD0800E0101BF25E66F5D0EC0215E
:103E7000F2CFE8F1F29EF86AF76EE6C1F6FF0900AC
:103E8000F5500800F5CF03F0F86AE8BFF28EE46F52
:103E900003C0E5F1020EBF27000EC0230101E4C1FB
:103EA00001F0E5C102F00001120001015C5310E0D5
:103EB0005C07D8905C35036A5D0FE96E010E032044
:103EC000EA6EEFCF01F0E92AEF50E906026E06D064
:103ED00000018093000E016E026E010100011200CC
:103EE00001011B5310E01B07D8901B35036A1C0F00
:103EF000E96E010E0320EA6EEFCF01F0E92AEF50E0
:103F0000E906026E06D000018093000E016E026E7B
:103F100001010001120001015C511F0811E35C5115
:103F20005C2B006ED89000360050036A5D0FE96E7E
:103F3000010E0320EA6EE5C1ECFFED52E4C1EFFF94
:103F40000001120001011B511F080EE3D8901B3520
:103F5000036A1C0FE96E010E0320EA6EE5C1ECFF57
:103F6000ED52E4C1EFFF1B2B000112000101EA6BCF
:103F7000EB6B010EEC6FDA6AD96AEF6FE20EEE6F4F
:103F8000010EEA6EE60EE96EEFC1E2FFEEC1E1FF5F
:103F9000ECC1EDF1D890E550EE02F350EA23F45075
:103FA000EB23ED2FF7D7EAC1DEFFEBC1EAF1EB6BB4
:103FB000D8B0EB2BEE2BD8B4EF2BEC2BEC51050843
:103FC000DFE100011AEF20F0016A026A006A036A69
:103FD0000101E85102E1E75118E0100EE96FD890B5
:103FE000E537E63700360336E851035C02E1E75176
:103FF000005C07E3E751005ED8A00306E851035ECA
:10400000D88001360236E92FEAD70001120088C0B5
:10401000E5F187C0E4F186C0E3F185C0E2F1410E2D
:104020000101E96FC60EE86F4E0EE76F6D0EE66F89
:1040300000019CD7390E010100240001856F300E6C
:10404000010101200001866F000E01010220000124
:10405000876F000E010103200001886F87C000F008
:1040600088C001F0026A036A88C0E4F187C0E3F106
:1040700088C0E6F187C0E5F17F0E0101E86FE769CE
:104080000001A2DF00C001F003C002F0A4EF24F0A1
:1040900001011751172B036AD70FE96E000E032099
:1040A000EA6EE2C1EFFF1751172B036AD70FE96ED3
:1040B000000E0320EA6EE351EF6E00016EEC19F082
:1040C00012008988320E0101E36F0001AEEC16F098
:1040D0008998020E0101E26FFA0EE36F0001AEEC67
:1040E00016F00101E22FF8D70001EBD71200010111
:1040F000E46BE451030825E3AEC000F00101E45194
:10410000016E04E0D8900032012EFCD70050010B64
:1041100016E0036AE451B10F016E000E032203C0E2
:10412000E6F1036AE451B10FE96E000E0320EA6E76
:10413000E351EF24E6C1EAFF01C0E9FFEF6EE42B93
:10414000D8D700011200006A016A0101E251D8903B
:10415000E3B1002600320132E3B30026003201321F
:10416000E3B5002600320132E3B700260032013207
:10417000E3B9002600320132E3BB002600320132EF
:10418000E3BD002600320132E3BF002600320132D7
:104190000001BDEF27F00101DC6BDB6BD3AF6DD00D
:1041A000020EBF25DB6F000EC021DC6FE36BD3C1B5
:1041B000E2F13F0EE217E36BE2C1E3F1E26B0001D3
:1041C00048DE02C003F001C002F0D8900236033688
:1041D00002500101E225BF6F0350E321C06F0001CF
:1041E00038DE02C0D6F101C0D5F10101D3AD12D045
:1041F000D46B030ED525016E000ED621036E01503F
:10420000035203E10150D45D05E200014EDE0101DD
:10421000D42BEFD7D46BD65303E1D551D45D0EE246
:1042200000015EDE02C0E3F101C0E2F102C0E5F18F
:1042300001C0E4F170DE0101D42BEDD7E56B1BC1A9
:10424000E4F1000168DEDCC1E5F1DBC1E4F163DE2D
:10425000020E0101D525016E000ED621036E01501C
:104260005C5DE26F000E0354E36FE56FE2C1E4F1C1
:10427000000151DEFAEF27F00101D351000A0001DD
:10428000D8B455D1010AD8B45CD1030AD8B465D1E9
:10429000010AD8B479D1070AD8B491D1010AD8B4A7
:1042A000C6D1030AD8B4E1D1010AD8B413D20F0A97
:1042B000D8B410D2010AD8B44CD2030AD8B487D2E9
:1042C000010AD8B4A2D2070AD8B4C6D2010AD8B417
:1042D000C8D2030AD8B4C8D2010AD8B4DED21F0AA1
:1042E000D8B4F6D2010AD8B403D3030AD8B408D399
:1042F000010AD8B409D3070AD8B40ED3010AD8B436
:1043000015D3030AD8B41ED3010AD8B429D30F0A8F
:10431000D8B426D3010AD8B423D3030AD8B420D3FF
:10432000010AD8B41DD3070AD8B41AD3010AD8B4E5
:1043300017D3030AD8B414D3010AD8B411D33F0A4F
:10434000D8B40ED3010AD8B40BD3030AD8B45BEFA8
:1043500025F0010AD8B46BEF25F0070AD8B487EF2F
:1043600025F0010AD8B4A5EF25F0030AD8B4D0EFA0
:1043700025F0010AD8B401EF26F00F0AD8B42FEFC8
:1043800026F0010AD8B455EF26F0030AD8B459EF45
:1043900026F0010AD8B462EF26F0070AD8B48DEFF0
:1043A00026F0010AD8B48FEF26F0030AD8B491EFB3
:1043B00026F0010AD8B495EF26F01F0AD8B499EF79
:1043C00026F0030AD8B49DEF26F0060AD8B4A0EF71
:1043D00026F0010AD8B4A3EF26F0020AD8B4A6EF5B
:1043E00026F00A0AD8B4A9EF26F00D0AD8B4ACEF2B
:1043F00026F0030AD8B4ACEF26F0090AD8B4C6EF09
:1044000026F0060AD8B4D2EF26F0030AD8B4D2EFC9
:1044100026F0010AD8B4D6EF26F07F0AD8B4DAEF36
:1044200026F0010AD8B4DEEF26F0030AD8B4E2EF92
:1044300026F0060AD8B4E6EF26F0010AD8B4EBEF6E
:1044400026F0030AD8B409EF27F0010AD8B423EF05
:1044500027F00F0AD8B434EF27F07F0AD8B445EF1D
:1044600027F00F0AD8B445EF27F0710AD8B445EF0A
:1044700027F0030AD8B445EF27F0010AD8B445EF76
:1044800027F0070AD8B445EF27F0010AD8B445EF62
:1044900027F0030AD8B445EF27F0770AD8B462EFC3
:1044A00027F0030AD8B462EF27F0750AD8B462EF98
:1044B00027F01F0AD8B462EF27F0010AD8B462EFE0
:1044C00027F0030AD8B462EF27F0010AD8B462EFEC
:1044D00027F0070AD8B462EF27F0010AD8B485EFB5
:1044E00027F0030AD8B489EF27F0010AD8B48DEF7A
:1044F00027F00F0AD8B48DEF27F0010AD8B48DEF5A
:1045000027F0030AD8B4C5EF27F0010AD8B4CBEFDF
:1045100027F0070AD8B4D0EF27F0010AD8B4D5EFB6
:1045200027F0030AD8B4E1EF27F0F7EF27F08093E4
:10453000929889980101C46BC36BC66BC56BFAEF87
:1045400027F087DC01C0DDF10101E56BDDC1E4F19D
:104550000001F8DC0101FAEF27F07BDC01C0DEF19D
:1045600078DC01C0DFF1DEC1E1F10101E06BDF5178
:10457000E027000EE123E1C1E5F1E0C1E4F1000133
:10458000E1DC0101FAEF27F0020E0101BF25E26F25
:10459000000EC021E36FE56FE2C1E4F10001D2DC5F
:1045A00058DC02C003F001C002F0D8900236033696
:1045B00002500101BF270350C023FAEF27F090DC1F
:1045C00002C0DCF101C0DBF10101C051DC5D09E397
:1045D00003E1DB51BF5D05E2DCC1C0F1DBC1BFF12E
:1045E00024D0DCC1C0F1DBC1BFF1000179DC02C025
:1045F000C6F101C0C5F10101C65303E1C55101086F
:1046000004E2C551D8B4C607C507C52D02D0C653AC
:104610000CE0C6C1E5F1C5C1E4F1000193DCC0C105
:10462000E5F1BFC1E4F18EDC0101FAEF27F058DCBF
:104630000150021007E054DC53DC02C0C0F101C09D
:10464000BFF110D04DDC02C0C0F101C0BFF1C0C14C
:10465000E5F1BFC1E4F176DC050E0101E36F000175
:10466000AEEC16F00101FAEF27F029EC1FF002C0C2
:1046700003F0D89001340101DB6F0334DC6F0001DB
:1046800014DC02C0D6F101C0D5F1D6C1E5F1D5C127
:10469000E4F141DC0101DB51D525E26FDC51D6218B
:1046A000E36FD890E235026EE335036E02505D0F82
:1046B000E96E010E0320EA6EECCFE3F1ED52EFCF8D
:1046C000E2F1E3C1E5F1E2C1E4F100013BDC01010B
:1046D000FAEF27F00101D351080806E1000100DCE0
:1046E00002C0DCF101C0DBF1000155EC1FF002C09B
:1046F000D6F101C0D5F155EC1FF002C0C0F101C0E8
:10470000BFF155EC1FF002C0D8F101C0D7F1010193
:10471000D85308E11B51D75D05E2000170EC1FF092
:10472000F6D70101D65308E15C51D55D05E20001E1
:1047300055EC1FF00101F6D7D351080808E1DCC1A0
:10474000E5F1DBC1E4F10001A2EC1FF00101FAEF99
:1047500027F070EC1FF002C0C4F101C0C3F170EC8F
:104760001FF002C0C6F101C0C5F1C0C1E5F1BFC173
:10477000E4F1A2EC1FF00101C65303E1C5510108A9
:1047800013E2C6C1E5F1C5C1E4F10001A2EC1FF0DE
:10479000C4C1E5F1C3C1E4F1A2EC1FF0C4C1C0F192
:1047A000C3C1BFF111D00101C52D07D0C65305E12A
:1047B000C4C1C0F1C3C1BFF108D0000170EC1FF04B
:1047C00002C0C0F101C0BFF10101FAEF27F070ECA7
:1047D0001FF002C0D6F101C0D5F170EC1FF002C08D
:1047E000D8F101C0D7F10101D751D8110CE0C0C1F7
:1047F000E5F1BFC1E4F10001A2EC1FF0D6C1C0F1A8
:10480000D5C1BFF10101FAEF27F070EC1FF002C033
:10481000D6F101C0D5F170EC1FF002C0D8F101C093
:10482000D7F170EC1FF002C0DAF101C0D9F1C0C1BC
:10483000E5F1BFC1E4F1A2EC1FF00101D951DA1199
:1048400005E0D8C1C0F1D7C1BFF104D0D6C1C0F1D5
:10485000D5C1BFF1FAEF27F086EC18F00101FAEFAD
:1048600027F00101FAEF27F070EC1FF002C0C4F14D
:1048700001C0C3F1C0C1E5F1BFC1E4F1A2EC1FF07A
:10488000C4C1E5F1C3C1E4F1A2EC1FF0C4C1C0F1A1
:10489000C3C1BFF10101FAEF27F070EC1FF002C0B5
:1048A000C4F101C0C3F10101C66BC56BE56BE46BDC
:1048B0000001A2EC1FF0C4C1E5F1C3C1E4F1A2EC18
:1048C0001FF0C4C1C0F1C3C1BFF10101FAEF27F06D
:1048D00070EC1FF00101013400018B6F0101023403
:1048E00000018C6F8B378C37FC0E8B17010182D344
:1048F000BBC0E5F1BAC0E4F1A2EC1FF001017AD32C
:10490000BB6BBA6B010176D370EC1FF002C0DCF117
:1049100001C0DBF101016ED30101E56BB9C0E4F127
:104920000001A2EC1FF0809B010164D3000E80BB4C
:10493000010E0101E26FE56BE46F0001A2EC1FF0D4
:10494000010158D307EF20F002C0E3F101C0E2F10A
:1049500002C0E5F101C0E4F1A2EC1FF001014AD36D
:1049600070EC1FF002C0D8F101C0D7F170EC1FF05D
:1049700002C0D6F101C0D5F1170E0101D35DF50FCC
:10498000D8B090D00B0F0001FDEF27F00101D751F7
:10499000D527D851D62386D00101D751D55FD8511C
:1049A000D65B80D0196AF2BE198EF29ED6C103F290
:1049B000D5C102F2D8C105F2D7C104F215EC0DF051
:1049C00019BEF28E02C0D6F101C0D5F101016AD044
:1049D000D6C1E6F1D5C1E5F1D8C1E8F1D7C1E7F11B
:1049E000E4EC1FF002C0D6F101C0D5F101015AD0AC
:1049F000D6C1E6F1D5C1E5F1D8C1E8F1D7C1E7F1FB
:104A0000E4EC1FF000C0D5F1010103C0D6F14AD09B
:104A10000101D751D55D03E1D851D65D02E0000E0A
:104A200001D0010ED66BD56F3DD00101D851D65DB6
:104A300004E305E1D551D75D02E3000E01D0010E7C
:104A4000D66BD56F2FD00101D651D85D04E305E1B7
:104A5000D751D55D02E3000E01D0010ED66BD56FA4
:104A600021D00101D551D61103E0D751D81102E16F
:104A7000000E01D0010ED66BD56F14D00101D551B7
:104A8000D61105E1D751D81102E1000E01D0010E77
:104A9000D66BD56F07D00101D751D51BD851D61B86
:104AA00001D00101D6C1E5F1D5C1E4F10001A2ECCC
:104AB0001FF001019FD270EC1FF001500210000E98
:104AC000D8B4010E0101E26FE56BE46F0001A2ECC6
:104AD0001FF001018FD270EC1FF002C0DCF101C0A9
:104AE000DBF170EC1FF002C0E3F1D890010101345A
:104AF000026EE335036E02509D0FE96E010E032036
:104B0000EA6EDCC1ECFFED52DBC1EFFF73D270EC5B
:104B10001FF002C0E3F1D89001010134026EE335C9
:104B2000036E02509D0FE96E010E0320EA6EECCF7A
:104B3000E3F1ED52EFCFE2F1E3C1E5F1E2C1E4F1DF
:104B40000001A2EC1FF0010155D270EC1FF002C071
:104B5000D8F101C0D7F170EC1FF0D89001010134F9
:104B6000D56F0234D66F000170EC1FF001C0DBF18D
:104B70000101670E0224DC6FD551DB25E26FD651AF
:104B8000DC21E36FE56FE2C1E4F100019DEC18F078
:104B9000D8C1E3F1D7C1E2F148EC20F001012AD2FB
:104BA00070EC1FF0D89001010134D56F0234D66F3C
:104BB000000170EC1FF001C0DBF10101670E02245F
:104BC000DC6FD551DB25E26FD651DC21F2CFE4F169
:104BD000F29EF86AF76EE2C1F6FF0900F550080090
:104BE000F5CF03F0F86AE4BFF28ED76F03C0D8F1B7
:104BF000D8C1E5F1D7C1E4F10001A2EC1FF0010139
:104C0000F9D170EC1FF002C0DCF101C0DBF1010151
:104C1000BEC103F0BD51BD2BD8B4BE2BC00FE26F97
:104C2000590E0320E36FE56FE2C1E4F100019DEC52
:104C300018F0DCC1E3F1DBC1E2F148EC20F0760EC4
:104C40000101E56F080EE46F00019DEC18F0BEC194
:104C5000E3F1BDC1E2F148EC20F00101CBD101014B
:104C6000BEC103F0BD51BD2BD8B4BE2BC00FE26F47
:104C7000590E0320F2CFE4F1F29EF86AF76EE2C11A
:104C8000F6FF0900F5500800F5CF03F0F86AE4BF1D
:104C9000F28EDB6F03C0DCF1DCC1E5F1DBC1E4F1D6
:104CA0000001A2EC1FF00101A5D10101BE6BBD6B9B
:104CB000A1D170EC1FF0D89001010134BD6F023416
:104CC000BE6F98D170EC1FF0D89001010134D56F00
:104CD0000234D66FDC6BDB6BDC51D65D1BE303E18A
:104CE000D551DB5D17E2C00EDB25E26F590EDC21EA
:104CF000E36FE56FE2C1E4F100019DEC18F0010102
:104D0000E36BE26B000148EC20F00101DB2BD8B42F
:104D1000DC2BE2D7BE6BBD6B6DD101016BD1010104
:104D200069D1010EAE6F010165D1020EAE6F0101B6
:104D300061D1030EAE6F01015DD10101D42B0001E1
:104D40000101D42B00010101D42B00010101D42B5E
:104D500000010101D42B0001D4C1E2F101EC1EF0ED
:104D60000101D351320811E1000170EC1FF0010183
:104D7000013400018B6F0101023400018C6F8B370D
:104D80008C37FC0E8B17808D010134D170EC1FF035
:104D900002C0E3F101C0E2F101C0E4F154EC1EF005
:104DA000010128D161EC20F0010124D1040EAE6F85
:104DB000010120D1080EAE6F01011CD10C0EAE6FA7
:104DC000010118D10F0EAE6F010114D1809392989A
:104DD000899801010FD170EC1FF0F2CFE4F1F29E3F
:104DE000F86A02C0F7FF01C0F6FF0900F55008009D
:104DF000F5CF03F0F86A0101E4BFF28EE26F03C061
:104E0000E3F103C0E5F1E46F0001A2EC1FF0010142
:104E1000F1D070EC1FF002C0D6F101C0D5F170ECFA
:104E20001FF002C0D8F101C0D7F1D8C1E5F1D7C158
:104E3000E4F19DEC18F0D6C1E3F1D5C1E2F148EC04
:104E400020F00101D7D070EC1FF002C0E3F101C0E7
:104E5000E2F10101E36BE3C1E5F101C0E4F100011E
:104E6000A2EC1FF00101C6D070EC1FF002C0E3F10C
:104E700002C0E2F10101E36BE3C1E5F102C0E4F13C
:104E80000001A2EC1FF00101B5D00101D351480887
:104E900004E3370ED35DD46F04D0490ED35D020F07
:104EA000D46FD4C1E2F1000146EC1BF002C0E3F183
:104EB00001C0E2F102C0E5F101C0E4F1A2EC1FF093
:104EC000010198D00101D3514E0804E3390ED35D9E
:104ED000D46F04D04F0ED35D020FD46FD4C1E2F172
:104EE000000146EC1BF002C0E3F1010102C0E2F157
:104EF000E36BD890E333E233E3C1E5F1E2C1E4F1DF
:104F00000001A2EC1FF0010175D095908C80010189
:104F100071D095908C9001016DD00101E26B000180
:104F200001EC1EF0030E0101E26F000101EC1EF026
:104F3000010E0101E46F000167EC1BF070EC1FF043
:104F400001C0D4F10101D351570807E1D4C1E4F104
:104F5000000154EC1EF017D00101D351580807E1AD
:104F6000D4C1E3F1000177EC20F00DD00101E2693A
:104F7000D4C1E3F10001A3EF20F001C0E2F101C0D0
:104F8000E3F177EC20F0010135D070EC1FF001C0A7
:104F9000AEF001012FD0C580C5B0FED701012AD0E7
:104FA000C584C5B4FED7010125D070EC1FF002C046
:104FB000E3F101C0E2F101C0E4F1B8EC1EF001013F
:104FC00019D070EC1FF002C0E3F101C0E2F101C0A2
:104FD00000F0C6EC1EF001C0E2F10101E56B01C07A
:104FE000E4F10001A2EC1FF0010104D0000161EC2A
:104FF00020F001010001A2EF2AF0E824F76AF73659
:10500000150FF66E500EF7220A00F550FA6E0800E2
:10501000F550F96E8C499849A449D049F049104A95
:105020002A4A464A624A7C4A964AF86AD09E078EC5
:10503000EA6AE96A93829380770EC86E280EC66E7C
:10504000C78EC79C80938A6B896B80958C6B8B6BAA
:10505000AB6B80978099AD6BAF6BB06B040EB66F86
:10506000B76BB86B809BBB6BBA6BBC6BD16BD26BF5
:10507000D36BD46BD66BD56B0101176B1A6BC46BFA
:10508000C36BC66BC56B0001809DC150C00B0F097F
:10509000C16E070EB46E1E6A040E1F6E0C0E206EDB
:1050A000836B846B0E0E8D6F7C0E8E6F0B0E8F6F6D
:1050B0007C0E906F1D0E916F7C0E926F1A0E936F87
:1050C0007C0E946F0D0E956F7C0E966F0A0E976F87
:1050D0007C0E986F1C0E996F7C0E9A6F160E9B6F4C
:1050E0007C0E9C6F0C0E9D6F7C0E9E6F1F0E9F6F33
:1050F0007C0EA06F1B0EA16F7C0EA26F170EA36F0C
:105100007C0EA46FB169B269B369B469B569010174
:105110009D6B9E6B9F6BA06BA16BA26BA36BA46B33
:10512000A56BA66BA76BA86BA96BAA6BAB6BAC6BE3
:10513000AD6BAE6BAF6BB06BB16BB26BB36BB46B93
:10514000B56BB66BB76BB86BB96BBA6BBB6BBC6B43
:105150000001E5EF16F0196AF2BE198EF29E6EECB0
:105160000DF019BEF28EBBEF17F0E0EF17F091EFE4
:1051700019F0A5510508D8A457D1A65111E0070A86
:1051800033E0060A34E0030A4BE0010A5FE0070A55
:1051900073E0010AD8B484D0030AD8B499D0B2D04D
:1051A000550E0101DA6F00017EEC18F00101DA6999
:1051B00000017EEC18F0AA0E0101DA6F00017EEC0E
:1051C00018F0010E0101DA6F00017EEC18F0300ECC
:1051D0000101DA6F00017EEC18F0010E0101DA6FB7
:1051E00000017EEC18F08ED03FEF1BF08BD0A7C0F3
:1051F000E2F146EC1BF002C0C8F101C0C7F1C8C122
:10520000D1F10101D26BC7C1D3F1D46BC8C1DAF1BE
:1052100000017EEC18F0D3C1DAF17EEC18F072D008
:10522000A7C0E2F101EC1EF0550E0101DA6F00019A
:105230007EEC18F00101DA6900017EEC18F0AA0E8C
:105240000101DA6F00017EEC18F05CD0A7C0E4F138
:1052500054EC1EF0550E0101DA6F00017EEC18F0DF
:105260000101DA6900017EEC18F0AA0E0101DA6F83
:1052700000017EEC18F046D0A9C0AEF0550E010139
:10528000DA6F00017EEC18F00101DA6900017EECB2
:1052900018F0AA0E0101DA6F00017EEC18F032D08E
:1052A000A9C0D1F1A8C0D2F1ABEF1EF0550E01019B
:1052B000DA6F00017EEC18F00101DA6900017EEC82
:1052C00018F0AA0E0101DA6F00017EEC18F01AD076
:1052D000A7C0D1F1A8C0D2F1A9C0D3F1D4EF1EF07C
:1052E000550E0101DA6F00017EEC18F00101DA6958
:1052F00000017EEC18F0AA0E0101DA6F00017EECCD
:1053000018F000D0A6510608D8A48BD0A7510308E6
:10531000D8A487D00101D26BA8C0D1F1A8C0D2F126
:10532000D16B0001A9510101D127000ED223D13543
:10533000C96FD235CA6FC937CA37C937CA37C937F3
:10534000CA37C937CA37E00EC917C95315E1CA535E
:1053500013E1F2CFD1F1F29EF86A760EF76E080EE5
:10536000F66E0900F5500800F5CF03F0F86AD1BFDA
:10537000F28EC96F03C0CAF1D890C937CA37C9C104
:10538000D1F1D26BCAC1D3F1D46BEE0EDA6F00014A
:105390007EEC18F0110E0101DA6F00017EEC18F0BE
:1053A000D1C1DAF17EEC18F0D3C1DAF17EEC18F05D
:1053B000D8900101CA33C933CC6BCB6BCC51CA5DD9
:1053C0002FE303E1C951CB5D2BE2C00ECB25D16F9A
:1053D000590ECC21F2CFD3F1F29EF86AF76ED1C10B
:1053E000F6FF0900F5500800F5CF03F0F86AD3BFC7
:1053F000F28ECD6F03C0CEF1CDC1D1F1D26BCEC153
:10540000D3F1D46BCDC1DAF100017EEC18F0D3C139
:10541000DAF17EEC18F00101CB2BD8B4CC2BCED72F
:105420000001010EA56F38D080A702D080A934D02A
:10543000AAC000F0AB51016E04E0D8900032012EFA
:10544000FCD70050010B23E0ABC0E2F146EC1BF0AF
:1054500002C0D0F101C0CFF1AB390101D16FD1371A
:10546000E00ED117D051036AD11303C0D2F1CFC1DE
:10547000D3F1D46B0C0EDA6F00017EEC18F0D1C1C1
:10548000DAF17EEC18F0D3C1DAF17EEC18F0010EFF
:10549000AB25070BAB6F809980A545D080A303D0C7
:1054A000809389983CD00101D46BD36BBBC0D2F1FF
:1054B000BAC0D1F100011FEF1FF0F2CFD1F1F29E7F
:1054C000F86A7F0EF76EF00EF66E0900F5500800D0
:1054D000F5CF03F0F86A0101D1BFF28ED16FD26F20
:1054E000D16BF2CFD3F1F29EF86A7F0EF76EF20E17
:1054F000F66E0900F5500800F5CF03F0F86AD3BF47
:10550000F28ED125BF6F0350D221C06FD890BF3724
:10551000C0371B6B5C6B0001809B808389888C6B20
:105520008B6B809D809580A30DD08B518C110AE1EF
:1055300029EC1FF002C0D2F101C0D1F101C0D3F1BA
:10554000CBEF20F0BC51020803E2010EA56FBC6B4B
:045550000CD6030072
:020000040030CA
:0E00000024CE3E1E0087A1000FC00FE00F406F
:00000001FF
;PIC18F4550
;CRC=FA82  CREATED="14-Nov-13 08:17"
