:04000000AFEF0BF063
:0800080025A003D014EF00F065
:1000100002D024EF0CF0120025A003D01CEF00F05A
:1000200002D02CEF0CF01200046ED8CF05F0E0CF18
:1000300006F00001E9CF0CF0EACF07F0E1CF08F0BD
:10004000E2CF09F0D9CF0AF0DACF0BF0F3CF12F0FC
:10005000F4CF13F0FACF14F0F5CF15F0F6CF16F079
:10006000F7CF17F000C00EF001C00FF002C010F083
:1000700003C011F0A0AA40EF00F0A1BA7EEF08F093
:100080000EC000F00FC001F010C002F011C003F06C
:100090000CC0E9FF07C0EAFF078E08C0E1FF09C0F6
:1000A000E2FF0AC0D9FF0BC0DAFF12C0F3FF13C092
:1000B000F4FF14C0FAFF15C0F5FF16C0F6FF17C015
:1000C000F7FF045006C0E0FF05C0D8FF1000F76A34
:1000D000DE0FF66E000EF7220900F5501200000345
:1000E00002FFFFFFFFFFFFFFFFFFFFFFFFFFF76ABA
:1000F000FE0FF66E000EF7220900F550120000FF09
:1001000002FFFFFFFFFFFFFFFFFFFFFFFFFFF76A99
:100110001E0FF66E010EF7220900F5501200400086
:100120000B00400000000000000000000000000084
:100130000000000000000000000000000000F76A5E
:100140004E0FF66E010EF7220900F5501200400026
:10015000000040000000000000000000000000005F
:100160000000000000000000000000000000F76A2E
:100170007E0FF66E010EF7220900F55012000902FB
:100180004300020100803209040000010202010064
:1001900005240010010424020205240600010524A0
:1001A000010001070581030B00FA09040100020A9E
:1001B000000000070502024000010705820240001E
:1001C0000100F76AD20FF66E010EF7220900F55012
:1001D00012000200F76AE40FF66E010EF722090022
:1001E000F550120012171B20FFFFFFFFF76AFC0FEC
:1001F000F66E010EF7220900F550120012011001EF
:100200000200004061043300000101020001F76AAE
:100210001E0FF66E020EF7220900F55012000403BD
:10022000090408034300430053001803530045002A
:100230005200490041004C002000440045004D00A0
:100240004F006D92699468A402D06894FCD78AEF3D
:1002500008F0400E0401016F040E036F180E026FC8
:10026000880E006F046B040E076F580E066F0001B6
:10027000120070A002D0EDDF7090689A93EF08F042
:100280006A6A689299EF08F001012F912EBF2F81C1
:100290002E9F2E51100803E2000E016E1AD02FA1DE
:1002A0000DD0036A2E51000112DFFF0802E1000E9B
:1002B00001D0010E016E01010CD00BD0036A2E514A
:1002C000000115DFFF0802E1000E01D0010E016EF2
:1002D000010100011200010133513503F3CF01F098
:1002E000F4CF00F03603F350002634513503F350B9
:1002F0000020026E00011200036A01012D51700FEF
:10030000E96E0F0E0320EA6EEF6A2DC12EF1000197
:10031000BBDF015228E00101346B2DC133F1366B94
:10032000080E356F0001D7DF010101C0E9FF040E9F
:100330000224EA6EEF6A346B2DC133F1366B080E7E
:10034000356F0001C8DF02C02FF101C02EF1040E8D
:1003500001012E27000E2F232EC1E9FF040E2F25A9
:10036000EA6EEF6A00011200010E01012C6F2C51A0
:100370000F0807E32CC12DF10001BEDF01012C2B7A
:10038000F6D7000112000101266B256B250E246FA4
:10039000800E236FEA6A2C0EE96E010EE26E230EC8
:1003A000E16E020E016EE6CFEEFF012EFCD72E6A43
:1003B0002F6A236BEA6A300EE96E010EE26E230E9D
:1003C000E16EE6CFEEFF236BEA6A310EE96E010EB5
:1003D000E26E230EE16EE6CFEEFF080E236FEA6AAF
:1003E000320EE96E010EE26E230EE16EE6CFEEFFF5
:1003F0000001816B8091346A336A7C6B7D91826BE2
:100400001200296A286A0101226B225101080AE3BD
:10041000036A22512A0FE96E000E0320EA6EEF6A8A
:10042000222BF3D70001AFDF1B6A010E1C6E1A6A84
:100430001200689612006A6A686A9F0E6B6E3D0E23
:10044000696E6E6A91DFDDDF160E706E68A602D0EF
:10045000F0DFFCD76D98FDDE030E226E9FEF08F0F3
:10046000698468986D82A5EF08F0689CABEF08F08E
:1004700027C123F01200236812000101256B2850C8
:10048000291033E025513F0830E31D50000A0001D8
:1004900005E0020A0AE0010A0FE014D027C003F0C9
:1004A000265065DEE8CF26F10DD027C003F0265098
:1004B000AEDEE8CF26F106D027C003F0265096DE48
:1004C000E8CF26F1262AD8B4272A2850D8B42906FE
:1004D000280601012551252B580FE96E040EEA6EFE
:1004E000D8B0EA2A26C1EFFFCAD72850291004E164
:1004F0002551400801E01A6A25C127F10001B8DF43
:100500001200276A266A1D6A04011B51010A0001B4
:1005100007E0030A0BE0010A0DE0220A22E03AD0CC
:10052000296A120E286E030E1D6E36D0296A430EFC
:10053000286E32D0020E1D6E036A04011A511E0F7E
:10054000E96E000E0320EA6E276AEFCF26F027C07F
:1005500003F0265000015BDE036A286E03C029F019
:100560001BD0036A04011A51000134DE036A266EAF
:1005700003C027F0263C02D027520AE027C003F030
:100580002650F5DD036A286E03C029F005D002D09D
:1005900072DF11D070DF0FD004011F5308E1295220
:1005A00003E128501E5D03E2296A1EC428F0010EF3
:1005B0001A6E000162DF28EF04F00101245306E106
:1005C000040E226E0001D0DEE7D00101050E226E7E
:1005D000040E276F980E266F010E256F25510F0808
:1005E000D8A0DAD025C12DF1000186DE0101286BEB
:1005F000036A255100017BDDFF0865E0040E01015F
:10060000286FD8902535036A000199DD0900F5CFE0
:1006100003F00101296F03C02AF1346B25C133F1C6
:10062000366B080E356F000156DE01C02CF1010E4D
:1006300001010124016E000E0220036E01C0E9FFDA
:10064000040E0324EA6E29C1EFFF346B25C133F198
:10065000366B080E356F00013EDE01C02CF1020E34
:1006600001010124016E000E0220036E01C0E9FFAA
:10067000040E0324EA6E27C1ECFFED5226C1EFFF02
:10068000D8902535036A00015ADD0900F5CF03F043
:100690000101262703502723880E2B6F2AB12B81B7
:1006A0002AB32B83346B25C133F1366B080E356FBB
:1006B000000111DE010101C0E9FF040E0224EA6E0F
:1006C0002BC1EFFF0001036A010125510001FFDC8E
:1006D000FF0847E001012883346B25C133F1366BF5
:1006E000080E356F0001F7DD02C02DF101C02CF1BD
:1006F000040E01012C27000E2D23020E2C25016E65
:10070000000E2D21036E01C0E9FF040E0324EA6EE2
:1007100027C1ECFFED5226C1EFFFD8902535036AC3
:100720000001F5DC0900F5CF03F001012627035095
:100730002723346B25C133F1366B080E356F00016A
:10074000CADD02C02DF101C02CF1040E01012C27DD
:10075000000E2D232CC1E9FF040E2D25EA6E400E5C
:10076000EF6E01012851060802E10E0E286F036AA0
:1007700025510001ACDC010803E0010128890001DA
:10078000036A01012551700FE96E0F0E0320EA6E16
:1007900028C1EFFF252B22D7000121EF04F004012F
:1007A0001951000A00010DE0010A15E0020A20E0DB
:1007B000060A2AE0030A31E00E0A31E0010A37E0B6
:1007C00046D01CC058F40401596B020E0101276F7A
:1007D00000014EDE3DD004011A2D07D0010E1C167B
:1007E0000101276B000144DE02D0000144DE30D05D
:1007F00004011A2D06D01C820101276B000138DE8E
:1008000002D0000138DE24D0020E1A6E1AC424F081
:100810000101276B00012CDE1BD073D619D01BC041
:1008200058F4010E0101276F000122DE11D00401EE
:100830001A5101080AE31AC41BF01AC424F100017A
:10084000BCD60101276B000113DE000101D013DECD
:10085000BDEF05F01BC024F104011951000A00018D
:1008600005E00A0A0CE0010A2BE03FD00401586BB6
:10087000596B020E0101276F0001FADD37D001012B
:1008800024531BE0010E245D036A00019ADC016E13
:1008900004011C5DD8A002D001010FD0036A1C51D5
:1008A0002A0FE96E000E0320EA6EEFCF58F4010E16
:1008B0000101276F0001DCDD02D00001DCDD16D074
:1008C000010124530FE0036A04011C512A0FE96E51
:1008D000000E0320EA6E1AC4EFFF0101276B00012E
:1008E000C7DD02D00001C7DD01D0C5DDBDEF05F0D9
:1008F0000101259124BF2581249F25A119D0346BA6
:1009000024C133F1366B080E356F0001E4DC02C000
:1009100027F101C026F1040E01012627000E27232E
:1009200026C1E9FF040E2725EA6E880EEF6E0FD070
:10093000346B24C133F1366B080E356F0001CBDC0C
:10094000010101C0E9FF040E0224EA6EEF6A000112
:100950002AEF05F00101259124BF2581249F25A1BF
:1009600019D0346B24C133F1366B080E356F00019A
:10097000B2DC02C027F101C026F1040E01012627D6
:10098000000E272326C1E9FF040E2725EA6E840EF8
:10099000EF6E10D0346B24C133F1366B080E356F17
:1009A000000199DC010101C0E9FF040E0224EA6E96
:1009B000840EEF6E000132EF05F00101259124BF96
:1009C0002581249F25A119D0346B24C133F1366BC6
:1009D000080E356F00017FDC02C028F101C027F14D
:1009E000040E01012727000E282327C1E9FF040E6A
:1009F0002825EA6EEFCF26F110D0346B24C133F1F5
:100A0000366B080E356F000166DC010101C0E9FF9D
:100A1000040E0224EA6EEFCF26F126AF02D026B5EF
:100A200002D0000E01D0010E016E00013EEF05F074
:100A30001CC42EF129DC01522DE004011951010AD8
:100A4000000105E0020A0BE0030A11E022D01CC4F9
:100A500024F14ED70101276B00010ADD1BD01CC415
:100A600024F178D70101276B000102DD13D00401C6
:100A7000586B596B1CC424F100019FD7015203E04D
:100A8000010E0401586F020E0101276F0001F0DC16
:100A900001D0F1DCBDEF05F0FE0E236E1200040163
:100AA0001C2D01D002D01C534EE11951000A000147
:100AB0000BE0010A0DE0210A1CE0010A1FE0030A15
:100AC00030E0010A35E03DD0010E826FE5DF3AD01B
:100AD000040EEA6E580EE96EE26A350EE16E080EFB
:100AE000016EE6CFEEFF012EFCD71EC427F1C0DC5D
:100AF00029D0020E826F8081CFDF24D0040EEA6EEF
:100B0000580EE96EE26A2C0EE16E070E016EE6CF1A
:100B1000EEFF012EFCD7070E0101276F0001A8DCB4
:100B200011D01AC481F00101276B0001A1DC0AD0A9
:100B30001AC434F01BC433F00101276B000198DCA8
:100B400001D099DC04010001BDEF05F01A6A04012F
:100B500018517F0B000A000107E0010A07E0030AB1
:100B600007E0230A07E008D01AD607D073D605D0CD
:100B70005FD703D094D701D07EDC1EEF08F00101CF
:100B8000346B25C133F1366B080E356F00016BEC09
:100B900001F0010101C0E9FF040E0224EA6EEFCF6B
:100BA00027F12651020806E127AD02D0266B02D0BC
:100BB000010E266F265103081CE1840E276F346B4B
:100BC00025C133F1366B080E356F00016BEC01F077
:100BD00002C02BF101C02AF1040E01012A27000EE8
:100BE0002B232AC1E9FF040E2B25EA6E840EEF6E3B
:100BF00007D0262D03D0C80E276F02D0880E276F8E
:100C0000D8902535036A00019FEC00F00900F5CF6C
:100C100003F00101286F03C029F1346B25C133F1C2
:100C2000366B080E356F00016BEC01F001C02AF144
:100C3000010E01010124016E000E0220036E01C0AD
:100C4000E9FF040E0324EA6E28C1EFFF29B12781D2
:100C500029B32783346B25C133F1366B080E356F0A
:100C600000016BEC01F0010101C0E9FF040E022458
:100C7000EA6E27C1EFFF00011200036A0101325141
:100C8000700FE96E0F0E0320EA6EEF521BE0346B1B
:100C900032C133F1366B080E356F00016BEC01F099
:100CA00002C034F101C033F1040E01013327000EFC
:100CB000342333C1E9FF040E3425EA6EEFCF35F15A
:100CC00035AF02D0000E01D0010E016E00011200FE
:100CD0002DC132F1D2DF0152D8B485D00101346B7D
:100CE0002DC133F1366B080E356F00016BEC01F04E
:100CF00002C033F101C032F1040E01013227000EAF
:100D00003323010E3225016E000E3321036E01C024
:100D1000E9FF040E0324EA6E2EC1EFFF30510208F2
:100D200020E1346B2DC133F1366B080E356F0001B5
:100D30006BEC01F002C033F101C032F1040E01018D
:100D40003227000E332332C1E9FF040E3325EA6E49
:100D5000EFCF31F131AD02D0306B02D0010E306FE8
:100D60001AD03051040817E1346B2DC133F1366BC2
:100D7000080E356F00016BEC01F0010101C0E9FFC5
:100D8000040E0224EA6EEFCF31F131AD03D0010E33
:100D9000306F01D0306B302D03D0C80E316F02D0D0
:100DA000880E316F2FB131812FB33183346B2DC158
:100DB00033F1366B080E356F00016BEC01F002C0A9
:100DC00033F101C032F1040E01013227000E33234A
:100DD00032C1E9FF040E3325EA6E31C1EFFF010E87
:100DE000016E04D00001000E016E0101000112002D
:100DF0008251010A03E0030A15E028D0EA6A350EA1
:100E0000E96E040EE26E180EE16E080E016EE6CF7A
:100E1000EEFF012EFCD70101276B000138EC02F038
:100E2000826B15D0EA6A2C0EE96E040EE26E180E83
:100E3000E16E070E016EE6CFEEFF012EFCD7826B4E
:100E40000101276B000138EC02F001D0826B66EFE4
:100E500007F00101346B25C133F1366B080E356F95
:100E600000016BEC01F002C027F101C026F1010E78
:100E700001010124016E000E0220036E01C0E9FF92
:100E8000040E0324EA6E036AEFCF01F003C002F000
:100E900000015AEF07F07D91020E0101256F266FC8
:100EA00000016DDE12007D817F6B020E0101256F56
:100EB0000001CFD701C07EF07E5301E1ECDF6DEF82
:100EC00007F00101245304E1000192D706D001018B
:100ED0002451020803E10001E6D7010100011200DC
:100EE00025C16EFF0101255303E0040E226E02D0DE
:100EF000020E226E000182EF07F01B6A1A6A24C0FC
:100F000025F1EED7F8EF07F025C132F1B6DE015238
:100F100047E00101346B25C133F1366B080E356FA4
:100F200000016BEC01F002C02EF101C02DF1040EA6
:100F300001012D27000E2E23020E2D25016E000E1D
:100F40002E21036E01C0E9FF040E0324EA6EECCFEC
:100F50002CF1ED52EFCF2BF12CC1EAFF2BC1E9FFB1
:100F600027C1E2FF26C1E1FF29C102F028C101F03B
:100F7000015202E0022A02D0025206E0E6CFEEFF62
:100F8000012EFCD7022EFAD725C12DF129C12FF150
:100F900028C12EF12AC130F100019ADE015002D0A1
:100FA000000E016E12007C5310E0020E0101256F4D
:100FB000276B3D0E266F296B7CC028F1020E2A6F2D
:100FC0000001A2DF015201E07C6B1200ECDFFFEFB9
:100FD00007F0010124530EE11A2C05D000013DEC6D
:100FE00002F006D001011A50020803E1000185D782
:100FF000010106D02451020803E10001E7D70101F5
:101000000001120021300101226F223322331F0E12
:10101000221721524EE1040100513C0B0101236FC4
:10102000430E0401001701012351340825E1040196
:101030000451800B01E0046B000188D56D98233CBE
:1010400007D00101256B030E266F000198DD12D039
:101050000101256B020E266F000191DD2350FE0871
:1010600009E001012D6B2F6B23C02EF1040E306FB0
:1010700000012EDE1CD001012351040819E1246B6C
:1010800000011FDF0101256B020E266F000177DDD5
:101090002350FE080CE0233C01D009D001012D6B48
:1010A0002F6B23C02EF1010E306F000111DE010104
:1010B00022D02150040812E12368246B000189DF4B
:1010C000233C01D009D001012D6B2F6B23C02EF1E1
:1010D000020E306F0001FCDD0DD0010121B406D0FD
:1010E00022C124F10001EDDE05D0010122C124F16D
:1010F00000016FDF01010001B7EF08F0A19A225251
:1011000001E13ED068523CE068A404D069A402D05A
:1011100021EF01F06DA201D033D068AA04D069AAF2
:1011200002D039EF01F068A204D069A202D040EFEA
:1011300001F068A004D069A002D01BEF02F068A8FB
:1011400004D069A802D030EF02F068AC04D069ACDA
:1011500002D035EF02F00101216B68A60AD069A622
:1011600008D06CCF21F0000119EC02F04BD702D06F
:10117000010105D001012151212B0308EEE20001FC
:1011800040EF00F06D6A696A080E6F6E9450300986
:10119000946E226A196AF2BE198EF29E01EC02F078
:1011A00019BEF28ED5EF08F0EDD7FAEF08F0196A04
:1011B000F2BE198EF29E01EC02F019BEF28E6D6A3B
:1011C000140E6F6E696A6D86010E226EEBEF08F0E9
:1011D0006DB601D0ECD7222C0BD06DBA09D0686A5D
:1011E000696AA08AC00EF212110E696E020E226E9A
:1011F0001200DAD7EDDF22500208FCE1D5EF0BF048
:101200001B50016ED6EF0BF0EA6ACD0EE96EEF507F
:101210000EE00F0E016E006A002EFED7012EFBD7E6
:101220008F0E006E002EFED70000EF2EF2D71200B8
:101230007DB101D0FDD77F517F2BA30FE96E040E46
:10124000EA6ED8B0EA2AEFCFCEF07E517F5D07E399
:10125000196AF2BE198EF29E1EDE19BEF28ECEC043
:1012600001F01200D051400809E2D051460806E3CF
:10127000410ED05D0A0F016E0AD009D0D0512F085F
:1012800006E2D051390803E3300ED05D016E120042
:10129000CF91F2BECF81F29E7C513E0802E23E0E1B
:1012A0007C6F7C517C2B036A3D0FE96E000E03209E
:1012B000EA6ECEC0EFFFF29ECFB1F28E63EF09F07F
:1012C000CDC0CEF0E5D7196AF2BE198EF29E020E9D
:1012D0000101326F0001D1DC19BEF28E015207E02C
:1012E000196AF2BE198EF29E5EDE19BEF28E80EF92
:1012F00009F07C513E0801E2FCD7CCC0CDF0E0D72C
:1013000012001BC101F01AC100F00066012A090099
:10131000F5CFEEFF002EFBD7012EF9D7F86AEFEFDD
:1013200009F0F250036EF29EA68EA6840F01550EB0
:10133000A76EAA0EA76EA68200000350F21200014B
:101340001200D08CA69CF6501F0B006EE00EF61615
:101350000A001AC101F0006608D0F650010F3F0BD9
:1013600004E1A6880900DDDF0A00006607D0EECFA1
:10137000F5FF015204E00F00010603D000060B0048
:101380000C001F0EF6141F0AE6E1CBDF0166E3D75F
:10139000F86A36EF0AF0CC51C00B0101146FCDC0D2
:1013A00015F1CEC016F10001CFC017F101011451A3
:1013B0000001CC5D0101186F0001D251D3116AE028
:1013C00016C1F8FF15C1F7FF14C1F6FFEA6AD40E83
:1013D000E96E01011B6B400E1A6F000192D7400E9F
:1013E000D880010118550001D35303E1D25D08E014
:1013F00007E3400ED88001011855196F04D0000191
:10140000D2C019F10101036A1851D40F016E000E08
:10141000032201C01AF103C01BF103C0EAFF01C09F
:10142000E9FFD1C0E2FFD0C0E1FF1951016E04E035
:10143000E6CFEEFF012EFCD7D08C16C1F8FF15C108
:10144000F7FF14C1F6FFA688A69C00016ADFF86AC0
:1014500016C1F8FF15C1F7FF14C1F6FFEA6AD40EF2
:10146000E96E400E01011A6F00016BD7010119519D
:101470000001D027000ED123400E01011427000ED9
:10148000152316231723186B19510001D25F000E84
:10149000D35B93D7A1EF0BF0836B846B8581876B54
:1014A000866B896B886B94DE0A0ECD6FADDEC0DE75
:1014B00001503A08FCE1836B8351050813E3036A8A
:1014C0008351AA0F016E000E032201C0CCF003C0AD
:1014D000CDF0AEDECDC0EAFFCCC0E9FF01C0EFFF2A
:1014E000832BEAD7AAC0D0F0BDDE0138CC6FF00E56
:1014F000CC17ABC0D0F0B6DE0150CC25CA6FACC063
:10150000D0F0B0DE896B01C088F088378937883722
:1015100089378837893788378937F00E8817ADC003
:10152000D0F0A0DE01508827000E89238837893744
:10153000883789378837893788378937F00E881791
:10154000AEC0D0F08FDE01508827000E8923883787
:101550008937883789378837893788378937F00E50
:101560008817AFC0D0F07EDE01508827000E892397
:101570005FDE5EDE01C0CBF0836BD890CA35835D41
:1015800013E2036A8351AA0F016E000E032201C009
:10159000CCF003C0CDF04CDECDC0EAFFCCC0E9FFFB
:1015A00001C0EFFF832BE9D7836B846BD890CA35DA
:1015B000835D51E2036A84518A0F016E000E03229B
:1015C00001C0CCF003C0CDF0036A8351AA0FE96ECD
:1015D000000E0320EA6EEFCFCEF0CEC0D0F042DE98
:1015E000CDC0EAFFCCC0E9FF01C0EFFF036A845120
:1015F0008A0FE96E000E0320EA6EEF38006EF00EDF
:10160000001600C0EFFF036A84518A0F016E000EBE
:10161000032201C0CCF003C0CDF003C0EAFF01C03B
:10162000E9FFEFCFCEF0010E8325036AAA0FE96E22
:10163000000E0320EA6EEFCFCFF0CFC0D0F012DE65
:101640000150CE25CDC0EAFFCCC0E9FFEF6E020EFF
:101650008327842BABD7CB51310805E1550ECC6FD6
:1016600048DE859171D0CB5134080EE1876B8AC07A
:1016700086F086C087F0866B8B518627000E872305
:10168000110ECC6F36DE60D0CB5130085DE1865351
:1016900002E187533EE08651F00835E1875333E19C
:1016A000836B846BD890CA31835D2CE2835188258B
:1016B000016E000E8921036E0150CC6F036A8451C4
:1016C0008A0FE96E000E0320EA6EEFCFCDF0F250E4
:1016D000006EF29ECCC0A9FFCDC0A8FFA69CA69E1E
:1016E000A6840F01550EA76EAA0EA76EA682A6B2FB
:1016F000FED7A6940050F21200018351832B020EF4
:101700008427D0D705D08651300802E1875300E105
:1017100018D08951180808E303E188513F0804E311
:10172000800ECC6FE6DD0DD0CF6BCE6B89C0CDF0D7
:1017300088C0CCF0D16B8A0ED06FD36BCAC0D2F008
:101740002AD6110ECC6FD5DD85B1ADD6080ECC6F83
:10175000FA0ECD6F59DDCC2FFBD7DDEF0BF0F86A19
:10176000D09E078EEA6AE96A93829380770EC86EEC
:10177000280EC66EC78EC79CC150C00B0F09C16E24
:10178000070EB46E1E6A040E1F6E0C0E206E95823C
:1017900083A21BD0010E256E196AF2BE198EF29E2D
:1017A000C3EC01F019BEF28E24D52AD50152FDE01A
:1017B0009298898895908C806FD692988998959008
:1017C0008C90FF00320ECD6F1FDD256A20EF0CF0EC
:0217D000030014
:020000040030CA
:0E00000024CE3E1E0087A1000FC00FE00F406F
:00000001FF
;PIC18F4550
;CRC=A898  CREATED="23-Jun-13 19:41"
