:04000000DEEF0BF034
:0800080025A003D014EF00F065
:1000100002D024EF0CF0120025A003D01CEF00F05A
:1000200002D02CEF0CF01200046ED8CF05F0E0CF18
:1000300006F00001E9CF0CF0EACF07F0E1CF08F0BD
:10004000E2CF09F0D9CF0AF0DACF0BF0F3CF12F0FC
:10005000F4CF13F0FACF14F0F5CF15F0F6CF16F079
:10006000F7CF17F000C00EF001C00FF002C010F083
:1000700003C011F0A0AA40EF00F0A1BAACEF08F065
:100080000EC000F00FC001F010C002F011C003F06C
:100090000CC0E9FF07C0EAFF078E08C0E1FF09C0F6
:1000A000E2FF0AC0D9FF0BC0DAFF12C0F3FF13C092
:1000B000F4FF14C0FAFF15C0F5FF16C0F6FF17C015
:1000C000F7FF045006C0E0FF05C0D8FF1000F76A34
:1000D000DE0FF66E000EF7220900F5501200000345
:1000E00002FFFFFFFFFFFFFFFFFFFFFFFFFFF76ABA
:1000F000FE0FF66E000EF7220900F550120000FF09
:1001000002FFFFFFFFFFFFFFFFFFFFFFFFFFF76A99
:100110001E0FF66E010EF7220900F5501200400086
:100120000800400000000000000000000000000087
:100130000000000000000000000000000000F76A5E
:100140004E0FF66E010EF7220900F5501200400026
:10015000000040000000000000000000000000005F
:100160000000000000000000000000000000F76A2E
:100170007E0FF66E010EF7220900F55012000902FB
:100180004300020100803209040000010202010064
:1001900005240010010424020205240600010524A0
:1001A000010001070581030800FA09040100020AA1
:1001B000000000070502024000010705820240001E
:1001C0000100F76AD20FF66E010EF7220900F55012
:1001D00012000200F76AE40FF66E010EF722090022
:1001E000F550120012171B20FFFFFFFFF76AFC0FEC
:1001F000F66E010EF7220900F550120012011001EF
:100200000200004061043300000101020001F76AAE
:100210001E0FF66E020EF7220900F55012000403BD
:100220000904140347006F0047006F0020005200CC
:10023000650061006C00140347006F0047006F0009
:1002400020005200650061006C006D92699468A402
:1002500002D06894FCD7B8EF08F0400E0401016F9B
:10026000040E036F180E026F880E006F046B040EED
:10027000076F580E066F0001120070A002D0EDDF6C
:100280007090689AC1EF08F06A6A6892C7EF08F048
:1002900001012E912DBF2E812D9F2D51100803E2BB
:1002A000000E016E1BD02EA10DD0036A2D5100014E
:1002B0000EDFFF0802E1000E01D0010E016E010108
:1002C0000DD00CD0036A2D51000111DFFF0802E1AF
:1002D000000E01D0010E016E010100D000011200DC
:1002E000010132513403F3CF01F0F4CF00F03503B4
:1002F000F350002633513403F3500020026E000106
:100300001200036A01012C51700FE96E0F0E0320D9
:10031000EA6EEF6A2CC12DF10001BADF015228E02C
:100320000101336B2CC132F1356B080E346F0001C3
:10033000D7DF010101C0E9FF040E0224EA6EEF6A73
:10034000336B2CC132F1356B080E346F0001C8DFFE
:1003500002C02EF101C02DF1040E01012D27000E67
:100360002E232DC1E9FF040E2E25EA6EEF6A00014F
:100370001200010E01012B6F2B510F0807E32BC157
:100380002CF10001BEDF01012B2BF6D7000112007A
:100390002D6A2C6A250E2B6E800E2A6E2E6A2F6A0D
:1003A000080E306E7F6B7E91326A316A7A6B7B9178
:1003B00012000101216B215101080AE3036A215156
:1003C000280FE96E000E0320EA6EEF6A212BF3D7A7
:1003D0000001DEDF1B6A010E1C6E1A6A12006896AD
:1003E00012006A6A686A9F0E6B6E3D0E696E6E6AD5
:1003F000C0DFDFDF160E706E68A602D0F0DFFCD71C
:100400006D982BDF030E226ECDEF08F0698468989B
:100410006D82D3EF08F0689CD9EF08F026C123F075
:100420001200236812000101246B27522CE0245192
:100430003F0829E31D50000A000105E0020A09E017
:10044000010A0DE012D0036A265091DEE8CF25F1B3
:100450000CD0036A2650DBDEE8CF25F106D0036A14
:100460002650C4DEE8CF25F100D0262A2706010158
:100470002451242B580FE96E040EEA6ED8B0EA2AF4
:1004800025C1EFFFD2D7275204E12451400801E0F3
:100490001A6A24C126F10001C1DF1200266A1D6A12
:1004A00004011B51010A000107E0030A0AE0010AE6
:1004B0000BE0220A1BE02BD0120E276E030E1D6EDE
:1004C00028D0430E276E25D0020E1D6E036A04014C
:1004D0001A511E0FE96E000E0320EA6EEFCF26F0D0
:1004E000036A2650000193DE276E13D0036A0401CD
:1004F0001A5100016FDE266E263C01D006D0036A39
:10050000265035DE276E05D002D08BDF0ED089DF76
:100510000CD004011F5305E127501E5D02E21EC4EA
:1005200027F0010E1A6E00017EDFE3EF03F00101F8
:10053000235306E1040E226E00011BDFE7D0010108
:10054000050E226E040E266F980E256F010E246F85
:1005500024510F08D8A0DAD024C12CF10001D1DE3B
:100560000101276B036A24510001C1DDFF0865E02A
:10057000040E0101276FD8902435036A0001DFDDE6
:100580000900F5CF03F00101286F03C029F1336B97
:1005900024C132F1356B080E346F0001A1DE01C0B9
:1005A0002BF1010E01010124016E000E0220036EE9
:1005B00001C0E9FF040E0324EA6E28C1EFFF336B8C
:1005C00024C132F1356B080E346F000189DE01C0A1
:1005D0002BF1020E01010124016E000E0220036EB8
:1005E00001C0E9FF040E0324EA6E26C1ECFFED52C0
:1005F00025C1EFFFD8902435036A0001A0DD090072
:10060000F5CF03F00101252703502623880E2A6F1A
:1006100029B12A8129B32A83336B24C132F1356B86
:10062000080E346F00015CDE010101C0E9FF040E19
:100630000224EA6E2AC1EFFF0001036A010124517E
:10064000000145DDFF0847E001012783336B24C12A
:1006500032F1356B080E346F000142DE02C02CF11E
:1006600001C02BF1040E01012B27000E2C23020EDA
:100670002B25016E000E2C21036E01C0E9FF040E34
:100680000324EA6E26C1ECFFED5225C1EFFFD8909E
:100690002435036A00013BDD0900F5CF03F00101B9
:1006A000252703502623336B24C132F1356B080E06
:1006B000346F000115DE02C02CF101C02BF1040ED5
:1006C00001012B27000E2C232BC1E9FF040E2C2542
:1006D000EA6E400EEF6E01012751060802E10E0E90
:1006E000276F036A24510001F2DC010803E00101D5
:1006F00027890001036A01012451700FE96E0F0E72
:100700000320EA6E27C1EFFF242B22D70001DBEF85
:1007100003F004011951000A00010DE0010A15E07F
:10072000020A20E0060A2AE0030A31E00E0A31E05C
:10073000010A37E046D01CC058F40401596B020E80
:100740000101266F00016ADE3ED004011A2D07D098
:10075000010E1C160101266B000160DE02D00001B3
:1007600060DE31D004011A2D06D01C820101266BF7
:10077000000154DE02D0000154DE25D0020E1A6EB4
:100780001AC424F00101266B000148DE1CD086D675
:100790001AD01BC058F4010E0101266F00013EDE85
:1007A00012D004011A5101080AE31AC41BF01AC43A
:1007B00023F10001BCD60101266B00012FDE0001F0
:1007C00002D02FDE00D07CEF05F01BC023F1040126
:1007D0001951000A000105E00A0A0CE0010A2BE0A9
:1007E0003FD00401586B596B020E0101266F0001C6
:1007F00015DE38D0010123531BE0010E235D036A8F
:100800000001DFDC016E04011C5DD8A002D00101F3
:100810000FD0036A1C51280FE96E000E0320EA6E08
:10082000EFCF58F4010E0101266F0001F7DD02D071
:100830000001F7DD17D0010123530FE0036A040123
:100840001C51280FE96E000E0320EA6E1AC4EFFF58
:100850000101266B0001E2DD02D00001E2DD02D0E1
:10086000E0DD00D07CEF05F00101249123BF24815D
:10087000239F24A119D0336B23C132F1356B080EAD
:10088000346F00012DDD02C026F101C025F1040EF8
:1008900001012527000E262325C1E9FF040E262588
:1008A000EA6E880EEF6E0FD0336B23C132F1356BD9
:1008B000080E346F000114DD010101C0E9FF040ED0
:1008C0000224EA6EEF6A0001E6EF04F001012491D0
:1008D00023BF2481239F24A119D0336B23C132F17C
:1008E000356B080E346F0001FBDC02C026F101C03D
:1008F00025F1040E01012527000E262325C1E9FF5D
:10090000040E2625EA6E840EEF6E10D0336B23C1E1
:1009100032F1356B080E346F0001E2DC010101C0D9
:10092000E9FF040E0224EA6E840EEF6E0001EEEF82
:1009300004F00101249123BF2481239F24A119D015
:10094000336B23C132F1356B080E346F0001C8DC04
:1009500002C027F101C026F1040E01012627000E76
:10096000272326C1E9FF040E2725EA6EEFCF25F1E4
:1009700010D0336B23C132F1356B080E346F000198
:10098000AFDC010101C0E9FF040E0224EA6EEFCFE3
:1009900025F125AF02D025B502D0000E01D0010E01
:1009A000016E0001FAEF04F01CC42DF171DC01525C
:1009B0002EE004011951010A000105E0020A0BE0D2
:1009C000030A11E022D01CC423F14ED70101266B8B
:1009D000000124DD1CD01CC423F178D70101266B53
:1009E00000011CDD14D00401586B596B1CC423F1A9
:1009F00000019FD7015203E0010E0401586F020E5F
:100A00000101266F00010ADD02D00BDD00D07CEF72
:100A100005F0FE0E236E120004011C2D01D002D041
:100A20001C534FE11951000A00010BE0010A0DE0CF
:100A3000210A1CE0010A1FE0030A30E0010A35E048
:100A40003DD0010E816FE5DF3BD0040EEA6E580EFB
:100A5000E96EE26A330EE16E080E016EE6CFEEFF3C
:100A6000012EFCD71EC426F1D9DC2AD0020E816FDC
:100A70007E81CFDF25D0040EEA6E580EE96EE26A61
:100A80002A0EE16E070E016EE6CFEEFF012EFCD7B7
:100A9000070E0101266F0001C1DC12D01AC47FF0DD
:100AA0000101266B0001BADC0BD01AC432F01BC462
:100AB00031F00101266B0001B1DC02D0B2DC00D0C4
:100AC000040100017CEF05F01A6A040118517F0B44
:100AD000000A000107E0010A07E0030A07E0230A11
:100AE00007E008D016D608D070D606D05DD704D05F
:100AF00093D702D096DC00D0E2EF07F00101336B10
:100B000024C132F1356B080E346F000170EC01F036
:100B1000010101C0E9FF040E0224EA6EEFCF26F1C5
:100B20002551020806E126AD02D0256B02D0010E48
:100B3000256F255103081CE1840E266F336B24C1F9
:100B400032F1356B080E346F000170EC01F002C019
:100B50002AF101C029F1040E01012927000E2A23E0
:100B600029C1E9FF040E2A25EA6E840EEF6E07D034
:100B7000252D03D0C80E266F02D0880E266FD89080
:100B80002435036A00019FEC00F00900F5CF03F063
:100B90000101276F03C028F1336B24C132F1356B9B
:100BA000080E346F000170EC01F001C029F1010E54
:100BB00001010124016E000E0220036E01C0E9FF55
:100BC000040E0324EA6E27C1EFFF28B1268128B363
:100BD0002683336B24C132F1356B080E346F00016C
:100BE00070EC01F0010101C0E9FF040E0224EA6E7D
:100BF00026C1EFFF00011200036A01013151700F9D
:100C0000E96E0F0E0320EA6EEF521BE0336B31C129
:100C100032F1356B080E346F000170EC01F002C048
:100C200033F101C032F1040E01013227000E3323EB
:100C300032C1E9FF040E3325EA6EEFCF34F134AF51
:100C400002D0000E01D0010E016E000112002CC175
:100C500031F1D2DF0152D8B486D00101336B2CC1FF
:100C600032F1356B080E346F000170EC01F002C0F8
:100C700032F101C031F1040E01013127000E32239F
:100C8000010E3125016E000E3221036E01C0E9FF15
:100C9000040E0324EA6E2DC1EFFF2F51020820E15C
:100CA000336B2CC132F1356B080E346F000170ECE0
:100CB00001F002C032F101C031F1040E010131270F
:100CC000000E322331C1E9FF040E3225EA6EEFCF68
:100CD00030F130AD02D02F6B02D0010E2F6F1AD041
:100CE0002F51040817E1336B2CC132F1356B080E1C
:100CF000346F000170EC01F0010101C0E9FF040E46
:100D00000224EA6EEFCF30F130AD03D0010E2F6F29
:100D100001D02F6B2F2D03D0C80E306F02D0880E5C
:100D2000306F2EB130812EB33083336B2CC132F152
:100D3000356B080E346F000170EC01F002C032F127
:100D400001C031F1040E01013127000E322331C1FF
:100D5000E9FF040E3225EA6E30C1EFFF010E016E8D
:100D600005D000D00001000E016E0101000112004B
:100D70008151010A03E0030A15E028D0EA6A330E24
:100D8000E96E040EE26E180EE16E080E016EE6CFFB
:100D9000EEFF012EFCD70101266B00010EEC02F0E4
:100DA000816B16D0EA6A2A0EE96E040EE26E180E06
:100DB000E16E070E016EE6CFEEFF012EFCD7816BD0
:100DC0000101266B00010EEC02F002D0816B00D015
:100DD00027EF07F00101336B24C132F1356B080EA8
:100DE000346F000170EC01F002C026F101C025F162
:100DF000010E01010124016E000E0220036E01C0EC
:100E0000E9FF040E0324EA6E036AEFCF01F003C08A
:100E100002F000011BEF07F07B91020E0101246F2D
:100E2000256F00016BDE12007B817D6B020E0101DC
:100E3000246F0001CFD701C07CF07C5301E1ECDFCF
:100E40002EEF07F00101235304E1000191D706D0F2
:100E500001012351020803E10001E6D7010100016D
:100E6000120024C16EFF0101245303E0040E226E20
:100E700002D0020E226E000143EF07F01B6A1A6ACD
:100E800024C024F1EED7BCEF07F024C131F1B4DE69
:100E900001524AE00101336B24C132F1356B080E77
:100EA000346F000170EC01F002C02DF101C02CF193
:100EB000040E01012C27000E2D23020E2C25016E9D
:100EC000000E2D21036E01C0E9FF040E0324EA6E1B
:100ED000ECCF03F0ED52EFCF2AF103C02BF12BC181
:100EE000EAFF2AC1E9FF26C1E2FF25C1E1FF28C1CF
:100EF00002F027C101F0015202E0022A02D00252A0
:100F000006E0E6CFEEFF012EFCD7022EFAD724C171
:100F10002CF128C12EF127C12DF129C12FF100019B
:100F200096DE015003D000D0000E016E1200020EBA
:100F30000101246F266B3B0E256F286B7AC027F1C9
:100F4000020E296F0001A1DF7AC080F07A6B1200D7
:100F50007A5301E0ECDFC3EF07F0010123530EE108
:100F60001A2C05D0000113EC02F006D001011A5032
:100F7000020803E1000182D7010106D023510208D3
:100F800003E10001E5D70101000112002130010158
:100F9000216F213321331F0E211721524FE104010C
:100FA00000513C0B0101226F430E040100170101A7
:100FB0002251340825E104010451800B01E0046B47
:100FC000000182D56D98233C07D00101246B030EEC
:100FD000256F000193DD12D00101246B020E256FF5
:100FE00000018CDD2350FE0809E001012C6B2E6B03
:100FF00023C02DF1040E2F6F000129DE1DD0010149
:10100000225104081AE1236B00011CDF0101246B4B
:10101000020E256F000172DD2350FE080CE0233C18
:1010200001D009D001012C6B2E6B23C02DF1010ED4
:101030002F6F00010CDE00D001018BD0215004087D
:1010400017E1430E0401041723680101236B00011B
:1010500084DF233C01D00AD001012C6B2E6B23C00E
:101060002DF1020E2F6F0001F2DD00D071D00101D1
:1010700021B432D0336B21C132F1356B080E346F9D
:10108000000170EC01F002C024F101C023F1010164
:1010900001C001F0040E0224036E01C025F1266F89
:1010A000336B21C132F1356B080E346F000170ECE7
:1010B00001F0010101C0E9FF040E0224EA6EEF50C5
:1010C000430B26C1EAFF25C1E9FFEF6E21C123F1E1
:1010D0000001B8DE3DD00101336B21C132F1356B27
:1010E000080E346F000170EC01F002C024F101C061
:1010F00023F1040E01012327000E242323C101F054
:10110000040E2425036E23C125F1266F336B21C104
:1011100032F1356B080E346F000170EC01F002C043
:1011200028F101C027F1040E01012727000E282312
:1011300027C1E9FF040E2825EA6EEF50430B26C1B4
:10114000EAFF25C1E9FFEF6E21C123F1000105DFB0
:1011500001010001E5EF08F0A19A225201E13ED021
:1011600068523CE068A404D069A402D025EF01F0E5
:101170006DA201D033D068AA04D069AA02D03DEF95
:1011800001F068A204D069A202D044EF01F068A087
:1011900004D069A002D0F1EF01F068A804D069A8DA
:1011A00002D006EF02F068AC04D069AC02D00BEFBD
:1011B00002F00101206B68A60AD069A608D06CCFA6
:1011C00021F00001EFEC01F0E1D602D0010105D0E1
:1011D00001012051202B0308EEE2000140EF00F056
:1011E0006D6A696A080E6F6E94503009946E226AB7
:1011F000196AF2BE198EF29ED9EC01F019BEF28E78
:1012000003EF09F0EDD728EF09F0196AF2BE198E45
:10121000F29ED9EC01F019BEF28E6D6A140E6F6E5B
:10122000696A6D86010E226E19EF09F06DB601D064
:10123000ECD7222C0BD06DBA09D0686A696AA08AF3
:10124000C00EF212110E696E020E226E1200DAD773
:10125000EDDF22500208FCE102EF0CF01B50016EA2
:1012600003EF0CF0EA6ACC0EE96EEF500EE00F0EC1
:10127000016E006A002EFED7012EFBD78F0E006E86
:10128000002EFED70000EF2EF2D712007BB101D066
:10129000FDD77D517D2BA00FE96E040EEA6ED8B00C
:1012A000EA2AEFCFCDF07C517D5D07E3196AF2BEEB
:1012B000198EF29EB1DD19BEF28ECDC001F0120082
:1012C000CF51400809E2CF51460806E3410ECF5DF9
:1012D0000A0F016E0BD00AD0CF512F0807E2CF5171
:1012E000390804E3300ECF5D016E00D01200CE91BC
:1012F000F2BECE81F29E7A513E0802E23E0E7A6F35
:101300007A517A2B036A3B0FE96E000E0320EA6ED6
:10131000CDC0EFFFF29ECEB1F28E92EF09F0CCC0BD
:10132000CDF0E5D7196AF2BE198EF29E020E0101C8
:10133000316F000161DC19BEF28E015207E0196ABB
:10134000F2BE198EF29EF3DD19BEF28EAFEF09F0F8
:101350007A513E0801E2FCD7CBC0CCF0E0D71200B6
:101360001AC101F019C100F00066012A0900F5CF89
:10137000EEFF002EFBD7012EF9D7F86A1EEF0AF018
:10138000F250036EF29EA68EA6840F01550EA76E34
:10139000AA0EA76EA68200000350F21200011200EE
:1013A000D08CA69CF6501F0B006EE00EF6160A00BD
:1013B00019C101F0006608D0F650010F3F0B04E19F
:1013C000A6880900DDDF0A00006607D0EECFF5FF32
:1013D000015204E00F00010603D000060B000C00D0
:1013E0001F0EF6141F0AE6E1CBDF0166E3D7F86AA9
:1013F00065EF0AF0CB51C00B0101136FCCC014F1A3
:10140000CDC015F10001CEC016F10101135100014C
:10141000CB5D0101176F0001D151D2116AE015C1F6
:10142000F8FF14C1F7FF13C1F6FFEA6AD30EE96EA5
:1014300001011A6B400E196F000192D7400ED8803F
:10144000010117550001D25303E1D15D08E007E324
:10145000400ED88001011755186F04D00001D1C08B
:1014600018F10101036A1751D30F016E000E032218
:1014700001C019F103C01AF103C0EAFF01C0E9FF7E
:10148000D0C0E2FFCFC0E1FF1851016E04E0E6CF0B
:10149000EEFF012EFCD7D08C15C1F8FF14C1F7FF69
:1014A00013C1F6FFA688A69C00016ADFF86A15C181
:1014B000F8FF14C1F7FF13C1F6FFEA6AD30EE96E15
:1014C000400E0101196F00016BD701011851000195
:1014D000CF27000ED023400E01011327000E142346
:1014E00015231623176B18510001D15F000ED25B34
:1014F00093D7D0EF0BF0826B836B8481866B856B07
:10150000886B876B93DE0A0ECC6FACDEBFDE0150BA
:101510003A08FCE1826B8251050813E3036A8251A9
:10152000A90F016E000E032201C0CBF003C0CCF066
:10153000ADDECCC0EAFFCBC0E9FF01C0EFFF822BDC
:10154000EAD7A9C0CFF0BCDE0138CB6FF00ECB17C5
:10155000AAC0CFF0B5DE0150CB25C96FABC0CFF02C
:10156000AFDE886B01C087F08737883787378837C9
:101570008737883787378837F00E8717ACC0CFF0AA
:101580009FDE01508727000E8823873788378737EB
:1015900088378737883787378837F00E8717ADC089
:1015A000CFF08EDE01508727000E882387378837DB
:1015B000873788378737883787378837F00E871718
:1015C000AEC0CFF07DDE01508727000E88235EDE9F
:1015D0005DDE01C0CAF0826BD890C935825D13E22E
:1015E000036A8251A90F016E000E032201C0CBF0E5
:1015F00003C0CCF04BDECCC0EAFFCBC0E9FF01C09A
:10160000EFFF822BE9D7826B836BD890C935825D5F
:1016100051E2036A8351890F016E000E032201C05B
:10162000CBF003C0CCF0036A8251A90FE96E000E23
:101630000320EA6EEFCFCDF0CDC0CFF041DECCC0BD
:10164000EAFFCBC0E9FF01C0EFFF036A8351890FB6
:10165000E96E000E0320EA6EEF38006EF00E001601
:1016600000C0EFFF036A8351890F016E000E032251
:1016700001C0CBF003C0CCF003C0EAFF01C0E9FF1A
:10168000EFCFCDF0010E8225036AA90FE96E000E9F
:101690000320EA6EEFCFCEF0CEC0CFF011DE0150C6
:1016A000CD25CCC0EAFFCBC0E9FFEF6E020E82274A
:1016B000832BABD7CA51310805E1550ECB6F48DEFD
:1016C000849171D0CA5134080EE1866B89C085F0CF
:1016D00085C086F0856B8A518527000E8623110E02
:1016E000CB6F36DE60D0CA5130085DE1855302E130
:1016F00086533EE08551F00835E1865333E1826B35
:10170000836BD890C931825D2CE282518725016EAE
:10171000000E8821036E0150CB6F036A8351890F3D
:10172000E96E000E0320EA6EEFCFCCF0CBC0A9FF2C
:10173000CCC0A8FFA69CA69EA684F250006EF29E86
:101740000F01550EA76EAA0EA76EA682A6B2FED7EF
:10175000A6940050F21200018251822B020E8327C0
:10176000D0D705D08551300802E1865300E118D06A
:101770008851180808E303E187513F0804E3800E0D
:10178000CB6FE6DD0DD0CE6BCD6B88C0CCF087C0C3
:10179000CBF0D06B890ECF6FD26BC9C0D1F02AD6F7
:1017A000110ECB6FD5DD84B1ADD6080ECB6FFA0E1E
:1017B000CC6F58DDCB2FFBD70AEF0CF0F86AD09E28
:1017C000078EEA6AE96A93829380770EC86E280EC4
:1017D000C66EC78EC79C226A276A7A6B816BC1501E
:1017E000C00B0F09C16E070EB46E1E6A040E1F6E89
:1017F0000C0E206E958283A215D0010E256EC8ECCA
:1018000001F025D52BD50152FDE09298898895905D
:101810008C8071D69298899895908C90FF00320EAA
:0C182000CC6F20DD256A20EF0CF00300E7
:020000040030CA
:0E00000024CE3E1E0087A1000FC00FE00F406F
:00000001FF
;PIC18F4550
;CRC=13C8  CREATED="17-out-11 12:05"
