:0418400080EF29F01C
:08184800046ED8CF05F0E0CFDB
:1018500006F00001E9CF0CF0EACF07F0E1CF08F085
:10186000E2CF09F0D9CF0AF0DACF0BF0F3CF12F0C4
:10187000F4CF13F0FACF14F0F5CF15F0F6CF16F041
:10188000F7CF17F000C00EF001C00FF002C010F04B
:1018900003C011F0F2AA50EF0CF0F2B43EEF15F0D5
:1018A0009DA056EF0CF09EB094EF16F09DA25CEF59
:1018B0000CF09EB2FDEF16F0A0AA62EF0CF0A1BAF8
:1018C000B5EF14F00EC000F00FC001F010C002F030
:1018D00011C003F00CC0E9FF07C0EAFF078E08C083
:1018E000E1FF09C0E2FF0AC0D9FF0BC0DAFF12C056
:1018F000F3FF13C0F4FF14C0FAFF15C0F5FF16C0C4
:10190000F6FF17C0F7FF045006C0E0FF05C0D8FF80
:101910001000F76A220FF66E190EF7220900F55033
:101920001200000302FFFFFFFFFFFFFFFFFFFFFFAB
:10193000FFFFF76A420FF66E190EF7220900F55005
:10194000120000FF02FFFFFFFFFFFFFFFFFFFFFF8F
:10195000FFFFF76A620FF66E190EF7220900F550C5
:10196000120040000B0040000000000000000000DA
:101970000000000000000000000000000000000067
:101980000000F76A920FF66E190EF7220900F55063
:1019900012004000000040000000000000000000B5
:1019A0000000000000000000000000000000000037
:1019B0000000F76AC20FF66E190EF7220900F55003
:1019C00012000902430002010080320904000001F4
:1019D000020201000524001001042402020524066D
:1019E00000010524010001070581030B00FA090429
:1019F0000100020A0000000705020240000107057D
:101A0000820240000100F76A160FF66E1A0EF722E6
:101A10000900F55012000200F76A280FF66E1A0E40
:101A2000F7220900F550120012171B20FFFFFFFFDD
:101A3000F76A400FF66E1A0EF7220900F5501200F1
:101A40001201100102000040610433000001010294
:101A50000001F76A620FF66E1A0EF7220900F550C0
:101A60001200040309040803430043005300180351
:101A7000530045005200490041004C002000440042
:101A800045004D004F006D92699468A402D068949F
:101A9000FCD7C1EF14F0400E0401016F040E036F78
:101AA000180E026F880E006F046B040E076F580E3D
:101AB000066F0001120070A002D0EDDF7090689AEE
:101AC000CAEF14F06A6A6892D0EF14F00101FD9138
:101AD000FCBFFD81FC9FFC51100803E2000E016E6B
:101AE0001AD0FDA10DD0036AFC51000112DFFF08DE
:101AF00002E1000E01D0010E016E01010CD00BD0ED
:101B0000036AFC51000115DFFF0802E1000E01D05D
:101B1000010E016E010100011200020101510303D7
:101B2000F3CF01F0F4CF00F00403F350002602518C
:101B30000303F3500020026E00011200036A01014A
:101B4000FB51700FE96E0F0E0320EA6EEF6AFBC1C6
:101B5000FCF10001BBDF015229E00201026BFBC175
:101B600001F2046B080E036F0001D7DF010101C011
:101B7000E9FF040E0224EA6EEF6A0201026BFBC168
:101B800001F2046B080E036F0001C7DF02C0FDF114
:101B900001C0FCF1040E0101FC27000EFD23FCC175
:101BA000E9FF040EFD25EA6EEF6A00011200010E46
:101BB0000101FA6FFA510F0807E3FAC1FBF10001C6
:101BC000BDDF0101FA2BF6D7000112000101F46B11
:101BD000F36B250EF26F800EF16FEA6A2C0EE96E40
:101BE000010EE26EF10EE16E020E016EE6CFEEFF27
:101BF000012EFCD72E6A2F6AF16BEA6A300EE96E6D
:101C0000010EE26EF10EE16EE6CFEEFFF16BEA6AD5
:101C1000310EE96E010EE26EF10EE16EE6CFEEFFDF
:101C2000080EF16FEA6A320EE96E010EE26EF10EF5
:101C3000E16EE6CFEEFF0001816B8091346A336A7A
:101C40007C6B7D91826B1200296A286A0101F06B1E
:101C5000F05101080AE3036AF0512A0FE96E000E01
:101C60000320EA6EEF6AF02BF3D70001AFDF1B6AA7
:101C7000010E1C6E1A6A1200689612006A6A686A7F
:101C80009F0E6B6E3D0E696E6E6A91DFDDDF160E84
:101C9000706E68A602D0F0DFFCD76D98FCDE030EF4
:101CA000226ED6EF14F0698468986D82DCEF14F030
:101CB000689CE2EF14F0F5C123F0120023681200D3
:101CC0000101F36B2850291033E0F3513F0830E352
:101CD0001D50000A000105E0020A0AE0010A0FE0B7
:101CE00014D027C003F0265064DEE8CFF4F10DD005
:101CF00027C003F02650ADDEE8CFF4F106D027C0B0
:101D000003F0265095DEE8CFF4F1262AD8B4272A2E
:101D10002850D8B4290628060101F351F32B580F97
:101D2000E96E040EEA6ED8B0EA2AF4C1EFFFCAD712
:101D30002850291004E1F351400801E01A6AF3C168
:101D4000F5F10001B8DF1200276A266A1D6A040156
:101D50001B51010A000107E0030A0BE0010A0DE034
:101D6000220A22E03AD0296A120E286E030E1D6E56
:101D700036D0296A430E286E32D0020E1D6E036AD9
:101D800004011A511E0FE96E000E0320EA6E276A45
:101D9000EFCF26F027C003F0265000015ADE036A79
:101DA000286E03C029F01BD0036A04011A510001F8
:101DB00033DE036A266E03C027F0263C02D027528A
:101DC0000AE027C003F02650F4DD036A286E03C042
:101DD00029F005D002D072DF11D070DF0FD00401DE
:101DE0001F5308E1295203E128501E5D03E2296ACE
:101DF0001EC428F0010E1A6E000162DF50EF10F0D1
:101E00000101F25306E1040E226E0001D0DEECD097
:101E10000101050E226E040EF56F980EF46F010E8F
:101E2000F36FF3510F08D8A0DFD0F3C1FBF100012D
:101E300085DE0101F66B036AF35100017ADDFF08CC
:101E400068E0040E0101F66FD890F335036A0001D3
:101E500098DD0900F5CF03F00101F76F03C0F8F139
:101E60000201026BF3C101F2046B080E036F000163
:101E700054DE01C0FAF1010E01010124016E000ED1
:101E80000220036E01C0E9FF040E0324EA6EF7C1CD
:101E9000EFFF0201026BF3C101F2046B080E036F46
:101EA00000013BDE01C0FAF1020E01010124016EC6
:101EB000000E0220036E01C0E9FF040E0324EA6E47
:101EC000F5C1ECFFED52F4C1EFFFD890F335036A92
:101ED000000157DD0900F5CF03F00101F42703509D
:101EE000F523880EF96FF8B1F981F8B3F98302018F
:101EF000026BF3C101F2046B080E036F00010DDEEB
:101F0000010101C0E9FF040E0224EA6EF9C1EFFFEE
:101F10000001036A0101F3510001FBDCFF0849E005
:101F20000101F6830201026BF3C101F2046B080E9A
:101F3000036F0001F2DD02C0FBF101C0FAF1040EF3
:101F40000101FA27000EFB23020EFA25016E000E96
:101F5000FB21036E01C0E9FF040E0324EA6EF5C104
:101F6000ECFFED52F4C1EFFFD890F335036A0001A6
:101F7000F0DC0900F5CF03F00101F4270350F5234D
:101F80000201026BF3C101F2046B080E036F000142
:101F9000C4DD02C0FBF101C0FAF1040E0101FA2711
:101FA000000EFB23FAC1E9FF040EFB25EA6E400E8A
:101FB000EF6E0101F651060802E10E0EF66F036A9C
:101FC000F3510001A6DC010803E00101F6890001DC
:101FD000036A0101F351700FE96E0F0E0320EA6EE0
:101FE000F6C1EFFFF32B1DD7000149EF10F00401FC
:101FF0001951000A00010DE0010A15E0020A20E073
:10200000060A2AE0030A31E00E0A31E0010A37E04D
:1020100046D01CC058F40401596B020E0101F56F43
:10202000000149DE3DD004011A2D07D0010E1C1617
:102030000101F56B00013FDE02D000013FDE30D030
:1020400004011A2D06D01C820101F56B000133DE5C
:1020500002D0000133DE24D0020E1A6E1AC424F01E
:102060000101F56B000127DE1BD06ED619D01BC015
:1020700058F4010E0101F56F00011DDE11D00401BD
:102080001A5101080AE31AC41BF01AC4F2F1000144
:10209000B7D60101F56B00010EDE000101D00EDEA6
:1020A000EBEF11F01BC0F2F104011951000A00011D
:1020B00005E00A0A0CE0010A2BE03FD00401586B4E
:1020C000596B020E0101F56F0001F5DD37D00101FA
:1020D000F2531BE0010EF25D036A000194DC016E15
:1020E00004011C5DD8A002D001010FD0036A1C516D
:1020F0002A0FE96E000E0320EA6EEFCF58F4010EAE
:102100000101F56F0001D7DD02D00001D7DD16D047
:102110000101F2530FE0036A04011C512A0FE96E1A
:10212000000E0320EA6E1AC4EFFF0101F56B0001F7
:10213000C2DD02D00001C2DD01D0C0DDEBEF11F045
:102140000101F391F2BFF381F29FF3A11AD00201D2
:10215000026BF2C101F2046B080E036F0001DDDCBB
:1021600002C0F5F101C0F4F1040E0101F427000EE4
:10217000F523F4C1E9FF040EF525EA6E880EEF6E33
:1021800010D00201026BF2C101F2046B080E036F62
:102190000001C3DC010101C0E9FF040E0224EA6E64
:1021A000EF6A000158EF11F00101F391F2BFF381E2
:1021B000F29FF3A11AD00201026BF2C101F2046B8B
:1021C000080E036F0001A9DC02C0F5F101C0F4F1B3
:1021D000040E0101F427000EF523F4C1E9FF040EFB
:1021E000F525EA6E840EEF6E11D00201026BF2C18A
:1021F00001F2046B080E036F00018FDC010101C0C6
:10220000E9FF040E0224EA6E840EEF6E000160EF17
:1022100011F00101F391F2BFF381F29FF3A11AD003
:102220000201026BF2C101F2046B080E036F0001A0
:1022300074DC02C0F6F101C0F5F1040E0101F527CE
:10224000000EF623F5C1E9FF040EF625EA6EEFCF86
:10225000F4F111D00201026BF2C101F2046B080E1D
:10226000036F00015ADC010101C0E9FF040E0224E2
:10227000EA6EEFCFF4F1F4AF02D0F4B502D0000E65
:1022800001D0010E016E00016CEF11F01CC4FCF1D5
:102290001DDC01522DE004011951010A000105E085
:1022A000020A0BE0030A11E022D01CC4F2F148D765
:1022B0000101F56B0001FFDC1BD01CC4F2F174D7E7
:1022C0000101F56B0001F7DC13D00401586B596B69
:1022D0001CC4F2F100019DD7015203E0010E04017C
:1022E000586F020E0101F56F0001E5DC01D0E6DC5C
:1022F000EBEF11F0FE0E236E120004011C2D01D035
:1023000002D01C534EE11951000A00010BE0010AF2
:102310000DE0210A1CE0010A1FE0030A30E0010A77
:1023200035E03DD0010E826FE5DF3AD0040EEA6E53
:10233000580EE96EE26A350EE16E080E016EE6CFC8
:10234000EEFF012EFCD71EC4F5F1B5DC29D0020E3C
:10235000826F8081CFDF24D0040EEA6E580EE96EC2
:10236000E26A2C0EE16E070E016EE6CFEEFF012E43
:10237000FCD7070E0101F56F00019DDC11D01AC4D6
:1023800081F00101F56B000196DC0AD01AC434F02B
:102390001BC433F00101F56B00018DDC01D08EDC34
:1023A00004010001EBEF11F01A6A040118517F0BD0
:1023B000000A000107E0010A07E0030A07E0230A18
:1023C00007E008D014D607D06DD605D05FD703D06C
:1023D00094D701D073DC55EF14F00201026BF3C106
:1023E00001F2046B080E036F00018DEC0DF001018A
:1023F00001C0E9FF040E0224EA6EEFCFF5F1F451BB
:10240000020806E1F5AD02D0F46B02D0010EF46FC4
:10241000F45103081DE1840EF56F0201026BF3C154
:1024200001F2046B080E036F00018DEC0DF002C089
:10243000F9F101C0F8F1040E0101F827000EF923AB
:10244000F8C1E9FF040EF925EA6E840EEF6E07D09D
:10245000F42D03D0C80EF56F02D0880EF56FD8901A
:10246000F335036A0001C1EC0CF00900F5CF03F06D
:102470000101F66F03C0F7F10201026BF3C101F233
:10248000046B080E036F00018DEC0DF001C0F8F134
:10249000010E01010124016E000E0220036E01C035
:1024A000E9FF040E0324EA6EF6C1EFFFF7B1F581F0
:1024B000F7B3F5830201026BF3C101F2046B080E5E
:1024C000036F00018DEC0DF0010101C0E9FF040E66
:1024D0000224EA6EF5C1EFFF00011200036A020157
:1024E0000051700FE96E0F0E0320EA6EEF521BE0F1
:1024F000026B00C201F2046B080E036F00018DEC49
:102500000DF002C002F201C001F2040E0201012727
:10251000000E022301C2E9FF040E0225EA6EEFCF8E
:1025200003F203AF02D0000E01D0010E016E0001D4
:102530001200FBC100F2D2DF0152D8B48BD00201ED
:10254000026BFBC101F2046B080E036F00018DECFE
:102550000DF002C001F201C000F2040E02010027DA
:10256000000E0123010E0025016E000E0121036EF5
:1025700001C0E9FF040E0324EA6EFCC1EFFF010174
:10258000FE51020822E10201026BFBC101F2046B61
:10259000080E036F00018DEC0DF002C001F201C0C6
:1025A00000F2040E02010027000E012300C2E9FF21
:1025B000040E0125EA6EEFCFFFF10101FFAD02D05D
:1025C000FE6B02D0010EFE6F1CD0FE51040819E113
:1025D0000201026BFBC101F2046B080E036F0001E4
:1025E0008DEC0DF0020101C0E9FF040E0224EA6E39
:1025F000EFCFFFF10101FFAD03D0010EFE6F01D05F
:10260000FE6BFE2D03D0C80EFF6F02D0880EFF6F49
:10261000FDB1FF81FDB3FF830201026BFBC101F23B
:10262000046B080E036F00018DEC0DF002C001F287
:1026300001C000F2040E02010027000E012300C2B7
:10264000E9FF040E0125EA6EFFC1EFFF010E016EE6
:1026500004D00001000E016E02010001120082513F
:10266000010A03E0030A15E028D0EA6A350EE96E94
:10267000040EE26E180EE16E080E016EE6CFEEFF5C
:10268000012EFCD70101F56B00015BEC0EF0826BB3
:1026900015D0EA6A2C0EE96E040EE26E180EE16E99
:1026A000070E016EE6CFEEFF012EFCD7826B010113
:1026B000F56B00015BEC0EF001D0826B9DEF13F027
:1026C0000201026BF3C101F2046B080E036F0001FB
:1026D0008DEC0DF002C0F5F101C0F4F1010E010125
:1026E0000124016E000E0220036E01C0E9FF040EFA
:1026F0000324EA6E036AEFCF01F003C002F0000189
:1027000091EF13F07D91020E0101F36FF46F000160
:1027100064DE12007D817F6B020E0101F36F000108
:10272000CFD701C07EF07E5301E1ECDFA4EF13F0C0
:102730000101F25304E1000192D706D00101F251E8
:10274000020803E10001E6D7010100011200F3C114
:102750006EFF0101F35303E0040E226E02D0020E5D
:10276000226E0001B9EF13F01B6A1A6A24C0F3F15C
:10277000EED72FEF14F0F3C100F2B0DE015247E0C4
:102780000201026BF3C101F2046B080E036F00013A
:102790008DEC0DF002C0FCF101C0FBF1040E010153
:1027A000FB27000EFC23020EFB25016E000EFC2110
:1027B000036E01C0E9FF040E0324EA6EECCFFAF1C8
:1027C000ED52EFCFF9F1FAC1EAFFF9C1E9FFF5C126
:1027D000E2FFF4C1E1FFF7C102F0F6C101F00152DE
:1027E00002E0022A02D0025206E0E6CFEEFF012EFE
:1027F000FCD7022EFAD7F3C1FBF1F7C1FDF1F6C108
:10280000FCF1F8C1FEF1000194DE015002D0000E8F
:10281000016E12007C5310E0020E0101F36FF56BA4
:102820003D0EF46FF76B7CC0F6F1020EF86F0001FD
:10283000A2DF015201E07C6B1200ECDF36EF14F0F6
:102840000101F2530EE11A2C05D0000160EC0EF0EC
:1028500006D001011A50020803E1000185D70101E9
:1028600006D0F251020803E10001E7D7010100019F
:10287000120021300101F06FF033F0331F0EF0171A
:1028800021524EE1040100513C0B0101F16F430E56
:10289000040100170101F151340825E1040104513C
:1028A000800B01E0046B00017FD56D98233C07D0BD
:1028B0000101F36B030EF46F00018FDD12D00101F3
:1028C000F36B020EF46F000188DD2350FE0809E06F
:1028D0000101FB6BFD6B23C0FCF1040EFE6F0001D8
:1028E00028DE1CD00101F151040819E1F26B00014E
:1028F0001FDF0101F36B020EF46F00016EDD235048
:10290000FE080CE0233C01D009D00101FB6BFD6BFC
:1029100023C0FCF1010EFE6F00010BDE010122D08D
:102920002150040812E12368F26B000189DF233C87
:1029300001D009D00101FB6BFD6B23C0FCF1020E3D
:10294000FE6F0001F6DD0DD0010121B406D0F0C10B
:10295000F2F10001EDDE05D00101F0C1F2F100015C
:102960006FDF01010001EEEF14F0A19A225201E1A4
:102970003ED068523CE068A404D069A402D043EF82
:102980000DF06DA201D033D068AA04D069AA02D09C
:102990005BEF0DF068A204D069A202D062EF0DF0E7
:1029A00068A004D069A002D03EEF0EF068A804D061
:1029B00069A802D053EF0EF068AC04D069AC02D025
:1029C00058EF0EF00101EF6B68A60AD069A608D097
:1029D0006CCF21F000013CEC0EF04BD702D001018E
:1029E00005D00101EF51EF2B0308EEE2000162EF89
:1029F0000CF00101F3C100F0F451016E04E0D89035
:102A00000032012EFCD70050010B016E00011200B4
:102A10000101F551070B006EF531016E01320132F3
:102A20001F0E01160150F725E96E000EF821EA6E1F
:102A3000016A012A002A01D00136002EFDD7F65383
:102A400003E00150EF1203D0011E0150EF16000108
:102A50001200F4C103F00101F3C1E9FFF4C1EAFF80
:102A6000010E006EF551016E04E0D8900036012E83
:102A7000FCD70050EF10EF6E000112000101802B17
:102A800080510208D8A439D1806B1A5103086BE336
:102A900014C1F3F11CC1F4F10001ABDF012C61D0D2
:102AA000036A01011C51150FE96E010E0320EA6E45
:102AB000EF3C01D057D011C1F3F11CC1F4F100017A
:102AC00098DF015237E113C1F3F11CC1F4F191DF3A
:102AD000015218E0D89001011C35036AF90FE96E24
:102AE000000E0320EA6EECCFF4F1ED52EFCFF3F1DC
:102AF000F3C1F5F1F66B0F0EF86F890EF76F000159
:102B000087DF17D0D89001011C35036A010FE96EE9
:102B1000010E0320EA6EECCFF4F1ED52EFCFF3F1AA
:102B2000F3C1F5F1F66B0F0EF86F890EF76F000128
:102B30006FDF17D0D89001011C35036A010FE96ED1
:102B4000010E0320EA6EECCFF4F1ED52EFCFF3F17A
:102B5000F3C1F5F1F66B0F0EF86F890EF76F0001F8
:102B600057DF010173D0EF6BEF510308D8A06ED08F
:102B700014C1F3F1EFC1F4F100013BDF012C63D08C
:102B8000036A0101EF51150FE96E010E0320EA6E91
:102B9000EF525AE011C1F3F1EFC1F4F1000129DF66
:102BA000015239E113C1F3F1EFC1F4F122DF015217
:102BB00019E0D8900101EF35036AF90FE96E000EB4
:102BC0000320EA6EECCFF4F1ED52EFCFF3F1F3C155
:102BD000F5F1010EF66F0F0EF86F890EF76F000119
:102BE00017DF18D0D8900101EF35036A010FE96EA5
:102BF000010E0320EA6EECCFF4F1ED52EFCFF3F1CA
:102C0000F3C1F5F1010EF66F0F0EF86F890EF76F35
:102C10000001FEDE18D0D8900101EF35036A010FE4
:102C2000E96E010E0320EA6EECCFF4F1ED52EFCF26
:102C3000F3F1F3C1F5F1010EF66F0F0EF86F890E87
:102C4000F76F0001E5DE0101EF2B8ED7F069EF6B26
:102C5000EF51040823E3036AEF51150FE96E010EEB
:102C60000320EA6EEF50F05D17E31BC1F3F1EFC1F3
:102C7000F4F10001BEDE0152D8B402D001010CD043
:102C8000036A0101EF51150FE96E010E0320EA6E90
:102C9000EFCFF0F1EFC1F1F1EF2BDAD7010EF46FC6
:102CA0001B0EF36FF1C1F5F10001D3DE01011A51E2
:102CB00003080BE3036A1C51150FE96E010E032094
:102CC000EA6EEF50F05DF26F02D0F0C1F2F1F1C1A7
:102CD0001CF11A51030801E11B6B1A51030802E3AE
:102CE0001A2B01D01A6BF25303E11A53D8A4CDD694
:102CF0001A5303E1000180850101FF0ED880F255CF
:102D0000D76AD66EF294000162EF0CF0F2C188F03F
:102D1000F1C187F0F0C186F0EFC185F0BBEF16F08E
:102D2000896B89C0CAF012000101202BD8B4212B75
:102D3000092D01D001D0222B1E5302E11F5304E0C4
:102D40001E51D8B41F071E0783A24CD0000180BDBE
:102D500048D0807B808D01011F6B1E6B0001809F1E
:102D600080B93DD00101F26BF16B21C1F0F120C1BE
:102D7000EFF10001CBD78988F2CFEFF1F29EF86A2C
:102D80007F0EF76EF00EF66E0900F5500800F5CFD5
:102D900003F0F86A0101EFBFF28EEF6FF06FEF6B97
:102DA000F2CFF1F1F29EF86A7F0EF76EF20EF66E38
:102DB0000900F5500800F5CF03F0F86AF1BFF28E74
:102DC000EF250001ED6F03500101F0210001EE6FCE
:102DD000D890ED37EE37A4DF8097808902D08099B4
:102DE000899804D0000180AD01D0809D1C0ECF6E6B
:102DF000770ECE6E9E9062EF0CF09E9262EF0CF01A
:102E000001010E6B010E096F00018099CA6B896B7D
:102E1000F2CFCDF1F29EF86A760EF76E080EF66EDE
:102E20000900F5500800F5CF03F0F86A0101CDBFA5
:102E3000F28E0001EB6F03C0ECF07C0EF26F0E0E11
:102E4000F16F7C0EF46F0B0EF36F7C0EF66F1D0EA0
:102E5000F56F7C0EF86F1A0EF76F7C0EFA6F0D0E81
:102E6000F96F7C0EFC6F0A0EFB6F7C0EFE6F1C0E62
:102E7000FD6F7C0E0101006F160E0001FF6F7C0ECE
:102E80000101026F0C0E016F7C0E046F1F0E036FA9
:102E90007C0E066F1B0E056F7C0E086F170E076FFA
:102EA000096B0A6B0B6B0C6B0D6B0E6B0F6B0001E0
:102EB000809380950101106B116B126B136B146B77
:102EC000040E1A6F1B6B1C6B1D6B000180978099A1
:102ED000809B809D01011F6B1E6B216B206B226B01
:102EE000376B386B396B3A6B3C6B3B6B7D6B7F6B35
:102EF0007E6B806B1569166917691869196900017D
:102F0000C4EF29F0010EEA6EDF0EE96EEF500EE01D
:102F10000F0E016E006A002EFED7012EFBD78F0E1A
:102F2000006E002EFED70000EF2EF2D71200320EF8
:102F3000BE6E8C8089880101DF6F0001E3DFBE6A0D
:102F4000320E0101DF6F0001DDDF8C908998320EB7
:102F5000BE6E0101DF6F0001D5DFBE6A8C808988FB
:102F6000640E0101DF6F0001CDDF8C90899856EF70
:102F700018F08B908B920101126B2F0E926E030E44
:102F8000936E000E946E020E956E070E966EC150F3
:102F9000C00B0709C16EC050C00B0709C06EC08EC0
:102FA000C280106B000E016EC250C30B0110C26EC6
:102FB0008A9E8C9C89988C90CD6BCE6BCD510308EA
:102FC00059E3D890CD35036AF10FE96E000E032066
:102FD000EA6EECCFD0F1ED52EFCFCFF1196AF2BE2D
:102FE000198EF29ECFC1F5F1F66B0F0EF86F890EB8
:102FF000F76F00010DDD19BEF28ED8900101CD35BD
:10300000036AF90FE96E000E0320EA6EECCFD0F1EF
:10301000ED52EFCFCFF1196AF2BE198EF29ECFC1F9
:10302000F5F1F66B0F0EF86F890EF76F0001F0DC0B
:1030300019BEF28ED8900101CD35036A010FE96EF9
:10304000010E0320EA6EECCFD0F1ED52EFCFCFF1BD
:10305000196AF2BE198EF29ECFC1F5F1F66B0F0E12
:10306000F86F890EF76F0001D3DC19BEF28E0101F3
:10307000CD2BA4D78B940C0EBD6EB76AB66AB50E75
:10308000CD6E780E0609CA6EFA0ECB6EC00EF21225
:10309000C70ED56ED76AD66AF28A9D809D829D8AB8
:1030A0001C0ECF6E770ECE6E000141D7C6EF29F011
:1030B0006D6A696A080E6F6E945030090101946E52
:1030C000226A196AF2BE198EF29E000124EC0EF0FB
:1030D00019BEF28E6DEF18F0EBD792EF18F0196A67
:1030E000F2BE198EF29E24EC0EF019BEF28E6D6ABD
:1030F000140E6F6E696A6D86010E226E83EF18F0F2
:103100006DB601D0ECD7222C0BD06DBA09D0686A0D
:10311000696AA08AC00EF212110E696E020E226E4A
:103120001200DAD7EDDF22500208FCE1D0EF29F0DF
:103130007DB101D0FDD77F517F2BA30FE96E040E27
:10314000EA6ED8B0EA2AEFCFCFF17E517F5D08E377
:10315000196AF2BE198EF29E82EC13F019BEF28E3D
:103160000101CFC101F00001C7EF18F07DA125D00A
:10317000010139531DE1036A3751230F016E010E1E
:10318000032201C0CDF103C0CEF10001D1D7CEC1E1
:10319000EAFFCDC1E9FF01C0EFFF0101372B375135
:1031A000130801E2376B3851375D02E1010E396FC8
:1031B000050EDF6F0001A6DED9D7D4EF29F001019B
:1031C000392D0BD0396B020ED26F376B386BD0C1F3
:1031D000E9FFD1C1EAFFEF6A22D03751385D07E13C
:1031E000D26BD0C1E9FFD1C1EAFFEF6A18D0D1C1DB
:1031F00003F0036A3851230FE96E010E0320EA6ED3
:10320000EFCFD5F1D1C1EAFFD0C1E9FFD5C1EFFFC2
:10321000382B3851130801E2386B010ED26FD2C13E
:1032200001F0000161EF1AF00101D991F2BED981DC
:10323000F29E00017C513E0802E23E0E7C6F7C5102
:103240007C2B036A3D0FE96E000E0320EA6ED8C1A5
:10325000EFFFF29E0101D9B1F28E000133EF19F0B8
:10326000D7C1D8F1E1D7196AF2BE198EF29E020ECB
:103270000201006F00016EEC12F019BEF28E0152D5
:1032800008E0196AF2BE198EF29E0AEC14F019BE1B
:10329000F28E52EF19F07C513E0801E2FCD7D6C104
:1032A000D7F1DED71200E3C101F0E2C100F0006601
:1032B000012A0900F5CFEEFF002EFBD7012EF9D72A
:1032C000F86A1200E1C17FF1E0C17EF1C00E010198
:1032D0007E177E51E05D7D6FF86A7FC1F7FF7EC18A
:1032E000F6FF010EEA6E3D0EE96EE36B400EE26FF3
:1032F0000001D9DF12000101D3C103F0D251D8B4CB
:10330000D307D207D46F03C0D5F1D45302E1D5530C
:1033100022E0D1C103F0D051D02BD8B4D12B800FF3
:10332000D46F5D0E0320D56FF2CFD6F1F29EF86A0E
:10333000F76ED4C1F6FF0900F5500800F5CF03F091
:10334000F86AD6BFF28ED46F03C0D5F1D66F0001F4
:10335000A2DFD1D7010100016BEF1BF0F250036E29
:10336000F29EA68EA6840F01550EA76EAA0EA76E1A
:10337000A68200000350F21200011200D08CA69C1D
:10338000F6501F0B006EE00EF6160A00E0C101F0C9
:10339000006608D0F650010F3F0B04E1A688090033
:1033A000DDDF0A00006607D0EECFF5FF015204E032
:1033B0000F00010603D000060B000C001F0EF614D0
:1033C0001F0AE6E1CBDF0166E3D7F86A12000101CC
:1033D0007D517D2B036A3D0FE96E010E0320EA6EDD
:1033E000D0C1EFFF7D517D2B036A3D0FE96E010EC9
:1033F0000320EA6ED151EF6E7D513F0835E27F51D7
:103400005D0804E331E17E5130082EE2D08CF86A89
:103410007FC1F7FF7EC1F6FFA688A69C00019EDF54
:10342000F86AF86A7FC1F7FF7EC1F6FF010EEA6E07
:103430003D0EE96E400E0101E06F00019FDF0101CA
:103440007D6B400E7E27000E7F23F86A7FC1F7FF59
:103450007EC1F6FF010EEA6E3D0EE96EE36B400E93
:10346000E26F000120DF01010001120001017F5124
:103470005D0804E31DE17E5130081AE2D08CF86A41
:103480007FC1F7FF7EC1F6FFA688A69C000166DF1C
:10349000F86AF86A7FC1F7FF7EC1F6FF010EEA6E97
:1034A0003D0EE96E400E0101E06F000167DF010192
:1034B00000011200010E0101D16FCD0ED06F00018D
:1034C0007ED601C0CEF10101CE2D8CD1226BCDC1B3
:1034D0001DF100018087CDC1D6F1DDDE010109516A
:1034E000010A000125E0030AD8B463D0010AD8B468
:1034F00067D0070AD8B481D0010AD8B484D0850A2D
:10350000D8B483D0010AD8B488D0030AD8B4CED0B6
:10351000010AD8B4D3D0070AD8B4E5D0010AD8B488
:10352000EAD0030AD8B4EFD0010AD8B44AD152D1B4
:103530000101CD51540A00010BE0D70A0FE0070A40
:1035400012E0010A15E0030A18E0010A22E025D082
:10355000020E0101096FCF8100011FD0800E010111
:10356000096F00011AD0820E0101096F000115D008
:10357000840E0101096F000110D00101CF818988FB
:103580001F6B1E6B0001809F90EC16F08097808966
:1035900004D0870E0101096F00010101CFB107D0EE
:1035A0000001809901011F6B1E6B89980E6BCF91F2
:1035B00014D10101CD51FE0802E1030E096F0DD1B6
:1035C0000101CD51E00B006E00380A6F0A33070E7F
:1035D0000A17CD511C0B006E00300B6F0B333F0EE2
:1035E0000B17CD51030B0C6F0A51030803E2040EB5
:1035F000096F02D0050E096FF0D0CDC10DF1050E97
:103600000101096FEAD00101E8D0CDC1EEF000015F
:10361000ED6B810E0101096FE0D00101CD51000178
:10362000ED13010E0101096F0001ED51F00B0101D5
:10363000D06F0001EE510F0B0101D16FD051F00896
:1036400021E1D1510F081EE10001ED510F0B0101E5
:10365000D06FD16BD890D035026ED135036E025049
:10366000F00FD06F7F0E0320D16F800ED05D000170
:10367000ED6F5D0E0101D1590001EE6F320EBE6E8D
:1036800005D00101D8900001ED37EE37800EED2511
:103690000101D06F5D0E0001EE210101D16FE16FDC
:1036A000D0C1E0F100010EDE010197D0CDC1F0F0F4
:1036B0000001EF6B830E0101096F8FD00101CD5125
:1036C0000001EF13EEC0D1F1EDC0D0F1F0C0D3F1A5
:1036D000EFC0D2F110D6EF51ED27F051EE23010EDD
:1036E0000101096F7AD0CDC1F0F00001EF6B850EBA
:1036F0000101096F72D00101CD510001EF13860E57
:103700000101096F6AD0BE6A01013A51020819E14C
:10371000CD513B27000E3C233A6B3CC1D1F13BC15C
:10372000D0F1000154DEEF51D8B4F007EF2F07D0ED
:10373000F05305E19BDE010E0101096F000137D056
:1037400001013A2D09D03C6BCDC13BF13BC13CF1AD
:103750003B6B020E3A6F2AD0CD51800817E1010E63
:103760003A6F3C6B3B6BD16BCDC1D0F100012FDECA
:10377000EF51D8B4F007EF2F07D0F05305E176DE14
:10378000010E0101096F000112D00101D16BCDC101
:10379000D0F100011CDEEF51D8B4F007EF2F07D0B5
:1037A000F05305E163DE010E0101096F0001FF0E18
:1037B000D8800101CD55D06FD66F00016CDD0101BD
:1037C0000CD0370E0101D66F000165DD010E01013D
:1037D000096F03D0010E0101096F0951050801E1CC
:1037E00001D072D6CE51020802E1010E096F00012C
:1037F000D6EF29F00101DE51105D10E0DE35006EDC
:103800000036FC0E0016C250C30B0010C26EC70E6D
:10381000006E002EFED700D0DEC110F1C282C2B20F
:10382000FED7C4CF03F0C3CF01F0C4CF02F0000134
:103830001200E6C103F00101E5C1E9FFE6C1EAFFBC
:10384000010E006EE751016E04E0D8900036012EA3
:10385000FCD70050FF0AEF14EF6E000112000101C7
:10386000E16BE15103082AE312C100F0E151016E5E
:1038700004E0D8900032012EFCD70050010B1CE070
:10388000E0530AE1010EE66F110EE56FE1C1E7F1C9
:103890000001CFDF10D00101196AF2BE198EF29E2D
:1038A000010EF46F110EF36FE1C1F5F1000129EC87
:1038B00015F019BEF28E0101E12BD3D700011200E1
:1038C000D8900101E535036AF10FE96E000E03207F
:1038D000EA6EECCFE7F1ED52EFCFE6F1196AF2BEF6
:1038E000198EF29EE6C1F5F1010EF66F0F0EF86F1C
:1038F000890EF76F000108EC15F019BEF28E8A8E62
:103900008C8CF7EF1CF0D8900101E035036AF90FB9
:10391000E96E000E0320EA6EECCFE4F1ED52EFCF3A
:10392000E3F1D890E035036A010FE96E010E032040
:10393000EA6EECCFE2F1ED52EFCFE1F1196AF2BE9F
:10394000198EF29E13C1F3F1E0C1F4F10001F9EC1C
:1039500014F019BEF28E015224E0196AF2BE198EDB
:10396000F29EE1C1F5F10101F66B0F0EF86F890EC1
:10397000F76F000108EC15F019BEF28E196AF2BE5D
:10398000198EF29EE3C1F5F1010E0101F66F0F0EE3
:10399000F86F890EF76F000108EC15F019BEF28E72
:1039A00023D0196AF2BE198EF29EE1C1F5F1010E23
:1039B0000101F66F0F0EF86F890EF76F000108EC2A
:1039C00015F019BEF28E196AF2BE198EF29EE3C18D
:1039D000F5F10101F66B0F0EF86F890EF76F00011C
:1039E00008EC15F019BEF28EE0C1E5F169D7196A4D
:1039F000F2BE198EF29E010E0101F46F140EF36FE8
:103A0000E0C1F5F1000129EC15F019BEF28E41EF8D
:103A10001FF0D8900101E535036AF10FE96E000E41
:103A20000320EA6EECCFE8F1ED52EFCFE7F1196A2F
:103A3000F2BE198EF29EE7C1F5F1F66B0F0EF86F2C
:103A4000890EF76F000108EC15F019BEF28E010126
:103A5000E5A104D0010EE55DE66F03D0010EE5257A
:103A6000E66F196AF2BE198EF29E14C1F3F1E6C137
:103A7000F4F10001F9EC14F019BEF28E015201E1EB
:103A80000BD00101E551010805E38A9E000104D035
:103A900003D001018C9C0001ADEF1DF0D890010115
:103AA000E035036AF90FE96E000E0320EA6EECCFF1
:103AB000E4F1ED52EFCFE3F1D890E035036A010F66
:103AC000E96E010E0320EA6EECCFE2F1ED52EFCF8A
:103AD000E1F1196AF2BE198EF29EE1C1F5F1010E13
:103AE000F66F0F0EF86F890EF76F000108EC15F0F6
:103AF00019BEF28E196AF2BE198EF29EE3C1F5F17B
:103B0000010E0101F66F0F0EF86F890EF76F0001BD
:103B100008EC15F019BEF28ED8900101E035036A69
:103B2000F10FE96E000E0320EA6EECCFE6F1ED52E4
:103B3000EFCFE5F1196AF2BE198EF29EE5C1F5F1FB
:103B4000F66B0F0EF86F890EF76F000108EC15F099
:103B500019BEF28EE0C1E5F15CD7010E0101E66FFE
:103B6000140EE56FE0C1E7F1000163DE46EF1FF0E0
:103B7000D8900101E035036AF90FE96E000E0320C9
:103B8000EA6EECCFE4F1ED52EFCFE3F1D890E035FF
:103B9000036A010FE96E010E0320EA6EECCFE2F139
:103BA000ED52EFCFE1F1196AF2BE198EF29E13C108
:103BB000F3F1E0C1F4F10001F9EC14F019BEF28E5A
:103BC00001522DE0196AF2BE198EF29EE3C1F5F1A1
:103BD0000101F66B0F0EF86F890EF76F000108EC0C
:103BE00015F019BEF28E196AF2BE198EF29EE1C16D
:103BF000F5F1010E0101F66F0F0EF86F890EF76FE8
:103C0000000108EC15F019BEF28E010E0101E66FFD
:103C1000130EE56FE0C1E7F100010BDE33D0196A46
:103C2000F2BE198EF29EE3C1F5F1010E0101F66FAD
:103C30000F0EF86F890EF76F000108EC15F019BE32
:103C4000F28E196AF2BE198EF29EE1C1F5F1010100
:103C5000F66B0F0EF86F890EF76F000108EC15F088
:103C600019BEF28E196AF2BE198EF29E010E010182
:103C7000F46F130EF36FE0C1F5F1000129EC15F0BC
:103C800019BEF28E4BEF1FF0D8900101E035036AA8
:103C9000F90FE96E000E0320EA6EECCFE4F1ED526D
:103CA000EFCFE3F1D890E035036A010FE96E010E22
:103CB0000320EA6EECCFE2F1ED52EFCFE1F1196AA9
:103CC000F2BE198EF29E010EF46F130EF36FE0C177
:103CD000F5F1000129EC15F019BEF28E196AF2BE59
:103CE000198EF29EE1C1F5F10101F66B0F0EF86F2E
:103CF000890EF76F000108EC15F019BEF28E196AF3
:103D0000F2BE198EF29EE3C1F5F1010E0101F66FCC
:103D10000F0EF86F890EF76F000108EC15F019BE51
:103D2000F28E50EF1FF0D8900101E035036AF90FD1
:103D3000E96E000E0320EA6EECCFE4F1ED52EFCF16
:103D4000E3F1D890E035036A010FE96E010E03201C
:103D5000EA6EECCFE2F1ED52EFCFE1F1010EE66F4A
:103D6000130EE56FE0C1E7F1000163DD196AF2BEF1
:103D7000198EF29EE3C1F5F10101F66B0F0EF86F9B
:103D8000890EF76F000108EC15F019BEF28E196A62
:103D9000F2BE198EF29EE1C1F5F1010E0101F66F3E
:103DA0000F0EF86F890EF76F000108EC15F019BEC1
:103DB000F28E55EF1FF0D8900101E035036AF90F3C
:103DC000E96E000E0320EA6EECCFE4F1ED52EFCF86
:103DD000E3F1D890E035036A010FE96E010E03208C
:103DE000EA6EECCFE2F1ED52EFCFE1F1010EE66FBA
:103DF000140EE56FE0C1E7F100011BDD196AF2BEA8
:103E0000198EF29EE3C1F5F10101F66B0F0EF86F0A
:103E1000890EF76F000108EC15F019BEF28E196AD1
:103E2000F2BE198EF29EE1C1F5F10101F66B0F0EA3
:103E3000F86F890EF76F000108EC15F019BEF28ECD
:103E40005AEF1FF00101DF6BDF51030838E312C1A5
:103E500000F0DF51016E04E0D8900032012EFCD753
:103E60000050010B2AE0E06B0001F9DC0101DE519A
:103E7000FA0F23E2060F000161EF1FF0DFC1E0F14E
:103E800042D501011AD0DFC1E0F108D6010115D0F9
:103E9000DFC1E0F16DD6010110D0DFC1E0F1F4D651
:103EA00001010BD0DFC1E0F13ED7010106D0DFC137
:103EB000E0F181D7010101D00101DF2BC5D700015D
:103EC0001200E824F76AF736DD0FF66E3E0EF72291
:103ED0000A00F550FA6E0800F550F96E7C3E863EF9
:103EE000903E9A3EA43EAE3E0101E16BE1510308D3
:103EF0003BE312C100F0E151016E04E0D8900032C2
:103F0000012EFCD70050010B2DE0010EE05DF90FF2
:103F100020E2070F0001B6EF1FF0240E0101E06F51
:103F200018D0490E0101E06F14D06E0E0101E06F50
:103F300010D0920E0101E06F0CD0B70E0101E06FBE
:103F400008D0DB0E0101E06F04D00101E06901D06F
:103F50000101036AE151150FE96E010E0320EA6EBB
:103F6000E0C1EFFFE12BC2D700011200E824F76A9D
:103F7000F736870FF66E3F0EF7220A00F550FA6EFD
:103F80000800F550F96E1A3F223F2A3F323F3A3F70
:103F9000423F4A3FCDC10EF10101CE5303E0000183
:103FA000808302D0000180937CEF2AF0320EBE6E37
:103FB0000101DF6F000182EC17F0BE6A1200C69E9D
:103FC0009E96E0C1C9FF020EC6BE05D09EA6FED7D2
:103FD000000EC5BC010E016E1200C69CC586C5B69A
:103FE000FED700B0C59A00A0C58AC588C5B8FED75F
:103FF000C9CF01F012000101CD51FB0F41E2050FC5
:10400000000154EF20F00101CE5302E18C8001D079
:104010008C9036D0CBDF010133D00101DE6B000183
:1040200011DF030E0101DE6F00010CDF010E010143
:10403000E06F000114DCCFC1E0F156DF010120D0B8
:1040400001011ED00101CE51FC0F18E2040F000146
:1040500043EF20F0C580C5B0FED701010FD0C58465
:10406000C5B4FED701010AD0CFC1E0F1A8DF01013C
:1040700005D0006AB2DF010101D0010101D00101C8
:10408000000197EF2AF0E824F76AF736A10FF66EE1
:10409000400EF7220A00F550FA6E0800F550F96E4E
:1040A00054405E4068407240E824F76AF736C30F18
:1040B000F66E400EF7220A00F550FA6E0800F55031
:1040C000F96E064014401A404040444080A302D09C
:1040D00080A538D001010EC100F00F51016E04E03F
:1040E000D8900032012EFCD70050010B25E00FC103
:1040F000DEF10001FAEC1BF002C0CEF101C0CDF1FF
:1041000001010F39CF6FCF37E00ECF17CE51036AC1
:10411000CF1303C0D0F1CDC1D1F1D26B0C0ED66F4D
:1041200000014BEC19F0CFC1D6F14BEC19F0D1C125
:10413000D6F14BEC19F00101010E0F25070B0F6FA3
:10414000000180953CEF2BF080AF07D0809F330EAD
:10415000016E000E026E26D01FD0800EED250101EB
:10416000E26F5D0E0001EE210101F2CFE4F1F29E5B
:10417000F86AF76EE2C1F6FF0900F5500800F5CFC6
:1041800003F0F86AE4BFF28EE06F03C0E1F1020EC3
:104190000001ED27000EEE230101E0C101F0E1C1B5
:1041A00002F00001120089530FE08907D890893589
:1041B000036A850FE96E010E0320EA6EEFCF01F06E
:1041C000E92AEF50E906026E1200CA5314E0CA074A
:1041D000D890CA35036A8A0FE96E000E0320EA6E92
:1041E000ECCFDFF1ED52EFCFDEF10101DEC101F0E6
:1041F000DFC102F00001120089511F0811E389514B
:10420000892B006ED89000360050036A850FE96E46
:10421000010E0320EA6EE1C1ECFFED52E0C1EFFFB9
:104220001200CA511F080EE3D890CA35036A8A0FDC
:10423000E96E000E0320EA6EE1C1ECFFED52E0C131
:10424000EFFFCA2B12000101E66BE76B010EE86F6E
:10425000DA6AD96AEB6FDE0EEA6F010EEA6EE20EE1
:10426000E96EEBC1E2FFEAC1E1FFE8C1E9F1D890F4
:10427000E550EE02F350E623F450E723E92FF7D799
:10428000E6C1DEFFE7C1E6F1E76BD8B0E72BEA2B2A
:10429000D8B4EB2BE82BE8510508DFE1000187EFEC
:1042A00021F0016A026A006A036A0101E45102E135
:1042B000E35118E0100EE56FD890E137E237003691
:1042C0000336E451035C02E1E351005C07E3E35190
:1042D000005ED8A00306E451035ED88001360236A2
:1042E000E52FEAD70001120088C0E1F187C0E0F1B4
:1042F00086C0DFF185C0DEF1410E0101E56FC60E1B
:10430000E46F4E0EE36F6D0EE26F00019CD7390E25
:10431000010100240001856F300E01010120000120
:10432000866F000E010102200001876F000E01015F
:1043300003200001886F87C000F088C001F0026A86
:10434000036A88C0E0F187C0DFF188C0E2F187C06E
:10435000E1F17F0E0101E46FE3690001A2DF00C01B
:1043600001F003C002F014EF26F001017D517D2B16
:10437000036A3D0FE96E010E0320EA6EDEC1EFFF16
:104380007D517D2B036A3D0FE96E010E0320EA6E1D
:10439000DF51EF6E000136EC1AF012000101E06B04
:1043A000E051030824E312C100F0E051016E04E083
:1043B000D8900032012EFCD70050010B16E0036AA2
:1043C000E051150F016E010E032203C0E2F1036AF2
:1043D000E051150FE96E010E0320EA6EDF51EF2464
:1043E000E2C1EAFF01C0E9FFEF6EE02BD9D700017F
:1043F0001200006A016A0101DE51D890DFB1002687
:1044000000320132DFB3002600320132DFB5002670
:1044100000320132DFB7002600320132DFB9002658
:1044200000320132DFBB002600320132DFBD002640
:1044300000320132DFBF002600320132000128EFD6
:1044400029F08988320E0101DF6F000182EC17F03C
:104450008998020E0101DE6FFA0EDF6F000182EC17
:1044600017F00101DE2FF8D70001EBD764EF29F038
:104470000101D86BD76BCFAF75D0020E0001ED25CF
:104480000101D76F000E0001EE210101D86FDF6B33
:10449000CFC1DEF13F0EDE17DF6BDEC1DFF1DE6B79
:1044A000000152DE02C003F001C002F0D8900236D3
:1044B000033602500101DE250001ED6F03500101BA
:1044C000DF210001EE6F40DE02C0D2F101C0D1F168
:1044D0000101CFAD12D0D06B030ED125016E000EBD
:1044E000D221036E0150035203E10150D05D05E279
:1044F000000159DE0101D02BEFD7D06BD25303E17D
:10450000D151D05D0EE2000160DE02C0DFF101C0DA
:10451000DEF102C0E1F101C0E0F16EDE0101D02B5D
:10452000EDD7E16BCAC0E0F1000166DED8C1E1F170
:10453000D7C1E0F161DE020E0101D125016E000E4E
:10454000D221036E01500001895D0101DE6F000E72
:104550000354DF6FE16FDEC1E0F100014DDE64EF77
:1045600029F00101CF51000A0001D8B44DD1010A50
:10457000D8B454D1030AD8B45DD1010AD8B471D1EA
:10458000070AD8B48BD1010AD8B4C5D1030AD8B46C
:10459000E0D1010AD8B412D20F0AD8B40FD2010A5E
:1045A000D8B44FD2030AD8B48AD2010AD8B4A5D25B
:1045B000070AD8B4C9D2010AD8B4CBD2030AD8B4F6
:1045C000CBD2010AD8B4E1D21F0AD8B4F8D2010A7A
:1045D000D8B4FED2030AD8B403D3010AD8B404D3A2
:1045E000070AD8B409D3010AD8B410D3030AD8B43F
:1045F00019D3010AD8B424D30F0AD8B421D3010A9D
:10460000D8B41ED3030AD8B41BD3010AD8B418D324
:10461000070AD8B415D3010AD8B412D3030AD8B400
:104620000FD3010AD8B40CD33F0AD8B409D3010A76
:10463000D8B406D3030AD8B4CBEF26F0010AD8B415
:10464000DBEF26F0070AD8B4F7EF26F0010AD8B45A
:1046500015EF27F0030AD8B440EF27F0010AD8B4C9
:1046600071EF27F00F0AD8B49FEF27F0010AD8B4F2
:10467000C5EF27F0030AD8B4C9EF27F0010AD8B470
:10468000D6EF27F0070AD8B403EF28F0010AD8B410
:1046900003EF28F0030AD8B405EF28F0010AD8B4D4
:1046A00009EF28F01F0AD8B40DEF28F00F0AD8B48C
:1046B00011EF28F07F0AD8B415EF28F0010AD8B41A
:1046C00019EF28F0030AD8B41DEF28F0710AD8B406
:1046D00021EF28F0060AD8B424EF28F0010AD8B454
:1046E00027EF28F0020AD8B42AEF28F00A0AD8B433
:1046F0002DEF28F00D0AD8B430EF28F0030AD8B413
:1047000030EF28F0090AD8B445EF28F07F0AD8B472
:1047100051EF28F0010AD8B456EF28F0030AD8B4B4
:1047200074EF28F0010AD8B48EEF28F00F0AD8B43D
:104730009FEF28F07F0AD8B4B0EF28F00F0AD8B462
:10474000B0EF28F0710AD8B4B0EF28F0030AD8B45B
:10475000B0EF28F0010AD8B4B0EF28F0070AD8B4B7
:10476000B0EF28F0010AD8B4B0EF28F0030AD8B4AB
:10477000B0EF28F0770AD8B4CDEF28F0030AD8B408
:10478000CDEF28F0750AD8B4CDEF28F01F0AD8B4C1
:10479000CDEF28F0010AD8B4CDEF28F0030AD8B441
:1047A000CDEF28F0010AD8B4CDEF28F0070AD8B42D
:1047B000CDEF28F0010AD8B4F0EF28F0030AD8B4FE
:1047C000F4EF28F0010AD8B4F8EF28F00F0AD8B4B3
:1047D000F8EF28F0010AD8B4F8EF28F0030AD8B4AB
:1047E00030EF29F0010AD8B436EF29F0070AD8B41F
:1047F0003BEF29F0010AD8B440EF29F0030AD8B4FE
:104800004CEF29F062EF29F0809992988998010184
:10481000826B816B846B836B65EF29F095DC01C043
:10482000D9F10101E16BD9C1E0F10001FADC01012C
:1048300065EF29F089DC01C0DAF186DC01C0DBF12B
:10484000DAC1DDF10101DC6BDB51DC27000EDD2379
:10485000DDC1E1F1DCC1E0F10001E3DC010165EF64
:1048600029F0020EED250101DE6F000E0001EE21A0
:104870000101DF6FE16FDEC1E0F10001D2DC64DC39
:1048800002C003F001C002F0D89002360336025095
:10489000ED270350EE23010165EF29F096DC02C0FD
:1048A000D8F101C0D7F1EE510101D85D0EE308E166
:1048B000D7510001ED5DD8A002D0010106D0010161
:1048C000D8C1EEF0D7C1EDF024D0D8C1EEF0D7C1F9
:1048D000EDF000017ADC02C084F101C083F1010136
:1048E000845303E18351010804E28351D8B484075F
:1048F0008307832D02D084530CE084C1E1F183C18E
:10490000E0F100018EDCEEC0E1F1EDC0E0F189DC08
:10491000010165EF29F059DC0150021007E055DC78
:1049200054DC02C0EEF001C0EDF010D04EDC02C04D
:10493000EEF001C0EDF0EEC0E1F1EDC0E0F171DCB0
:10494000050E0101DF6F000182EC17F0010165EF38
:1049500029F0A4EC20F002C003F0D890013401014A
:10496000D76F0334D86F00011EDC02C0D2F101C042
:10497000D1F1D2C1E1F1D1C1E0F13EDC0101D75169
:10498000D125DE6FD851D221DF6FD890DE35026E8F
:10499000DF35036E0250850FE96E010E0320EA6ECB
:1049A000ECCFDFF1ED52EFCFDEF1DFC1E1F1DEC19F
:1049B000E0F1000136DC010165EF29F00101CF5182
:1049C000080806E1000101DC02C0D8F101C0D7F1FE
:1049D0000001D3EC20F002C0D2F101C0D1F1D3EC40
:1049E00020F002C0EEF001C0EDF0D3EC20F002C0E8
:1049F000D4F101C0D3F10101D4530AE10001CA513D
:104A00000101D35D05E20001E5EC20F0F4D70101DE
:104A1000D2530AE1000189510101D15D05E2000193
:104A2000D3EC20F00101F4D7CF51080808E1D8C138
:104A3000E1F1D7C1E0F1000111EC21F0010165EFD6
:104A400029F0E5EC20F002C082F101C081F1E5EC33
:104A500020F002C084F101C083F1EEC0E1F1EDC0AD
:104A6000E0F111EC21F00101845303E183510108CD
:104A700013E284C1E1F183C1E0F1000111EC21F006
:104A800082C1E1F181C1E0F111EC21F082C1EEF0CF
:104A900081C1EDF011D00101832D07D0845305E1D0
:104AA00082C1EEF081C1EDF008D00001E5EC20F00C
:104AB00002C0EEF001C0EDF0010165EF29F0E5EC78
:104AC00020F002C0D2F101C0D1F1E5EC20F002C02B
:104AD000D4F101C0D3F10101D351D4110CE0EEC0E7
:104AE000E1F1EDC0E0F1000111EC21F0D2C1EEF0F6
:104AF000D1C1EDF0010165EF29F0E5EC20F002C035
:104B0000D2F101C0D1F1E5EC20F002C0D4F101C036
:104B1000D3F1E5EC20F002C0D6F101C0D5F1EEC032
:104B2000E1F1EDC0E0F111EC21F00101D551D61118
:104B300005E0D4C1EEF0D3C1EDF004D0D2C1EEF067
:104B4000D1C1EDF065EF29F0D6EC1FF0010165EF62
:104B500029F0010165EF29F0E5EC20F002C082F1B7
:104B600001C081F1EEC0E1F1EDC0E0F111EC21F006
:104B700082C1E1F181C1E0F111EC21F082C1EEF0DE
:104B800081C1EDF0010165EF29F0E5EC20F002C0F4
:104B900082F101C081F10101846B836BE16BE06BF9
:104BA000000111EC21F082C1E1F181C1E0F111ECD1
:104BB00021F082C1EEF081C1EDF0010186D3E5EC78
:104BC00020F0D890010101341E6F02341F6F7DD395
:104BD00021C1E1F120C1E0F111EC21F0010175D317
:104BE0000101216B206B71D3E5EC20F002C0D8F1FC
:104BF00001C0D7F1010169D30101E16B1DC1E0F1F1
:104C0000000111EC21F0809701015FD3000E80B705
:104C1000010E0101DE6FE16BE06F000111EC21F08C
:104C2000010153D374EF21F002C0DFF101C0DEF1C6
:104C300002C0E1F101C0E0F111EC21F0010145D326
:104C4000E5EC20F002C0D4F101C0D3F1E5EC20F096
:104C500002C0D2F101C0D1F1170E0101CF5DF50FF5
:104C6000D8B090D00B0F000168EF29F00101D351AB
:104C7000D127D451D22386D00101D351D15FD45151
:104C8000D25B80D0196AF2BE198EF29ED2C102F2B6
:104C9000D1C101F2D4C104F2D3C103F28DEC0DF005
:104CA00019BEF28E02C0D2F101C0D1F101016AD069
:104CB000D2C1E2F1D1C1E1F1D4C1E4F1D3C1E3F158
:104CC00051EC21F002C0D2F101C0D1F101015AD062
:104CD000D2C1E2F1D1C1E1F1D4C1E4F1D3C1E3F138
:104CE00051EC21F000C0D1F1010103C0D2F14AD052
:104CF0000101D351D15D03E1D451D25D02E0000E38
:104D000001D0010ED26BD16F3DD00101D451D25DE3
:104D100004E305E1D151D35D02E3000E01D0010EA1
:104D2000D26BD16F2FD00101D251D45D04E305E1E4
:104D3000D351D15D02E3000E01D0010ED26BD16FD1
:104D400021D00101D151D21103E0D351D41102E19C
:104D5000000E01D0010ED26BD16F14D00101D151E0
:104D6000D21105E1D351D41102E1000E01D0010EA0
:104D7000D26BD16F07D00101D351D11BD451D21BBB
:104D800001D00101D2C1E1F1D1C1E0F1000111EC8A
:104D900021F001019AD2E5EC20F001500210000E42
:104DA000D8B4010E0101DE6FE16BE06F000111EC80
:104DB00021F001018AD2E5EC20F002C0D8F101C057
:104DC000D7F1E5EC20F002C0DFF1D8900101013409
:104DD000026EDF35036E0250CB0FE96E000E03202A
:104DE000EA6ED8C1ECFFED52D7C1EFFF6ED2E5EC11
:104DF00020F002C0DFF1D89001010134026EDF35EE
:104E0000036E0250CB0FE96E000E0320EA6EECCF6A
:104E1000DFF1ED52EFCFDEF1DFC1E1F1DEC1E0F114
:104E2000000111EC21F0010150D2E5EC20F002C0AC
:104E3000D4F101C0D3F1E5EC20F0D89001010134A8
:104E4000D16F0234D26F0001E5EC20F001C0D7F140
:104E50000101670E0224D86FD151D725DE6FD251E0
:104E6000D821DF6FE16FDEC1E0F1000162EC19F0E3
:104E7000D4C1DFF1D3C1DEF1B5EC21F0010125D2BF
:104E8000E5EC20F0D89001010134D16F0234D26FEB
:104E90000001E5EC20F001C0D7F10101670E02240A
:104EA000D86FD151D725DE6FD251D821F2CFE0F1A2
:104EB000F29EF86AF76EDEC1F6FF0900F5500800B1
:104EC000F5CF03F0F86AE0BFF28ED36F03C0D4F1E0
:104ED000D4C1E1F1D3C1E0F1000111EC21F00101F5
:104EE000F4D1E5EC20F002C0D8F101C0D7F1ECC05C
:104EF00003F0EB51EB2BD8B4EC2BC00F0101DE6FAC
:104F0000590E0320DF6FE16FDEC1E0F1000162ECBA
:104F100019F0D8C1DFF1D7C1DEF1B5EC21F0760E82
:104F20000101E16F080EE06F000162EC19F0ECC0C6
:104F3000DFF1EBC0DEF1B5EC21F00101C6D1ECC030
:104F400003F0EB51EB2BD8B4EC2BC00F0101DE6F5B
:104F5000590E0320F2CFE0F1F29EF86AF76EDEC13F
:104F6000F6FF0900F5500800F5CF03F0F86AE0BF3E
:104F7000F28ED76F03C0D8F1D8C1E1F1D7C1E0F10B
:104F8000000111EC21F00101A0D1EC6BEB6B0101F0
:104F90009CD1E5EC20F0D890010101340001EB6FC9
:104FA000010102340001EC6F01018FD1E5EC20F02A
:104FB000D89001010134D16F0234D26FD86BD76B16
:104FC000D851D25D1BE303E1D151D75D17E2C00E8A
:104FD000D725DE6F590ED821DF6FE16FDEC1E0F11A
:104FE000000162EC19F00101DF6BDE6B0001B5EC32
:104FF00021F00101D72BD8B4D82BE2D70001EC6BFC
:10500000EB6B010162D1010160D1010E0101126F50
:105010005CD1020E0101126F58D1030E0101126F13
:1050200054D1040E0101126F50D1080E0101126F0C
:105030004CD10C0E0101126F48D10F0E0101126FFD
:1050400044D10101D02B00010101D02B000101014D
:10505000D02B00010101D02B00010101D02B000158
:10506000D0C1DEF122EC1FF00101CF5132080CE17A
:105070000001E5EC20F0D890010101341E6F0234EC
:105080001F6F0001808F010120D1E5EC20F002C0EC
:10509000DFF101C0DEF101C0E0F174EC1FF00101AD
:1050A00014D180999298899801010FD1E5EC20F0F4
:1050B000F2CFE0F1F29EF86A02C0F7FF01C0F6FFFE
:1050C0000900F5500800F5CF03F0F86A0101E0BFD0
:1050D000F28EDE6F03C0DFF103C0E1F1E06F00018B
:1050E00011EC21F00101F1D0E5EC20F002C0D2F189
:1050F00001C0D1F1E5EC20F002C0D4F101C0D3F140
:10510000D4C1E1F1D3C1E0F162EC19F0D2C1DFF119
:10511000D1C1DEF1B5EC21F00101D7D0E5EC20F0F2
:1051200002C0DFF101C0DEF10101DF6BDFC1E1F19F
:1051300001C0E0F1000111EC21F00101C6D0E5EC65
:1051400020F002C0DFF102C0DEF10101DF6BDFC140
:10515000E1F102C0E0F1000111EC21F00101B5D054
:105160000101CF51480804E3370ECF5DD06F04D062
:10517000490ECF5D020FD06FD0C1DEF10001FAEC15
:105180001BF002C0DFF101C0DEF102C0E1F101C09D
:10519000E0F111EC21F0010198D00101CF514E084E
:1051A00004E3390ECF5DD06F04D04F0ECF5D020FF8
:1051B000D06FD0C1DEF10001FAEC1BF002C0DFF1CC
:1051C000010102C0DEF1DF6BD890DF33DE33DFC1D7
:1051D000E1F1DEC1E0F1000111EC21F0010175D037
:1051E00095908C80010171D095908C9001016DD0CB
:1051F0000101DE6B000122EC1FF0030E0101DE6FE6
:10520000000122EC1FF0010E0101E06F00012FEC04
:105210001CF0E5EC20F001C0D0F10101CF5157089E
:1052200007E1D0C1E0F1000174EC1FF017D00101DB
:10523000CF51580807E1D0C1DFF10001CEEC21F0D9
:105240000DD00101DE69D0C1DFF10001F9EF21F0DD
:1052500001C0DEF101C0DFF1CEEC21F0010135D05B
:10526000E5EC20F001C012F101012FD0C580C5B0DE
:10527000FED701012AD0C584C5B4FED7010125D0CF
:10528000E5EC20F002C0DFF101C0DEF101C0E0F189
:10529000DFEC1FF0010119D0E5EC20F002C0DFF1D6
:1052A00001C0DEF101C000F0EDEC1FF001C0DEF145
:1052B0000101E16B01C0E0F1000111EC21F00101FD
:1052C00004D0000121EF22F0010100014EEF2BF08C
:1052D000E824F76AF736EB0FF66E520EF7220A0053
:1052E000F550FA6E0800F550F96E6C4C784C844C11
:1052F000B04CD04CF04C0A4D264D424D5C4D764D95
:10530000F86AD09E078EEA6AE96A93829380770EE4
:10531000C86E280EC66EC78EC79C0101396B826BA2
:10532000816B846B836B0001809FC150C00B0F09A0
:10533000C16E070EB46E1E6A040E1F6E0C0E206E38
:10534000836B846BCB6BCC6BCD6BCE6BCF6BD06B2D
:10535000D16BD26BD36BD46BD56BD66BD76BD86B51
:10536000D96BDA6BDB6BDC6BDD6BDE6BDF6BE06B01
:10537000E16BE26BE36BE46BE56BE66BE76BE86BB1
:10538000E96BEA6B00EF17F0B9EF17F0196AF2BE9C
:10539000198EF29EE6EC0DF019BEF28E91EF18F028
:1053A00080EC18F0B6EF18F05AEF1AF0010109512D
:1053B0000508D8A45ED10A51F80FD8B0CCD0080F98
:1053C000000158EF2BF0550E0101D66F00014BEC98
:1053D00019F00101D66900014BEC19F0AA0E010188
:1053E000D66F00014BEC19F0010E0101D66F0001E0
:1053F0004BEC19F0300E0101D66F00014BEC19F0A7
:10540000010E0101D66F00014BEC19F00101A3D090
:10541000340E0101D66F00014BEC19F001019BD055
:105420000BC1DEF1FAEC1BF002C0C6F101C0C5F100
:10543000C6C1CDF10101CE6BC5C1CFF1D06B550E08
:10544000D66F00014BEC19F00101D66900014BEC5D
:1054500019F0CDC1D6F14BEC19F0CFC1D6F14BEC20
:1054600019F0010178D00BC1DEF122EC1FF0550ECE
:105470000101D66F00014BEC19F00101D669000162
:105480004BEC19F0AA0E0101D66F00014BEC19F09C
:10549000010161D00BC1E0F174EC1FF0550E010168
:1054A000D66F00014BEC19F00101D66900014BECFD
:1054B00019F0AA0E0101D66F00014BEC19F00101A1
:1054C0004AD00DC112F1550E0101D66F00014BEC0F
:1054D00019F00101D66900014BEC19F0AA0E010187
:1054E000D66F00014BEC19F0010135D00DC1CDF1A3
:1054F0000CC1CEF1CAEF1FF0550E0101D66F0001AD
:105500004BEC19F00101D66900014BEC19F0AA0E21
:105510000101D66F00014BEC19F001011CD00BC149
:10552000CDF10CC1CEF10DC1CFF1FBEF1FF0550E47
:105530000101D66F00014BEC19F00101D6690001A1
:105540004BEC19F0AA0E0101D66F00014BEC19F0DB
:10555000010101D001010A510608D8A487D00B51DE
:105560000308D8A483D0CE6B0CC1CDF10CC1CEF111
:10557000CD6B0D51CD27000ECE23CD35C76FCE3567
:10558000C86FC737C837C737C837C737C837C737EF
:10559000C837E00EC717C75315E1C85313E1F2CF60
:1055A000CDF1F29EF86A760EF76E080EF66E0900DF
:1055B000F5500800F5CF03F0F86ACDBFF28EC76F43
:1055C00003C0C8F1D890C737C837C7C1CDF1CE6B7B
:1055D000C8C1CFF1D06BEE0ED66F00014BEC19F0C5
:1055E000110E0101D66F00014BEC19F0CDC1D6F1BF
:1055F0004BEC19F0CFC1D6F14BEC19F0D89001016A
:10560000C833C733CA6BC96BCA51C85D2FE303E106
:10561000C751C95D2BE2C00EC925CD6F590ECA21F5
:10562000F2CFCFF1F29EF86AF76ECDC1F6FF090016
:10563000F5500800F5CF03F0F86ACFBFF28ECB6FBC
:1056400003C0CCF1CBC1CDF1CE6BCCC1CFF1D06BCF
:10565000CBC1D6F100014BEC19F0CFC1D6F14BEC28
:1056600019F00101C92BD8B4CA2BCED7010E096F8E
:1056700003D0000166EF20F0000180A90FD00101E6
:105680001E511F110CE10001A4EC20F002C0CEF16C
:1056900001C0CDF101C0CFF138EF22F0010122515C
:1056A000020803E2010E096F226B00017BD60300A2
:1056B000E824F76AF736CB0FF66E560EF7220A008B
:1056C000F550FA6E0800F550F96EC6532054665432
:0A56D0009454C254EC541E551054BB
:020000040030CA
:0E00000024CE3E1E0087A1000FC00FE00F406F
:00000001FF
;PIC18F4550
;CRC=274E  CREATED="16-Mar-13 16:35"
