:041840006EEF29F02E
:08184800046ED8CF05F0E0CFDB
:1018500006F00001E9CF0CF0EACF07F0E1CF08F085
:10186000E2CF09F0D9CF0AF0DACF0BF0F3CF12F0C4
:10187000F4CF13F0FACF14F0F5CF15F0F6CF16F041
:10188000F7CF17F000C00EF001C00FF002C010F04B
:1018900003C011F0F2AA50EF0CF0F2B41AEF15F0F9
:1018A0009DA056EF0CF09EB08DEF16F09DA25CEF60
:1018B0000CF09EB2F6EF16F0A0AA62EF0CF0A1BAFF
:1018C000B5EF14F00EC000F00FC001F010C002F030
:1018D00011C003F00CC0E9FF07C0EAFF078E08C083
:1018E000E1FF09C0E2FF0AC0D9FF0BC0DAFF12C056
:1018F000F3FF13C0F4FF14C0FAFF15C0F5FF16C0C4
:10190000F6FF17C0F7FF045006C0E0FF05C0D8FF80
:101910001000F76A220FF66E190EF7220900F55033
:101920001200000302FFFFFFFFFFFFFFFFFFFFFFAB
:10193000FFFFF76A420FF66E190EF7220900F55005
:10194000120000FF02FFFFFFFFFFFFFFFFFFFFFF8F
:10195000FFFFF76A620FF66E190EF7220900F550C5
:10196000120040000B0040000000000000000000DA
:101970000000000000000000000000000000000067
:101980000000F76A920FF66E190EF7220900F55063
:1019900012004000000040000000000000000000B5
:1019A0000000000000000000000000000000000037
:1019B0000000F76AC20FF66E190EF7220900F55003
:1019C00012000902430002010080320904000001F4
:1019D000020201000524001001042402020524066D
:1019E00000010524010001070581030B00FA090429
:1019F0000100020A0000000705020240000107057D
:101A0000820240000100F76A160FF66E1A0EF722E6
:101A10000900F55012000200F76A280FF66E1A0E40
:101A2000F7220900F550120012171B20FFFFFFFFDD
:101A3000F76A400FF66E1A0EF7220900F5501200F1
:101A40001201100102000040610433000001010294
:101A50000001F76A620FF66E1A0EF7220900F550C0
:101A60001200040309040803430043005300180351
:101A7000530045005200490041004C002000440042
:101A800045004D004F006D92699468A402D068949F
:101A9000FCD7C1EF14F0400E0401016F040E036F78
:101AA000180E026F880E006F046B040E076F580E3D
:101AB000066F0001120070A002D0EDDF7090689AEE
:101AC000CAEF14F06A6A6892D0EF14F00101FD9138
:101AD000FCBFFD81FC9FFC51100803E2000E016E6B
:101AE0001AD0FDA10DD0036AFC51000112DFFF08DE
:101AF00002E1000E01D0010E016E01010CD00BD0ED
:101B0000036AFC51000115DFFF0802E1000E01D05D
:101B1000010E016E010100011200020101510303D7
:101B2000F3CF01F0F4CF00F00403F350002602518C
:101B30000303F3500020026E00011200036A01014A
:101B4000FB51700FE96E0F0E0320EA6EEF6AFBC1C6
:101B5000FCF10001BBDF015229E00201026BFBC175
:101B600001F2046B080E036F0001D7DF010101C011
:101B7000E9FF040E0224EA6EEF6A0201026BFBC168
:101B800001F2046B080E036F0001C7DF02C0FDF114
:101B900001C0FCF1040E0101FC27000EFD23FCC175
:101BA000E9FF040EFD25EA6EEF6A00011200010E46
:101BB0000101FA6FFA510F0807E3FAC1FBF10001C6
:101BC000BDDF0101FA2BF6D7000112000101F46B11
:101BD000F36B250EF26F800EF16FEA6A2C0EE96E40
:101BE000010EE26EF10EE16E020E016EE6CFEEFF27
:101BF000012EFCD72E6A2F6AF16BEA6A300EE96E6D
:101C0000010EE26EF10EE16EE6CFEEFFF16BEA6AD5
:101C1000310EE96E010EE26EF10EE16EE6CFEEFFDF
:101C2000080EF16FEA6A320EE96E010EE26EF10EF5
:101C3000E16EE6CFEEFF0001816B8091346A336A7A
:101C40007C6B7D91826B1200296A286A0101F06B1E
:101C5000F05101080AE3036AF0512A0FE96E000E01
:101C60000320EA6EEF6AF02BF3D70001AFDF1B6AA7
:101C7000010E1C6E1A6A1200689612006A6A686A7F
:101C80009F0E6B6E3D0E696E6E6A91DFDDDF160E84
:101C9000706E68A602D0F0DFFCD76D98FCDE030EF4
:101CA000226ED6EF14F0698468986D82DCEF14F030
:101CB000689CE2EF14F0F5C123F0120023681200D3
:101CC0000101F36B2850291033E0F3513F0830E352
:101CD0001D50000A000105E0020A0AE0010A0FE0B7
:101CE00014D027C003F0265064DEE8CFF4F10DD005
:101CF00027C003F02650ADDEE8CFF4F106D027C0B0
:101D000003F0265095DEE8CFF4F1262AD8B4272A2E
:101D10002850D8B4290628060101F351F32B580F97
:101D2000E96E040EEA6ED8B0EA2AF4C1EFFFCAD712
:101D30002850291004E1F351400801E01A6AF3C168
:101D4000F5F10001B8DF1200276A266A1D6A040156
:101D50001B51010A000107E0030A0BE0010A0DE034
:101D6000220A22E03AD0296A120E286E030E1D6E56
:101D700036D0296A430E286E32D0020E1D6E036AD9
:101D800004011A511E0FE96E000E0320EA6E276A45
:101D9000EFCF26F027C003F0265000015ADE036A79
:101DA000286E03C029F01BD0036A04011A510001F8
:101DB00033DE036A266E03C027F0263C02D027528A
:101DC0000AE027C003F02650F4DD036A286E03C042
:101DD00029F005D002D072DF11D070DF0FD00401DE
:101DE0001F5308E1295203E128501E5D03E2296ACE
:101DF0001EC428F0010E1A6E000162DF50EF10F0D1
:101E00000101F25306E1040E226E0001D0DEECD097
:101E10000101050E226E040EF56F980EF46F010E8F
:101E2000F36FF3510F08D8A0DFD0F3C1FBF100012D
:101E300085DE0101F66B036AF35100017ADDFF08CC
:101E400068E0040E0101F66FD890F335036A0001D3
:101E500098DD0900F5CF03F00101F76F03C0F8F139
:101E60000201026BF3C101F2046B080E036F000163
:101E700054DE01C0FAF1010E01010124016E000ED1
:101E80000220036E01C0E9FF040E0324EA6EF7C1CD
:101E9000EFFF0201026BF3C101F2046B080E036F46
:101EA00000013BDE01C0FAF1020E01010124016EC6
:101EB000000E0220036E01C0E9FF040E0324EA6E47
:101EC000F5C1ECFFED52F4C1EFFFD890F335036A92
:101ED000000157DD0900F5CF03F00101F42703509D
:101EE000F523880EF96FF8B1F981F8B3F98302018F
:101EF000026BF3C101F2046B080E036F00010DDEEB
:101F0000010101C0E9FF040E0224EA6EF9C1EFFFEE
:101F10000001036A0101F3510001FBDCFF0849E005
:101F20000101F6830201026BF3C101F2046B080E9A
:101F3000036F0001F2DD02C0FBF101C0FAF1040EF3
:101F40000101FA27000EFB23020EFA25016E000E96
:101F5000FB21036E01C0E9FF040E0324EA6EF5C104
:101F6000ECFFED52F4C1EFFFD890F335036A0001A6
:101F7000F0DC0900F5CF03F00101F4270350F5234D
:101F80000201026BF3C101F2046B080E036F000142
:101F9000C4DD02C0FBF101C0FAF1040E0101FA2711
:101FA000000EFB23FAC1E9FF040EFB25EA6E400E8A
:101FB000EF6E0101F651060802E10E0EF66F036A9C
:101FC000F3510001A6DC010803E00101F6890001DC
:101FD000036A0101F351700FE96E0F0E0320EA6EE0
:101FE000F6C1EFFFF32B1DD7000149EF10F00401FC
:101FF0001951000A00010DE0010A15E0020A20E073
:10200000060A2AE0030A31E00E0A31E0010A37E04D
:1020100046D01CC058F40401596B020E0101F56F43
:10202000000149DE3DD004011A2D07D0010E1C1617
:102030000101F56B00013FDE02D000013FDE30D030
:1020400004011A2D06D01C820101F56B000133DE5C
:1020500002D0000133DE24D0020E1A6E1AC424F01E
:102060000101F56B000127DE1BD06ED619D01BC015
:1020700058F4010E0101F56F00011DDE11D00401BD
:102080001A5101080AE31AC41BF01AC4F2F1000144
:10209000B7D60101F56B00010EDE000101D00EDEA6
:1020A000EBEF11F01BC0F2F104011951000A00011D
:1020B00005E00A0A0CE0010A2BE03FD00401586B4E
:1020C000596B020E0101F56F0001F5DD37D00101FA
:1020D000F2531BE0010EF25D036A000194DC016E15
:1020E00004011C5DD8A002D001010FD0036A1C516D
:1020F0002A0FE96E000E0320EA6EEFCF58F4010EAE
:102100000101F56F0001D7DD02D00001D7DD16D047
:102110000101F2530FE0036A04011C512A0FE96E1A
:10212000000E0320EA6E1AC4EFFF0101F56B0001F7
:10213000C2DD02D00001C2DD01D0C0DDEBEF11F045
:102140000101F391F2BFF381F29FF3A11AD00201D2
:10215000026BF2C101F2046B080E036F0001DDDCBB
:1021600002C0F5F101C0F4F1040E0101F427000EE4
:10217000F523F4C1E9FF040EF525EA6E880EEF6E33
:1021800010D00201026BF2C101F2046B080E036F62
:102190000001C3DC010101C0E9FF040E0224EA6E64
:1021A000EF6A000158EF11F00101F391F2BFF381E2
:1021B000F29FF3A11AD00201026BF2C101F2046B8B
:1021C000080E036F0001A9DC02C0F5F101C0F4F1B3
:1021D000040E0101F427000EF523F4C1E9FF040EFB
:1021E000F525EA6E840EEF6E11D00201026BF2C18A
:1021F00001F2046B080E036F00018FDC010101C0C6
:10220000E9FF040E0224EA6E840EEF6E000160EF17
:1022100011F00101F391F2BFF381F29FF3A11AD003
:102220000201026BF2C101F2046B080E036F0001A0
:1022300074DC02C0F6F101C0F5F1040E0101F527CE
:10224000000EF623F5C1E9FF040EF625EA6EEFCF86
:10225000F4F111D00201026BF2C101F2046B080E1D
:10226000036F00015ADC010101C0E9FF040E0224E2
:10227000EA6EEFCFF4F1F4AF02D0F4B502D0000E65
:1022800001D0010E016E00016CEF11F01CC4FCF1D5
:102290001DDC01522DE004011951010A000105E085
:1022A000020A0BE0030A11E022D01CC4F2F148D765
:1022B0000101F56B0001FFDC1BD01CC4F2F174D7E7
:1022C0000101F56B0001F7DC13D00401586B596B69
:1022D0001CC4F2F100019DD7015203E0010E04017C
:1022E000586F020E0101F56F0001E5DC01D0E6DC5C
:1022F000EBEF11F0FE0E236E120004011C2D01D035
:1023000002D01C534EE11951000A00010BE0010AF2
:102310000DE0210A1CE0010A1FE0030A30E0010A77
:1023200035E03DD0010E826FE5DF3AD0040EEA6E53
:10233000580EE96EE26A350EE16E080E016EE6CFC8
:10234000EEFF012EFCD71EC4F5F1B5DC29D0020E3C
:10235000826F8081CFDF24D0040EEA6E580EE96EC2
:10236000E26A2C0EE16E070E016EE6CFEEFF012E43
:10237000FCD7070E0101F56F00019DDC11D01AC4D6
:1023800081F00101F56B000196DC0AD01AC434F02B
:102390001BC433F00101F56B00018DDC01D08EDC34
:1023A00004010001EBEF11F01A6A040118517F0BD0
:1023B000000A000107E0010A07E0030A07E0230A18
:1023C00007E008D014D607D06DD605D05FD703D06C
:1023D00094D701D073DC55EF14F00201026BF3C106
:1023E00001F2046B080E036F00018DEC0DF001018A
:1023F00001C0E9FF040E0224EA6EEFCFF5F1F451BB
:10240000020806E1F5AD02D0F46B02D0010EF46FC4
:10241000F45103081DE1840EF56F0201026BF3C154
:1024200001F2046B080E036F00018DEC0DF002C089
:10243000F9F101C0F8F1040E0101F827000EF923AB
:10244000F8C1E9FF040EF925EA6E840EEF6E07D09D
:10245000F42D03D0C80EF56F02D0880EF56FD8901A
:10246000F335036A0001C1EC0CF00900F5CF03F06D
:102470000101F66F03C0F7F10201026BF3C101F233
:10248000046B080E036F00018DEC0DF001C0F8F134
:10249000010E01010124016E000E0220036E01C035
:1024A000E9FF040E0324EA6EF6C1EFFFF7B1F581F0
:1024B000F7B3F5830201026BF3C101F2046B080E5E
:1024C000036F00018DEC0DF0010101C0E9FF040E66
:1024D0000224EA6EF5C1EFFF00011200036A020157
:1024E0000051700FE96E0F0E0320EA6EEF521BE0F1
:1024F000026B00C201F2046B080E036F00018DEC49
:102500000DF002C002F201C001F2040E0201012727
:10251000000E022301C2E9FF040E0225EA6EEFCF8E
:1025200003F203AF02D0000E01D0010E016E0001D4
:102530001200FBC100F2D2DF0152D8B48BD00201ED
:10254000026BFBC101F2046B080E036F00018DECFE
:102550000DF002C001F201C000F2040E02010027DA
:10256000000E0123010E0025016E000E0121036EF5
:1025700001C0E9FF040E0324EA6EFCC1EFFF010174
:10258000FE51020822E10201026BFBC101F2046B61
:10259000080E036F00018DEC0DF002C001F201C0C6
:1025A00000F2040E02010027000E012300C2E9FF21
:1025B000040E0125EA6EEFCFFFF10101FFAD02D05D
:1025C000FE6B02D0010EFE6F1CD0FE51040819E113
:1025D0000201026BFBC101F2046B080E036F0001E4
:1025E0008DEC0DF0020101C0E9FF040E0224EA6E39
:1025F000EFCFFFF10101FFAD03D0010EFE6F01D05F
:10260000FE6BFE2D03D0C80EFF6F02D0880EFF6F49
:10261000FDB1FF81FDB3FF830201026BFBC101F23B
:10262000046B080E036F00018DEC0DF002C001F287
:1026300001C000F2040E02010027000E012300C2B7
:10264000E9FF040E0125EA6EFFC1EFFF010E016EE6
:1026500004D00001000E016E02010001120082513F
:10266000010A03E0030A15E028D0EA6A350EE96E94
:10267000040EE26E180EE16E080E016EE6CFEEFF5C
:10268000012EFCD70101F56B00015BEC0EF0826BB3
:1026900015D0EA6A2C0EE96E040EE26E180EE16E99
:1026A000070E016EE6CFEEFF012EFCD7826B010113
:1026B000F56B00015BEC0EF001D0826B9DEF13F027
:1026C0000201026BF3C101F2046B080E036F0001FB
:1026D0008DEC0DF002C0F5F101C0F4F1010E010125
:1026E0000124016E000E0220036E01C0E9FF040EFA
:1026F0000324EA6E036AEFCF01F003C002F0000189
:1027000091EF13F07D91020E0101F36FF46F000160
:1027100064DE12007D817F6B020E0101F36F000108
:10272000CFD701C07EF07E5301E1ECDFA4EF13F0C0
:102730000101F25304E1000192D706D00101F251E8
:10274000020803E10001E6D7010100011200F3C114
:102750006EFF0101F35303E0040E226E02D0020E5D
:10276000226E0001B9EF13F01B6A1A6A24C0F3F15C
:10277000EED72FEF14F0F3C100F2B0DE015247E0C4
:102780000201026BF3C101F2046B080E036F00013A
:102790008DEC0DF002C0FCF101C0FBF1040E010153
:1027A000FB27000EFC23020EFB25016E000EFC2110
:1027B000036E01C0E9FF040E0324EA6EECCFFAF1C8
:1027C000ED52EFCFF9F1FAC1EAFFF9C1E9FFF5C126
:1027D000E2FFF4C1E1FFF7C102F0F6C101F00152DE
:1027E00002E0022A02D0025206E0E6CFEEFF012EFE
:1027F000FCD7022EFAD7F3C1FBF1F7C1FDF1F6C108
:10280000FCF1F8C1FEF1000194DE015002D0000E8F
:10281000016E12007C5310E0020E0101F36FF56BA4
:102820003D0EF46FF76B7CC0F6F1020EF86F0001FD
:10283000A2DF015201E07C6B1200ECDF36EF14F0F6
:102840000101F2530EE11A2C05D0000160EC0EF0EC
:1028500006D001011A50020803E1000185D70101E9
:1028600006D0F251020803E10001E7D7010100019F
:10287000120021300101F06FF033F0331F0EF0171A
:1028800021524EE1040100513C0B0101F16F430E56
:10289000040100170101F151340825E1040104513C
:1028A000800B01E0046B00017FD56D98233C07D0BD
:1028B0000101F36B030EF46F00018FDD12D00101F3
:1028C000F36B020EF46F000188DD2350FE0809E06F
:1028D0000101FB6BFD6B23C0FCF1040EFE6F0001D8
:1028E00028DE1CD00101F151040819E1F26B00014E
:1028F0001FDF0101F36B020EF46F00016EDD235048
:10290000FE080CE0233C01D009D00101FB6BFD6BFC
:1029100023C0FCF1010EFE6F00010BDE010122D08D
:102920002150040812E12368F26B000189DF233C87
:1029300001D009D00101FB6BFD6B23C0FCF1020E3D
:10294000FE6F0001F6DD0DD0010121B406D0F0C10B
:10295000F2F10001EDDE05D00101F0C1F2F100015C
:102960006FDF01010001EEEF14F0A19A225201E1A4
:102970003ED068523CE068A404D069A402D043EF82
:102980000DF06DA201D033D068AA04D069AA02D09C
:102990005BEF0DF068A204D069A202D062EF0DF0E7
:1029A00068A004D069A002D03EEF0EF068A804D061
:1029B00069A802D053EF0EF068AC04D069AC02D025
:1029C00058EF0EF00101EF6B68A60AD069A608D097
:1029D0006CCF21F000013CEC0EF04BD702D001018E
:1029E00005D00101EF51EF2B0308EEE2000162EF89
:1029F0000CF00101F551070B006EF531016E01324B
:102A000001321F0E01160150F725E96E000EF82164
:102A1000EA6E016A012A002A01D00136002EFDD794
:102A2000F65303E00150EF1203D0011E0150EF16E0
:102A30000001120001017A2B7A510208D8A456D164
:102A40007A6B14510308D8A079D00EC100F016514A
:102A5000016E04E0D8900032012EFCD70050010B2B
:102A600001086BE1036A16510F0FE96E010E032096
:102A7000EA6EEF3C01D061D00BC100F01651016E3F
:102A800004E0D8900032012EFCD70050010B3EE14B
:102A90000DC100F01651016E04E0D8900032012EF5
:102AA000FCD70050010B016EE8A018D0D890163565
:102AB000036AF30FE96E000E0320EA6EECCFF4F127
:102AC000ED52EFCFF3F1F3C1F5F1F66B0F0EF86FA6
:102AD000890EF76F00018DDF17D00101D8901635F0
:102AE000036AFB0FE96E000E0320EA6EECCFF4F1EF
:102AF000ED52EFCFF3F1F3C1F5F1F66B0F0EF86F76
:102B0000890EF76F000175DF17D00101D8901635D7
:102B1000036AFB0FE96E000E0320EA6EECCFF4F1BE
:102B2000ED52EFCFF3F1F3C1F5F1F66B0F0EF86F45
:102B3000890EF76F00015DDF01017FD0EF6BEF5170
:102B40000308D8A07AD00EC100F0EF51016E04E066
:102B5000D8900032012EFCD70050010B01086BE128
:102B6000036AEF510F0FE96E010E0320EA6EEF5278
:102B700062E00BC100F0EF51016E04E0D89000322A
:102B8000012EFCD70050010B3EE10DC100F0EF51CA
:102B9000016E04E0D8900032012EFCD70050010BEA
:102BA00019E0D890EF35036AF30FE96E000E0320A9
:102BB000EA6EECCFF4F1ED52EFCFF3F1F3C1F5F1A2
:102BC000010EF66F0F0EF86F890EF76F000111DF1F
:102BD00018D00101D890EF35036AFB0FE96E000EA3
:102BE0000320EA6EECCFF4F1ED52EFCFF3F1F3C135
:102BF000F5F1010EF66F0F0EF86F890EF76F0001F9
:102C0000F8DE18D00101D890EF35036AFB0FE96EAA
:102C1000000E0320EA6EECCFF4F1ED52EFCFF3F1AA
:102C2000F3C1F5F1010EF66F0F0EF86F890EF76F15
:102C30000001DFDE0101EF2B82D7F069EF6BEF516E
:102C4000040823E3036AEF510F0FE96E010E03201E
:102C5000EA6EEF50F05D17E315C100F0EF51016E21
:102C600004E0D8900032012EFCD70050010B0BE19C
:102C7000036AEF510F0FE96E010E0320EA6EEFCFEA
:102C8000F0F1EFC1F1F1EF2BDAD7010E006EF15147
:102C9000016E04E0D8900036012EFCD700501513C9
:102CA000145103080BE3036A16510F0FE96E010E6E
:102CB0000320EA6EEF50F05DF26F02D0F0C1F2F146
:102CC000F1C116F11451030801E1156B1451030809
:102CD00002E3142B01D0146BF25303E11453D8A474
:102CE000B0D6145303E1000180850101FF0ED880A6
:102CF000F255D76AD66EF294000162EF0CF0F2C181
:102D0000C4F1F1C1C3F1F0C1C2F1EFC1C1F1B4EF3F
:102D100016F0836B83C0C4F0120001011A2BD8B4E3
:102D20001B2B032D01D001D01C2B185302E119538A
:102D300004E01851D8B41907180783A24CD0000139
:102D400080BD48D0807B808D0101196B186B00011C
:102D5000809F80B93DD00101F26BF16B1BC1F0F196
:102D60001AC1EFF10001CBD78988F2CFEFF1F29EC3
:102D7000F86A7F0EF76EF00EF66E0900F550080047
:102D8000F5CF03F0F86A0101EFBFF28EEF6FF06F3D
:102D9000EF6BF2CFF1F1F29EF86A7F0EF76EF20E52
:102DA000F66E0900F5500800F5CF03F0F86AF1BFA0
:102DB000F28EEF250001E76F03500101F0210001C1
:102DC000E86FD890E737E837A4DF8097808902D092
:102DD0008099899804D0000180AD01D0809D1C0E9F
:102DE000CF6E770ECE6E9E9062EF0CF09E9262EFE9
:102DF0000CF00101086B010E036F00018099C46B98
:102E0000836BF2CFCDF1F29EF86A760EF76E080E64
:102E1000F66E0900F5500800F5CF03F0F86A0101DD
:102E2000CDBFF28E0001E56F03C0E6F07C0EEC6FC3
:102E30000E0EEB6F7C0EEE6F0B0EED6F7C0EF06FD7
:102E40001D0EEF6F7C0EF26F1A0EF16F7C0EF46F99
:102E50000D0EF36F7C0EF66F0A0EF56F7C0EF86F99
:102E60001C0EF76F7C0EFA6F160EF96F7C0EFC6F5E
:102E70000C0EFB6F7C0EFE6F1F0EFD6F7C0E0101B2
:102E8000006F1B0E0001FF6F7C0E0101026F170E19
:102E9000016F036B046B056B066B076B086B096BAB
:102EA00000018093809501010A6B0B6B0C6B0D6B1D
:102EB0000E6B040E146F156B166B176B0001809769
:102EC0008099809B809D0101196B186B1B6B1A6B9D
:102ED0001C6B316B326B336B346B366B356B776BD2
:102EE000796B786B7A6B0F691069116912691369D4
:102EF0000001B4EF29F0010EEA6EDF0EE96EEF502B
:102F00000EE00F0E016E006A002EFED7012EFBD7D9
:102F10008F0E006E002EFED70000EF2EF2D71200AB
:102F2000320EBE6E8C8089880101DF6F0001E3DF05
:102F3000BE6A320E0101DF6F0001DDDF8C908998DF
:102F4000320EBE6E0101DF6F0001D5DFBE6A8C80DC
:102F50008988640E0101DF6F0001CDDF8C908998B4
:102F60004FEF18F08B908B9201010C6B2F0E926E2D
:102F7000030E936E000E946E020E956E070E966E03
:102F8000C150C00B0709C16EC050C00B0709C06E0D
:102F9000C08EC2800A6B000E016EC250C30B0110BE
:102FA000C26E8A9E8C9C89988C90CD6BCE6BCD51D5
:102FB000030859E3D890CD35036AEB0FE96E000E94
:102FC0000320EA6EECCFD0F1ED52EFCFCFF1196ACA
:102FD000F2BE198EF29ECFC1F5F1F66B0F0EF86FAF
:102FE000890EF76F000105DD19BEF28ED890010140
:102FF000CD35036AF30FE96E000E0320EA6EECCFC5
:10300000D0F1ED52EFCFCFF1196AF2BE198EF29ED8
:10301000CFC1F5F1F66B0F0EF86F890EF76F000157
:10302000E8DC19BEF28ED8900101CD35036AFB0FA2
:10303000E96E000E0320EA6EECCFD0F1ED52EFCF37
:10304000CFF1196AF2BE198EF29ECFC1F5F1F66B7F
:103050000F0EF86F890EF76F0001CBDC19BEF28EF0
:103060000101CD2BA4D78B940C0EBD6EB76AB66A46
:10307000B50ECD6E780E0609CA6EFA0ECB6EC00E76
:10308000F212C70ED56ED76AD66AF28A9D809D82EB
:103090009D8A1C0ECF6E770ECE6E000141D7B6EF23
:1030A00029F06D6A696A080E6F6E9450300901014B
:1030B000946E226A196AF2BE198EF29E000124EC07
:1030C0000EF019BEF28E66EF18F0EBD78BEF18F00A
:1030D000196AF2BE198EF29E24EC0EF019BEF28E21
:1030E0006D6A140E6F6E696A6D86010E226E7CEF3A
:1030F00018F06DB601D0ECD7222C0BD06DBA09D0E8
:10310000686A696AA08AC00EF212110E696E020E18
:10311000226E1200DAD7EDDF22500208FCE1C0EF88
:1031200029F07DB101D0FDD77F517F2BA30FE96E30
:10313000040EEA6ED8B0EA2AEFCFCFF17E517F5D60
:1031400008E3196AF2BE198EF29E82EC13F019BEE2
:10315000F28E0101CFC101F00001C0EF18F07DA196
:1031600025D0010133531DE1036A31511D0F016E5A
:10317000010E032201C0CDF103C0CEF10001D1D771
:10318000CEC1EAFFCDC1E9FF01C0EFFF0101312B44
:103190003151130801E2316B3251315D02E1010E10
:1031A000336F050EDF6F0001A6DED9D7C4EF29F01B
:1031B0000101332D0BD0336B020ED26F316B326BAA
:1031C000D0C1E9FFD1C1EAFFEF6A22D03151325DAF
:1031D00007E1D26BD0C1E9FFD1C1EAFFEF6A18D095
:1031E000D1C103F0036A32511D0FE96E010E0320B5
:1031F000EA6EEFCFD5F1D1C1EAFFD0C1E9FFD5C169
:10320000EFFF322B3251130801E2326B010ED26F05
:10321000D2C101F000015AEF1AF00101D991F2BEBA
:10322000D981F29E00017C513E0802E23E0E7C6F85
:103230007C517C2B036A3D0FE96E000E0320EA6E81
:10324000D8C1EFFFF29E0101D9B1F28E00012CEF3F
:1032500019F0D7C1D8F1E1D7196AF2BE198EF29EE2
:10326000020E0201006F00016EEC12F019BEF28E28
:10327000015208E0196AF2BE198EF29E0AEC14F0AF
:1032800019BEF28E4BEF19F07C513E0801E2FCD7DB
:10329000D6C1D7F1DED71200E3C101F0E2C100F0E0
:1032A0000066012A0900F5CFEEFF002EFBD7012EA4
:1032B000F9D7F86A1200E1C179F1E0C178F1C00EE6
:1032C000010178177851E05D776FF86A79C1F7FFEF
:1032D00078C1F6FF010EEA6E370EE96EE36B400E21
:1032E000E26F0001D9DF12000101D3C103F0D25116
:1032F000D8B4D307D207D46F03C0D5F1D45302E1B9
:10330000D55322E0D1C103F0D051D02BD8B4D12B6A
:10331000800FD46F5D0E0320D56FF2CFD6F1F29EF1
:10332000F86AF76ED4C1F6FF0900F5500800F5CF32
:1033300003F0F86AD6BFF28ED46F03C0D5F1D66F12
:103340000001A2DFD1D70101000164EF1BF0F250B0
:10335000036EF29EA68EA6840F01550EA76EAA0ECE
:10336000A76EA68200000350F21200011200D08C5A
:10337000A69CF6501F0B006EE00EF6160A00E0C188
:1033800001F0006608D0F650010F3F0B04E1A6885B
:103390000900DDDF0A00006607D0EECFF5FF01521D
:1033A00004E00F00010603D000060B000C001F0E06
:1033B000F6141F0AE6E1CBDF0166E3D7F86A1200D4
:1033C00001017751772B036A370FE96E010E032055
:1033D000EA6ED0C1EFFF7751772B036A370FE96EA2
:1033E000010E0320EA6ED151EF6E77513F0835E2AE
:1033F00079515D0804E331E1785130082EE2D08C38
:10340000F86A79C1F7FF78C1F6FFA688A69C00018B
:103410009EDFF86AF86A79C1F7FF78C1F6FF010EFE
:10342000EA6E370EE96E400E0101E06F00019FDF8A
:103430000101776B400E7827000E7923F86A79C175
:10344000F7FF78C1F6FF010EEA6E370EE96EE36B07
:10345000400EE26F000120DF0101000112000101B6
:1034600079515D0804E31DE1785130081AE2D08CEF
:10347000F86A79C1F7FF78C1F6FFA688A69C00011B
:1034800066DFF86AF86A79C1F7FF78C1F6FF010EC6
:10349000EA6E370EE96E400E0101E06F000167DF52
:1034A000010100011200010E0101D16FCD0ED06F9C
:1034B00000017ED601C0CEF10101CE2D8ED11C6B54
:1034C000CDC117F100018087CDC1D6F1DDDE01014C
:1034D0000351010A000125E0030AD8B463D0010AB0
:1034E000D8B467D0070AD8B481D0010AD8B484D040
:1034F000850AD8B483D0010AD8B488D0030AD8B4D6
:10350000CED0010AD8B4D3D0070AD8B4E5D0010A86
:10351000D8B4EAD0030AD8B4EFD0010AD8B44AD15B
:1035200052D10101CD51540A00010BE0D70A0FE03E
:10353000070A12E0010A15E0030A18E0010A22E076
:1035400025D0020E0101036FCF8100011FD0800E34
:103550000101036F00011AD0820E0101036F000107
:1035600015D0840E0101036F000110D00101CF813D
:103570008988196B186B0001809F89EC16F0809781
:10358000808904D0870E0101036F00010101CFB1D2
:1035900007D0000180990101196B186B8998086B9D
:1035A000CF9114D10101CD51FE0802E1030E036F4A
:1035B0000DD10101CD51E00B006E0038046F0433D2
:1035C000070E0417CD511C0B006E0030056F05333C
:1035D0003F0E0517CD51030B066F0451030803E29C
:1035E000040E036F02D0050E036FF0D0CDC107F1BA
:1035F000050E0101036FEAD00101E8D0CDC1E8F06A
:103600000001E76B810E0101036FE0D00101CD5194
:103610000001E713010E0101036F0001E751F00BF8
:103620000101D06F0001E8510F0B0101D16FD051A2
:10363000F00821E1D1510F081EE10001E7510F0B05
:103640000101D06FD16BD890D035026ED135036EA9
:103650000250F00FD06F7F0E0320D16F800ED05D2F
:103660000001E76F5D0E0101D1590001E86F320ED4
:10367000BE6E05D00101D8900001E737E837800E13
:10368000E7250101D06F5D0E0001E8210101D16F36
:10369000E16FD0C1E0F100010EDE010197D0CDC194
:1036A000EAF00001E96B830E0101036F8FD0010185
:1036B000CD510001E913E8C0D1F1E7C0D0F1EAC073
:1036C000D3F1E9C0D2F110D6E951E727EA51E82356
:1036D000010E0101036F7AD0CDC1EAF00001E96B60
:1036E000850E0101036F72D00101CD510001E91374
:1036F000860E0101036F6AD0BE6A010134510208CF
:1037000019E1CD513527000E3623346B36C1D1F186
:1037100035C1D0F1000154DEE951D8B4EA07E92FF0
:1037200007D0EA5305E19BDE010E0101036F0001A2
:1037300037D00101342D09D0366BCDC135F135C1FB
:1037400036F1356B020E346F2AD0CD51800817E167
:10375000010E346F366B356BD16BCDC1D0F10001EA
:103760002FDEE951D8B4EA07E92F07D0EA5305E183
:1037700076DE010E0101036F000112D00101D16B51
:10378000CDC1D0F100011CDEE951D8B4EA07E92F20
:1037900007D0EA5305E163DE010E0101036F00016A
:1037A000FF0ED8800101CD55D06FD66F00016CDDC2
:1037B00001010CD0370E0101D66F000165DD010E4D
:1037C0000101036F03D0010E0101036F03510508CE
:1037D00001E103D0000167D60101CE51020802E1E8
:1037E000010E036F0001C6EF29F00101DE510A5DF1
:1037F00010E0DE35006E0036FC0E0016C250C30B22
:103800000010C26EC70E006E002EFED700D0DEC1C3
:103810000AF1C282C2B2FED7C4CF03F0C3CF01F017
:10382000C4CF02F0000112000101E16BE151030875
:1038300028E30CC100F0E151016E04E0D8900032A1
:10384000012EFCD70050010B1AE0E0530DE1010EF0
:10385000006EE151016E04E0D8900036012EFCD7D5
:103860000050FF0A0B170BD0010E006EE151016EE4
:1038700004E0D8900036012EFCD700500B13E12B4A
:10388000D5D700011200D8900101E535036AEB0F8E
:10389000E96E000E0320EA6EECCFE7F1ED52EFCFB8
:1038A000E6F1196AF2BE198EF29EE6C1F5F1010E3B
:1038B000F66F0F0EF86F890EF76F0001F9EC14F038
:1038C00019BEF28E8A8E8C8CD8EF1CF0D890010134
:1038D000E035036AF30FE96E000E0320EA6EECCFC9
:1038E000E4F1ED52EFCFE3F1D890E035036AFB0F3E
:1038F000E96E000E0320EA6EECCFE2F1ED52EFCF5D
:10390000E1F10DC100F0E051016E04E0D890003209
:10391000012EFCD70050010B016EE8A024D0196ADB
:10392000F2BE198EF29EE1C1F5F1F66B0F0EF86F43
:10393000890EF76F0001F9EC14F019BEF28E196AC6
:10394000F2BE198EF29EE3C1F5F1010E0101F66F90
:103950000F0EF86F890EF76F0001F9EC14F019BE25
:10396000F28E23D00101196AF2BE198EF29EE1C1D6
:10397000F5F1010EF66F0F0EF86F890EF76F00016B
:10398000F9EC14F019BEF28E196AF2BE198EF29E8D
:10399000E3C1F5F10101F66B0F0EF86F890EF76FB9
:1039A0000001F9EC14F019BEF28EE0C1E5F16BD71D
:1039B000010E006E0101E051016E04E0D890003666
:1039C000012EFCD700500E13010137EF1FF0D890E5
:1039D0000101E535036AEB0FE96E000E0320EA6E84
:1039E000ECCFE8F1ED52EFCFE7F1196AF2BE198E94
:1039F000F29EE7C1F5F1F66B0F0EF86F890EF76FC7
:103A00000001F9EC14F019BEF28E0101E5A104D019
:103A1000010EE55DE66F03D0010EE525E66F0EC1F0
:103A200000F0E651016E04E0D8900032012EFCD780
:103A30000050010B01E107D0E551010803E38A9E24
:103A400002D001D08C9C000185EF1DF0D8900101BF
:103A5000E035036AF30FE96E000E0320EA6EECCF47
:103A6000E4F1ED52EFCFE3F1D890E035036AFB0FBC
:103A7000E96E000E0320EA6EECCFE2F1ED52EFCFDB
:103A8000E1F1196AF2BE198EF29EE1C1F5F1010E63
:103A9000F66F0F0EF86F890EF76F0001F9EC14F056
:103AA00019BEF28E196AF2BE198EF29EE3C1F5F1CB
:103AB000010E0101F66F0F0EF86F890EF76F00010E
:103AC000F9EC14F019BEF28ED8900101E035036ACA
:103AD000EB0FE96E000E0320EA6EECCFE6F1ED523B
:103AE000EFCFE5F1196AF2BE198EF29EE5C1F5F14C
:103AF000F66B0F0EF86F890EF76F0001F9EC14F0FA
:103B000019BEF28EE0C1E5F162D7010E006E01012F
:103B1000E051016E04E0D8900036012EFCD7005031
:103B2000FF0A0E17010137EF1FF0D8900101E035B1
:103B3000036AF30FE96E000E0320EA6EECCFE4F1A6
:103B4000ED52EFCFE3F1D890E035036AFB0FE96E59
:103B5000000E0320EA6EECCFE2F1ED52EFCFE1F17F
:103B60000DC100F0E051016E04E0D8900032012E4A
:103B7000FCD70050010B30E0196AF2BE198EF29E9C
:103B8000E3C1F5F1F66B0F0EF86F890EF76F0001C8
:103B9000F9EC14F019BEF28E196AF2BE198EF29E7B
:103BA000E1C1F5F1010E0101F66F0F0EF86F890EFC
:103BB000F76F0001F9EC14F019BEF28E010E006EE1
:103BC0000101E051016E04E0D8900036012EFCD7CF
:103BD0000050FF0A0D172ED0196AF2BE198EF29E00
:103BE000E3C1F5F1010EF66F0F0EF86F890EF76F56
:103BF0000001F9EC14F019BEF28E196AF2BE198EAA
:103C0000F29EE1C1F5F10101F66B0F0EF86F890E1E
:103C1000F76F0001F9EC14F019BEF28E010E006E80
:103C20000101E051016E04E0D8900036012EFCD76E
:103C300000500D13010137EF1FF0D8900101E0355E
:103C4000036AF30FE96E000E0320EA6EECCFE4F195
:103C5000ED52EFCFE3F1D890E035036AFB0FE96E48
:103C6000000E0320EA6EECCFE2F1ED52EFCFE1F16E
:103C7000010E006EE051016E04E0D8900036012E76
:103C8000FCD700500D13196AF2BE198EF29EE1C1E5
:103C9000F5F1F66B0F0EF86F890EF76F0001F9EC76
:103CA00014F019BEF28E196AF2BE198EF29EE3C1AB
:103CB000F5F1010E0101F66F0F0EF86F890EF76F27
:103CC0000001F9EC14F019BEF28E2AEF1FF0D89023
:103CD0000101E035036AF30FE96E000E0320EA6E7E
:103CE000ECCFE4F1ED52EFCFE3F1D890E035036A89
:103CF000FB0FE96E000E0320EA6EECCFE2F1ED520D
:103D0000EFCFE1F1010E006EE051016E04E0D890BA
:103D10000036012EFCD70050FF0A0D17196AF2BEBB
:103D2000198EF29EE3C1F5F1F66B0F0EF86F890E56
:103D3000F76F0001F9EC14F019BEF28E196AF2BEA9
:103D4000198EF29EE1C1F5F1010E0101F66F0F0E21
:103D5000F86F890EF76F0001F9EC14F019BEF28EBE
:103D60002FEF1FF0D8900101E035036AF30FE96EE1
:103D7000000E0320EA6EECCFE4F1ED52EFCFE3F159
:103D8000D890E035036AFB0FE96E000E0320EA6E5F
:103D9000ECCFE2F1ED52EFCFE1F1010E006EE05118
:103DA000016E04E0D8900036012EFCD70050FF0AC7
:103DB0000E17196AF2BE198EF29EE3C1F5F1F66B89
:103DC0000F0EF86F890EF76F0001F9EC14F019BEB1
:103DD000F28E196AF2BE198EF29EE1C1F5F101016F
:103DE000F66B0F0EF86F890EF76F0001F9EC14F007
:103DF00019BEF28E34EF1FF00101DF6BDF510308B3
:103E000038E30CC100F0DF51016E04E0D8900032BD
:103E1000012EFCD70050010B2AE0E06B000104DD0D
:103E20000101DE51FA0F23E2060F00013BEF1FF004
:103E3000DFC1E0F14BD501011AD0DFC1E0F106D6B8
:103E4000010115D0DFC1E0F170D6010110D0DFC152
:103E5000E0F1F3D601010BD0DFC1E0F138D7010169
:103E600006D0DFC1E0F17ED7010101D00101DF2BD7
:103E7000C5D700011200E824F76AF736910FF66EF5
:103E80003E0EF7220A00F550FA6E0800F550F96E62
:103E9000303E3A3E443E4E3E583E623E0101E16BAA
:103EA000E15103083BE30CC100F0E151016E04E075
:103EB000D8900032012EFCD70050010B2DE0010EEE
:103EC000E05DF90F20E2070F000190EF1FF0240ED4
:103ED0000101E06F18D0490E0101E06F14D06E0EA1
:103EE0000101E06F10D0920E0101E06F0CD0B70E0F
:103EF0000101E06F08D0DB0E0101E06F04D0010189
:103F0000E06901D00101036AE1510F0FE96E010E72
:103F10000320EA6EE0C1EFFFE12BC2D700011200DF
:103F2000E824F76AF7363B0FF66E3F0EF7220A00D9
:103F3000F550FA6E0800F550F96ECE3ED63EDE3EE4
:103F4000E63EEE3EF63EFE3ECDC108F10101CE5307
:103F500003E00001808302D00001809364EF2AF027
:103F6000320EBE6E0101DF6F00017BEC17F0BE6AFE
:103F70001200C69E9E96E0C1C9FF020EC6BE05D0C5
:103F80009EA6FED7000EC5BC010E016E1200C69C97
:103F9000C586C5B6FED700B0C59A00A0C58AC5883B
:103FA000C5B8FED7C9CF01F012000101CD51FB0FFA
:103FB00041E2050F00012EEF20F00101CE5302E196
:103FC0008C8001D08C9036D0CBDF010133D0010141
:103FD000DE6B000111DF030E0101DE6F00010CDF5B
:103FE000010E0101E06F00011FDCCFC1E0F156DFDF
:103FF000010120D001011ED00101CE51FC0F18E2B9
:10400000040F00011DEF20F0C580C5B0FED70101EF
:104010000FD0C584C5B4FED701010AD0CFC1E0F1ED
:10402000A8DF010105D0006AB2DF010101D0010162
:1040300001D0010100017FEF2AF0E824F76AF7368A
:10404000550FF66E400EF7220A00F550FA6E080082
:10405000F550F96E084012401C402640E824F76AEB
:10406000F736770FF66E400EF7220A00F550FA6E1B
:104070000800F550F96EBA3FC83FCE3FF43FF83F15
:1040800080A302D080A538D0010108C100F00951F9
:10409000016E04E0D8900032012EFCD70050010BD5
:1040A00025E009C1DEF10001F5EC1BF002C0CEF104
:1040B00001C0CDF101010939CF6FCF37E00ECF1725
:1040C000CE51036ACF1303C0D0F1CDC1D1F1D26B71
:1040D0000C0ED66F000144EC19F0CFC1D6F144ECC0
:1040E00019F0D1C1D6F144EC19F00101010E0925F6
:1040F000070B096F0001809524EF2BF080AF07D0EC
:10410000809F330E016E000E026E26D01FD0800EEF
:10411000E7250101E26F5D0E0001E8210101F2CF08
:10412000E4F1F29EF86AF76EE2C1F6FF0900F5507D
:104130000800F5CF03F0F86AE4BFF28EE06F03C029
:10414000E1F1020E0001E727000EE8230101E0C1C2
:1041500001F0E1C102F00001120083530FE0830778
:10416000D8908335036A7F0FE96E010E0320EA6E53
:10417000EFCF01F0E92AEF50E906026E1200C453B6
:1041800014E0C407D890C435036A840FE96E000EAA
:104190000320EA6EECCFDFF1ED52EFCFDEF101014B
:1041A000DEC101F0DFC102F00001120083511F08DF
:1041B00011E38351832B006ED89000360050036AC0
:1041C0007F0FE96E010E0320EA6EE1C1ECFFED52B4
:1041D000E0C1EFFF1200C4511F080EE3D890C435B0
:1041E000036A840FE96E000E0320EA6EE1C1ECFF62
:1041F000ED52E0C1EFFFC42B12000101E66BE76B4B
:10420000010EE86FDA6AD96AEB6FDE0EEA6F010E13
:10421000EA6EE20EE96EEBC1E2FFEAC1E1FFE8C13E
:10422000E9F1D890E550EE02F350E623F450E7238D
:10423000E92FF7D7E6C1DEFFE7C1E6F1E76BD8B0BB
:10424000E72BEA2BD8B4EB2BE82BE8510508DFE18C
:10425000000161EF21F0016A026A006A036A01014C
:10426000E45102E1E35118E0100EE56FD890E13718
:10427000E23700360336E451035C02E1E351005CAF
:1042800007E3E351005ED8A00306E451035ED88043
:1042900001360236E52FEAD700011200C4C1E1F170
:1042A000C3C1E0F1C2C1DFF1C1C1DEF1410E0101C4
:1042B000E56FC60EE46F4E0EE36F6D0EE26F000108
:1042C0009CD7390E01010024C16F300E0120C26F4E
:1042D000000E0220C36F000E0320C46FC3C100F0A4
:1042E000C4C101F0026A036AC4C1E0F1C3C1DFF1D5
:1042F000C4C1E2F1C3C1E1F17F0EE46FE3690001E3
:10430000AADF00C001F003C002F0E7EF25F00101D1
:104310007751772B036A370FE96E010E0320EA6E9F
:10432000DEC1EFFF7751772B036A370FE96E010E7D
:104330000320EA6EDF51EF6E00012FEC1AF012003D
:104340000101E06BE051030824E30CC100F0E051EF
:10435000016E04E0D8900032012EFCD70050010B12
:1043600016E0036AE0510F0F016E010E032203C035
:10437000E2F1036AE0510F0FE96E010E0320EA6ECD
:10438000DF51EF24E2C1EAFF01C0E9FFEF6EE02B4D
:10439000D9D700011200006A016A0101DE51D890EC
:1043A000DFB1002600320132DFB3002600320132D5
:1043B000DFB5002600320132DFB7002600320132BD
:1043C000DFB9002600320132DFBB002600320132A5
:1043D000DFBD002600320132DFBF0026003201328D
:1043E000000116EF29F08988320E0101DF6F00010C
:1043F0007BEC17F08998020E0101DE6FFA0EDF6F79
:1044000000017BEC17F00101DE2FF8D70001EBD79C
:1044100052EF29F00101D86BD76BCFAF75D0020EE8
:104420000001E7250101D76F000E0001E82101011D
:10443000D86FDF6BCFC1DEF13F0EDE17DF6BDEC161
:10444000DFF1DE6B00015ADE02C003F001C002F0B2
:10445000D8900236033602500101DE250001E76FD5
:1044600003500101DF210001E86F48DE02C0D2F1F4
:1044700001C0D1F10101CFAD12D0D06B030ED12517
:10448000016E000ED221036E0150035203E1015070
:10449000D05D05E2000161DE0101D02BEFD7D06BCA
:1044A000D25303E1D151D05D0EE2000168DE02C0BB
:1044B000DFF101C0DEF102C0E1F101C0E0F176DE22
:1044C0000101D02BEDD7E16BC4C0E0F100016EDE3D
:1044D000D8C1E1F1D7C1E0F169DE020E0101D125B9
:1044E000016E000ED221036E01500001835D0101B7
:1044F000DE6F000E0354DF6FE16FDEC1E0F10001FB
:1045000055DE52EF29F00101CF51000A0001D8B465
:104510004DD1010AD8B454D1030AD8B45DD1010AEF
:10452000D8B471D1070AD8B48BD1010AD8B4C5D197
:10453000030AD8B4E0D1010AD8B411D20F0AD8B412
:104540000ED2010AD8B44ED2030AD8B489D2010AD5
:10455000D8B4A4D2070AD8B4C8D2010AD8B4CAD2EF
:10456000030AD8B4CAD2010AD8B4E0D21F0AD8B418
:10457000F8D2010AD8B4FFD2030AD8B404D3010A8E
:10458000D8B405D3070AD8B40AD3010AD8B411D3D2
:10459000030AD8B41AD3010AD8B425D30F0AD8B461
:1045A00022D3010AD8B41FD3030AD8B41CD3010AFA
:1045B000D8B419D3070AD8B416D3010AD8B413D380
:1045C000030AD8B410D3010AD8B40DD33F0AD8B423
:1045D0000AD3010AD8B407D3030AD8B49EEF26F051
:1045E000010AD8B4AEEF26F0070AD8B4CAEF26F015
:1045F000010AD8B4E8EF26F0030AD8B413EF27F085
:10460000010AD8B444EF27F00F0AD8B472EF27F0AC
:10461000010AD8B498EF27F0030AD8B49CEF27F02A
:10462000010AD8B4A9EF27F0070AD8B4D6EF27F0CB
:10463000010AD8B4D6EF27F0030AD8B4D8EF27F090
:10464000010AD8B4DCEF27F01F0AD8B4E0EF27F056
:104650000F0AD8B4E4EF27F07F0AD8B4E8EF27F0C8
:10466000010AD8B4ECEF27F0030AD8B4F0EF27F032
:10467000710AD8B4F4EF27F0060AD8B4FCEF27F09B
:10468000010AD8B404EF28F0020AD8B40CEF28F0DD
:104690000A0AD8B414EF28F00D0AD8B41CEF28F099
:1046A000030AD8B423EF28F0090AD8B433EF28F06E
:1046B0007F0AD8B43FEF28F0010AD8B444EF28F0BD
:1046C000030AD8B462EF28F0010AD8B47CEF28F0CE
:1046D0000F0AD8B48DEF28F07F0AD8B49EEF28F0E7
:1046E0000F0AD8B49EEF28F0710AD8B49EEF28F0D4
:1046F000030AD8B49EEF28F0010AD8B49EEF28F040
:10470000070AD8B49EEF28F0010AD8B49EEF28F02B
:10471000030AD8B49EEF28F0770AD8B4BBEF28F08C
:10472000030AD8B4BBEF28F0750AD8B4BBEF28F061
:104730001F0AD8B4BBEF28F0010AD8B4BBEF28F0A9
:10474000030AD8B4BBEF28F0010AD8B4BBEF28F0B5
:10475000070AD8B4BBEF28F0010AD8B4DEEF28F07E
:10476000030AD8B4E2EF28F0010AD8B4E6EF28F043
:104770000F0AD8B4E6EF28F0010AD8B4E6EF28F023
:10478000030AD8B41EEF29F0010AD8B424EF29F0A7
:10479000070AD8B429EF29F0010AD8B42EEF29F07E
:1047A000030AD8B43AEF29F050EF29F08099929893
:1047B000899801017C6B7B6B7E6B7D6B53EF29F0DD
:1047C0009DDC01C0D9F10101E16BD9C1E0F100012B
:1047D00002DD010153EF29F091DC01C0DAF18EDC3A
:1047E00001C0DBF1DAC1DDF10101DC6BDB51DC275B
:1047F000000EDD23DDC1E1F1DCC1E0F10001EBDC05
:10480000010153EF29F0020EE7250101DE6F000ED2
:104810000001E8210101DF6FE16FDEC1E0F100017D
:10482000DADC6CDC02C003F001C002F0D890023682
:1048300003360250E7270350E823010153EF29F024
:104840009EDC02C0D8F101C0D7F1E8510101D85D6A
:104850000EE308E1D7510001E75DD8A002D00101C5
:1048600006D00101D8C1E8F0D7C1E7F024D0D8C103
:10487000E8F0D7C1E7F0000182DC02C07EF101C0A0
:104880007DF101017E5303E17D51010804E27D5178
:10489000D8B47E077D077D2D02D07E530CE07EC10B
:1048A000E1F17DC1E0F1000196DCE8C0E1F1E7C093
:1048B000E0F191DC010153EF29F061DC01500210BD
:1048C00007E05DDC5CDC02C0E8F001C0E7F010D07E
:1048D00056DC02C0E8F001C0E7F0E8C0E1F1E7C053
:1048E000E0F179DC050E0101DF6F00017BEC17F0D0
:1048F000010153EF29F002DC02C003F0D89001342B
:104900000101D76F0334D86F000127DC02C0D2F158
:1049100001C0D1F1D2C1E1F1D1C1E0F147DC010127
:10492000D751D125DE6FD851D221DF6FD890DE3537
:10493000026EDF35036E02507F0FE96E010E032019
:10494000EA6EECCFDFF1ED52EFCFDEF1DFC1E1F146
:10495000DEC1E0F100013FDC010153EF29F001016C
:10496000CF51080806E100010ADC02C0D8F101C0FD
:10497000D7F10001ADEC20F002C0D2F101C0D1F1BD
:10498000ADEC20F002C0E8F001C0E7F0ADEC20F0A3
:1049900002C0D4F101C0D3F10101D4530AE10001F6
:1049A000C4510101D35D05E20001BFEC20F0F4D752
:1049B0000101D2530AE1000183510101D15D05E2F9
:1049C0000001ADEC20F00101F4D7CF51080808E157
:1049D000D8C1E1F1D7C1E0F10001EBEC20F0010119
:1049E00053EF29F0BFEC20F002C07CF101C07BF155
:1049F000BFEC20F002C07EF101C07DF1E8C0E1F122
:104A0000E7C0E0F1EBEC20F001017E5303E17D51C2
:104A1000010813E27EC1E1F17DC1E0F10001EBECA0
:104A200020F07CC1E1F17BC1E0F1EBEC20F07CC136
:104A3000E8F07BC1E7F011D001017D2D07D07E5356
:104A400005E17CC1E8F07BC1E7F008D00001BFECD4
:104A500020F002C0E8F001C0E7F0010153EF29F0B7
:104A6000BFEC20F002C0D2F101C0D1F1BFEC20F0C8
:104A700002C0D4F101C0D3F10101D351D4110CE033
:104A8000E8C0E1F1E7C0E0F10001EBEC20F0D2C1B9
:104A9000E8F0D1C1E7F0010153EF29F0BFEC20F0BD
:104AA00002C0D2F101C0D1F1BFEC20F002C0D4F1BC
:104AB00001C0D3F1BFEC20F002C0D6F101C0D5F1A6
:104AC000E8C0E1F1E7C0E0F1EBEC20F00101D551E5
:104AD000D61105E0D4C1E8F0D3C1E7F004D0D2C1CB
:104AE000E8F0D1C1E7F053EF29F0B0EC1FF001017D
:104AF00053EF29F0010153EF29F0BFEC20F002C081
:104B00007CF101C07BF1E8C0E1F1E7C0E0F1EBEC42
:104B100020F07CC1E1F17BC1E0F1EBEC20F07CC145
:104B2000E8F07BC1E7F0010153EF29F0BFEC20F082
:104B300002C07CF101C07BF101017E6B7D6BE16BFA
:104B4000E06B0001EBEC20F07CC1E1F17BC1E0F116
:104B5000EBEC20F07CC1E8F07BC1E7F0010153EF02
:104B600029F0BFEC20F0D89001010134186F023415
:104B7000196F53EF29F01BC1E1F11AC1E0F1EBEC21
:104B800020F0010190D301011B6B1A6B8CD3BFEC99
:104B900020F002C0D8F101C0D7F1010184D3010196
:104BA000E16B17C1E0F10001EBEC20F0809701010F
:104BB0007AD3000E80B7010E0101DE6FE16BE06F6A
:104BC0000001EBEC20F001016ED34EEF21F002C0AA
:104BD000DFF101C0DEF102C0E1F101C0E0F1EBEC78
:104BE00020F0010160D3BFEC20F002C0D4F101C07D
:104BF000D3F1BFEC20F002C0D2F101C0D1F1170E09
:104C00000101CF5DF50FD8B090D00B0F000156EF2A
:104C100029F00101D351D127D451D22386D00101EB
:104C2000D351D15FD451D25B80D0196AF2BE198EB4
:104C3000F29ED2C102F2D1C101F2D4C104F2D3C1B9
:104C400003F28DEC0DF019BEF28E02C0D2F101C05C
:104C5000D1F101016AD0D2C1E2F1D1C1E1F1D4C1F7
:104C6000E4F1D3C1E3F12BEC21F002C0D2F101C099
:104C7000D1F101015AD0D2C1E2F1D1C1E1F1D4C1E7
:104C8000E4F1D3C1E3F12BEC21F000C0D1F101013B
:104C900003C0D2F14AD00101D351D15D03E1D45117
:104CA000D25D02E0000E01D0010ED26BD16F3DD07B
:104CB0000101D451D25D04E305E1D151D35D02E39A
:104CC000000E01D0010ED26BD16F2FD00101D25155
:104CD000D45D04E305E1D351D15D02E3000E01D0C0
:104CE000010ED26BD16F21D00101D151D21103E05D
:104CF000D351D41102E1000E01D0010ED26BD16F5D
:104D000014D00101D151D21105E1D351D41102E1E6
:104D1000000E01D0010ED26BD16F07D00101D3512B
:104D2000D11BD451D21B01D00101D2C1E1F1D1C1BB
:104D3000E0F10001EBEC20F00101B5D2BFEC20F076
:104D400001500210000ED8B4010E0101DE6FE16BBC
:104D5000E06F0001EBEC20F00101A5D2BFEC20F0E8
:104D600002C0D8F101C0D7F1BFEC20F002C0DFF1E2
:104D7000D89001010134026EDF35036E0250C50F79
:104D8000E96E000E0320EA6ED8C1ECFFED52D7C1E8
:104D9000EFFF89D2BFEC20F002C0DFF1D890010113
:104DA0000134026EDF35036E0250C50FE96E000E4E
:104DB0000320EA6EECCFDFF1ED52EFCFDEF1DFC181
:104DC000E1F1DEC1E0F10001EBEC20F001016BD27A
:104DD000BFEC20F002C0D4F101C0D3F1BFEC20F051
:104DE000D89001010134D16F0234D26F0001BFECC1
:104DF00020F001C0D7F10101670E0224D86FD15114
:104E0000D725DE6FD251D821DF6FE16FDEC1E0F12F
:104E100000015BEC19F0D4C1DFF1D3C1DEF187EC06
:104E200021F0010140D2BFEC20F0D8900101013403
:104E3000D16F0234D26F0001BFEC20F001C0D7F176
:104E40000101670E0224D86FD151D725DE6FD251F0
:104E5000D821F2CFE0F1F29EF86AF76EDEC1F6FFDC
:104E60000900F5500800F5CF03F0F86AE0BFF28EB4
:104E7000D36F03C0D4F1D4C1E1F1D3C1E0F100019B
:104E8000EBEC20F001010FD2BFEC20F002C0D8F112
:104E900001C0D7F1E6C003F0E551E52BD8B4E62B0D
:104EA000C00F0101DE6F590E0320DF6FE16FDEC11D
:104EB000E0F100015BEC19F0D8C1DFF1D7C1DEF100
:104EC00087EC21F0760E0101E16F080EE06F000122
:104ED0005BEC19F0E6C0DFF1E5C0DEF187EC21F014
:104EE0000101E1D1E6C003F0E551E52BD8B4E62B92
:104EF000C00F0101DE6F590E0320F2CFE0F1F29EE8
:104F0000F86AF76EDEC1F6FF0900F5500800F5CF2C
:104F100003F0F86AE0BFF28ED76F03C0D8F1D8C1B2
:104F2000E1F1D7C1E0F10001EBEC20F00101BBD1D0
:104F3000E66BE56B0101B7D1BFEC20F0D890010121
:104F400001340001E56F010102340001E66F010147
:104F5000AAD1BFEC20F0D89001010134D16F023406
:104F6000D26FD86BD76BD851D25D1BE303E1D1511F
:104F7000D75D17E2C00ED725DE6F590ED821DF6F3F
:104F8000E16FDEC1E0F100015BEC19F00101DF6BC4
:104F9000DE6B000187EC21F00101D72BD8B4D82BB0
:104FA000E2D70001E66BE56B01017DD101017BD108
:104FB000010E01010C6F77D1020E01010C6F73D14C
:104FC000030E01010C6F6FD1040E01010C6F6BD148
:104FD000080E01010C6F67D10C0E01010C6F63D13B
:104FE0000F0E01010C6F5FD1010E0101DE6F000198
:104FF000FCEC1EF0010157D1040E0101DE6F00012F
:10500000FCEC1EF001014FD1030E0101DE6F000127
:10501000FCEC1EF0010147D1020E0101DE6F000120
:10502000FCEC1EF001013FD1050E0101DE6F000115
:10503000FCEC1EF0010137D10101DE6B0001FCEC3C
:105040001EF0010130D1D0C1DEF1FCEC1EF0BFEC4E
:1050500020F0D89001010134186F0234196F00015B
:10506000808F010120D1BFEC20F002C0DFF101C030
:10507000DEF101C0E0F14EEC1FF0010114D1809986
:105080009298899801010FD1BFEC20F0F2CFE0F1A6
:10509000F29EF86A02C0F7FF01C0F6FF0900F55062
:1050A0000800F5CF03F0F86A0101E0BFF28EDE6F71
:1050B00003C0DFF103C0E1F1E06F0001EBEC20F091
:1050C0000101F1D0BFEC20F002C0D2F101C0D1F15A
:1050D000BFEC20F002C0D4F101C0D3F1D4C1E1F1A2
:1050E000D3C1E0F15BEC19F0D2C1DFF1D1C1DEF147
:1050F00087EC21F00101D7D0BFEC20F002C0DFF136
:1051000001C0DEF10101DF6BDFC1E1F101C0E0F1BF
:105110000001EBEC20F00101C6D0BFEC20F002C092
:10512000DFF102C0DEF10101DF6BDFC1E1F102C09E
:10513000E0F10001EBEC20F00101B5D00101CF510D
:10514000480804E3370ECF5DD06F04D0490ECF5D21
:10515000020FD06FD0C1DEF10001F5EC1BF002C0F0
:10516000DFF101C0DEF102C0E1F101C0E0F1EBECE2
:1051700020F0010198D00101CF514E0804E3390E0F
:10518000CF5DD06F04D04F0ECF5D020FD06FD0C176
:10519000DEF10001F5EC1BF002C0DFF1010102C0FD
:1051A000DEF1DF6BD890DF33DE33DFC1E1F1DEC14A
:1051B000E0F10001EBEC20F0010175D095908C80BE
:1051C000010171D095908C9001016DD00101DE6BD1
:1051D0000001FCEC1EF0030E0101DE6F0001FCEC8F
:1051E0001EF0010E0101E06F000114EC1CF0BFEC99
:1051F00020F001C0D0F10101CF51570807E1D0C123
:10520000E0F100014EEC1FF017D00101CF5158081A
:1052100007E1D0C1DFF10001A0EC21F00DD00101C8
:10522000DE69D0C1DFF10001CBEF21F001C0DEF17A
:1052300001C0DFF1A0EC21F0010135D0BFEC20F07E
:1052400001C00CF101012FD0C580C5B0FED701010E
:105250002AD0C584C5B4FED7010125D0BFEC20F00B
:1052600002C0DFF101C0DEF101C0E0F1B9EC1FF0D6
:10527000010119D0BFEC20F002C0DFF101C0DEF166
:1052800001C000F0C7EC1FF001C0DEF10101E16BCD
:1052900001C0E0F10001EBEC20F0010104D00001BD
:1052A000F3EF21F00101000136EF2BF0E824F76A5B
:1052B000F736C70FF66E520EF7220A00F550FA6E57
:1052C0000800F550F96E124C1E4C2A4C564C764C88
:1052D000964CB04CCC4CE84C024D1C4DF86AD09E1C
:1052E000078EEA6AE96A93829380770EC86E280E69
:1052F000C66EC78EC79C0101336B7C6B7B6B7E6B6C
:105300007D6B0001809FC150C00B0F09C16E070E5D
:10531000B46E1E6A040E1F6E0C0E206EC56BC66B3B
:10532000C76BC86BC96BCA6BCB6BCC6BCD6BCE6BD1
:10533000CF6BD06BD16BD26BD36BD46BD56BD66B81
:10534000D76BD86BD96BDA6BDB6BDC6BDD6BDE6B31
:10535000DF6BE06BE16BE26BE36BE46B0101BF6B56
:10536000C06B0001F9EF16F0B2EF17F0196AF2BE48
:10537000198EF29EE6EC0DF019BEF28E8AEF18F04F
:1053800079EC18F0AFEF18F053EF1AF00101035168
:105390000508D8A456D10451F90FD8B0C4D0070FCE
:1053A000000140EF2BF0550E0101D66F000144ECD7
:1053B00019F00101D669000144EC19F0AA0E0101AF
:1053C000D66F000144EC19F0010E0101D66F000107
:1053D00044EC19F0300E0101D66F000144EC19F0D5
:1053E000010E0101D66F000144EC19F001019BD0C0
:1053F00005C1DEF1F5EC1BF002C0C6F101C0C5F13C
:10540000C6C1CDF10101CE6BC5C1CFF1D06B550E38
:10541000D66F000144EC19F00101D669000144EC9B
:1054200019F0CDC1D6F144EC19F0CFC1D6F144EC5E
:1054300019F0010178D005C1DEF1FCEC1EF0550E2B
:105440000101D66F000144EC19F00101D669000199
:1054500044EC19F0AA0E0101D66F000144EC19F0DA
:10546000010161D005C1E0F14EEC1FF0550E0101C4
:10547000D66F000144EC19F00101D669000144EC3B
:1054800019F0AA0E0101D66F000144EC19F00101D8
:105490004AD007C10CF1550E0101D66F000144EC52
:1054A00019F00101D669000144EC19F0AA0E0101BE
:1054B000D66F000144EC19F0010135D007C1CDF1E0
:1054C00006C1CEF1A4EF1FF0550E0101D66F000109
:1054D00044EC19F00101D669000144EC19F0AA0E60
:1054E0000101D66F000144EC19F001011CD005C187
:1054F000CDF106C1CEF107C1CFF1D5EF1FF0550EAA
:105500000101D66F000144EC19F00101D6690001D8
:1055100044EC19F0AA0E0101D66F000144EC19F019
:10552000010101D0010104510608D8A487D005511A
:105530000308D8A483D0CE6B06C1CDF106C1CEF14D
:10554000CD6B0751CD27000ECE23CD35C76FCE359D
:10555000C86FC737C837C737C837C737C837C7371F
:10556000C837E00EC717C75315E1C85313E1F2CF90
:10557000CDF1F29EF86A760EF76E080EF66E09000F
:10558000F5500800F5CF03F0F86ACDBFF28EC76F73
:1055900003C0C8F1D890C737C837C7C1CDF1CE6BAB
:1055A000C8C1CFF1D06BEE0ED66F000144EC19F0FC
:1055B000110E0101D66F000144EC19F0CDC1D6F1F6
:1055C00044EC19F0CFC1D6F144EC19F0D8900101A8
:1055D000C833C733CA6BC96BCA51C85D2FE303E137
:1055E000C751C95D2BE2C00EC925CD6F590ECA2126
:1055F000F2CFCFF1F29EF86AF76ECDC1F6FF090047
:10560000F5500800F5CF03F0F86ACFBFF28ECB6FEC
:1056100003C0CCF1CBC1CDF1CE6BCCC1CFF1D06BFF
:10562000CBC1D6F1000144EC19F0CFC1D6F144EC66
:1056300019F00101C92BD8B4CA2BCED7010E036FC4
:1056400003D0000140EF20F0000180A90FD001013C
:10565000185119110CE100017EEC20F002C0CEF1CE
:1056600001C0CDF101C0CFF10AEF22F001011C51C0
:10567000020803E2010E036F1C6B000183D60300D6
:10568000E824F76AF7369B0FF66E560EF7220A00EB
:10569000F550FA6E0800F550F96EA653F0533654E3
:0856A00064549254BC54EE5412
:020000040030CA
:0E00000024CE3E1E0087A1000FC00FE00F406F
:00000001FF
;PIC18F4550
;CRC=CF55  CREATED="17-Mar-13 17:34"
