:041840003CEF29F060
:08184800046ED8CF05F0E0CFDB
:1018500006F00001E9CF0CF0EACF07F0E1CF08F085
:10186000E2CF09F0D9CF0AF0DACF0BF0F3CF12F0C4
:10187000F4CF13F0FACF14F0F5CF15F0F6CF16F041
:10188000F7CF17F000C00EF001C00FF002C010F04B
:1018900003C011F0F2AA50EF0CF0F2B449EF15F0CA
:1018A0009DA056EF0CF09EB0A4EF16F09DA25CEF49
:1018B0000CF09EB206EF17F0A0AA62EF0CF0A1BAEE
:1018C000C0EF14F00EC000F00FC001F010C002F025
:1018D00011C003F00CC0E9FF07C0EAFF078E08C083
:1018E000E1FF09C0E2FF0AC0D9FF0BC0DAFF12C056
:1018F000F3FF13C0F4FF14C0FAFF15C0F5FF16C0C4
:10190000F6FF17C0F7FF045006C0E0FF05C0D8FF80
:101910001000F76A220FF66E190EF7220900F55033
:101920001200000302FFFFFFFFFFFFFFFFFFFFFFAB
:10193000FFFFF76A420FF66E190EF7220900F55005
:10194000120000FF02FFFFFFFFFFFFFFFFFFFFFF8F
:10195000FFFFF76A620FF66E190EF7220900F550C5
:10196000120040000B0040000000000000000000DA
:101970000000000000000000000000000000000067
:101980000000F76A920FF66E190EF7220900F55063
:1019900012004000000040000000000000000000B5
:1019A0000000000000000000000000000000000037
:1019B0000000F76AC20FF66E190EF7220900F55003
:1019C00012000902430002010080320904000001F4
:1019D000020201000524001001042402020524066D
:1019E00000010524010001070581030B00FA090429
:1019F0000100020A0000000705020240000107057D
:101A0000820240000100F76A160FF66E1A0EF722E6
:101A10000900F55012000200F76A280FF66E1A0E40
:101A2000F7220900F550120012171B20FFFFFFFFDD
:101A3000F76A400FF66E1A0EF7220900F5501200F1
:101A40001201100102000040610433000001010294
:101A50000001F76A620FF66E1A0EF7220900F550C0
:101A60001200040309040803430043005300180351
:101A7000530045005200490041004C002000440042
:101A800045004D004F006D92699468A402D068949F
:101A9000FCD7CCEF14F0400E0401016F040E036F6D
:101AA000180E026F880E006F046B040E076F580E3D
:101AB000066F0001120070A002D0EDDF7090689AEE
:101AC000D5EF14F06A6A6892DBEF14F00101FE9121
:101AD000FDBFFE81FD9FFD51100803E2000E016E67
:101AE0001AD0FEA10DD0036AFD51000112DFFF08DC
:101AF00002E1000E01D0010E016E01010CD00BD0ED
:101B0000036AFD51000115DFFF0802E1000E01D05C
:101B1000010E016E010100011200020102510403D5
:101B2000F3CF01F0F4CF00F00503F350002603518A
:101B30000403F3500020026E00011200036A010149
:101B4000FC51700FE96E0F0E0320EA6EEF6AFCC1C4
:101B5000FDF10001BBDF015229E00201036BFCC172
:101B600002F2056B080E046F0001D7DF010101C00E
:101B7000E9FF040E0224EA6EEF6A0201036BFCC166
:101B800002F2056B080E046F0001C7DF02C0FEF110
:101B900001C0FDF1040E0101FD27000EFE23FDC171
:101BA000E9FF040EFE25EA6EEF6A00011200010E45
:101BB0000101FB6FFB510F0807E3FBC1FCF10001C2
:101BC000BDDF0101FB2BF6D7000112000101F56B0F
:101BD000F46B250EF36F800EF26FEA6A2C0EE96E3D
:101BE000010EE26EF20EE16E020E016EE6CFEEFF26
:101BF000012EFCD72E6A2F6AF26BEA6A300EE96E6C
:101C0000010EE26EF20EE16EE6CFEEFFF26BEA6AD3
:101C1000310EE96E010EE26EF20EE16EE6CFEEFFDE
:101C2000080EF26FEA6A320EE96E010EE26EF20EF3
:101C3000E16EE6CFEEFF0001816B8091346A336A7A
:101C40007C6B7D91826B1200296A286A0101F16B1D
:101C5000F15101080AE3036AF1512A0FE96E000EFF
:101C60000320EA6EEF6AF12BF3D70001AFDF1B6AA6
:101C7000010E1C6E1A6A1200689612006A6A686A7F
:101C80009F0E6B6E3D0E696E6E6A91DFDDDF160E84
:101C9000706E68A602D0F0DFFCD76D98FCDE030EF4
:101CA000226EE1EF14F0698468986D82E7EF14F01A
:101CB000689CEDEF14F0F6C123F0120023681200C7
:101CC0000101F46B2850291033E0F4513F0830E350
:101CD0001D50000A000105E0020A0AE0010A0FE0B7
:101CE00014D027C003F0265064DEE8CFF5F10DD004
:101CF00027C003F02650ADDEE8CFF5F106D027C0AF
:101D000003F0265095DEE8CFF5F1262AD8B4272A2D
:101D10002850D8B4290628060101F451F42B580F95
:101D2000E96E040EEA6ED8B0EA2AF5C1EFFFCAD711
:101D30002850291004E1F451400801E01A6AF4C166
:101D4000F6F10001B8DF1200276A266A1D6A040155
:101D50001B51010A000107E0030A0BE0010A0DE034
:101D6000220A22E03AD0296A120E286E030E1D6E56
:101D700036D0296A430E286E32D0020E1D6E036AD9
:101D800004011A511E0FE96E000E0320EA6E276A45
:101D9000EFCF26F027C003F0265000015ADE036A79
:101DA000286E03C029F01BD0036A04011A510001F8
:101DB00033DE036A266E03C027F0263C02D027528A
:101DC0000AE027C003F02650F4DD036A286E03C042
:101DD00029F005D002D072DF11D070DF0FD00401DE
:101DE0001F5308E1295203E128501E5D03E2296ACE
:101DF0001EC428F0010E1A6E000162DF50EF10F0D1
:101E00000101F35306E1040E226E0001D0DEECD096
:101E10000101050E226E040EF66F980EF56F010E8D
:101E2000F46FF4510F08D8A0DFD0F4C1FCF1000129
:101E300085DE0101F76B036AF45100017ADDFF08CA
:101E400068E0040E0101F76FD890F435036A0001D1
:101E500098DD0900F5CF03F00101F86F03C0F9F137
:101E60000201036BF4C102F2056B080E046F00015E
:101E700054DE01C0FBF1010E01010124016E000ED0
:101E80000220036E01C0E9FF040E0324EA6EF8C1CC
:101E9000EFFF0201036BF4C102F2056B080E046F41
:101EA00000013BDE01C0FBF1020E01010124016EC5
:101EB000000E0220036E01C0E9FF040E0324EA6E47
:101EC000F6C1ECFFED52F5C1EFFFD890F435036A8F
:101ED000000157DD0900F5CF03F00101F52703509C
:101EE000F623880EFA6FF9B1FA81F9B3FA83020189
:101EF000036BF4C102F2056B080E046F00010DDEE6
:101F0000010101C0E9FF040E0224EA6EFAC1EFFFED
:101F10000001036A0101F4510001FBDCFF0849E004
:101F20000101F7830201036BF4C102F2056B080E95
:101F3000046F0001F2DD02C0FCF101C0FBF1040EF0
:101F40000101FB27000EFC23020EFB25016E000E93
:101F5000FC21036E01C0E9FF040E0324EA6EF6C102
:101F6000ECFFED52F5C1EFFFD890F435036A0001A4
:101F7000F0DC0900F5CF03F00101F5270350F6234B
:101F80000201036BF4C102F2056B080E046F00013D
:101F9000C4DD02C0FCF101C0FBF1040E0101FB270E
:101FA000000EFC23FBC1E9FF040EFC25EA6E400E87
:101FB000EF6E0101F751060802E10E0EF76F036A9A
:101FC000F4510001A6DC010803E00101F7890001DA
:101FD000036A0101F451700FE96E0F0E0320EA6EDF
:101FE000F7C1EFFFF42B1DD7000149EF10F00401FA
:101FF0001951000A00010DE0010A15E0020A20E073
:10200000060A2AE0030A31E00E0A31E0010A37E04D
:1020100046D01CC058F40401596B020E0101F66F42
:10202000000149DE3DD004011A2D07D0010E1C1617
:102030000101F66B00013FDE02D000013FDE30D02F
:1020400004011A2D06D01C820101F66B000133DE5B
:1020500002D0000133DE24D0020E1A6E1AC424F01E
:102060000101F66B000127DE1BD06ED619D01BC014
:1020700058F4010E0101F66F00011DDE11D00401BC
:102080001A5101080AE31AC41BF01AC4F3F1000143
:10209000B7D60101F66B00010EDE000101D00EDEA5
:1020A000EBEF11F01BC0F3F104011951000A00011C
:1020B00005E00A0A0CE0010A2BE03FD00401586B4E
:1020C000596B020E0101F66F0001F5DD37D00101F9
:1020D000F3531BE0010EF35D036A000194DC016E13
:1020E00004011C5DD8A002D001010FD0036A1C516D
:1020F0002A0FE96E000E0320EA6EEFCF58F4010EAE
:102100000101F66F0001D7DD02D00001D7DD16D046
:102110000101F3530FE0036A04011C512A0FE96E19
:10212000000E0320EA6E1AC4EFFF0101F66B0001F6
:10213000C2DD02D00001C2DD01D0C0DDEBEF11F045
:102140000101F491F3BFF481F39FF4A11AD00201CD
:10215000036BF3C102F2056B080E046F0001DDDCB6
:1021600002C0F6F101C0F5F1040E0101F527000EE1
:10217000F623F5C1E9FF040EF625EA6E880EEF6E30
:1021800010D00201036BF3C102F2056B080E046F5D
:102190000001C3DC010101C0E9FF040E0224EA6E64
:1021A000EF6A000158EF11F00101F491F3BFF481DF
:1021B000F39FF4A11AD00201036BF3C102F2056B85
:1021C000080E046F0001A9DC02C0F6F101C0F5F1B0
:1021D000040E0101F527000EF623F5C1E9FF040EF8
:1021E000F625EA6E840EEF6E11D00201036BF3C187
:1021F00002F2056B080E046F00018FDC010101C0C3
:10220000E9FF040E0224EA6E840EEF6E000160EF17
:1022100011F00101F491F3BFF481F39FF4A11AD0FE
:102220000201036BF3C102F2056B080E046F00019B
:1022300074DC02C0F7F101C0F6F1040E0101F627CB
:10224000000EF723F6C1E9FF040EF725EA6EEFCF83
:10225000F5F111D00201036BF3C102F2056B080E18
:10226000046F00015ADC010101C0E9FF040E0224E1
:10227000EA6EEFCFF5F1F5AF02D0F5B502D0000E62
:1022800001D0010E016E00016CEF11F01CC4FDF1D4
:102290001DDC01522DE004011951010A000105E085
:1022A000020A0BE0030A11E022D01CC4F3F148D764
:1022B0000101F66B0001FFDC1BD01CC4F3F174D7E5
:1022C0000101F66B0001F7DC13D00401586B596B68
:1022D0001CC4F3F100019DD7015203E0010E04017B
:1022E000586F020E0101F66F0001E5DC01D0E6DC5B
:1022F000EBEF11F0FE0E236E120004011C2D01D035
:1023000002D01C534EE11951000A00010BE0010AF2
:102310000DE0210A1CE0010A1FE0030A30E0010A77
:1023200035E03DD0010E826FE5DF3AD0040EEA6E53
:10233000580EE96EE26A350EE16E080E016EE6CFC8
:10234000EEFF012EFCD71EC4F6F1B5DC29D0020E3B
:10235000826F8081CFDF24D0040EEA6E580EE96EC2
:10236000E26A2C0EE16E070E016EE6CFEEFF012E43
:10237000FCD7070E0101F66F00019DDC11D01AC4D5
:1023800081F00101F66B000196DC0AD01AC434F02A
:102390001BC433F00101F66B00018DDC01D08EDC33
:1023A00004010001EBEF11F01A6A040118517F0BD0
:1023B000000A000107E0010A07E0030A07E0230A18
:1023C00007E008D014D607D06DD605D05FD703D06C
:1023D00094D701D073DC60EF14F00201036BF4C1F9
:1023E00002F2056B080E046F00018DEC0DF0010187
:1023F00001C0E9FF040E0224EA6EEFCFF6F1F551B9
:10240000020806E1F6AD02D0F56B02D0010EF56FC1
:10241000F55103081DE1840EF66F0201036BF4C150
:1024200002F2056B080E046F00018DEC0DF002C086
:10243000FAF101C0F9F1040E0101F927000EFA23A7
:10244000F9C1E9FF040EFA25EA6E840EEF6E07D09B
:10245000F52D03D0C80EF66F02D0880EF66FD89017
:10246000F435036A0001C1EC0CF00900F5CF03F06C
:102470000101F76F03C0F8F10201036BF4C102F22E
:10248000056B080E046F00018DEC0DF001C0F9F131
:10249000010E01010124016E000E0220036E01C035
:1024A000E9FF040E0324EA6EF7C1EFFFF8B1F681ED
:1024B000F8B3F6830201036BF4C102F2056B080E58
:1024C000046F00018DEC0DF0010101C0E9FF040E65
:1024D0000224EA6EF6C1EFFF00011200036A020156
:1024E0000151700FE96E0F0E0320EA6EEF521BE0F0
:1024F000036B01C202F2056B080E046F00018DEC44
:102500000DF002C003F201C002F2040E0201022724
:10251000000E032302C2E9FF040E0325EA6EEFCF8B
:1025200004F204AF02D0000E01D0010E016E0001D2
:102530001200FCC101F2D2DF0152D8B496D00201E0
:10254000036BFCC102F2056B080E046F00018DECF9
:102550000DF002C002F201C001F2040E02010127D7
:10256000000E0223010E0125016E000E0221036EF2
:1025700001C0E9FF040E0324EA6EFDC1EFFF010173
:10258000FF51020823E10201036BFCC102F2056B5B
:10259000080E046F00018DEC0DF002C002F201C0C4
:1025A00001F2040E02010127000E022301C2E9FF1D
:1025B000040E0225EA6EEFCF00F200AD03D0010158
:1025C000FF6B03D0010E0101FF6F1DD0FF51040806
:1025D0001AE10201036BFCC102F2056B080E046FE5
:1025E00000018DEC0DF0020101C0E9FF040E022490
:1025F000EA6EEFCF00F200AD04D0010E0101FF6FD3
:1026000002D00101FF6BFF2D04D0C80E0201006F44
:1026100003D0880E0201006F0101FEA103D0020168
:1026200000810101FEA303D0020100830101020128
:10263000036BFCC102F2056B080E046F00018DEC08
:102640000DF002C002F201C001F2040E02010127E6
:10265000000E022301C2E9FF040E0225EA6E00C249
:10266000EFFF010E016E04D00001000E016E0201A9
:10267000000112008251010A03E0030A15E028D08C
:10268000EA6A350EE96E040EE26E180EE16E080E6F
:10269000016EE6CFEEFF012EFCD70101F66B0001C3
:1026A0005BEC0EF0826B15D0EA6A2C0EE96E040E1C
:1026B000E26E180EE16E070E016EE6CFEEFF012E00
:1026C000FCD7826B0101F66B00015BEC0EF001D0D0
:1026D000826BA8EF13F00201036BF4C102F2056BE9
:1026E000080E046F00018DEC0DF002C0F6F101C080
:1026F000F5F1010E01010124016E000E0220036EAE
:1027000001C0E9FF040E0324EA6E036AEFCF01F073
:1027100003C002F000019CEF13F07D91020E010155
:10272000F46FF56F000159DE12007D817F6B020EA0
:102730000101F46F0001CFD701C07EF07E5301E1AB
:10274000ECDFAFEF13F00101F35304E1000192D786
:1027500006D00101F351020803E10001E6D70101AF
:1027600000011200F4C16EFF0101F45303E0040EF6
:10277000226E02D0020E226E0001C4EF13F01B6A1B
:102780001A6A24C0F4F1EED73AEF14F0F4C101F262
:10279000A5DE015247E00201036BF4C102F2056BB2
:1027A000080E046F00018DEC0DF002C0FDF101C0B8
:1027B000FCF1040E0101FC27000EFD23020EFC2596
:1027C000016E000EFD21036E01C0E9FF040E03241B
:1027D000EA6EECCFFBF1ED52EFCFFAF1FBC1EAFF6D
:1027E000FAC1E9FFF6C1E2FFF5C1E1FFF8C102F06D
:1027F000F7C101F0015202E0022A02D0025206E0C3
:10280000E6CFEEFF012EFCD7022EFAD7F4C1FCF181
:10281000F8C1FEF1F7C1FDF1F9C1FFF1000189DE58
:10282000015002D0000E016E12007C5310E0020E27
:102830000101F46FF66B3D0EF56FF86B7CC0F7F19C
:10284000020EF96F0001A2DF015201E07C6B120061
:10285000ECDF41EF14F00101F3530EE11A2C05D027
:10286000000160EC0EF006D001011A50020803E1ED
:10287000000185D7010106D0F351020803E10001F0
:10288000E7D701010001120021300101F16FF1339E
:10289000F1331F0EF11721524EE1040100513C0BA0
:1028A0000101F26F430E040100170101F2513408D7
:1028B00025E104010451800B01E0046B000174D593
:1028C0006D98233C07D00101F46B030EF56F0001F6
:1028D00084DD12D00101F46B020EF56F00017DDD85
:1028E0002350FE0809E00101FC6BFE6B23C0FDF1E3
:1028F000040EFF6F00011DDE1CD00101F25104081F
:1029000019E1F36B00011FDF0101F46B020EF56F9B
:10291000000163DD2350FE080CE0233C01D009D008
:102920000101FC6BFE6B23C0FDF1010EFF6F000186
:1029300000DE010122D02150040812E12368F36B6C
:10294000000189DF233C01D009D00101FC6BFE6B43
:1029500023C0FDF1020EFF6F0001EBDD0DD0010180
:1029600021B406D0F1C1F3F10001EDDE05D0010183
:10297000F1C1F3F100016FDF01010001F9EF14F083
:10298000A19A225201E13ED068523CE068A404D0F2
:1029900069A402D043EF0DF06DA201D033D068AA34
:1029A00004D069AA02D05BEF0DF068A204D069A23E
:1029B00002D062EF0DF068A004D069A002D03EEF13
:1029C0000EF068A804D069A802D053EF0EF068ACEE
:1029D00004D069AC02D058EF0EF00101F06B68A68C
:1029E0000AD069A608D06CCF21F000013CEC0EF0B3
:1029F0004BD702D0010105D00101F051F02B0308A3
:102A0000EEE2000162EF0CF00101F4C100F0F551BB
:102A1000016E04E0D8900032012EFCD70050010B6B
:102A2000016E000112000101F651070B006EF63134
:102A3000016E013201321F0E01160150F825E96EB8
:102A4000000EF921EA6E016A012A002A01D001363E
:102A5000002EFDD7F75303E00150EF1203D0011E03
:102A60000150EF1600011200F5C103F00101F4C19D
:102A7000E9FFF5C1EAFF010E006EF651016E04E0B8
:102A8000D8900036012EFCD70050EF10EF6E0001F9
:102A900012000101182B18510208D8A43CD1186B60
:102AA0000001B251030867E3ACC0F4F1B4C0F5F122
:102AB000ABDF012C5FD0036AB451AD0FE96E000E9D
:102AC0000320EA6EEF3C01D055D0A9C0F4F1B4C0A8
:102AD000F5F19ADF015237E1ABC0F4F1B4C0F5F182
:102AE00093DF015218E0D890B435036A910FE96E74
:102AF000000E0320EA6EECCFF5F1ED52EFCFF4F1CA
:102B0000F4C1F6F10101F76B0F0EF96F890EF86F42
:102B1000000189DF17D0D890B435036A990FE96EA8
:102B2000000E0320EA6EECCFF5F1ED52EFCFF4F199
:102B3000F4C1F6F10101F76B0F0EF96F890EF86F12
:102B4000000171DF17D0D890B435036A990FE96E90
:102B5000000E0320EA6EECCFF5F1ED52EFCFF4F169
:102B6000F4C1F6F10101F76B0F0EF96F890EF86FE2
:102B7000000159DF74D00101F06BF0510308D8A0B7
:102B80006ED0ACC0F4F1F0C1F5F100013DDF012CD5
:102B900063D0036A0101F051AD0FE96E000E03200E
:102BA000EA6EEF525AE0A9C0F4F1F0C1F5F100016C
:102BB0002BDF015239E1ABC0F4F1F0C1F5F124DFB4
:102BC000015219E0D8900101F035036A910FE96EC6
:102BD000000E0320EA6EECCFF5F1ED52EFCFF4F1E9
:102BE000F4C1F6F1010EF76F0F0EF96F890EF86F51
:102BF000000119DF18D0D8900101F035036A990F50
:102C0000E96E000E0320EA6EECCFF5F1ED52EFCF46
:102C1000F4F1F4C1F6F1010EF76F0F0EF96F890EA2
:102C2000F86F000100DF18D0D8900101F035036A79
:102C3000990FE96E000E0320EA6EECCFF5F1ED522C
:102C4000EFCFF4F1F4C1F6F1010EF76F0F0EF96F4B
:102C5000890EF86F0001E7DE0101F02B8ED701012C
:102C6000F169F06BF051040823E3036AF051AD0FF2
:102C7000E96E000E0320EA6EEF50F15D17E3B3C07A
:102C8000F4F1F0C1F5F10001BFDE0152D8B402D079
:102C900001010CD0036A0101F051AD0FE96E000E85
:102CA0000320EA6EEFCFF1F1F0C1F2F1F02BDAD7A9
:102CB000F56BB30EF46FF2C1F6F10001D5DEB2513F
:102CC00003080DE3036AB451AD0FE96E000E032053
:102CD000EA6EEF500101F15DF36F04D00001F1C124
:102CE000F3F10101F2C1B4F00001B251030801E1B6
:102CF000B36BB251030802E3B22B01D0B26B0101F6
:102D0000F35304E10001B253D8A4CBD60001B2536F
:102D100001E180850101FF0ED880F355D76AD66E98
:102D2000F294000162EF0CF0F3C188F0F2C187F079
:102D3000F1C186F0F0C185F0C7EF16F001015B6BC1
:102D40005BC119F100011200B82BD8B4B92BA12D29
:102D500001D001D0BA2BB65302E1B75304E0B6510B
:102D6000D8B4B707B60783A247D080BD44D0807BD4
:102D7000808DB76BB66B809F80B93BD00101F36B40
:102D8000F26BB9C0F1F1B8C0F0F10001CDD789887C
:102D9000F2CFF0F1F29EF86A7F0EF76EF00EF66E4B
:102DA0000900F5500800F5CF03F0F86A0101F0BF03
:102DB000F28EF06FF16FF06BF2CFF2F1F29EF86AE3
:102DC0007F0EF76EF20EF66E0900F5500800F5CF93
:102DD00003F0F86AF2BFF28EF025C26F0350F121C2
:102DE000C36FD890C237C3370001A8DF80978089AE
:102DF00002D08099899803D080AD01D0809D1C0EAF
:102E0000CF6E770ECE6E9E9062EF0CF09E9262EFC8
:102E10000CF0A66B010EA16F80990101196B5B6B21
:102E20001A6BF2CFCEF1F29EF86A760EF76E080EAC
:102E3000F66E0900F5500800F5CF03F0F86ACEBF32
:102E4000F28EC06F03C0C1F10001D1EF29F0010E75
:102E5000EA6EE00EE96EEF500EE00F0E016E006AB2
:102E6000002EFED7012EFBD78F0E006E002EFED750
:102E70000000EF2EF2D71200320EBE6E8C808988D1
:102E80000101E06F0001E3DFBE6A320E0101E06F75
:102E90000001DDDF8C908998320EBE6E0101E06F7B
:102EA0000001D5DFBE6A8C808988640E0101E06F65
:102EB0000001CDDF8C908998FBEF17F0AA6B2F0EE5
:102EC000926E030E936E000E946E020E956E070EB8
:102ED000966EC150C00B0709C16EC050C00B0709E8
:102EE000C06EC08EC280A86B000E016EC250C30BB4
:102EF0000110C26E8A9E8C9C89988C908B908B92CC
:102F00000101CE6BCF6BCE51030859E3D890CE357B
:102F1000036A890FE96E000E0320EA6EECCFD1F14F
:102F2000ED52EFCFD0F1196AF2BE198EF29ED0C1E8
:102F3000F6F1F76B0F0EF96F890EF86F000173DD74
:102F400019BEF28ED8900101CE35036A910FE96E59
:102F5000000E0320EA6EECCFD1F1ED52EFCFD0F1AD
:102F6000196AF2BE198EF29ED0C1F6F1F76B0F0E00
:102F7000F96F890EF86F000156DD19BEF28ED890F8
:102F80000101CE35036A990FE96E000E0320EA6E47
:102F9000ECCFD1F1ED52EFCFD0F1196AF2BE198E1C
:102FA000F29ED0C1F6F1F76B0F0EF96F890EF86F34
:102FB000000139DD19BEF28E0101CE2BA4D78B940E
:102FC0000C0EBD6EB76AB66AB50ECD6E780E0609E8
:102FD000CA6EFA0ECB6EC00EF212C70ED56ED76A4D
:102FE000D66AF28A9D809D829D8A1C0ECF6E770ED6
:102FF000CE6E000141D7D3EF29F06D6A696A080EE1
:103000006F6E945030090101946E226A196AF2BE03
:10301000198EF29E000124EC0EF019BEF28E12EF12
:1030200018F0EBD737EF18F0196AF2BE198EF29E3E
:1030300024EC0EF019BEF28E6D6A140E6F6E696A82
:103040006D86010E226E28EF18F06DB601D0ECD718
:10305000222C0BD06DBA09D0686A696AA08AC00EAA
:10306000F212110E696E020E226E1200DAD7EDDF37
:1030700022500208FCE1DDEF29F07DB101D0FDD73F
:103080007F517F2BA30FE96E040EEA6ED8B0EA2AB7
:10309000EFCFD0F17E517F5D08E3196AF2BE198E41
:1030A000F29E8DEC13F019BEF28E0101D0C101F039
:1030B00000016BEF18F07DA124D0D1531CE1036A0D
:1030C000CF51BB0F016E000E032201C0CEF103C031
:1030D000CFF10001D2D7CFC1EAFFCEC1E9FF01C0D5
:1030E000EFFFCF2BCF51130801E2CF6BD051CF5D53
:1030F00002E1010ED16F050E0101E06F0001A7DEB4
:10310000DAD7E1EF29F0D12D0FD0D16B020E0101FA
:10311000D36F0001CF6BD06B0101D1C1E9FFD2C1E8
:10312000EAFFEF6A2AD00001CF51D05D09E1010129
:10313000D36BD1C1E9FFD2C1EAFFEF6A1ED0000113
:10314000D2C103F00101036A0001D051BB0FE96E47
:10315000000E0320EA6EEFCFD6F10101D2C1EAFFE3
:10316000D1C1E9FFD6C1EFFF0001D02BD051130828
:1031700001E2D06B010E0101D36FD3C101F0000158
:103180000BEF1AF00101DA91F2BEDA81F29E000132
:103190007C513E0802E23E0E7C6F7C517C2B036A20
:1031A0003D0FE96E000E0320EA6ED9C1EFFFF29EDB
:1031B0000101DAB1F28E0001E1EF18F0D8C1D9F1C6
:1031C000E1D7196AF2BE198EF29E020E0201016F5A
:1031D00000016EEC12F019BEF28E015208E0196A7D
:1031E000F2BE198EF29E15EC14F019BEF28E00EFAD
:1031F00019F07C513E0801E2FCD7D7C1D8F1DED7E7
:103200001200E4C101F0E3C100F00066012A0900E8
:10321000F5CFEEFF002EFBD7012EF9D7F86A12008A
:10322000E2C117F1E1C116F1C00E010116171651E6
:10323000E15D156FF86A17C1F7FF16C1F6FFEA6A7C
:10324000D50EE96EE46B400EE36F0001DADF120089
:103250000101D4C103F0D351D8B4D407D307D56F3B
:1032600003C0D6F1D55302E1D65322E0D2C103F018
:10327000D151D12BD8B4D22B800FD56F5D0E032046
:10328000D66FF2CFD7F1F29EF86AF76ED5C1F6FF8E
:103290000900F5500800F5CF03F0F86AD7BFF28EA9
:1032A000D56F03C0D6F1D76F0001A3DFD1D70101DD
:1032B000000105EF1BF0F250036EF29EA68EA6846D
:1032C0000F01550EA76EAA0EA76EA682000003502E
:1032D000F21200011200D08CA69CF6501F0B006E5B
:1032E000E00EF6160A00E1C101F0006608D0F650C3
:1032F000010F3F0B04E1A6880900DDDF0A0000662C
:1033000007D0EECFF5FF015204E00F00010603D015
:1033100000060B000C001F0EF6141F0AE6E1CBDFBF
:103320000166E3D7F86A120001011551152B036AF3
:10333000D50FE96E000E0320EA6ED1C1EFFF1551E3
:10334000152B036AD50FE96E000E0320EA6ED251E9
:10335000EF6E15513F0833E217515D0804E32FE18A
:10336000165130082CE2D08CF86A17C1F7FF16C14D
:10337000F6FFA688A69C00019EDFF86AF86A17C1CE
:10338000F7FF16C1F6FFEA6AD50EE96E400E01019D
:10339000E16F0001A0DF0101156B400E1627000E42
:1033A0001723F86A17C1F7FF16C1F6FFEA6AD50EB0
:1033B000E96EE46B400EE36F000123DF01010001C1
:1033C0001200010117515D0804E31CE11651300899
:1033D00019E2D08CF86A17C1F7FF16C1F6FFA6886C
:1033E000A69C000168DFF86AF86A17C1F7FF16C1EA
:1033F000F6FFEA6AD50EE96E400E0101E16F0001A9
:103400006ADF010100011200010E0101D26FCE0E30
:10341000D16F000178D601C0CFF10101CF2D88D145
:103420000001BA6BCEC1B5F08087CEC1D7F1E1DE25
:10343000A151010A24E0030A5AE0010AD8B460D07D
:10344000070AD8B480D0010AD8B483D0850AD8B48A
:1034500082D0010AD8B488D0030AD8B4C0D0010AF7
:10346000D8B4C6D0070AD8B4DAD0010AD8B4E0D0AC
:10347000030AD8B4E5D0010AD8B444D14DD1010132
:10348000CE51540A00010BE0D70A0FE0070A10E002
:10349000010A11E0030A12E0010A1BE01CD0020E2F
:1034A000A16F0101D081000116D0800EA16F13D051
:1034B000820EA16F10D0840EA16F0DD00101D081BA
:1034C00089880001B76BB66B809F38DC8097808954
:1034D00002D0870EA16F0101D0B107D00001809901
:1034E000B76BB66B8998A66B0101D09118D1010119
:1034F000CE51FE0804E1030E0001A16F01010FD1BE
:103500000101CE51E00B006E00380001A26FA23322
:10351000070EA2170101CE511C0B006E00300001F6
:10352000A36FA3333F0EA3170101CE51030B00017C
:10353000A46FA251030803E2040EA16F02D0050E8E
:10354000A16F0101ECD0CEC1A5F0050EA16F010164
:10355000E6D00101E4D00101CEC1C3F1C26B810EFE
:103560000001A16F0101DBD00101CE51C213010E98
:103570000001A16F0101C251F00BD16FC3510F0BBC
:10358000D26FD151F0081BE1D2510F0818E1C2519E
:103590000F0BD16FD26BD890D135026ED235036E3E
:1035A0000250F00FD16F7F0E0320D26F800ED15DDD
:1035B000C26F5D0ED259C36F320EBE6E03D0D8906B
:1035C000C237C337800EC225D16F5D0EC321D26FC3
:1035D000E26FD1C1E1F1000123DE0101A0D00101C0
:1035E000CEC1C5F1C46B830E0001A16F010197D05C
:1035F0000101CE51C413C3C1D2F1C2C1D1F1C5C1C1
:10360000D4F1C4C1D3F1000123D60101C451C227B2
:10361000C551C323010E0001A16F010180D001013A
:10362000CEC1C5F1C46B850E0001A16F010177D039
:103630000101CE51C413860E0001A16F01016FD0AC
:10364000BE6AD25102081BE10101CE510001D3270D
:10365000000ED423D26BD4C0D2F1D3C0D1F164DE3A
:103660000101C451D8B4C507C42F07D0C55305E123
:103670000001A7DE010EA16F01013BD00001D22D98
:1036800009D0D46BCEC1D3F0D3C0D4F0D36B020E2B
:10369000D26F2ED00101CE51800819E1010E000138
:1036A000D26FD46BD36B0101D26BCEC1D1F10001CB
:1036B0003BDE0101C451D8B4C507C42F07D0C553A0
:1036C00005E100017EDE010EA16F010112D0D26B77
:1036D000CEC1D1F1000128DE0101C451D8B4C50723
:1036E000C42F07D0C55305E100016BDE010EA16FA9
:1036F0000101FF0ED880CE55D16FD76F000179DD63
:1037000001010DD0370E0101D76F000172DD010EEE
:10371000A16F010104D00001010EA16F01010001A0
:10372000A151050803E1010103D000016DD601019B
:10373000CF51020804E1010E0001A16F0101000157
:10374000E3EF29F0340E0101D76F000152DDAAEF3B
:103750002AF00101E035006E0036FC0E0016C25062
:10376000C30B0010C26EC70E006E002EFED700D035
:103770000001D2EF1BF0C282C2B2FED7C4CFE1F18A
:103780000101C3CFE0F1E0C101F0E1C102F00001AD
:10379000D5EF1BF00101DF510001A85D05E0DFC19D
:1037A000E0F1D7D7DFC1A8F0E6D702501200E7C199
:1037B00003F00101E6C1E9FFE7C1EAFF010E006E77
:1037C000E851016E04E0D8900036012EFCD700507D
:1037D000FF0AEF14EF6E000112000101E26BE251EB
:1037E000030829E3AAC000F00101E251016E04E0E0
:1037F000D8900032012EFCD70050010B1AE0E153A3
:1038000009E1E76BA90EE66FE2C1E8F10001CFDF45
:103810000FD00101196AF2BE198EF29EF56BA90E46
:10382000F46FE2C1F6F1000134EC15F019BEF28E2E
:103830000101E22BD4D700011200D8900101E63536
:10384000036A890FE96E000E0320EA6EECCFE8F1FF
:10385000ED52EFCFE7F1196AF2BE198EF29EE7C181
:10386000F6F1010EF76F0F0EF96F890EF86F000178
:1038700013EC15F019BEF28E8A8E8C8CB4EF1CF00E
:10388000D8900101E135036A910FE96E000E032023
:10389000EA6EECCFE5F1ED52EFCFE4F1D890E135EF
:1038A000036A990FE96E000E0320EA6EECCFE3F194
:1038B000ED52EFCFE2F1196AF2BE198EF29EABC063
:1038C000F4F1E1C1F5F1000104EC15F019BEF28E3E
:1038D000015224E0196AF2BE198EF29EE2C1F6F19D
:1038E0000101F76B0F0EF96F890EF86F000113ECF1
:1038F00015F019BEF28E196AF2BE198EF29EE4C15D
:10390000F6F1010E0101F76F0F0EF96F890EF86FD6
:10391000000113EC15F019BEF28E23D0196AF2BE25
:10392000198EF29EE2C1F6F1010E0101F76F0F0E42
:10393000F96F890EF86F000113EC15F019BEF28EC5
:10394000196AF2BE198EF29EE4C1F6F10101F76B1D
:103950000F0EF96F890EF86F000113EC15F019BE08
:10396000F28EE1C1E6F169D7196AF2BE198EF29EB4
:103970000101F56BAC0EF46FE1C1F6F1000134EC1E
:1039800015F019BEF28EF8EF1EF0D8900101E63561
:10399000036A890FE96E000E0320EA6EECCFE9F1AD
:1039A000ED52EFCFE8F1196AF2BE198EF29EE8C12E
:1039B000F6F1F76B0F0EF96F890EF86F000113EC3B
:1039C00015F019BEF28E0101E6A104D0010EE65DEC
:1039D000E76F03D0010EE625E76F196AF2BE198E74
:1039E000F29EACC0F4F1E7C1F5F1000104EC15F072
:1039F00019BEF28E015201E10BD00101E65101081E
:103A000005E38A9E000104D003D001018C9C0001D3
:103A100069EF1DF0D8900101E135036A910FE96E5D
:103A2000000E0320EA6EECCFE5F1ED52EFCFE4F1AA
:103A3000D890E135036A990FE96E000E0320EA6E13
:103A4000ECCFE3F1ED52EFCFE2F1196AF2BE198E3D
:103A5000F29EE2C1F6F1010EF76F0F0EF96F890EBB
:103A6000F86F000113EC15F019BEF28E196AF2BE60
:103A7000198EF29EE4C1F6F1010E0101F76F0F0EEF
:103A8000F96F890EF86F000113EC15F019BEF28E74
:103A9000D8900101E135036A890FE96E000E032019
:103AA000EA6EECCFE7F1ED52EFCFE6F1196AF2BE24
:103AB000198EF29EE6C1F6F1F76B0F0EF96F890EC3
:103AC000F86F000113EC15F019BEF28EE1C1E6F1BA
:103AD0005CD70101E76BAC0EE66FE1C1E8F10001D4
:103AE00066DEFDEF1EF0D8900101E135036A910F0B
:103AF000E96E000E0320EA6EECCFE5F1ED52EFCF58
:103B0000E4F1D890E135036A990FE96E000E0320C5
:103B1000EA6EECCFE3F1ED52EFCFE2F1196AF2BEBB
:103B2000198EF29EABC0F4F1E1C1F5F1000104EC95
:103B300015F019BEF28E01522CE0196AF2BE198EF0
:103B4000F29EE4C1F6F10101F76B0F0EF96F890ED9
:103B5000F86F000113EC15F019BEF28E196AF2BE6F
:103B6000198EF29EE2C1F6F1010E0101F76F0F0E00
:103B7000F96F890EF86F000113EC15F019BEF28E83
:103B80000101E76BAB0EE66FE1C1E8F100010FDE6A
:103B900032D0196AF2BE198EF29EE4C1F6F1010E1E
:103BA0000101F76F0F0EF96F890EF86F000113EC2A
:103BB00015F019BEF28E196AF2BE198EF29EE2C19C
:103BC000F6F10101F76B0F0EF96F890EF86F000126
:103BD00013EC15F019BEF28E196AF2BE198EF29E20
:103BE0000101F56BAB0EF46FE1C1F6F1000134ECAD
:103BF00015F019BEF28E02EF1FF0D8900101E135E9
:103C0000036A910FE96E000E0320EA6EECCFE5F136
:103C1000ED52EFCFE4F1D890E135036A990FE96EE8
:103C2000000E0320EA6EECCFE3F1ED52EFCFE2F1AC
:103C3000196AF2BE198EF29EF56BAB0EF46FE1C1FC
:103C4000F6F1000134EC15F019BEF28E196AF2BEDD
:103C5000198EF29EE2C1F6F10101F76B0F0EF96FBA
:103C6000890EF86F000113EC15F019BEF28E196A77
:103C7000F2BE198EF29EE4C1F6F1010E0101F76F5A
:103C80000F0EF96F890EF86F000113EC15F019BED5
:103C9000F28E07EF1FF0D8900101E135036A910F12
:103CA000E96E000E0320EA6EECCFE5F1ED52EFCFA6
:103CB000E4F1D890E135036A990FE96E000E032014
:103CC000EA6EECCFE3F1ED52EFCFE2F1E76BAB0E32
:103CD000E66FE1C1E8F100016ADD196AF2BE198EF2
:103CE000F29EE4C1F6F10101F76B0F0EF96F890E38
:103CF000F86F000113EC15F019BEF28E196AF2BECE
:103D0000198EF29EE2C1F6F1010E0101F76F0F0E5E
:103D1000F96F890EF86F000113EC15F019BEF28EE1
:103D20000CEF1FF0D8900101E135036A910FE96EA5
:103D3000000E0320EA6EECCFE5F1ED52EFCFE4F197
:103D4000D890E135036A990FE96E000E0320EA6E00
:103D5000ECCFE3F1ED52EFCFE2F1E76BAC0EE66FA3
:103D6000E1C1E8F1000123DD196AF2BE198EF29E6D
:103D7000E4C1F6F10101F76B0F0EF96F890EF86FD0
:103D8000000113EC15F019BEF28E196AF2BE198EFD
:103D9000F29EE2C1F6F10101F76B0F0EF96F890E89
:103DA000F86F000113EC15F019BEF28E11EF1FF041
:103DB0000101E06BE051030839E3AAC000F0010102
:103DC000E051016E04E0D8900032012EFCD7005083
:103DD000010B2AE0E16B000100DD0101DF51FA0F68
:103DE00023E2060F000118EF1FF0E0C1E1F148D512
:103DF00001011AD0E0C1E1F10DD6010115D0E0C1F9
:103E0000E1F171D6010110D0E0C1E1F1F6D6010176
:103E10000BD0E0C1E1F13FD7010106D0E0C1E1F1F3
:103E200081D7010101D00101E02BC4D700011200AC
:103E3000E824F76AF7364B0FF66E3E0EF7220A00BB
:103E4000F550FA6E0800F550F96EEA3DF43DFE3D7E
:103E5000083E123E1C3E0101E26BE25103083CE3C6
:103E6000AAC000F00101E251016E04E0D8900032D6
:103E7000012EFCD70050010B2DE0010EE15DF90F82
:103E800020E2070F00016EEF1FF0240E0101E16F29
:103E900018D0490E0101E16F14D06E0E0101E16FDF
:103EA00010D0920E0101E16F0CD0B70E0101E16F4D
:103EB00008D0DB0E0101E16F04D00101E16901D0FE
:103EC0000101036AE251AD0FE96E000E0320EA6EB4
:103ED000E1C1EFFFE22BC1D700011200E824F76A2D
:103EE000F736F70FF66E3E0EF7220A00F550FA6E1F
:103EF0000800F550F96E8A3E923E9A3EA23EAA3ED6
:103F0000B23EBA3EDFC1AAF01200CEC1A6F0010156
:103F1000CF5303E00001808302D0000180937FEF44
:103F20002AF0320EBE6E0101E06F000127EC17F09F
:103F3000BE6A1200C69E9E96E1C1C9FF020EC6BEB1
:103F400005D09EA6FED7000EC5BC010E016E120064
:103F5000C69CC586C5B6FED700B0C59A00A0C58A66
:103F6000C588C5B8FED7C9CF01F012000101CE51F6
:103F7000FB0F41E2050F00010FEF20F00101CF53CD
:103F800002E18C8001D08C9036D0CBDF010133D0A0
:103F90000101DF6B00010CDF030E0101DF6F000187
:103FA00007DF010E0101E16F000117DCD0C1E1F173
:103FB00052DF010120D001011ED00101CF51FC0FC1
:103FC00018E2040F0001FEEF1FF0C580C5B0FED758
:103FD00001010FD0C584C5B4FED701010AD0D0C1FC
:103FE000E1F1A8DF010105D0006AB2DF010101D0D3
:103FF000010101D00101000199EF2AF0E824F76ADC
:10400000F736170FF66E400EF7220A00F550FA6EDB
:104010000800F550F96ECA3FD43FDE3FE83FE82480
:10402000F76AF736390FF66E400EF7220A00F550A0
:10403000FA6E0800F550F96E7C3F8A3F903FB63F1C
:10404000BA3F80A302D080A534D0A6C000F0A7510B
:10405000016E04E0D8900032012EFCD70050010B15
:1040600023E0A7C0DFF1CAEC1BF002C0CFF101C012
:10407000CEF1A7390101D06FD037E00ED017CF5164
:10408000036AD01303C0D1F1CEC1D2F1D36B0C0EB1
:10409000D76F0001F9EC18F0D0C1D7F1F9EC18F0A6
:1040A000D2C1D7F1F9EC18F0010EA725070BA76FC5
:1040B00080953EEF2BF080AF07D0809F330E016ECE
:1040C000000E026E23D01CD0800E0101C225E36FCA
:1040D0005D0EC321F2CFE5F1F29EF86AF76EE3C1FF
:1040E000F6FF0900F5500800F5CF03F0F86AE5BFC8
:1040F000F28EE16F03C0E2F1020EC227000EC3236D
:104100000101E1C101F0E2C102F000011200010170
:104110005B530FE05B07D8905B35036A5C0FE96E79
:10412000010E0320EA6EEFCF01F0E92AEF50E90615
:10413000026E000112000101195312E01907D89014
:104140001935036A1B0FE96E010E0320EA6EECCFEE
:10415000E0F1ED52EFCFDFF1DFC101F0E0C102F09D
:104160000001120001015B511F0811E35B515B2B41
:10417000006ED89000360050036A5C0FE96E010EA5
:104180000320EA6EE2C1ECFFED52E1C1EFFF000156
:104190001200010119511F080EE3D8901935036A66
:1041A0001B0FE96E010E0320EA6EE2C1ECFFED5237
:1041B000E1C1EFFF192B000112000101E76BE86B71
:1041C000010EE96FDA6AD96AEC6FDF0EEB6F010E50
:1041D000EA6EE30EE96EECC1E2FFEBC1E1FFE9C17B
:1041E000EAF1D890E550EE02F350E723F450E823CB
:1041F000EA2FF7D7E7C1DEFFE8C1E7F1E86BD8B0F7
:10420000E82BEB2BD8B4EC2BE92BE9510508DFE1C7
:10421000000141EF21F0016A026A006A036A0101AC
:10422000E55102E1E45118E0100EE66FD890E23754
:10423000E33700360336E551035C02E1E451005CEC
:1042400007E3E451005ED8A00306E551035ED88081
:1042500001360236E62FEAD70001120088C0E2F1EB
:1042600087C0E1F186C0E0F185C0DFF1410E0101B8
:10427000E66FC60EE56F4E0EE46F6D0EE36F000144
:104280009CD7390E010100240001856F300E010119
:1042900001200001866F000E010102200001876FDE
:1042A000000E010103200001886F87C000F088C064
:1042B00001F0026A036A88C0E1F187C0E0F188C0BA
:1042C000E3F187C0E2F17F0E0101E56FE4690001CF
:1042D000A2DF00C001F003C002F0C8EF25F0010129
:1042E0001551152B036AD50FE96E000E0320EA6EF7
:1042F000DFC1EFFF1551152B036AD50FE96E000ED4
:104300000320EA6EE051EF6E0001E1EC19F01200BB
:104310008988320E0101E06F000127EC17F08998BF
:10432000020E0101DF6FFA0EE06F000127EC17F0BB
:104330000101DF2FF8D70001EBD712000101E16B7B
:10434000E151030825E3AAC000F00101E151016E2B
:1043500004E0D8900032012EFCD70050010B16E08B
:10436000036AE151AD0F016E000E032203C0E3F1B9
:10437000036AE151AD0FE96E000E0320EA6EE051D1
:10438000EF24E3C1EAFF01C0E9FFEF6EE12BD8D7CC
:1043900000011200006A016A0101DF51D890E0B10A
:1043A000002600320132E0B3002600320132E0B5CF
:1043B000002600320132E0B7002600320132E0B9B7
:1043C000002600320132E0BB002600320132E0BD9F
:1043D000002600320132E0BF002600320132000127
:1043E000DEEF28F00101D96BD86BD0AF6DD0020E93
:1043F000C225D86F000EC321D96FE06BD0C1DFF1A9
:104400003F0EDF17E06BDFC1E0F1DF6B000153DE31
:1044100002C003F001C002F0D89002360336025009
:104420000101DF25C26F0350E021C36F000143DEAD
:1044300002C0D3F101C0D2F10101D0AD12D0D16BD5
:10444000030ED225016E000ED321036E01500352DC
:1044500003E10150D15D05E2000159DE0101D12BDC
:10446000EFD7D16BD35303E1D251D15D0EE20001FE
:1044700062DE02C0E0F101C0DFF102C0E2F101C082
:10448000E1F170DE0101D12BEDD7E26B19C1E1F151
:10449000000168DED9C1E2F1D8C1E1F163DE020EAC
:1044A0000101D225016E000ED321036E01505B5D28
:1044B000DF6F000E0354E06FE26FDFC1E1F1000136
:1044C00051DE20EF29F00101D051000A0001D8B4DB
:1044D00055D1010AD8B45CD1030AD8B465D1010A18
:1044E000D8B479D1070AD8B491D1010AD8B4C6D1C9
:1044F000030AD8B4E1D1010AD8B413D20F0AD8B450
:1045000010D2010AD8B44CD2030AD8B487D2010A17
:10451000D8B4A2D2070AD8B4C6D2010AD8B4C8D235
:10452000030AD8B4C8D2010AD8B4DED21F0AD8B45C
:10453000F6D2010AD8B400D3030AD8B405D3010ACD
:10454000D8B406D3070AD8B40BD3010AD8B412D30F
:10455000030AD8B41BD3010AD8B426D30F0AD8B49F
:1045600023D3010AD8B420D3030AD8B41DD3010A37
:10457000D8B41AD3070AD8B417D3010AD8B414D3BD
:10458000030AD8B411D3010AD8B40ED33F0AD8B461
:104590000BD3010AD8B408D3030AD8B47FEF26F0AE
:1045A000010AD8B48FEF26F0070AD8B4ABEF26F093
:1045B000010AD8B4C9EF26F0030AD8B4F4EF26F004
:1045C000010AD8B425EF27F00F0AD8B453EF27F02B
:1045D000010AD8B479EF27F0030AD8B47DEF27F0A9
:1045E000010AD8B486EF27F0070AD8B4B1EF27F054
:1045F000010AD8B4B3EF27F0030AD8B4B5EF27F017
:10460000010AD8B4B9EF27F01F0AD8B4BDEF27F0DC
:10461000030AD8B4C1EF27F0060AD8B4C4EF27F0D4
:10462000010AD8B4C7EF27F0020AD8B4CAEF27F0BE
:104630000A0AD8B4CDEF27F00D0AD8B4D0EF27F08E
:10464000030AD8B4D0EF27F0090AD8B4E7EF27F06F
:10465000060AD8B4F3EF27F0030AD8B4F3EF27F033
:10466000010AD8B4F7EF27F07F0AD8B4FBEF27F0A0
:10467000010AD8B4FFEF27F0030AD8B403EF28F0FB
:10468000060AD8B407EF28F0010AD8B40CEF28F0D6
:10469000030AD8B42AEF28F0010AD8B444EF28F06E
:1046A0000F0AD8B455EF28F07F0AD8B466EF28F087
:1046B0000F0AD8B466EF28F0710AD8B466EF28F074
:1046C000030AD8B466EF28F0010AD8B466EF28F0E0
:1046D000070AD8B466EF28F0010AD8B466EF28F0CC
:1046E000030AD8B466EF28F0770AD8B483EF28F02D
:1046F000030AD8B483EF28F0750AD8B483EF28F002
:104700001F0AD8B483EF28F0010AD8B483EF28F049
:10471000030AD8B483EF28F0010AD8B483EF28F055
:10472000070AD8B483EF28F0010AD8B4A6EF28F01E
:10473000030AD8B4AAEF28F0010AD8B4AEEF28F0E3
:104740000F0AD8B4AEEF28F0010AD8B4AEEF28F0C3
:10475000030AD8B4E6EF28F0010AD8B4F2EF28F043
:10476000070AD8B4F7EF28F0010AD8B4FCEF28F014
:10477000030AD8B408EF29F01EEF29F08099929827
:10478000899801019D6B9C6B9F6B9E6B21EF29F0BB
:1047900092DC01C0DAF10101E26BDAC1E1F1000162
:1047A000F8DC010121EF29F086DC01C0DBF183DCBC
:1047B00001C0DCF1DBC1DEF10101DD6BDC51DD2785
:1047C000000EDE23DEC1E2F1DDC1E1F10001E1DC3A
:1047D000010121EF29F0020E0101C225DF6F000E59
:1047E000C321E06FE26FDFC1E1F10001D2DC63DCE5
:1047F00002C003F001C002F0D89002360336025026
:104800000101C2270350C32321EF29F094DC02C029
:10481000D9F101C0D8F10101C351D95D09E303E128
:10482000D851C25D05E2D9C1C3F1D8C1C2F124D0CB
:10483000D9C1C3F1D8C1C2F100017DDC02C09FF132
:1048400001C09EF101019F5303E19E51010804E262
:104850009E51D8B49F079E079E2D02D09F530CE017
:104860009FC1E2F19EC1E1F1000193DCC3C1E2F11D
:10487000C2C1E1F18EDC010121EF29F05CDC0150C5
:10488000021007E058DC57DC02C0C3F101C0C2F1DE
:1048900010D051DC02C0C3F101C0C2F1C3C1E2F1CA
:1048A000C2C1E1F176DC050E0101E06F000127ECE9
:1048B00017F0010121EF29F05BEC20F002C003F0BA
:1048C000D89001340101D86F0334D96F00011FDC87
:1048D00002C0D3F101C0D2F1D3C1E2F1D2C1E1F102
:1048E00041DC0101D851D225DF6FD951D321E06FCE
:1048F000D890DF35026EE035036E02505C0FE96E32
:10490000010E0320EA6EECCFE0F1ED52EFCFDFF1C4
:10491000E0C1E2F1DFC1E1F100013BDC010121EF87
:1049200029F00101D051080806E1000104DC02C0B1
:10493000D9F101C0D8F1000187EC20F002C0D3F119
:1049400001C0D2F187EC20F002C0C3F101C0C2F176
:1049500087EC20F002C0D5F101C0D4F10101D5539C
:1049600008E11951D45D05E200019BEC20F0F6D777
:104970000101D35308E15B51D25D05E2000187ECF0
:1049800020F00101F6D7D051080808E1D9C1E2F1C1
:10499000D8C1E1F10001C9EC20F0010121EF29F0BB
:1049A0009BEC20F002C09DF101C09CF19BEC20F03B
:1049B00002C09FF101C09EF1C3C1E2F1C2C1E1F1A9
:1049C000C9EC20F001019F5303E19E51010813E25D
:1049D0009FC1E2F19EC1E1F10001C9EC20F09DC14F
:1049E000E2F19CC1E1F1C9EC20F09DC1C3F19CC191
:1049F000C2F111D001019E2D07D09F5305E19DC149
:104A0000C3F19CC1C2F108D000019BEC20F002C0B0
:104A1000C3F101C0C2F1010121EF29F09BEC20F0AC
:104A200002C0D3F101C0D2F19BEC20F002C0D5F15D
:104A300001C0D4F10101D451D5110CE0C3C1E2F1A0
:104A4000C2C1E1F10001C9EC20F0D3C1C3F1D2C170
:104A5000C2F1010121EF29F09BEC20F002C0D3F15B
:104A600001C0D2F19BEC20F002C0D5F101C0D4F11D
:104A70009BEC20F002C0D7F101C0D6F1C3C1E2F136
:104A8000C2C1E1F1C9EC20F00101D651D71105E016
:104A9000D5C1C3F1D4C1C2F104D0D3C1C3F1D2C1D5
:104AA000C2F121EF29F091EC1FF0010121EF29F073
:104AB000010121EF29F09BEC20F002C09DF101C023
:104AC0009CF1C3C1E2F1C2C1E1F1C9EC20F09DC18A
:104AD000E2F19CC1E1F1C9EC20F09DC1C3F19CC1A0
:104AE000C2F1010121EF29F09BEC20F002C09DF101
:104AF00001C09CF101019F6B9E6BE26BE16B0001B9
:104B0000C9EC20F09DC1E2F19CC1E1F1C9EC20F0BB
:104B10009DC1C3F19CC1C2F1010121EF29F09BECC1
:104B200020F0D890010101340001B66F0101023478
:104B30000001B76F010185D3B9C0E2F1B8C0E1F15E
:104B4000C9EC20F001017DD3B96BB86B010179D3B9
:104B50009BEC20F002C0D9F101C0D8F1010171D362
:104B60000101E26BB5C0E1F10001C9EC20F08097D2
:104B7000010167D3000E80B7010E0101DF6FE26B08
:104B8000E16F0001C9EC20F001015BD32EEF21F0B1
:104B900002C0E0F101C0DFF102C0E2F101C0E1F1C9
:104BA000C9EC20F001014DD39BEC20F002C0D5F1FF
:104BB00001C0D4F19BEC20F002C0D3F101C0D2F1CE
:104BC000170E0101D05DF50FD8B090D00B0F00018A
:104BD00024EF29F00101D451D227D551D32386D017
:104BE0000101D451D25FD551D35B80D0196AF2BE96
:104BF000198EF29ED3C103F2D2C102F2D5C105F2E1
:104C0000D4C104F28DEC0DF019BEF28E02C0D3F1C6
:104C100001C0D2F101016AD0D3C1E3F1D2C1E2F106
:104C2000D5C1E5F1D4C1E4F10BEC21F002C0D3F120
:104C300001C0D2F101015AD0D3C1E3F1D2C1E2F1F6
:104C4000D5C1E5F1D4C1E4F10BEC21F000C0D2F103
:104C5000010103C0D3F14AD00101D451D25D03E177
:104C6000D551D35D02E0000E01D0010ED36BD26F9F
:104C70003DD00101D551D35D04E305E1D251D45DAE
:104C800002E3000E01D0010ED36BD26F2FD00101D1
:104C9000D351D55D04E305E1D451D25D02E3000EAA
:104CA00001D0010ED36BD26F21D00101D251D311AB
:104CB00003E0D451D51102E1000E01D0010ED36BF7
:104CC000D26F14D00101D251D31105E1D451D511C5
:104CD00002E1000E01D0010ED36BD26F07D00101AB
:104CE000D451D21BD551D31B01D00101D3C1E2F164
:104CF000D2C1E1F10001C9EC20F00101A2D29BEC8C
:104D000020F001500210000ED8B4010E0101DF6F37
:104D1000E26BE16F0001C9EC20F0010192D29BEC43
:104D200020F002C0D9F101C0D8F19BEC20F002C004
:104D3000E0F1D89001010134026EE035036E0250BB
:104D4000A00FE96E010E0320EA6ED9C1ECFFED520F
:104D5000D8C1EFFF76D29BEC20F002C0E0F1D890F2
:104D600001010134026EE035036E0250A00FE96EBE
:104D7000010E0320EA6EECCFE0F1ED52EFCFDFF150
:104D8000E0C1E2F1DFC1E1F10001C9EC20F0010175
:104D900058D29BEC20F002C0D5F101C0D4F19BECBD
:104DA00020F0D89001010134D26F0234D36F00019A
:104DB0009BEC20F001C0D8F10101670E0224D96FED
:104DC000D251D825DF6FD351D921E06FE26FDFC117
:104DD000E1F1000110EC19F0D5C1E0F1D4C1DFF12F
:104DE0006FEC21F001012DD29BEC20F0D890010155
:104DF0000134D26F0234D36F00019BEC20F001C06C
:104E0000D8F10101670E0224D96FD251D825DF6F86
:104E1000D351D921F2CFE1F1F29EF86AF76EDFC1EA
:104E2000F6FF0900F5500800F5CF03F0F86AE1BF7E
:104E3000F28ED46F03C0D5F1D5C1E2F1D4C1E1F156
:104E40000001C9EC20F00101FCD19BEC20F002C074
:104E5000D9F101C0D8F10101C1C103F0C051C02B8B
:104E6000D8B4C12BC00FDF6F590E0320E06FE26F83
:104E7000DFC1E1F1000110EC19F0D9C1E0F1D8C1B6
:104E8000DFF16FEC21F0760E0101E26F080EE16FA9
:104E9000000110EC19F0C1C1E0F1C0C1DFF16FEC0D
:104EA00021F00101CED10101C1C103F0C051C02BDD
:104EB000D8B4C12BC00FDF6F590E0320F2CFE1F140
:104EC000F29EF86AF76EDFC1F6FF0900F5500800A0
:104ED000F5CF03F0F86AE1BFF28ED86F03C0D9F1C5
:104EE000D9C1E2F1D8C1E1F10001C9EC20F0010122
:104EF000A8D10101C16BC06BA4D19BEC20F0D8906C
:104F000001010134C06F0234C16F9BD19BEC20F0D2
:104F1000D89001010134D26F0234D36FD96BD86BB2
:104F2000D951D35D1BE303E1D251D85D17E2C00E26
:104F3000D825DF6F590ED921E06FE26FDFC1E1F1B3
:104F4000000110EC19F00101E06BDF6B00016FEC68
:104F500021F00101D82BD8B4D92BE2D7C16BC06B9B
:104F600070D101016ED101016CD1010EAA6F010156
:104F700068D1020EAA6F010164D1030EAA6F01016C
:104F800060D10101D12B00010101D12B00010101F0
:104F9000D12B00010101D12B00010101D12B000116
:104FA000D1C1DFF1D8EC1EF00101D05132080EE181
:104FB00000019BEC20F0D890010101340001B66F94
:104FC000010102340001B76F808F01013AD19BECDF
:104FD00020F002C0E0F101C0DFF101C0E1F12BECF3
:104FE0001FF001012ED188EC21F001012AD1040E1D
:104FF000AA6F010126D1080EAA6F010122D10C0E61
:10500000AA6F01011ED10F0EAA6F01011AD180995A
:1050100092988998010115D19BEC20F0F2CFE1F133
:10502000F29EF86A02C0F7FF01C0F6FF0900F550D2
:105030000800F5CF03F0F86A0101E1BFF28EDF6FDF
:1050400003C0E0F103C0E2F1E16F0001C9EC20F020
:105050000101F7D09BEC20F002C0D3F101C0D2F1E6
:105060009BEC20F002C0D5F101C0D4F1D5C1E2F132
:10507000D4C1E1F110EC19F0D3C1E0F1D2C1DFF1FC
:105080006FEC21F00101DDD09BEC20F002C0E0F1DB
:1050900001C0DFF10101E06BE0C1E2F101C0E1F12B
:1050A0000001C9EC20F00101CCD09BEC20F002C043
:1050B000E0F102C0DFF10101E06BE0C1E2F102C00A
:1050C000E1F10001C9EC20F00101BBD00101D05198
:1050D000480804E3370ED05DD16F04D0490ED05D8F
:1050E000020FD16FD1C1DFF10001CAEC1BF002C089
:1050F000E0F101C0DFF102C0E2F101C0E1F1C9EC71
:1051000020F001019ED00101D0514E0804E3390E78
:10511000D05DD16F04D04F0ED05D020FD16FD1C1E1
:10512000DFF10001CAEC1BF002C0E0F1010102C096
:10513000DFF1E06BD890E033DF33E0C1E2F1DFC1B3
:10514000E1F10001C9EC20F001017BD095908C8049
:10515000010177D095908C90010173D00101DF6B34
:105160000001D8EC1EF0030E0101DF6F0001D8EC46
:105170001EF0010E0101E16F0001EDEC1BF09BEC54
:1051800020F001C0D1F10101D051570807E1D1C190
:10519000E1F100012BEC1FF017D00101D0515808AC
:1051A00007E1D1C1E0F100019EEC21F00DD0010139
:1051B000DF69D1C1E0F10001CAEF21F001C0DFF1E8
:1051C00001C0E0F19EEC21F001013BD09BEC20F00E
:1051D00002C0D3F101C0D2F1D2C1DFF182EC1FF0E5
:1051E00001012FD0C580C5B0FED701012AD0C584EA
:1051F000C5B4FED7010125D09BEC20F002C0E0F140
:1052000001C0DFF101C0E1F19AEC1FF0010119D0FA
:105210009BEC20F002C0E0F101C0DFF101C000F022
:10522000A8EC1FF001C0DFF10101E26B01C0E1F168
:105230000001C9EC20F0010104D0000188EC21F04C
:10524000010100014DEF2BF0E824F76AF736630FF8
:10525000F66E520EF7220A00F550FA6E0800F5506D
:10526000F96ED44BE04BEC4B184C384C584C724C0C
:105270008E4CAA4CC44CDE4CF86AD09E078EEA6A6B
:10528000E96A93829380770EC86E280EC66EC78E29
:10529000C79CA76B80938095A96BAB6BAC6B040E1E
:1052A000B26FB36BB46B80978099809B809DB76B16
:1052B000B66BB96BB86BBA6BCF6BD06BD16BD26B73
:1052C000D46BD36B0101156B186B9D6B9C6B9F6B43
:1052D0009E6B0001809FC150C00B0F09C16E070E6D
:1052E000B46E1E6A040E1F6E0C0E206E836B846BF0
:1052F0000E0E896F7C0E8A6F0B0E8B6F7C0E8C6F7F
:105300001D0E8D6F7C0E8E6F1A0E8F6F7C0E906F40
:105310000D0E916F7C0E926F0A0E936F7C0E946F40
:105320001C0E956F7C0E966F160E976F7C0E986F05
:105330000C0E996F7C0E9A6F1F0E9B6F7C0E9C6FEC
:105340001B0E9D6F7C0E9E6F170E9F6F7C0EA06FC5
:10535000AD69AE69AF69B069B1690101A06BA16BBC
:10536000A26BA36BA46BA56BA66BA76BA86BA96BB9
:10537000AA6BAB6BAC6BAD6BAE6BAF6BB06BB16B69
:10538000B26BB36BB46BB56BB66BB76BB86BB96B19
:10539000BA6BBB6BBC6BBD6BBE6BBF6B000109EF27
:1053A00017F05EEF17F0196AF2BE198EF29EE6EC66
:1053B0000DF019BEF28E36EF18F025EC18F05BEF09
:1053C00018F004EF1AF0A1510508D8A455D1A25144
:1053D000F80FD8B0BFD0080F55EF2BF0550E0101D4
:1053E000D76F0001F9EC18F00101D7690001F9EC61
:1053F00018F0AA0E0101D76F0001F9EC18F0010EA8
:105400000101D76F0001F9EC18F0300E0101D76FE0
:105410000001F9EC18F0010E0101D76F0001F9EC61
:1054200018F098D0A2EF1BF095D0A3C0DFF1CAEC22
:105430001BF002C0C7F101C0C6F1C7C1CEF1010126
:10544000CF6BC6C1D0F1D16B550ED76F0001F9EC0F
:1054500018F00101D7690001F9EC18F0CEC1D7F1BD
:10546000F9EC18F0D0C1D7F1F9EC18F073D0A3C063
:10547000DFF1D8EC1EF0550E0101D76F0001F9ECF9
:1054800018F00101D7690001F9EC18F0AA0E01012A
:10549000D76F0001F9EC18F05DD0A3C0E1F12BEC5F
:1054A0001FF0550E0101D76F0001F9EC18F0010152
:1054B000D7690001F9EC18F0AA0E0101D76F0001BD
:1054C000F9EC18F047D0A5C0DFF182EC1FF0550EC3
:1054D0000101D76F0001F9EC18F00101D769000153
:1054E000F9EC18F0AA0E0101D76F0001F9EC18F0E1
:1054F00031D0A5C0CEF1A4C0CFF185EF1FF0550E7D
:105500000101D76F0001F9EC18F00101D769000122
:10551000F9EC18F0AA0E0101D76F0001F9EC18F0B0
:1055200019D0A3C0CEF1A4C0CFF1A5C0D0F1B6EF81
:105530001FF0550E0101D76F0001F9EC18F00101C1
:10554000D7690001F9EC18F0AA0E0101D76F00012C
:10555000F9EC18F0A2510608D8A48BD0A351030887
:10556000D8A487D00101CF6BA4C0CEF1A4C0CFF1E5
:10557000CE6B0001A5510101CE27000ECF23CE3501
:10558000C86FCF35C96FC837C937C837C937C837AB
:10559000C937C837C937E00EC817C85315E1C95312
:1055A00013E1F2CFCEF1F29EF86A760EF76E080E96
:1055B000F66E0900F5500800F5CF03F0F86ACEBF8B
:1055C000F28EC86F03C0C9F1D890C837C937C8C1B7
:1055D000CEF1CF6BC9C1D0F1D16BEE0ED76F000108
:1055E000F9EC18F0110E0101D76F0001F9EC18F079
:1055F000CEC1D7F1F9EC18F0D0C1D7F1F9EC18F021
:10560000D8900101C933C833CB6BCA6BCB51C95D8C
:105610002FE303E1C851CA5D2BE2C00ECA25CE6F4D
:10562000590ECB21F2CFD0F1F29EF86AF76ECEC1BF
:10563000F6FF0900F5500800F5CF03F0F86AD0BF77
:10564000F28ECC6F03C0CDF1CCC1CEF1CF6BCDC10A
:10565000D0F1D16BCCC1D7F10001F9EC18F0D0C179
:10566000D7F1F9EC18F00101CA2BD8B4CB2BCED767
:105670000001010EA16F02D021EF20F080A90DD012
:10568000B651B7110AE15BEC20F002C0CFF101C0C6
:10569000CEF101C0D0F1F2EF21F0BA51020803E2DD
:1056A000010EA16FBA6B8BD60300E824F76AF736B8
:1056B000C50FF66E560EF7220A00F550FA6E080076
:1056C000F550F96EDC532A546E549A54C654F25471
:0456D00022552454E7
:020000040030CA
:0E00000024CE3E1E0087A1000FC00FE00F406F
:00000001FF
;PIC18F4550
;CRC=81B6  CREATED="23-Jun-13 14:43"
